:020000040800F2
:10000000D0060020810200082B1E0008CD18000831
:10001000291E000873060008B12200080000000035
:100020000000000000000000000000002122000885
:1000300075060008000000002D1E0008232200089D
:100040009B0200089B0200089B0200089B0200081C
:100050009B0200089B0200089B0200089B0200080C
:100060009B0200089B0200089B0200089B020008FC
:100070009B0200089B0200089B0200089B020008EC
:100080009B020008000000009B0200089B02000881
:100090009B0200089B0200089B0200089B020008CC
:1000A0009B0200089B0200089B0200089B020008BC
:1000B0009B0200089B0200089B0200089B020008AC
:1000C0009B0200089B0200089B0200089B0200089C
:1000D0009B0200089B0200089B0200089B0200088C
:1000E0009B020008452100089B0200089B020008B3
:1000F0009B0200089B0200089B0200080000000011
:10010000000000009B020008000000009B020008A5
:100110009B020008000000009B0200089B020008F0
:100120009B0200089B0200089B0200089B0200083B
:100130009B02000800000000000000009B02000875
:100140009B0200089B020008000000000000000065
:10015000000000000000000000000000000000009F
:100160000000000000000000000000009B020008EA
:100170009B020008000000000000000000000000DA
:10018000000000009B0200080000000000000000CA
:10019000000000000000000000000000000000005F
:1001A00000000000000000009B0200089B02000805
:1001B0009B0200089B0200089B0200080000000050
:1001C000000000009B02000800000000000000008A
:1001D0009B0200089B02000800F002F800F041F8C2
:1001E0000AA090E8000C82448344AAF10107DA4592
:1001F00001D100F036F8AFF2090EBAE80F0013F0A3
:10020000010F18BFFB1A43F0010318471034000018
:1002100030340000103A24BF78C878C1FAD85207A9
:1002200024BF30C830C144BF04680C607047000070
:100230000023002400250026103A28BF78C1FBD8EF
:10024000520728BF30C148BF0B607047642900F0D7
:100250007380002070471FB502F0EAF81FBD10B58B
:1002600010BD00F0CCF91146FFF7F5FF02F0C0F821
:1002700000F0EAF903B4FFF7F2FF03BC00F0F2F973
:100280000948804709480047FEE7FEE7FEE7FEE72A
:10029000FEE7FEE7FEE7FEE7FEE7FEE70448054966
:1002A000054A064B7047000095220008D901000856
:1002B000D0000020D0060020D0020020D002002074
:1002C0000FB41CB5074B06AA7B44694600900598FD
:1002D00000F07DF90020694600F08CF91CBC5DF847
:1002E00014FB00002903000070B50446856900680E
:1002F000C10601D5302600E02026C00707D070BD1A
:10030000D4E9012130469047206A401C20626D1ECE
:10031000F6D570BD70B5044685690078C00707D171
:1003200070BDD4E9012120209047206A401C206242
:100330006D1EF6D570BD00002DE9F0410646002483
:1003400010687529314616A510D0AFF3008000283B
:1003500002DA404213A507E031688A0701D512A5E9
:1003600002E0490704D511A5012401E0AFF30080A4
:1003700000210A2206F1240709E0B0FBF2FCB0FBE1
:10038000F2F302FB1C00303078541846491C002858
:10039000F3D123462A463046BDE8F04100F0B9B813
:1003A000000000002D0000002B00000020000000D5
:1003B0002DE9F0474FF0000A89460446C0F820A016
:1003C0002046E1688847002876D0252806D0D4E961
:1003D00001219047206A401C2062F1E7E168204635
:1003E00000258847C4F81CA006460027C4F818A0BA
:1003F0002A2E09D0304601F06CFF38B304EB870891
:10040000303EC8F8186019E059F8041B204604EB88
:1004100087029161E1688847012F064618D1E0699B
:10042000002820DA25F020051DE0D8F8180000EBA0
:10043000800006EB40003038C8F818002046E1681C
:100440008847064601F045FF0028EED1012F0AD06B
:100450002E2E08D12046E16888477F1C0646022FD1
:1004600045F02005C4DBA069002803DA404245F0CE
:100470000105A061E80701D025F01005B6B1A6F18D
:100480004100192802D8203645F400654A46314615
:10049000204625604D46FFF7D9FE58B1012806D009
:1004A000ED1D25F0070000F1080989E704E005F1DA
:1004B000040985E730468AE7206ABDE8F0874FF0F7
:1004C000000200B5134694469646203922BFA0E8A4
:1004D0000C50A0E80C50B1F12001BFF4F7AF0907B0
:1004E00028BFA0E80C5048BF0CC05DF804EB8900A1
:1004F00028BF40F8042B08BF704748BF20F8022BE4
:1005000011F0804F18BF00F8012B704770477047FB
:1005100070472DE9F0470D4699469246044600F192
:1005200024080168880604D5E06921F010012160E3
:1005300000E00120A84201DD471B00E00027A1697F
:100540007A1902EB0900081AA0612078C00602D4CB
:100550002046FFF7C9FE002608E0D4E901211AF879
:1005600006009047206A401C761C20624E45F4DB52
:100570002078C0060AD52046FFF7B6FE06E0D4E98B
:10058000012130209047206A401C2062381EA7F1CC
:100590000107F4DC07E0D4E9012118F805009047D1
:1005A000206A401C2062281EA5F10105F3DC2046CC
:1005B000FFF7B0FE2078000602D50220BDE8F087E4
:1005C0000120FBE701694A1C02610878704700B509
:1005D0008FB0CDE901310021059105497944CDE97C
:1005E000031011466846FFF7E3FE0FB000BD0000A0
:1005F000E5FFFFFF0A6802F8010B0A6070477546C5
:1006000000F02CF8AE4605006946534620F007007E
:10061000854618B020B5FFF741FEBDE820404FF0F9
:1006200000064FF000074FF000084FF0000B21F0DC
:100630000701AC46ACE8C009ACE8C009ACE8C009A9
:10064000ACE8C0098D46704710B50446AFF3008092
:100650002046BDE81040FFF70DBE0000004870477F
:100660006C00002001491820ABBEFEE72600020006
:100670007047FEE77047002240F6B83306E00021DD
:10068000491C89B29942FBD3521C92B28242F6D3E2
:10069000704772B6FEE7000070B5044600F0F8F847
:1006A0000546601C02D004484068044400F0F0F89D
:1006B000401BA042FAD370BD000000202DE9FC4F82
:1006C000DFF8A0A1002301250AF1040B03244FF059
:1006D0000F0C0BF1040EBDE005FA03F632406FD0AB
:1006E0004F68012F05D0022F03D0112F01D0122FF8
:1006F00017D1D0F808905F0004FA07F829EA080932
:100700000097D1F80C8008FA07F848EA0908C0F801
:1007100008804768B7430E79C6F300169E403E43F3
:100720004660C6684FEA430804FA08F7BE430197DB
:100730008F6807FA08F73743C7604E68022E01D06A
:10074000122E13D1DE0800EB86060096366A5F078C
:10075000FF0E0CFA07F926EA0906D1F8109009FAFB
:1007600007F949EA0609009EC6F820900668019F2D
:10077000BE430F7907F0030707FA08F7374307600E
:100780004E68F60065D5384E376E47F0010737667C
:10079000366E23F0030706F001060096334E3E4402
:1007A000B146B6689F074FEA17780CFA08F7BE43C0
:1007B000B0F1904F05D02E4FB84204D1012717E079
:1007C00047E0002714E02B4FB84201D102270FE089
:1007D000294FB84201D103270AE0284FB84201D17E
:1007E000042705E0264FB84201D1052700E006277F
:1007F00007FA08F73743C9F80870DAF80060574677
:10080000D1F8048096435FEAC83800D516433E60AD
:10081000DBF800605F46D1F8048096435FEA8838D1
:1008200000D516433E60DEF800607746D1F80480BC
:1008300096435FEAC82800D516433E60094F0C373F
:100840003E68D1F8048096435FEA882800D51643B5
:100850003E605B1C0A6832FA03F67FF43DAFBDE8E8
:10086000FC8F000000040140001002400000014025
:100870000004004800080048000C00480010004830
:10088000001400480AB1816170478162704700001E
:10089000014880687047000000000020024881681D
:1008A00042681144816070470000002010B50024A8
:1008B000032000F073F80F2000F008F808B10124BD
:1008C00001E000F025F8204610BD000070B50E4E86
:1008D00005460024706898B14FF47A71B1FBF0F0CE
:1008E0000A490968B1FBF0F000F0DCFF40B9102DB7
:1008F00006D200222946501E00F030F8356000E094
:100900000124204670BD0000000000200C000020E3
:100910000A4882B0016E41F001010166016E01F0EA
:1009200001010091816D41F080518165806D00F081
:100930008050009002B000F0A1B80000001002400A
:10094000002809DB00F01F020121914040098000CE
:1009500000F1E020C0F8001170470000F0B40E4B29
:100960001B680C46C3F30223C3F10705042D00D90D
:100970000425191D072901D2002300E0DB1E0126F2
:1009800006FA05F1491E214099409E40761E164008
:100990003143F0BC01F08DBC0CED00E0064900F0E5
:1009A000070208684FF6FF03184040EA0220034A96
:1009B00010430860704700000CED00E00000FA05ED
:1009C0002B492C4B0A6832214A432B4940B1B0F5E0
:1009D000007F086829D020F4C06040F480602CE0DB
:1009E0000868C0F34120022804D051F8800F20F499
:1009F000807022E0D1F8800020F48070C1F880007F
:100A0000086820F4C06040F400700860B2FBF3F0A6
:100A1000401C00E0401E4A69520501D50028F9D16A
:100A2000486940050AD503207047C0F341200228D9
:100A300006D051F8800F40F48070086000207047A5
:100A4000D1F8800040F48070C1F88000086820F47C
:100A5000C06040F400700860B2FBF3F0401C00E09E
:100A6000401E4A695205DBD50028F9D1D8E70000BD
:100A70000C00002040420F000070004002488168D6
:100A800041F4804181607047007000402DE9F843D7
:100A90000446006800269D4D00035ED5A86D002722
:100AA000C00008D4A86D40F08050A865A86D01274B
:100AB00000F080500090DFF85892D9F8001041F40F
:100AC0008071C9F80010FFF7E3FE804606E000BF22
:100AD000FFF7DEFEA0EB080002282BD8D9F80000B3
:100AE000C005F5D5D5F8900010F4407014D0216CF5
:100AF000814211D0D5F89000D5F8901020F44070C4
:100B000041F48031C5F89010D5F8901021F480316F
:100B1000C5F89010C5F89000C00711D0FFF7B8FED7
:100B2000804641F2883907E0FFF7B2FEA0EB0801EA
:100B3000494501D903260BE0D5F890008007F3D58D
:100B4000D5F89000216C20F440700843C5F890005F
:100B50001FB1A86D20F08050A8652078C00707D08D
:100B6000D5F88800616820F003000843C5F88800C4
:100B70002078800707D5D5F88800A16820F00C0000
:100B80000843C5F888002078400707D5D5F88800C5
:100B9000E16820F030000843C5F88800207800079D
:100BA00007D5D5F88800216920F0C0000843C5F8B2
:100BB00088002078800607D5D5F88800616920F480
:100BC00040600843C5F888002078400607D5D5F86E
:100BD0008800A16920F440500843C5F888002078B7
:100BE000000607D5D5F88800E16920F440400843A5
:100BF000C5F888002088C00507D5D5F88800216A87
:100C000020F440300843C5F888002088800507D5C7
:100C1000D5F88800616A20F440200843C5F88800B0
:100C2000208840050FD5D5F88800A16A20F440102F
:100C30000843C5F88800A06AB0F5801F03D1E868B2
:100C400040F48010E860208800050FD5D5F88800B2
:100C5000E16A20F440000843C5F88800E06AB0F576
:100C6000800F03D1E86840F48010E8602088C00459
:100C70000FD5D5F88800216B20F040700843C5F8E7
:100C80008800206BB0F1807F03D1E86840F48010C9
:100C9000E86020884FF0006180040ED5D5F8880008
:100CA000626B20F040601043C5F88800606B88429A
:100CB00003D1E86840F48010E860208840040ED535
:100CC000D5F88800A26B20F040601043C5F888007A
:100CD000A06B884203D1E86840F48010E860208867
:100CE00000040FD5D5F88800E16B20F04050084390
:100CF000C5F88800E06BB0F1805F03D1E86840F48C
:100D00008030E8603046BDE8F88300000010024003
:100D1000007000402DE9F0470E4605004FF0000737
:100D200025D0DFF8AC81D8F8000000F00F00B04209
:100D30000CD2D8F8001021F00F013143C8F8001090
:100D4000D8F8000000F00F00B04210D12968614CC3
:100D5000C80741F2883A5AD06868DFF87C910328C6
:100D600008D0022820682DD0400500282CDB012067
:100D7000BDE8F08720688001F9D5E06800F0030243
:100D8000E068C0F30310401C032A19D0534A00BF87
:100D9000B2FBF0F0E268C2F306225043E268C2F30D
:100DA0004162521C5200B0FBF2F0484517D9A068CE
:100DB00010F0F00F0CD0880711D5A86840B10EE0F4
:100DC000474AE5E78003D0E700F092F8484506D9A6
:100DD000A06820F0F00040F08000A0608027A068AC
:100DE000696820F003000843A060FFF751FD8146C9
:100DF00006E000BFFFF74CFDA0EB090151453AD8D2
:100E0000A068696800F00C00B0EB810FF2D128688F
:100E1000810714D5400703D5A06840F4E060A060C6
:100E20002878000705D5A06820F4605040F4E06001
:100E3000A060A068A96820F0F000084304E0802FBB
:100E400003D1A06820F0F000A060D8F80010404660
:100E500001F00F01B14216D9016821F00F013143B1
:100E60000160FFF715FD074607E000BFFFF710FD23
:100E7000C11B514501D903207AE7D8F8000000F0E2
:100E80000F00B042F2D12878400705D5A068E96884
:100E900020F4E0600843A0602878000706D5A06829
:100EA000296920F4605040EAC100A06000F020F8F9
:100EB000A1680C4AC1F30311515C01F01F01C84045
:100EC0000949086009480068BDE8F047FFF7FEBC23
:100ED000002002400010024000B4C4040024F400CA
:100EE00000366E013A2400080C00002000000020AB
:100EF000184910B58868C0F381021748012A0BD041
:100F00008A68164BC2F38102022A06D08A68C2F3AD
:100F10008102032A03D0002010BD184610BDCA6804
:100F200002F00304CA68C2F30312521C032C02D05D
:100F3000B0FBF2F001E0B3FBF2F0CA68C968C2F39B
:100F400006225043C1F34161491C4900B0FBF1F056
:100F500010BD0000001002400024F40000366E01B5
:100F60002DE9F84304007AD02078FA4DC00747D025
:100F7000A868E96800F00C0001F003010C2802D019
:100F8000082817D001E0032914D06068B0F5803F2D
:100F900017D0B0F5A02F286817D020F48030286033
:100FA000286820F4802028606068E0B1FFF770FCBA
:100FB000064614E02868800322D560680028D2D055
:100FC0001EE0286840F48030EDE740F4802028607F
:100FD000F7E700BFFFF75CFC801B642870D8286827
:100FE0008003F7D50CE0FFF753FC064605E000BF91
:100FF000FFF74EFC801B6428F0D828688003F7D4E4
:10100000207880074CD5A868E96800F00C0001F052
:1010100003010C2802D004280DD001E002290AD0D7
:10102000E068002828682BD040F480702860FFF723
:101030002FFC064619E02868400502D5E068002824
:1010400091D06868217C20F0FE4040EA0160686031
:10105000C1480068FFF73AFC002800D120E076E1A3
:10106000FFF716FC801B0228B8D828684005F7D582
:101070006868217C20F0FE4040EA016068600FE073
:1010800020F480702860FFF703FC064605E000BFEF
:10109000FFF7FEFB801B0228A0D828684005F7D484
:1010A0002078000729D560690028D5F8940013D06E
:1010B00040F00100C5F89400FFF7EAFB064606E0A1
:1010C00090E000BFFFF7E4FB801B022886D8D5F82C
:1010D00094008007F6D510E020F00100C5F89400D8
:1010E000FFF7D6FB064604E0FFF7D2FB801B022881
:1010F00078D8D5F894008007F6D42078400761D5D9
:10110000A86D0026C00008D4A86D40F08050A865E6
:10111000A86D012600F08050009090480168C90534
:1011200011D40168804641F480710160FFF7B0FB83
:10113000074604E0FFF7ACFBC01B022852D8D8F8E2
:101140000000C005F6D5A068012815D00528D5F8FF
:10115000900016D020F00100C5F89000D5F890005E
:1011600020F00400C5F89000A06841F28838B8B1BA
:10117000FFF78EFB07460EE0D5F8900040F0010027
:10118000F0E740F00400C5F89000F5E7FFF780FBBA
:10119000C11B414526D8D5F890008007F6D50CE054
:1011A000FFF776FB074604E0FFF772FBC11B4145E2
:1011B00018D8D5F890008007F6D41EB1A86D20F09D
:1011C0008050A8652078800629D5A0690028D5F828
:1011D000980013D040F00100C5F89800FFF758FBC5
:1011E000064606E077E000BFFFF752FB801B0228AF
:1011F00077D8D5F898008007F6D510E020F00100E8
:10120000C5F89800FFF744FB064604E0FFF740FBF3
:10121000801B022865D8D5F898008007F6D4E069CD
:10122000F0B3A968C1F38101032961D002282868BD
:1012300020F0807028600BD0E86820F00300E860A0
:10124000E86847490840E860FFF722FB04464BE0A6
:10125000FFF71EFB064604E0FFF71AFB801B02287F
:101260003FD828688001F7D4F4E908016FF00F0235
:1012700002EB01110843218A5204490802EB415153
:10128000A26841EA02210843217D4FF07E424908CD
:1012900002EB41610843217B40EAC160E96800E05C
:1012A00062E0304A11400843E860286840F08070EE
:1012B0002860E86840F08070E860FFF7E9FA0446CB
:1012C00005E000BFFFF7E4FA001B022809D82868F0
:1012D0008001F7D548E004E0FFF7DAFA001B0228A6
:1012E00002D90320BDE8F88328688001F4D43BE0EC
:1012F0000128F7D0E868226A00F00301914226D164
:10130000616A00F0F0020901103991421FD1A26A0E
:1013100000F4FE41B1EB022F19D194F82C2000F01B
:101320007841B1EBC26F12D1218E00F4C00249089E
:101330004905A1F50011914209D194F8341000F04B
:10134000C06049084906A1F1007181420CD001201A
:10135000C8E70000001002400000002000700040BC
:10136000FFFFEEFE0C809F010020BBE770470000EE
:101370000149012008707047100000202DE9F04756
:1013800081460F4804680F4EDFF83C80E0074FF0BD
:1013900001054FF4003705D03560C8F800704846A5
:1013A000FFF7E6FFA00706D502203060C8F80070FE
:1013B0004846FFF7DBFF89F82550BDE8F0870000BD
:1013C000542800405C280040140401400F4810B528
:1013D0000B4601680E480140080CD870C1F3042484
:1013E0005C7001F03F049C70C1F34231197052B936
:1013F00000F0AEFED870587800F0AAFE58709878C9
:1014000000F0A6FE9870002010BD000004280040E7
:101410003FFFFF00144810B500680B4648601248B3
:1014200008300068C0F30E0088600F480838016873
:101430000E480140C1F305401870C1F306245C70EA
:1014400001F07F049C70890DD97052B900F080FEC4
:101450001870587800F07CFE5870987800F078FE8C
:101460009870002010BD0000082800407F7F7F009A
:1014700070B504004FF001003ED094F8250028B963
:10148000002084F82400204600F03CF8022084F874
:1014900025001A4ECA20306053203060204600F0EC
:1014A0006DFE10BB154D0C3D28681549084028609D
:1014B00028686168A26908432169114308432860CC
:1014C0002189E06840EA01400C491439086020464F
:1014D00000F07AFE48B9D4E90721114362692B680C
:1014E00023F060431A4311432960FF213160002833
:1014F00002D1012184F8251070BD0000242800408D
:10150000BFFF8FFB10B592B0044644216846FEF73A
:10151000D6FF14492068884221D14FF40020009062
:10152000801210906846FFF7B1FA08B1FFF7B1F8E2
:101530000D4850F8901F41F4004140F838190168F7
:1015400041F4806101600068002200F48060119025
:1015500011462920FFF702FA2920FFF7F1F912B00E
:1015600010BD000000280040001002402DE9F05F8F
:10157000044690F824000B46012848D04FF0010B98
:1015800084F824B0022084F8250059480026006819
:101590004FEA4060D2B3002800DBDE7098781978FB
:1015A000DA7840EA01405978090241EA8251084359
:1015B00093F8201040EA0165D8695F6805435869CF
:1015C000DFF82C910543986909F10C090743CA21FA
:1015D000C9F800105321C9F800104549586A443130
:1015E000B0F5807F4248434B4FF40032D0F800C042
:1015F0004FF0FF0A28D02CF4085CC0F800C002208D
:1016000008601A60FFF744F980464EE002E00220CD
:10161000BDE8F09F002800DBDE70187800F0A1FD27
:101620000504587800F09DFD45EA0025987800F003
:1016300098FD0543D87845EA805593F8200000F0DE
:1016400090FD45EA0065B7E72CF4885CC0F800C05F
:10165000C1F800B01A60FFF71BF9804607E000BF31
:10166000FFF716F9A0EB0800B0F57A7F15D82048EF
:101670000C380068C007F3D01D4828300560001DF5
:1016800007601B48016841F488511CE0FFF700F92E
:10169000A0EB0800B0F57A7F07D9C9F800A00320B5
:1016A00084F8250084F82460B2E711480C380068FB
:1016B0008007EBD50E4830300560001D07600C48F0
:1016C000016841F4085101600A481438016841F486
:1016D0000031016007480C38016841F400310160B5
:1016E000C9F800A084F825B084F8246000208FE7B2
:1016F00018280040140401402DE9F041044690F8F8
:1017000024000B4601281AD0012684F82460022008
:1017100084F82500B2B19878D97840EA0145587824
:101720001978000240EA413005431B4FCA20386057
:1017300053203860204600F021FDD8B122E002207D
:10174000BDE8F0815878C10603D500F0EF000A30FB
:101750005870D87800F005FD0504587800F001FDB8
:1017600045EA0025987800F0FCFC0543187845EA26
:101770004035DAE70948054007482038056020462B
:1017800000F022FDFF21396008B984F825600021AE
:1017900084F82410D4E70000242800403FFFFF0015
:1017A0002DE9F047054690F8240017460C4601281D
:1017B00014D04FF0010985F82490022085F8250007
:1017C000DFF8A480CA21C8F800105321C8F800101F
:1017D000284600F0D3FC002618B127E00220BDE81F
:1017E000F087214B0C3B18684FEA40601FB300287C
:1017F00000DBE670A0782178E27840EA0140617869
:10180000090241EA8251084318490840164924391F
:101810000860186820F480201860D4E903010843A8
:10182000196808431860284600F0CEFCFF22C8F86B
:101830000020A0B115E0002800DBE670207800F061
:1018400090FC0704607800F08CFC47EA0027A07841
:1018500000F087FC0743E07847EA8050D4E785F83A
:10186000259085F82460BAE7242800407F7F7F0018
:1018700070B50B4D286860F0A0002860FFF708F8ED
:1018800004464FF47A7606E0FFF702F8001BB042F8
:1018900001D9032070BD28688006F5D5002070BDF1
:1018A0000C28004010B5401EB0F1807F01D301200C
:1018B00010BD4FF0E02460610F21601700F0F9FCCB
:1018C0000020A06107202061002010BDFEE700007D
:1018D00000B585B014216846FEF7F1FD4FF6FF70A4
:1018E000009000200321CDE90201019069460248E1
:1018F000FEF7E4FE05B000BD0008004800B585B065
:1019000014216846FEF7DBFD4FF6FF7000900120C2
:101910000190032003900020029069460248FEF7E0
:10192000CDFE05B000BD0000000800482DE9F041E3
:101930000A4E80463068002485B22146204600F0D9
:1019400017F900F055F94FF49637404600F024F9A6
:10195000641CBC42F9D33560BDE8F081140800482E
:1019600030B587B014216846FEF7A9FD1E48C16C4A
:1019700041F00401C164C16C01F004010591C16C26
:1019800041F00101C164C16C01F001010591C16C1C
:1019900041F00201C164C06C012500F00200059015
:1019A0004FF44870CDE90005002403946946029481
:1019B0000E48FEF783FE280203940090CDE90154FF
:1019C0004FF0904469462046FEF778FEFFF796FFF9
:1019D000A06940F48070A06104481830016841F4A7
:1019E0000871016007B030BD0010024000040048DB
:1019F000203AD2B2034B02EB420203EB021200F098
:101A000023B800004A2400082DE9F043DFF83480B1
:101A100081460E46D8F80000002587B240F23F14F8
:101A200007E021464846FFF7E3FF103C6D1CA4B2D7
:101A3000761C32780AB1142DF3D3C8F80070BDE8D3
:101A4000F0830000140800482DE9F04791468A46CB
:101A50000026044600F08CF8DFF84080012700BF24
:101A600000F0C6F85FF0000539F8160007FA05F136
:101A70000842404601D1408800E0008800F08CF820
:101A80006D1C102DF0D3641CE4B25146204600F0CA
:101A90006FF8761C182EE3D3BDE8F08716000020FF
:101AA00070B50D4E306885B2FFF75AFF002000F088
:101AB00017F80A4CA080A088A0F50241303907D061
:101AC00000F03EFA002000F00BF8A080356070BDF9
:101AD00000F0ADF9F6E700001408004816000020F9
:101AE00070B51D490A6842F400720A600A6842F43F
:101AF00080720A60184C103C226842F0200222607A
:101B0000164A1060086840F02000086000BF00BF5F
:101B100000BF206840F020002060206840F4807002
:101B20002060FFF7D5FE4FF09041886A40F4807046
:101B3000886200BF00BF00BF0848001F006885B270
:101B4000886940F480708861FFF7D8FE206840F40F
:101B500000702060284670BD280400481408004822
:101B600001B5BDF800000149488008BD16000020FD
:101B700010B50C460146202000F068F82146BDE86B
:101B80001040212000F062B801B5BDF80000014905
:101B9000088008BD16000020134A116841F4007146
:101BA0001160114910390B6843F480730B600B68A6
:101BB00043F020030B600D4B1860106840F02000CC
:101BC000106000BF00BF00BF086840F02000086040
:101BD000086840F48070086000BF00BF00BF08685C
:101BE00040F400700860704728040048140800485A
:101BF0001449086840F400700860086840F4807078
:101C0000086010481038026842F0200202600E4B53
:101C100022221A600A6842F020020A6000BF00BF58
:101C200000BF016841F020010160016841F480714A
:101C3000016000BF00BF00BF016841F40071016096
:101C4000704700002804004814080048184B10B5DD
:101C50001A6842F400721A601A6842F480721A60BC
:101C6000134A103A146844F020041460114C2060A8
:101C7000186840F02000186000BF00BF00BF106867
:101C800040F020001060106840F480701060216007
:101C9000186840F02000186000BF00BF00BF106847
:101CA00040F020001060106840F48070106010BD9B
:101CB0002804004814080048F0B587B0142168468D
:101CC000FEF7FDFB2148C16C41F00401C164C16C09
:101CD00001F004010591C16C41F02001C164C16CA7
:101CE00001F020010591C16C41F00101C164C16C9A
:101CF00001F001010591C16C41F00801C164C06CA3
:101D0000134E00F008004FF47F4405900122214655
:101D10003046FEF7B7FD0F4F012204213846FEF78B
:101D2000B1FD0125CDE90045002402946946304605
:101D30000394FEF7C3FC04200090CDE901546946EA
:101D400038460394FEF7BAFC07B0F0BD001002401D
:101D500000080048000C0048F0B591B014210AA812
:101D6000FEF7ADFB0024282168460F94FEF7A7FB81
:101D70002C482B49C0E900147F218160FF21C0E974
:101D800003144FF080414461C0E906410462FFF74B
:101D90006FFB08B1FEF77DFC17258DF828501E2635
:101DA0008DF829600A208DF82A000B940D940022EA
:101DB0000AA91C480E94FFF7F3FC08B1FEF769FC72
:101DC00001278DF83C7003208DF83D0004208DF82C
:101DD0003E000C208DF83F0000220FA91148FFF7AC
:101DE0008BFC08B1FEF755FC8DF800508DF80160B2
:101DF00014208DF8020040070194CDE90504C00DC0
:101E0000099007948DF82070002269460548FFF775
:101E1000ADFB002801D0FEF73CFC11B0F0BD000086
:101E2000002800401C000020FEE7FEE7704730B5A8
:101E300001210020FFF70AFF4FF47A70FEF71BFC28
:101E400000210120FFF702FF41F290711020FFF7FF
:101E5000FDFE4FF41C516020FFF7F8FE01216120C8
:101E6000FFF7F4FE02214620FFF7F0FE48F21001D2
:101E70001320FFF7EBFE48F2FE011220FFF7E6FE0B
:101E80004FF4A0610220FFF7E1FE41F23001032090
:101E9000FFF7DCFE40F2033421463020FFF7D6FE88
:101EA00021463120FFF7D2FE21463220FFF7CEFE39
:101EB000E51E29463320FFF7C9FE03213420FFF732
:101EC000C5FE21463520FFF7C1FE14213620FFF75D
:101ED000BDFE21463720FFF7B9FE21463820FFF727
:101EE000B5FE21463920FFF7B1FE29463A20FFF71B
:101EF000ADFE03213B20FFF7A9FE21463C20FFF762
:101F0000A5FE4FF4A0513D20FFF7A0FE4FF4007155
:101F10009220FFF79BFE21469320FFF797FE40F6A5
:101F20000D019020FFF792FE41F218010320FFF708
:101F30008DFEBDE8304040F273110720FFF786BEEA
:101F400010B543F20801E320FFF780FE1221E720DD
:101F5000FFF77CFE41F23121EF20FFF777FE0021F1
:101F60000120FFF773FE4FF4E0610220FFF76EFEE1
:101F700041F230010320FFF769FE00210420FFF742
:101F800065FE40F207210820FFF760FE00210920CE
:101F9000FFF75CFE00210A20FFF758FE00210C200D
:101FA000FFF754FE00210D20FFF750FE00210F2007
:101FB000FFF74CFE00211020FFF748FE07211120FB
:101FC000FFF744FE00211220FFF740FE00211320FE
:101FD000FFF73CFEC820FEF75FFB41F29061102046
:101FE000FFF734FE40F227211120FFF72FFE3220A9
:101FF000FEF752FB1D211220FFF728FE3220FEF7CC
:102000004BFB4FF400611320FFF720FE1421292021
:10201000FFF71CFE0B212B20FFF718FE3220FEF7E6
:102020003BFB00212020FFF711FE00212120FFF7BC
:102030000DFE07213020FFF709FE40F20771312025
:10204000FFF704FE06213220FFF700FE40F2047184
:102050003520FFF7FBFD41F604713620FFF7F6FD52
:1020600004213720FFF7F2FD00213820FFF7EEFDB5
:1020700040F206713920FFF7E9FD40F201713C2082
:10208000FFF7E4FD0F213D20FFF7E0FD0021502088
:10209000FFF7DCFDEF215120FFF7D8FD0021522092
:1020A000FFF7D4FD40F23F115320FFF7CFFD4FF46F
:1020B0001C516020FFF7CAFD01216120FFF7C6FD1A
:1020C00000216A20FFF7C2FD00218020FFF7BEFD3E
:1020D00000218120FFF7BAFD00218220FFF7B6FD25
:1020E00000218320FFF7B2FD00218420FFF7AEFD21
:1020F00000218520FFF7AAFD10219020FFF7A6FD03
:1021000000219220FFF7A2FD03219320FFF79EFDFF
:102110004FF488719520FFF799FD00219720FFF774
:1021200095FD00219820FFF791FD41F21801032051
:10213000FFF78CFDBDE8104040F273110720FFF758
:1021400085BD00000148FFF719B900001C00002000
:10215000010901EB810100F00F0000EB4100C0B26A
:1021600070470022014602E00A39C9B2521C0A290E
:10217000FAD2100741EA1060704700002DE9F047DD
:10218000104C814600252068400618D4206840F095
:1021900080002060FEF77CFB06464FF47A78032728
:1021A00008E000BFFEF774FB801B404502D9032501
:1021B00089F825702068400601D4032DF2D1284605
:1021C000BDE8F0870C2800402DE9F0410646134891
:1021D0000025016821F080010160104C0C3420685A
:1021E0004FF00307800607D43046FFF741FB90B15C
:1021F00086F8257003250EE0206820F0200020607E
:102200003046FFF735FB10B186F8257003252068AE
:1022100040F0200020602846BDE8F0810C280040F6
:102220007047FEF73BBB10B594B038216846FEF707
:1022300046F914210EA8FEF742F94FF40070FEF79C
:10224000BFFB092000904FF48030019001200590E1
:1022500002200324CDE907041421CDE90A100C90D3
:102260000D9009946846FEF77BFE08B172B6FEE752
:102270000F20CDE90E040020109011901290022141
:102280000EA8FEF747FD002801D072B6FEE714B095
:1022900010BD00000548016841F470010160034968
:1022A0004FF00060803908607047000088ED00E062
:1022B000FEE70907090E002804DB00F1E02080F8A2
:1022C0000014704700F00F0000F1E02080F8141DAA
:1022D000704730380A2801D201207047002070472B
:1022E0001CB500221C491D48FFF794F800221C4928
:1022F0001A48FFF76BF818481AA11430FDF7E0FFF1
:10230000154900201431FFF77FFB134881780091B5
:102310004378027819A11430FDF7D2FF0E49182036
:102320001431FFF771FB0E4802788178CDE9001275
:102330004378C278084817A11430FDF7C1FF064959
:1023400030201431FFF760FB0548401E0178BDE8DE
:102350001C40012000F02AB8440000201C0000208E
:10236000110000202020202020207465737420207C
:1023700020202020202020200000000020202020DD
:1023800020202532643A2532643A25326420202008
:102390000000000020202020202025642D25642D11
:1023A00025642D25642020200000000070B50E4E0D
:1023B0000D460446012204213046FEF763FA4FF42D
:1023C0008070641EA040094B81B20DB1002200E074
:1023D00001221846FEF756FA3046BDE8704000224A
:1023E0000421FEF74FBA0000000C00480008004826
:1023F000FEF75CFAFFF717FFFFF75EFCFFF7ACFC98
:10240000002204210948FEF73DFAFFF749FB0020AE
:10241000FFF78CFA0020FFF7A3FB4FF6FF70FFF7E2
:10242000B3FB00BFFFF75CFFFCE70000000C0048B7
:102430004FF04070E1EE100A70470000000000000D
:102440000000010203040607080900000000000064
:10245000000000000000000000000000000000007C
:10246000000000000000000000000000000000006C
:10247000000000000000000000000000800180015A
:102480008001800180018001800180018001800144
:1024900080018001800100000000800180010000B7
:1024A0000000000000000000000000000000CC0060
:1024B000CC00CC00CC00CC00CC0000000000000020
:1024C000000000000000000000000000000000000C
:1024D00000000000000000000000000000000000FC
:1024E000000000000000600C600C600C300630063C
:1024F000FE1FFE1F300638071803FE1FFE1F1803BD
:1025000018038C018C018C01000000008000E003A6
:10251000F80F9C0E8C1C8C188C009800F801E007BA
:10252000800E801C8C188C189C18B80CF00FE003DF
:10253000800080000000000000000000000000009B
:102540000E181B0C110C11061106110311039B012F
:102550008E01C038C06C604460443044304418443C
:10256000186C0C380000000000000000E001F003CF
:102570003807180618063003F001F000F8009C3107
:102580000E33061E061C061C063FFC73F0210000DD
:1025900000000000000000000000000000000C002F
:1025A0000C000C000C000C000C00000000000000EF
:1025B000000000000000000000000000000000001B
:1025C0000000000000000000000000000002000306
:1025D0008001C000C00060006000300030003000AA
:1025E0003000300030003000300060006000C0007B
:1025F000C000800100030002000000002000600015
:10260000C0008001800100030003000600060006F0
:102610000006000600060006000600030003800115
:102620008001C000600020000000000000000000E9
:10263000000000000000C000C000D806F807E0015C
:102640003003380700000000000000000000000018
:10265000000000000000000000000000000000007A
:1026600000000000000080018001800180018001E5
:10267000FC3FFC3F8001800180018001800100005F
:10268000000000000000000000000000000000004A
:10269000000000000000000000000000000000003A
:1026A0000000000000000000000000008001800128
:1026B0000001000180000000000000000000000098
:1026C000000000000000000000000000000000000A
:1026D0000000E007E007000000000000000000002C
:1026E00000000000000000000000000000000000EA
:1026F00000000000000000000000000000000000DA
:10270000000000000000000000000000C000C00049
:10271000000000000000000000000000000C000CA1
:10272000000600060006000300030003800380018A
:1027300080018001C000C000C00060006000000097
:10274000000000000000000000000000E003F007AF
:10275000380E180C0C180C180C180C180C180C1837
:102760000C180C180C18180C380EF007E0030000B9
:1027700000000000000000000000000000018001D7
:10278000C001F00198018801800180018001800171
:1027900080018001800180018001800180010000B2
:1027A000000000000000000000000000E003F80F3F
:1027B000180C0C180C1800180018000C0006000368
:1027C0008001C000600030001800FC1FFC1F0000EA
:1027D000000000000000000000000000E001F80719
:1027E000180E0C0C0C0C000C0006C003C007000CEB
:1027F000001800180C180C18180CF807E00300005B
:10280000000000000000000000000000000C000EAE
:10281000000F000F800DC00C600C600C300C180C09
:102820000C0CFC3FFC3F000C000C000C000C0000EA
:10283000000000000000000000000000F80FF80F8A
:10284000180018000C00EC03FC071C0E001C0018FC
:10285000001800180C181C0C180EF807E0030000F4
:10286000000000000000000000000000C007F00FA2
:10287000381C181818000C00CC03EC0F3C0E1C1C64
:102880000C180C180C18181C380EF007E003000088
:10289000000000000000000000000000FC1FFC1F02
:1028A000000C00060006000380038001C001C00088
:1028B000E000600060007000300030003000000078
:1028C000000000000000000000000000E003F0072E
:1028D000380E180C180C180C3806F007F007180CF6
:1028E0000C180C180C180C18380CF80FE00300002A
:1028F000000000000000000000000000E003F007FE
:10290000380E1C0C0C180C180C181C1C381EF81B4C
:10291000E0190018000C000C1C0EF807F001000074
:1029200000000000000000000000000000000000A7
:102930000000000000008001800100000000000095
:102940000000000000000000000080018001000085
:102950000000000000000000000000000000000077
:102960000000000000008001800100000000000065
:102970000000000000000000000080018001000154
:1029800000018000000000000000000000000000C6
:10299000000000000000000000000010001C800F7C
:1029A000E003F8001800F800E003800F001C00109E
:1029B0000000000000000000000000000000000017
:1029C00000000000000000000000F81F00000000F0
:1029D0000000F81F000000000000000000000000E0
:1029E00000000000000000000000000000000000E7
:1029F0000000000000000000000008003800F001A6
:102A0000C007001F0018001FC007F00138000800B1
:102A1000000000000000000000000000E003F80FCC
:102A2000180C0C180C180018000C0006000380018C
:102A3000C000C000C00000000000C000C0000000D6
:102A40000000000000000000000000000000E0079F
:102A500018180420C229224A11440944094409448F
:102A600009221113E20C024004201818E0070000AC
:102A70000000000000000000000000008003800350
:102A8000C006C006C006600C600C30183018301844
:102A9000F83FF83F1C700C600C6006C006C00000D8
:102AA000000000000000000000000000FC03FC0F1C
:102AB0000C0C0C180C180C180C0CFC07FC0F0C1848
:102AC0000C300C300C300C300C18FC1FFC070000D4
:102AD000000000000000000000000000C007F01F20
:102AE00038381C300C700660060006000600060030
:102AF0000600060006600C701C30F01FE0070000A6
:102B0000000000000000000000000000FE03FE0FB7
:102B1000060E061806180630063006300630063057
:102B20000630063006180618060EFE0FFE030000DB
:102B3000000000000000000000000000FC3FFC3F1F
:102B40000C000C000C000C000C00FC1FFC1F0C0007
:102B50000C000C000C000C000C00FC3FFC3F0000C3
:102B6000000000000000000000000000F83FF83FF7
:102B700018001800180018001800F81FF81F180097
:102B8000180018001800180018001800180000009D
:102B9000000000000000000000000000E00FF83F0F
:102BA0003C780E6006E007C00300030003FE03FE4E
:102BB00003C007C006C00EC03CF0F83FE00F0000A5
:102BC0000000000000000000000000000C300C308D
:102BD0000C300C300C300C300C30FC3FFC3F0C3017
:102BE0000C300C300C300C300C300C300C30000041
:102BF00000000000000000000000000080018001D3
:102C000080018001800180018001800180018001BC
:102C1000800180018001800180018001800100002D
:102C20000000000000000000000000000006000698
:102C30000006000600060006000600060006000664
:102C400000060006180618063807F003E001000029
:102C50000000000000000000000000000630061820
:102C6000060C060606038601C60066007600DE0036
:102C70008E0106030606060C0618063006600000E4
:102C80000000000000000000000000001800180014
:102C90001800180018001800180018001800180074
:102CA00018001800180018001800F81FF81F00007E
:102CB0000000000000000000000000000EE01EF018
:102CC0001EF01EF036D836D836D836D866CC66CC4C
:102CD00066CCC6C6C6C6C6C6C6C686C386C3000000
:102CE0000000000000000000000000000C301C305C
:102CF0003C303C306C306C30CC30CC308C310C33D0
:102D00000C330C360C360C3C0C3C0C380C300000F0
:102D1000000000000000000000000000E007F81FB5
:102D20001C380E70066003C003C003C003C003C09C
:102D300003C003C006600E701C38F81FE0070000D7
:102D4000000000000000000000000000FC0FFC1F5D
:102D50000C380C300C300C300C300C18FC1FFC07FD
:102D60000C000C000C000C000C000C000C0000000F
:102D7000000000000000000000000000E007F81F55
:102D80001C380E70066003E003C003C003C003C01C
:102D900003C007E006630E3F1C3CF83FE0F700C0AD
:102DA000000000000000000000000000FE0FFE1FF9
:102DB00006380630063006300638FE1FFE070603CA
:102DC0000606060C061806180630063006600000D7
:102DD000000000000000000000000000E003F80F09
:102DE0001C0C0C180C180C001C00F803E00F001E43
:102DF0000038063006300E301C1CF80FE0070000CB
:102E0000000000000000000000000000FE7FFE7FC8
:102E100080018001800180018001800180018001AA
:102E2000800180018001800180018001800100001B
:102E30000000000000000000000000000C300C301A
:102E40000C300C300C300C300C300C300C300C30A2
:102E50000C300C300C300C301818F81FE007000054
:102E600000000000000000000000000003600630C9
:102E7000063006300C180C180C18180C180C380EEC
:102E800030063006700760036003C001C001000017
:102E90000000000000000000000000000360C361AB
:102EA000C361C36166336633663366336633663344
:102EB0006C1B6C1B6C1B2C1A3C1E380E380E000051
:102EC0000000000000000000000000000FE00C7097
:102ED00018303018700C600EC00780038003C003E8
:102EE000E006700C301C18180C300E6007E0000073
:102EF00000000000000000000000000003C00660A9
:102F00000C301C383818300C6006E007C003800114
:102F1000800180018001800180018001800100002A
:102F2000000000000000000000000000FC7FFC7FAB
:102F3000006000300018000C000600038001C00093
:102F40006000300018000C000600FE7FFE7F0000CD
:102F5000000000000000000000000000E003E003AB
:102F60006000600060006000600060006000600061
:102F70006000600060006000600060006000600051
:102F800060006000E003E00300000000300030005B
:102F9000600060006000C000C000C000C00180018F
:102FA000800180010003000300030006000600000A
:102FB000000000000000000000000000E003E0034B
:102FC00000030003000300030003000300030003E9
:102FD00000030003000300030003000300030003D9
:102FE00000030003E003E003000000000000C00154
:102FF000C00160036003600330063006180C180C33
:1030000000000000000000000000000000000000C0
:1030100000000000000000000000000000000000B0
:1030200000000000000000000000000000000000A0
:10303000000000000000000000000000FFFFFFFF94
:103040000000000000000000000000000C000C0068
:103050000C000C000C000C00000000000000000040
:103060000000000000000000000000000000000060
:103070000000000000000000000000000000000050
:10308000000000000000F003F8071C0C0C0C000FFF
:10309000F00FF80C0C0C0C0C1C0FF80FF0180000C3
:1030A00000000000000000000000000018001800F0
:1030B000180018001800D803F80F380C1818181842
:1030C0001818181818181818380CF80FD80300001A
:1030D00000000000000000000000000000000000F0
:1030E000000000000000C003F007300E180C1800AC
:1030F000180018001800180C300EF007C00300006C
:10310000000000000000000000000000001800188F
:10311000001800180018C01BF01F301C18181818D1
:103120001818181818181818301CF01FC01B0000A9
:10313000000000000000000000000000000000008F
:10314000000000000000C003F00F300C1818F81F3A
:10315000F81F180018003818301CF00FC0070000C6
:10316000000000000000000000000000800FC00F01
:10317000C000C000C000F007F007C000C000C000E1
:10318000C000C000C000C000C000C000C0000000FF
:10319000000000000000000000000000000000002F
:1031A000000000000000E00DF80F180E0C0C0C0CD5
:1031B0000C0C0C0C0C0C0C0C180EF80FE00D000C89
:1031C0000C0C1C06F807F0010000000018001800A5
:1031D000180018001800D807F80F381C181818180D
:1031E000181818181818181818181818181800008F
:1031F000000000000000000000000000C000C0004F
:10320000000000000000C000C000C000C000C000FE
:10321000C000C000C000C000C000C000C00000006E
:10322000000000000000000000000000C000C0001E
:10323000000000000000C000C000C000C000C000CE
:10324000C000C000C000C000C000C000C000C0007E
:10325000C000C000F8007800000000000C000C0066
:103260000C000C000C000C0C0C060C038C01CC00A8
:103270006C00FC009C018C030C030C060C0C000081
:10328000000000000000000000000000C000C000BE
:10329000C000C000C000C000C000C000C000C0002E
:1032A000C000C000C000C000C000C000C0000000DE
:1032B000000000000000000000000000000000000E
:1032C0000000000000007C3CFF7EC7E383C183C197
:1032D00083C183C183C183C183C183C183C1000012
:1032E00000000000000000000000000000000000DE
:1032F0000000000000009807F80F381C1818181874
:10330000181818181818181818181818181800006D
:1033100000000000000000000000000000000000AD
:10332000000000000000C003F00F300C181818183F
:103330001818181818181818300CF00FC0030000CF
:10334000000000000000000000000000000000007D
:10335000000000000000D803F80F380C18181818E7
:103360001818181818181818380CF80FD80318005F
:1033700018001800180018000000000000000000ED
:10338000000000000000C01BF01F301C18181818A7
:103390001818181818181818301CF01FC01B00181F
:1033A00000180018001800180000000000000000BD
:1033B000000000000000B007F00370003000300093
:1033C00030003000300030003000300030000000AD
:1033D00000000000000000000000000000000000ED
:1033E000000000000000E003F003380E180C380065
:1033F000F003C007000C180C380EF007E0030000C3
:10340000000000000000000000000000000080003C
:10341000C000C000C000F007F007C000C000C0003E
:10342000C000C000C000C000C000C007800700008E
:10343000000000000000000000000000000000008C
:10344000000000000000181818181818181818188C
:103450001818181818181818381CF01FE019000050
:10346000000000000000000000000000000000005C
:103470000000000000000C18180C180C180C300686
:1034800030063006600360036003C001C001000025
:10349000000000000000000000000000000000002C
:1034A000000000000000C141C141C3616363636368
:1034B00063633636363636361C1C1C1C1C1C00005A
:1034C00000000000000000000000000000000000FC
:1034D0000000000000001C38381C300C600660033F
:1034E0006003600360036006300C381C1C38000069
:1034F00000000000000000000000000000000000CC
:103500000000000000001830301830187018600CEF
:10351000600CE00CC006C0068003800380038001BD
:103520008001C001F00070000000000000000000F9
:10353000000000000000FC1FFC1F000C0006000340
:103540008001C000600030001800FC1FFC1F00005C
:1035500000000000000000000000000000038001E7
:10356000C000C000C000C000C000C000600060001B
:10357000300060004000C000C000C000C000C000BB
:10358000C0008001000300000000000080018001F5
:103590008001800180018001800180018001800123
:1035A0008001800180018001800180018001800113
:1035B0008001800180018001000000006000C000E7
:1035C000C0018001800180018001800100030003AF
:1035D000000600030001800180018001800180015C
:1035E0008001C0006000000000000000000000003A
:1035F00000000000000000000000F010F81F080F9D
:1036000000000000000000000000000000000000BA
:103610000000000000000000000000003C36000830
:10362000000000201C0000001402000858360008AA
:103630001C000020B406000030020008100000004A
:1036400001000000000000000024F4000000000061
:0836500000000000FFFF000074
:04000005080001D915
:00000001FF
