:020000040800F2
:10000000700800209D0200081B340008872E00089D
:1000100019340008131600080D46000800000000FF
:10002000000000000000000000000000333700085E
:1000300015160008000000001D34000835370008C0
:10004000B7020008B7020008B7020008B7020008AC
:10005000B7020008B7020008B7020008B70200089C
:10006000B7020008B7020008B7020008B70200088C
:10007000B7020008B7020008B7020008B70200087C
:10008000B702000800000000B7020008B70200082D
:10009000B7020008B7020008B7020008B70200085C
:1000A000B7020008B7020008B7020008B70200084C
:1000B000B7020008B7020008B7020008B70200083C
:1000C000B7020008B7020008B7020008B70200082C
:1000D000B702000801460008B7020008B70200088E
:1000E000B7020008B7020008B7020008B70200080C
:1000F000B7020008B7020008B702000800000000BD
:1001000000000000B702000800000000B70200086D
:10011000B702000800000000B7020008B70200089C
:10012000B7020008B7020008B7020008B7020008CB
:10013000B70200080000000000000000B70200083D
:10014000B7020008B702000800000000000000002D
:10015000000000000000000000000000000000009F
:10016000000000000000000000000000B7020008CE
:10017000B7020008000000000000000000000000BE
:1001800000000000B70200080000000000000000AE
:10019000000000000000000000000000000000005F
:1001A0000000000000000000B7020008B7020008CD
:1001B000B7020008B7020008B702000800000000FC
:1001C00000000000B702000800000000000000006E
:1001D000B7020008B702000800F002F800F04FF87C
:1001E0000AA090E8000C82448344AAF10107DA4592
:1001F00001D100F044F8AFF2090EBAE80F0013F095
:10020000010F18BFFB1A43F001031847E068000014
:1002100000690000103A24BF78C878C1FAD85207A4
:1002200024BF30C830C144BF04680C607047000070
:100230000023002400250026103A28BF78C1FBD8EF
:10024000520728BF30C148BF0B607047662905F0D0
:10025000F882642900F0F880632900F0908400207F
:1002600070471FB505F0E3FA00F096FC040000208B
:10027000002104F0F5FDE0601FBD10B510BD00F0D9
:100280008BFD1146FFF7EDFF04F0B6FD00F0A9FD70
:1002900003B4FFF7F2FF03BC00F0ECFD0948804710
:1002A00009480047FEE7FEE7FEE7FEE7FEE7FEE758
:1002B000FEE7FEE7FEE7FEE704480549054A064B70
:1002C00070470000A1370008D90100087002002023
:1002D00070080020700400207004002053EA020C13
:1002E00000F069802DE9F04B4FF00006002B1FBF96
:1002F000B3FA83F503FA05F424FA05F65E4012BF5B
:100300001643B2FA82F502FA05F4C5F120051EBFC4
:1003100022FA05FC44EA0C04203556EA044C4FEA64
:10032000144418BF641C4FF000084FF000099042BD
:1003300071EB030C39D3002919BFB1FA81F701FA27
:1003400007F6B0FA80F700FA07F6C7F120071EBFDC
:1003500020FA07FC46EA0C062037B6FBF4FCA7EBB4
:100360000507103F07F01F0BCBF120060CFA0BFB23
:100370002CFA06F644BFB3460026202FA4BF5E46E3
:100380004FF0000B5BEA060C08BF4FF0010B19EBB6
:100390000B09ABFB027C48EB0608C01B06FB02CC3A
:1003A0000BFB03CC71EB0C01C1E70B460246414647
:1003B0004846BDE8F08B13B54FF000004FF0000148
:1003C000AFF30080BDE81C40704700000FB41CB5BF
:1003D000074B06AA7B4469460090059800F0ADFBE8
:1003E0000020694600F0BCFB1CBC5DF814FB00005B
:1003F0008907000070B50C460546012A05D028780B
:10040000800600D5EA69002302E0012305E05B1CB9
:10041000934202D2E05C0028F9D1A869E618C01A1C
:10042000A861286A184428622846AFF3008004E0D7
:10043000D5E9012114F8010B9047B442F8D32846BE
:10044000AFF3008070BD00002DE9F04106460024A6
:1004500010687529314616A510D0AFF3008000282A
:1004600002DA404213A507E031688A0701D512A5D8
:1004700002E0490704D511A5012401E0AFF3008093
:1004800000210A2206F1240709E0B0FBF2FCB0FBD0
:10049000F2F302FB1C00303078541846491C002847
:1004A000F3D123462A463046BDE8F04100F0D8B8E3
:1004B000000000002D0000002B00000020000000C4
:1004C0002DE9F0474FF0000A89460446C0F820A005
:1004D0002046E1688847002876D0252806D0D4E950
:1004E00001219047206A401C2062F1E7E168204624
:1004F00000258847C4F81CA006460027C4F818A0A9
:100500002A2E09D0304604F0AAF838B304EB870845
:10051000303EC8F8186019E059F8041B204604EB77
:1005200087029161E1688847012F064618D1E0698A
:10053000002820DA25F020051DE0D8F8180000EB8F
:10054000800006EB40003038C8F818002046E1680B
:100550008847064604F083F80028EED1012F0AD020
:100560002E2E08D12046E16888477F1C0646022FC0
:1005700045F02005C4DBA069002803DA404245F0BD
:100580000105A061E80701D025F01005B6B1A6F17C
:100590004100192802D8203645F400654A46314604
:1005A000204625604D46FFF751FE58B1012806D080
:1005B000ED1D25F0070000F1080989E704E005F1C9
:1005C000040985E730468AE7206ABDE8F08710B560
:1005D000431C02E010F8011B71B18107FAD14FF002
:1005E000013202C88C1A8C4314EAC211F9D0C01A25
:1005F0000A0603D0C01E10BDC01A10BD0A0401D0E7
:10060000801E10BD0902FCD0401E10BD4FF000023C
:1006100000B5134694469646203922BFA0E80C50F8
:10062000A0E80C50B1F12001BFF4F7AF090728BFD3
:10063000A0E80C5048BF0CC05DF804EB890028BF4F
:1006400040F8042B08BF704748BF20F8022B11F078
:10065000804F18BF00F8012B7047704770477047F4
:100660002DE9F0470D4699469246044600F12408CC
:100670000168880604D5E06921F01001216000E0DE
:100680000120A84201DD471B00E00027A1697A197B
:1006900002EB0900081AA0612078C00602D42046A7
:1006A000AFF30080002608E0D4E901211AF8060023
:1006B0009047206A401C761C20624E45F4DB20786F
:1006C000C0060AD52046AFF3008006E0D4E9012138
:1006D00030209047206A401C2062381EA7F1010795
:1006E000F4DC07E0D4E9012118F805009047206AFE
:1006F000401C2062281EA5F10105F3DC2046AFF363
:1007000000802078000602D50220BDE8F087012095
:10071000FBE770472DE9FF4F0C461E464FF0FF37B1
:100720008BB0D2E90001DDF860800A908A46C1F3FF
:100730000A5505B93D46002108464FF00000BAF1C0
:10074000000F00F4400005DA00EB80004FF4400198
:1007500001EA50004FEA9059B9F1010F00DDB946A6
:100760000A9850EA4A000ED044F61050A5F2FF3520
:1007700045432F14B8F1000F1ED07542291E1EDD0F
:10078000C9F100021CE0B8F1010F4FF0000001D0E8
:10079000302103E0F24305E02154401CB042FBDB72
:1007A00030460022002121540B99C1F80880C1E98C
:1007B00000200FB0BDE8F08FBD1B6D1CDEE74A4680
:1007C00000DA694206A800F071FA06AB93E8070068
:1007D00003AB83E8070050460A9900F052FB8DE80E
:1007E0000700A0F500501F3800900398002D0ADD87
:1007F00042F21F014A460844002303A903906846B9
:1008000000F0BBFD09E0A0F500504A461F38002368
:1008100003A90390684600F0C5FD8DE807000004B9
:10082000000C03D04FF0FF30410800E01046B8F153
:10083000000F03D00022009215461EE0751E05D45D
:1008400000F0AEF9303262556D1EF9D5B346012283
:10085000084302D000227F1C04E02078302801D118
:1008600000227F1E002A099784D01DE0112D07DA8F
:1008700000F096F9303262556D1C50EA0102F5D154
:10088000084302D00098C8B10EE00021681E05E0C0
:10089000235C625C63542254401E491C8142F7DB96
:1008A000AB46A81B401E0990002004F80B000B98D3
:1008B000099AC0F80880C0E9002B7AE711264FF0AA
:1008C000000857E72DE9F04F88460446D21D22F074
:1008D000070191B0D1E90001CDE90A0103F097FECB
:1008E00002460B98C00F01D02D2007E02068810739
:1008F00001D52B2002E0202101EAC000032A099043
:1009000001D0072A05DB03464146204600F08EF958
:100910000BE12078800601D5E06900E00620B8F1FF
:10092000650F814606D0B8F1660F18D0B8F1670F91
:1009300070D131E00020B9F1110F009001DB1123DB
:1009400001E009F101030AAA01A90CA8FFF7E2FEE0
:10095000DDE90C70002609F10105834647E001201E
:100960004B4600904FF000470AAA01A90CA8FFF7D8
:10097000D1FEDDE90DB00C995D46002610B909F1F4
:1009800001000D18B9EB050003D4C0F1FF3609F1E1
:100990000105A5EB09002BE0B9F1010F01DA4FF0D9
:1009A00001090020B9F1110F0090484601DD112323
:1009B00000E003460AAA01A90CA8FFF7ABFEDDE997
:1009C0000C704D4600268346207800070AD4AB45BC
:1009D00000DA5D4601A8012D04DD411911F8011C62
:1009E000302907D04F4502DA17F1040F04DA01204D
:1009F00082460FE06D1EEEE7002F02DCED1B3E4449
:100A000003E0781CA84200DD7D1CB81B00F1010A40
:100A10004FF000472078000703D4AA4501DB4FF0D0
:100A2000FF3A0021B7F1004F0DF143088DF8431054
:100A300024D002202B23002F01DA7F422D230A210C
:100A4000021EA0F1010000DC5FB197FBF1FC97FBF7
:100A5000F1F201FB1C7C17460CF1300C08F801CDBB
:100A6000EEE7A8F1010003702188090501D54521B1
:100A700000E06521A0F1010800F8011C09980FA908
:100A8000A1EB0807FF1D00B10120411901EBEA703D
:100A9000A1693844081A401EA0612078C00602D41B
:100AA0002046AFF30080099828B1D4E9012190478E
:100AB000206A401C20622078C00622D52046AFF371
:100AC00000801EE0002E04DBB34502DD01A8805D3E
:100AD00000E03020D4E901219047206A401C2062C8
:100AE000761CAAF101005FEA000A0AD100F054F86E
:100AF000C0680168405CD4E901219047206A401C2D
:100B00002062281EA5F10105DCDC07E0D4E9012103
:100B100018F8010B9047206A401C2062381EA7F18C
:100B20000107F3DC2046AFF30080032011B041E65B
:100B300001694A1C02610878704700B58FB0CDE9A1
:100B400001310021059105497944CDE90310114691
:100B50006846FFF7B5FC0FB000BD0000E5FFFFFFE2
:100B60000A6802F8010B0A60704710B5436913B1B7
:100B7000AFF3008001E0FFF73DFC012010BD1278CB
:100B800000F124010A7000224A700122EDE7116889
:100B90004FF0FF32E9E700000048704730020020C4
:100BA00030B5B0F10A024FEA900E71F100034EEA3F
:100BB000817EB0EB0E0061EB91014FEA101E4EEA10
:100BC000017E10EB0E0041EB11114FEA102E4EEAA0
:100BD000016E10EB0E0041EB11214FEA104E4EEA70
:100BE000014E10EB0E0041EB1141401841F10001A4
:100BF0004FEAD00040EA41704FEAD10110EB800586
:100C00004FEA810444EA907444EB01046D1944EB0B
:100C10000404521BA3414FF0000348BF0A3200D521
:100C200030BD401C41F1000130BD00002DE9F04114
:100C30001F46044603260168072A01F4006004DB0E
:100C400008B116A505E016A503E008B115A500E05A
:100C500015A521F010002060A069C01EA0610FB191
:100C6000401EA0612046AFF300804FB1D4E90121BE
:100C700038469047206A401C2062C01C206206E073
:100C8000206AFAE7D4E9012115F8010B9047761E96
:100C9000F8D22046AFF30080BDE8F0814E414E000F
:100CA0006E616E00494E4600696E66002DE9F047A0
:100CB000814616468AB0354878440DC88DE80D0047
:100CC00032487844801C03AC0DC884E80D0041F61E
:100CD0009B300844372190FBF1F290FBF1F5A5F130
:100CE000800501FB12041B3C02D56442012000E098
:100CF0000020DFF898A080460027FA44AAF1BE0A37
:100D00000EE0E0070AD03246684607EB47010123B0
:100D10000AEB810100F046FB8DE8070064107F1CA0
:100D2000002CEED1194F7F44AE3F19E0E80715D0F3
:100D300007EB04100DF1180A90E80E008AE80E0087
:100D4000C068F04201D1981908903246012306A9E3
:100D500003A800F027FB03AB83E807006D10641CB9
:100D6000002DE3D14FF0010332466946B8F1000F80
:100D700003A802D000F001FB01E000F013FBC9E979
:100D80000001C9F808200AB0BDE8F087185E00002D
:100D900000487047100200207546FFF7F9FFAE4685
:100DA00005006946534620F00700854618B020B577
:100DB000FFF782FABDE820404FF000064FF0000731
:100DC0004FF000084FF0000B21F00701AC46ACE8F3
:100DD000C009ACE8C009ACE8C009ACE8C0098D4660
:100DE000704710B50446AFF300802046BDE81040C0
:100DF000FFF74EBA4FF0013C50F8042B51F8043B7A
:100E00009A4221D1A2EB0C03934313EACC1317D1DE
:100E100050F8042B51F8043B9A4215D1A2EB0C0375
:100E2000934313EACC130BD150F8042B51F8043B35
:100E30009A4209D1A2EB0C03934313EACC13DBD003
:100E40004FF00000704700BFD01A01BAB1FA81F12B
:100E500001F0180122FA01F0CB40C1F12001DBB210
:100E6000C0B2C01A2CFA01F3D11A914311EAC3118E
:100E7000E6D1704701491820ABBEFEE7260002000C
:100E800070475FEA400C08BF91F0000F4FEA8C23D7
:100E90004FEAC12243EA51514FEA1C5018BF00F5F6
:100EA000F0404FEA300018BF41F000415FEA6C5C4F
:100EB00000F02980BCF1FF3F08BF40F08040704740
:100EC000130C06BF12044FF0100C4FF0000C130E61
:100ED00004BF12020CF1080C130F04BF12010CF135
:100EE000040C930F04BF92000CF1020CD30F04BF4B
:100EF00052000CF1010C11464FF00002A0F11F004E
:100F0000A0EB0C00704711F0004F08BF704731F0A4
:100F100000413FF4D5AF0B0C06BF09044FF0100C95
:100F20004FF0000C0B0E04BF09020CF1080C0B0F64
:100F300004BF09010CF1040C8B0F04BF89000CF1F4
:100F4000020CCB0F04BF49000CF1010CCCF12003C3
:100F5000A0EB0C0022FA03F302FA0CF241EA0301BF
:100F600000F10100704720F07F4C80EA030023F07D
:100F70007F47ACEB070303F57C5300F0004003F11F
:100F8000FF032DE980494FEA154B09B44FEA14439A
:100F900025EA0B4E24EA03480FF2042606EB13273A
:100FA00049083E785FEA320203FB0667C7F500078F
:100FB00007FB06F64FEA54374FEAD64606F102061B
:100FC00007FB066CCCF1005C4FEA1C472CEA074C8F
:100FD00007FB06F40CFB06F504EB15464FEA9616E4
:100FE00034BF00204FF000404FEAD13706FB07FC2A
:100FF0004FEA1C4C0CFB0BF7D21B03FB0CF761EB0D
:1010000007010CFB0EF7B0EB074072EB17420CFB2D
:1010100008F734BFA2EB0742B2EB074261EB17417E
:101020004FEA0C444FEA910706FB07FC4FEA1C4CC1
:101030000CFB0BF7B0EBC74072EB573203FB0CF71E
:1010400034BFA2EBC742B2EBC74261EB57310CFB96
:101050000EF7B0EBC70072EB57720CFB08F734BF0A
:10106000A2EBC702B2EBC70261EB5771039F4FEAD5
:10107000816141EA921104EBCC044FEAD1374FEA87
:10108000826206FB07FC42EA90124FEA80604FEA58
:101090001C4C0CFB0BF7D21B03FB0CF761EB07019D
:1010A0000CFB0EF7B0EB074072EB17420CFB08F796
:1010B00034BFA2EB0742B2EB074261EB17414FEAA4
:1010C0008C554FEA910704EB9C2406FB07FC4FEA82
:1010D0001C4C0CFB0BF7B0EBC74072EB573203FB19
:1010E0000CF734BFA2EBC742B2EBC74261EB5731FA
:1010F0000CFB0EF7B0EBC70072EB57720CFB08F756
:1011000034BFA2EBC702B2EBC70261EB577115EB1C
:101110004C254FEA816141EA92114FEA82624FEA1F
:10112000D13742EA901206FB07FC44F100044FEA73
:1011300080604FEA1C4C0CFB0BF7D21B03FB0CF737
:1011400061EB07010CFB0EF7B0EB074072EB1742A7
:101150000CFB08F734BFA2EB0742B2EB074261EB8E
:10116000174115EB1C154FEA813141EA92414FEAD4
:10117000823242EA90424FEA80304FEA0C7644F1E4
:10118000000448EA03434EEA0B484FF0000EB2EB6E
:10119000080C71EB030724BF624639464EEB0E0E76
:1011A0004FF0000B0018524149414BEB0B0BB2EBD7
:1011B000080C71EB03077BF1000B24BF6246394634
:1011C0004EEB0E0E4FF0000B0018524149414BEB15
:1011D0000B0BB2EB080C71EB03077BF1000B24BF88
:1011E000624639464EEB0E0E51EA020718BF46F032
:1011F000010616EB0E7655F1000254F1000103D5FD
:10120000BDE88901BDE80088BDE88901BDE8004866
:10121000B619524141EB0101A3F1010370478080EF
:101220007F7E7D7C7B7A7978777676757473727140
:1012300071706F6E6E6D6C6C6B6A6A6968686766F8
:1012400066656464636362616160605F5F5E5E5D8A
:101250005D5C5C5B5B5A5A595958585757565655FE
:1012600055555454535352525251515050504F4F60
:101270004F4E4E4D4D4D4C4C4C4B4B4B4A4A4A49B0
:1012800049494848484747474746464645454544F3
:101290004444444343434342424242414141002B80
:1012A0009C4630D477002BD01CB54FEA370703B4E7
:1012B0004FF010004FF01001BAF1000F06D0BCF152
:1012C000000FDCBF40F0080040F008014FF00000C4
:1012D0000FBCBDE810400BF1010BBBF1010F08BFC3
:1012E0005FEA170722BF12F1010211F101014FF06D
:1012F000004143F1000300F0004043EA0000704762
:10130000F9D35708D0E746EA064613F1400F4FEAF3
:1013100016461FDD13F1200FDFBF16430A460021DA
:1013200020335B42BED0C3F1200746EA064602FAEC
:1013300007F74FEA164646EA0706C3F1200722FAE6
:1013400003F201FA07F721FA03F14FF0000342EA32
:101350000702A7E746EA020646EA06464FEA1646AD
:1013600046EA0106BCBF46EA0646360C4FF00003CB
:101370004FF000024FF0000194E72DE9804C9A46AF
:10138000934670B491E8380007C831EA400C48BF72
:1013900034EA430C03D5FFF7E6FDFFF780FFF0BC0E
:1013A000BDE8008C2DE9804C9A46934670B491E8D4
:1013B000380007C810F0804F08BF13F0804F03D1EA
:1013C00000F005F8FFF76BFFF0BCBDE8008C20F0E3
:1013D0007F4780EA030023F07F4C07EB0C03A3F563
:1013E0007C5300F00040A3F1FE0392F0000F00F0E8
:1013F000B38095F0000F00F077802DE901494FEAA6
:1014000011404FEA144621EA004800FB06FC24EA9A
:10141000064708FB06F607FB08F800FB07F718EB82
:1014200006484CEB164C4FEA124B18EB07484FEAB4
:1014300015464CEB174022EA0B4E0BFB06FC25EA47
:1014400006470EFB06F607FB0EFE0BFB07F71EEB2F
:10145000064E4CEB164C4FF000061EEB074E4CEBC5
:10146000174B18EB0B0840F1000018EB0E0B58EB74
:10147000000840F100008F1A4FF000013CBFC94343
:10148000661B14BFB5EB040C00213CBFC943F61B1F
:101490004FEA17444EEA8E0E27EA04454FEA1C47EE
:1014A00004FB07622CEA074C05FB07F70CFB05F66B
:1014B00004FB0CFC16EB074642EB174216EB0C46FE
:1014C00042EB1C421BEB060658EB0202414146EA86
:1014D0009E0601D5BDE80189B619524141EB0101D3
:1014E000A3F10103BDE801894FEA14454FEA114712
:1014F00024EA054621EA074C05FB07F406FB07F73B
:101500000CFB06F105FB0CFC11EB074144EB174407
:101510004FEA124711EB0C4144EB1C4422EA074C02
:1015200005FB07F206FB07F70CFB06F605FB0CFCB8
:1015300016EB074642EB174216EB0C4642EB1C45F6
:101540006A1854F1000148BF7047B619524141EB87
:101550000101A3F10103704795F0000F37D04FEA66
:1015600011424FEA144721EA024624EA074C02FBE3
:1015700007F106FB07F70CFB06F402FB0CFC14EB6F
:10158000074441EB17414FEA154714EB0C4441EB7C
:101590001C4125EA074C02FB07F506FB07F70CFB8D
:1015A00006F602FB0CFC16EB074645EB174516EB5F
:1015B0000C4645EB1C42121951F1000148BF70471F
:1015C000B619524141EB0101A3F1010370474FEA03
:1015D00014454FEA114724EA054621EA074C05FB6A
:1015E00007F106FB07F70CFB06F24FF0000605FBC0
:1015F0000CFC12EB074241EB174112EB0C4251EB92
:101600001C4148BF7047921841EB0101A3F101034F
:101610007047FEE77047002240F6B83306E000212D
:10162000491C89B29942FBD3521C92B28242F6D332
:10163000704772B6FEE710B590F825300021012200
:10164000022B03D00421C163012122E003681C683E
:1016500024F00E041C60836C1C6824F480741C60ED
:1016600003681C6824F001041C6090F84430046C8A
:1016700003F01F0302FA03F36360D0E913345C60E4
:10168000436D33B11C6824F480741C60D0E91634B7
:101690005C6080F82520002280F82420084610BDD8
:1016A00070B590F82520002401212346022A07D096
:1016B0000422C26380F8251080F82430012429E038
:1016C0000268156825F00E0515600268156825F09A
:1016D00001051560826C156825F48075156090F819
:1016E0004420056C02F01F0201FA02F26A60D0E9A0
:1016F00013255560426D32B1156825F4807515606B
:10170000D0E91625556080F8251080F82430816BCB
:1017100001B18847204670BD70B5044600F03CF921
:101720000546601C02D004484068044400F034F9C7
:10173000401BA042FAD370BD000000202DE9F04FFD
:10174000DFF82092002301260324A9F1040B85B0C1
:101750000F2709F1040AABF1040EFAE006FA03F5CB
:101760002A407CD091F804C00CF0030CBCF1010FAE
:1017700002D0BCF1020F26D1D0F808C0CDF800C0CD
:101780004FEA430C04FA0CF8CDF810C0DDF800C0A5
:101790002CEA080CCDF800C0D1F80C80DDF810C0A0
:1017A00008FA0CF8DDF800C048EA0C08C0F8088018
:1017B000D0F804C02CEA050C0D79C5F300159D4046
:1017C00045EA0C0545600D79ED43AD070ED0C568BF
:1017D0004FEA430804FA08FC25EA0C05D1F808C0D2
:1017E0000CFA08FC4CEA050CC0F80CC00D7905F0A9
:1017F0000305022D16D1DD0800EB850CCDF808C0DD
:10180000DCF820805D074FEAD56C07FA0CF528EA72
:1018100005080D6905FA0CF5DDF808C045EA08056C
:10182000CCF8205005684FEA430CCDF808C004FA04
:101830000CFC25EA0C0591F804C00CF00308DDF857
:1018400008C008FA0CF848EA0508C0F800804D689E
:1018500015F4403F7CD0444DD5F860C000E077E0FF
:101860004CF0010CC5F860C02D6E23F0030C05F0A0
:10187000010500953D4D65440295AD684FEA837CB6
:101880004FEA1C7807FA08FC25EA0C05B0F1904FE6
:1018900006D0DFF8DCC0604505D14FF0010C20E038
:1018A0004FF0000C1DE0DFF8CCC0604502D14FF0D6
:1018B000020C16E0DFF8C0C0604502D14FF0030C07
:1018C0000FE0DFF8B8C0604502D14FF0040C08E02B
:1018D000DFF8ACC0604502D14FF0050C01E04FF0DD
:1018E000060C0CFA08FC4CEA050C029DC5F808C071
:1018F000D9F80050CC46D1F8048095435FEAC82857
:1019000000D51543CCF80050DAF80050D446D1F891
:10191000048095435FEA882800D51543CCF8005031
:10192000DBF80050DC46D1F8048095435FEA883844
:1019300000D51543CCF80050DEF80050F446D1F83D
:10194000048095435FEAC83800D51543CCF80050B1
:101950005B1C0A6832FA03F57FF400AF05B0BDE8FE
:10196000F08F000008040140001002400000014018
:101970000004004800080048000C0048001000481F
:10198000001400480069084000D0012070470AB1E7
:10199000816170478162704701488068704700002C
:1019A000000000200248816842681144816070474D
:1019B0000000002010B50024032000F073F80F2071
:1019C00000F008F808B1012401E000F025F82046F5
:1019D00010BD000070B50E4E05460024706898B129
:1019E0004FF47A71B1FBF0F00A490968B1FBF0F0ED
:1019F00000F064FD40B9102D06D200222946501E89
:101A000000F030F8356000E00124204670BD000091
:101A1000000000200C0000200A4882B0016E41F056
:101A200001010166016E01F001010091816D41F03B
:101A300080518165806D00F08050009002B000F010
:101A4000A1B8000000100240002809DB00F01F02CE
:101A5000012191404009800000F1E020C0F8001110
:101A600070470000F0B40E4B1B680C46C3F3022312
:101A7000C3F10705042D00D90425191D072901D23A
:101A8000002300E0DB1E012606FA05F1491E214075
:101A900099409E40761E16403143F0BC02F0CFBD07
:101AA0000CED00E0064900F0070208684FF6FF035E
:101AB000184040EA0220034A1043086070470000C3
:101AC0000CED00E00000FA052B492C4B0A6832218E
:101AD0004A432B4940B1B0F5007F086829D020F473
:101AE000C06040F480602CE00868C0F34120022808
:101AF00004D051F8800F20F4807022E0D1F88000EB
:101B000020F48070C1F88000086820F4C06040F4C0
:101B100000700860B2FBF3F0401C00E0401E4A6910
:101B2000520501D50028F9D1486940050AD503209E
:101B30007047C0F34120022806D051F8800F40F4CE
:101B40008070086000207047D1F8800040F48070F9
:101B5000C1F88000086820F4C06040F4007008609C
:101B6000B2FBF3F0401C00E0401E4A695205DBD591
:101B70000028F9D1D8E700000C00002040420F00F7
:101B8000007000400248816841F4804181607047E4
:101B9000007000402DE9F8430446006800269D4D82
:101BA00000035ED5A86D0027C00008D4A86D40F0E2
:101BB0008050A865A86D012700F080500090DFF8E4
:101BC0005892D9F8001041F48071C9F80010FFF75D
:101BD000E3FE804606E000BFFFF7DEFEA0EB080054
:101BE00002282BD8D9F80000C005F5D5D5F890000B
:101BF00010F4407014D0216C814211D0D5F89000BF
:101C0000D5F8901020F4407041F48031C5F8901060
:101C1000D5F8901021F48031C5F89010C5F89000E7
:101C2000C00711D0FFF7B8FE804641F2883907E0BF
:101C3000FFF7B2FEA0EB0801494501D903260BE0EE
:101C4000D5F890008007F3D5D5F89000216C20F4EA
:101C500040700843C5F890001FB1A86D20F0805077
:101C6000A8652078C00707D0D5F88800616820F003
:101C700003000843C5F888002078800707D5D5F809
:101C80008800A16820F00C000843C5F8880020787F
:101C9000400707D5D5F88800E16820F030000843F8
:101CA000C5F888002078000707D5D5F88800216995
:101CB00020F0C0000843C5F888002078800607D5CA
:101CC000D5F88800616920F440600843C5F88800B1
:101CD0002078400607D5D5F88800A16920F4405047
:101CE0000843C5F888002078000607D5D5F8880095
:101CF000E16920F440400843C5F888002088C00509
:101D000007D5D5F88800216A20F440300843C5F88B
:101D100088002088800507D5D5F88800616A20F4FE
:101D200040200843C5F88800208840050FD5D5F825
:101D30008800A16A20F440100843C5F88800A06A12
:101D4000B0F5801F03D1E86840F48010E860208877
:101D500000050FD5D5F88800E16A20F4400008435B
:101D6000C5F88800E06AB0F5800F03D1E86840F458
:101D70008010E8602088C0040FD5D5F88800216B5A
:101D800020F040700843C5F88800206BB0F1807FD8
:101D900003D1E86840F48010E86020884FF00061CB
:101DA00080040ED5D5F88800626B20F040601043A7
:101DB000C5F88800606B884203D1E86840F4801061
:101DC000E860208840040ED5D5F88800A26B20F08A
:101DD00040601043C5F88800A06B884203D1E868D2
:101DE00040F48010E860208800040FD5D5F8880002
:101DF000E16B20F040500843C5F88800E06BB0F17B
:101E0000805F03D1E86840F48030E8603046BDE888
:101E1000F883000000100240007000402DE9F047F8
:101E20000E4605004FF0000725D0DFF8AC81D8F84A
:101E3000000000F00F00B0420CD2D8F8001021F0E2
:101E40000F013143C8F80010D8F8000000F00F006F
:101E5000B04210D12968614CC80741F2883A5AD083
:101E60006868DFF87C91032808D0022820682DD00C
:101E7000400500282CDB0120BDE8F08720688001A8
:101E8000F9D5E06800F00302E068C0F30310401CDD
:101E9000032A19D0534A00BFB2FBF0F0E268C2F344
:101EA00006225043E268C2F34162521C5200B0FB6A
:101EB000F2F0484517D9A06810F0F00F0CD0880751
:101EC00011D5A86840B10EE0474AE5E78003D0E7A6
:101ED00000F0B6F8484506D9A06820F0F00040F0C0
:101EE0008000A0608027A068696820F00300084394
:101EF000A060FFF751FD814606E000BFFFF74CFDF3
:101F0000A0EB090151453AD8A068696800F00C00BF
:101F1000B0EB810FF2D12868810714D5400703D5B3
:101F2000A06840F4E060A0602878000705D5A068AC
:101F300020F4605040F4E060A060A068A96820F040
:101F4000F000084304E0802F03D1A06820F0F000E7
:101F5000A060D8F80010404601F00F01B14216D938
:101F6000016821F00F0131430160FFF715FD0746BD
:101F700007E000BFFFF710FDC11B514501D9032049
:101F80007AE7D8F8000000F00F00B042F2D12878CC
:101F9000400705D5A068E96820F4E0600843A06028
:101FA0002878000706D5A068296920F4605040EA27
:101FB000C100A06000F044F8A1680C4AC1F303110D
:101FC000515C01F01F01C8400949086009480068D8
:101FD000BDE8F047FFF7FEBC0020024000100240C1
:101FE00000B4C4040024F40000366E016E580008EA
:101FF0000C000020000000200548064900688968A0
:10200000054AC1F30221515C01F01F01C84070472D
:102010000C000020001002407E58000805480649C8
:1020200000688968054AC1F3C221515C01F01F01B3
:10203000C84070470C000020001002407E58000885
:10204000184910B58868C0F381021748012A0BD0DF
:102050008A68164BC2F38102022A06D08A68C2F34C
:102060008102032A03D0002010BD184610BDCA68A3
:1020700002F00304CA68C2F30312521C032C02D0FC
:10208000B0FBF2F001E0B3FBF2F0CA68C968C2F33A
:1020900006225043C1F34161491C4900B0FBF1F0F5
:1020A00010BD0000001002400024F40000366E0154
:1020B0002DE9F84304007AD02078FA4DC00747D0C4
:1020C000A868E96800F00C0001F003010C2802D0B8
:1020D000082817D001E0032914D06068B0F5803FCC
:1020E00017D0B0F5A02F286817D020F480302860D2
:1020F000286820F4802028606068E0B1FFF74CFC7D
:10210000064614E02868800322D560680028D2D0F3
:102110001EE0286840F48030EDE740F4802028601D
:10212000F7E700BFFFF738FC801B642870D82868E9
:102130008003F7D50CE0FFF72FFC064605E000BF53
:10214000FFF72AFC801B6428F0D828688003F7D4A6
:10215000207880074CD5A868E96800F00C0001F0F1
:1021600003010C2802D004280DD001E002290AD076
:10217000E068002828682BD040F480702860FFF7C2
:102180000BFC064619E02868400502D5E0680028E7
:1021900091D06868217C20F0FE4040EA01606860D0
:1021A000C1480068FFF716FC002800D120E076E166
:1021B000FFF7F2FB801B0228B8D828684005F7D546
:1021C0006868217C20F0FE4040EA016068600FE012
:1021D00020F480702860FFF7DFFB064605E000BFB3
:1021E000FFF7DAFB801B0228A0D828684005F7D447
:1021F0002078000729D560690028D5F8940013D00D
:1022000040F00100C5F89400FFF7C6FB064606E063
:1022100090E000BFFFF7C0FB801B022886D8D5F8EE
:1022200094008007F6D510E020F00100C5F8940076
:10223000FFF7B2FB064604E0FFF7AEFB801B022867
:1022400078D8D5F894008007F6D42078400761D577
:10225000A86D0026C00008D4A86D40F08050A86585
:10226000A86D012600F08050009090480168C905D3
:1022700011D40168804641F480710160FFF78CFB46
:10228000074604E0FFF788FBC01B022852D8D8F8A5
:102290000000C005F6D5A068012815D00528D5F89E
:1022A000900016D020F00100C5F89000D5F89000FD
:1022B00020F00400C5F89000A06841F28838B8B159
:1022C000FFF76AFB07460EE0D5F8900040F00100EA
:1022D000F0E740F00400C5F89000F5E7FFF75CFB7D
:1022E000C11B414526D8D5F890008007F6D50CE0F3
:1022F000FFF752FB074604E0FFF74EFBC11B4145C9
:1023000018D8D5F890008007F6D41EB1A86D20F03B
:102310008050A8652078800629D5A0690028D5F8C6
:10232000980013D040F00100C5F89800FFF734FB87
:10233000064606E077E000BFFFF72EFB801B022871
:1023400077D8D5F898008007F6D510E020F0010086
:10235000C5F89800FFF720FB064604E0FFF71CFBDA
:10236000801B022865D8D5F898008007F6D4E0696C
:10237000F0B3A968C1F38101032961D0022828685C
:1023800020F0807028600BD0E86820F00300E8603F
:10239000E86847490840E860FFF7FEFA04464BE06A
:1023A000FFF7FAFA064604E0FFF7F6FA801B022868
:1023B0003FD828688001F7D4F4E908016FF00F02D4
:1023C00002EB01110843218A5204490802EB4151F2
:1023D000A26841EA02210843217D4FF07E4249086C
:1023E00002EB41610843217B40EAC160E96800E0FB
:1023F00062E0304A11400843E860286840F080708D
:102400002860E86840F08070E860FFF7C5FA04468D
:1024100005E000BFFFF7C0FA001B022809D82868B2
:102420008001F7D548E004E0FFF7B6FA001B022868
:1024300002D90320BDE8F88328688001F4D43BE08A
:102440000128F7D0E868226A00F00301914226D102
:10245000616A00F0F0020901103991421FD1A26AAD
:1024600000F4FE41B1EB022F19D194F82C2000F0BA
:102470007841B1EBC26F12D1218E00F4C00249083D
:102480004905A1F50011914209D194F8341000F0EA
:10249000C06049084906A1F1007181420CD00120B9
:1024A000C8E700000010024000000020007000405B
:1024B000FFFFEEFE0C809F010020BBE710B5401E21
:1024C000B0F1807F01D3012010BD4FF0E0246061A6
:1024D0000F21601702F0B3F80020A06107202061EF
:1024E000002010BDF0B590F83C20012A3AD001251B
:1024F00080F83C50022280F83D2003685A689C68AE
:10250000194E1A4FB34201D0BB4204D122F4700CD1
:102510004A6842EA0C02DFF858C002EA0C02D1F81D
:1025200000C04CEA020CC3F804C00268B2420DD0ED
:10253000B2F1804F0AD00F4B9A4207D00E4B9A420D
:1025400004D0BA4202D00D4B9A4204D1896824F0DB
:1025500080031943916080F83D50002180F83C10C1
:102560000846F0BD0220F0BD002C014000340140BF
:102570008FFFFFFD000400400008004000400140C4
:1025800010B586B0044614216846FEF73FF80E49A0
:102590002068884215D10D48C16C41F00101C16429
:1025A000C06C002100F00100059080200090022006
:1025B000CDE90101CDE9031069464FF09040FFF7E6
:1025C000BDF806B010BD000000040040001002403D
:1025D00070B5044690F83C0000260D4601280BD04B
:1025E000012084F83C000C2A4AD007DC82B1042A7E
:1025F00020D0082A06D131E0022070BD102A53D025
:10260000142A63D00126002084F83C00304670BDB7
:10261000206801F033F92068816941F00801816187
:102620002068816921F004018161206881692A693B
:10263000114311E0206801F06FF92068816941F4CD
:10264000006181612068816921F480618161206875
:1026500081692A6941EA02218161D4E7206801F099
:10266000A3F92068C16941F00801C1612068C1690E
:1026700021F00401C1612068C1692A69114311E098
:10268000206801F0D9F92068C16941F40061C16195
:102690002068C16921F48061C1612068C1692A692B
:1026A00041EA0221C161AEE7206801F00DFA20681D
:1026B000016D41F0080101652068016D21F0040100
:1026C00001652068016D2A69114311E0206801F05D
:1026D00033FA2068016D41F4006101652068016DE5
:1026E00021F4806101652068016D2A6941EA0221B7
:1026F000016588E710B5040003D094F83D0010B1DF
:1027000007E0012010BD002084F83C00204600F0C6
:1027100023F8022084F83D00211D206801F048F8CC
:10272000012084F8480084F83E0084F83F0084F8D3
:10273000400084F8410084F8420084F8430084F8A3
:10274000440084F8450084F8460084F8470084F883
:102750003D00002010BD000008B500680649884211
:1027600008D10648816D41F002018165806D00F05D
:102770000200009008BD000000040040001002406C
:1027800030B50446022269B1042912D0082917D0B5
:102790000C291CD0102921D094F84300012824D002
:1027A000012030BD94F83E000128F9D184F83E2084
:1027B0001DE094F83F000128F2D184F83F2016E094
:1027C00094F840000128EBD184F840200FE094F801
:1027D00041000128E4D184F8412008E094F8420047
:1027E0000128DDD184F8422001E084F84320012251
:1027F000206801F035F8194B20681949194A9842A8
:1028000009D0884207D0904205D0174DA84202D087
:10281000164DA84203D1456C45F400454564206837
:1028200098420CD0B0F1804F09D0114B984206D09D
:10283000104B984203D0884201D0904207D1816862
:102840000D4A1140062906D0B1F5803F03D001683A
:1028500041F001010160002030BD0000002C01406A
:102860000034014000400140004401400048014064
:1028700000040040000800400700010090F88010AC
:10288000012918D0012180F880102421C0F884107B
:1028900050F8641B0A680B6823F001030B6022F0F8
:1028A00000510022026050F8643C1960202101624E
:1028B000027710467047022070477047704770B526
:1028C000044690F8800001281DD0012084F8800083
:1028D0002420C4F8840020680568026822F0010200
:1028E00002602068826822F060620A4382602046AB
:1028F00001F05AF9206805602020C4F88400002007
:1029000084F8800070BD022070BD70B5044690F858
:10291000800001281DD0012084F880002420C4F804
:10292000840020680568026822F0010202602068C5
:10293000826822F060420A438260204601F034F946
:10294000206805602020C4F88400002084F88000FE
:1029500070BD022070BD7047704770472DE9F0418F
:1029600003680446D86919689A6840F60F0528423A
:102970004FF0000509D186067ED501F0200602F051
:1029800080573E4378D0216F27E1A94EA94F1640CA
:102990000F40374370D0C70709D0CF0507D50127AF
:1029A0001F62D4F88C3043F00103C4F88C308307E5
:1029B0000AD5D30708D0276802233B62D4F88C30AD
:1029C00043F00403C4F88C3043070AD5D30708D07A
:1029D000276804233B62D4F88C3043F00203C4F828
:1029E0008C3003070CD501F02003334308D0266850
:1029F00008233362D4F88C3043F00803C4F88C30D9
:102A000003050BD54B0109D526684FF400633362EB
:102A1000D4F88C3043F02003C4F88C30D4F88C30D8
:102A2000002B3AD0800609D501F0200002F0805139
:102A3000084303D0216F09B120468847D4F88C00A1
:102A400021688968490602D410F0280F27D0204653
:102A500001F06AF92068806840061BD520680830BC
:102A600050E8001F21F0400140E80012002AF5D193
:102A7000E06F78B1704900E017E08163E06FFEF726
:102A80000FFE002809D0E06F816B00E02046BDE812
:102A9000F04108472046FFF760FFBDE8F08120467F
:102AA000FFF75BFFC4F88C50F7E7E76E2026012F95
:102AB0007ED1C7067CD5CF067AD510201862206853
:102AC0008068400642D5E16F086840680004000C49
:102AD000E3D0B4F85C208242DFD9A4F85E00086835
:102AE000006880062BD4206850E8001F21F4807114
:102AF00040E80012002AF6D12068083050E8001F94
:102B000021F0010140E80012002AF5D120680830C8
:102B100050E8001F21F0400140E80012002AF5D1E2
:102B2000C4F88860E566216851E8000F20F01000C5
:102B300041E80002002AF6D1E06FFEF77CFDB4F810
:102B40005C00B4F85E10401A81B22CE0B4F85C006E
:102B5000B4F85E10401A81B2B4F85E0000289CD030
:102B600000299AD0226852E8000F20F4907042E8C1
:102B70000003002BF6D12E4BDB432068083050E8D1
:102B8000002F1A4040E80027002FF6D1C4F88860D3
:102B9000E5662567226852E8000F20F0100042E841
:102BA0000003002BF6D12046FFF787FE75E7FFE70D
:102BB000C70209D5570207D54FF480101862204686
:102BC000BDE8F041FFF7C8BE03060AD501F0800357
:102BD00002F40002134304D0616F00297FF456AF62
:102BE0005BE7420611D54A060FD52046016851E839
:102BF000002F22F0400241E80023002BF6D1C0F85C
:102C00008460456700F03EF947E7020206D54A00B6
:102C100004D52046BDE8F041FFF79DBEC001C5D5F3
:102C20000029C3DA2046BDE8F041FFF747BE0000A7
:102C30000100001020010004153D000810B504003B
:102C400003D0D4F8840010B107E0012010BD0020AB
:102C500084F88000204600F027F82420C4F884007F
:102C60002068016821F001010160204601F09EFA10
:102C70000128EBD0A06A10B1204600F0B7FF206811
:102C8000416821F4904141602068816821F02A0167
:102C900081602068016841F0010101602046BDE8C3
:102CA000104001F007B8000010B598B00446142198
:102CB00011A8FDF7ABFC44216846FDF7A7FC1B49B2
:102CC0002068884230D101200024CDE90004684604
:102CD000FEF760FF08B1FEF7ACFC1548016E41F449
:102CE00080410166016E01F480411691C16C41F092
:102CF0000101C164C06C11A900F0010016904FF4ED
:102D0000C06011900220CDE912040720CDE91440E3
:102D10004FF09040FEF712FD002211462520FEF7ED
:102D2000A1FE2520FEF790FE18B010BD003801402E
:102D30000010024030B4D0F88830202B20D1E1B10F
:102D4000DAB190F88030012B1AD0012380F880305E
:102D50000023C3660B4C0368A3420BD05B681B02C5
:102D600008D5046854E8003F43F0806344E8003528
:102D7000002DF6D130BC01F053BB012030BC7047B0
:102D80000220FBE70080004010B50C4A0168914228
:102D900012D10B4C0B4A23786178D1540122611C6B
:102DA000FFF7C8FF2078401CC0B22070162803D15E
:102DB000002020700120A07010BD000000380140EC
:102DC00030000020340100202DE9F8430446D0F8FB
:102DD00084001F4616460D46202851D1DDB1D6B1DC
:102DE00094F8800001284BD0012084F880004FF037
:102DF0000008C4F88C802120C4F884001834FEF741
:102E0000CBFDA6878146E68754F8100C183CB0F538
:102E1000805F03D004E00120BDE8F883206920B181
:102E20002E46002584F8808010E00026FAE78021F5
:102E3000204601F081FBB8B9C6B116F8010B216834
:102E40008862B4F85600401EA4F85600B4F8560044
:102E50004B464FF0000200970028E8D14FF04001A8
:102E6000204601F069FB30B10320D5E735F8020BAD
:102E7000C0F30800E3E72020C4F884000020CBE77B
:102E80000220C9E77047FEE700B585B01421684607
:102E9000FDF7BCFB4FF6FF70009000200321CDE949
:102EA0000201019069460248FEF748FC05B000BDEA
:102EB0000008004800B585B014216846FDF7A6FB60
:102EC0004FF6FF7000900120019003200390002036
:102ED000029069460248FEF731FC05B000BD0000D3
:102EE000000800482DE9F0410A4E8046356800246C
:102EF0002146204600F014F900F052F94FF49637BD
:102F0000404600F021F9641CBC42F9D33560BDE8AD
:102F1000F08100001408004830B587B014216846DD
:102F2000FDF774FB1E48C16C41F00401C164C16C23
:102F300001F004010591C16C41F00101C164C16C53
:102F400001F001010591C16C41F00201C164C06C46
:102F5000012500F0020005904FF44870CDE900050E
:102F600000240394694602940E48FEF7E7FB28020A
:102F700003940090CDE901544FF0904469462046F7
:102F8000FEF7DCFBFFF796FFA06940F48070A061BC
:102F900004481830016841F40871016007B030BD81
:102FA0000010024000040048203AD2B2034B02EB6A
:102FB000420203EB021200F021B80000865800081C
:102FC0002DE9F043DFF830800E468146D8F80070D6
:102FD000002540F23F1407E021464846FFF7E4FF92
:102FE000103C6D1CA4B2761C32780AB1142DF3D3B8
:102FF000C8F80070BDE8F083140800482DE9F047D8
:1030000091468A460026044600F08AF8DFF84080A0
:10301000012700BF00F0C4F85FF0000539F8160082
:1030200007FA05F10842404601D1408800E00088D7
:1030300000F08AF86D1C102DF0D3641CE4B25146E8
:10304000204600F06DF8761C182EE3D3BDE8F0871B
:103050001000002070B50C4E3568FFF75DFF0020B2
:1030600000F016F8094CA080A088A0F50241303984
:1030700007D000F05DFA002000F00AF8A08035606B
:1030800070BD00F0CCF9F6E71408004810000020ED
:1030900070B51D490A6842F400720A600A6842F479
:1030A00080720A60184C103C226842F020022260B4
:1030B000164A1060086840F02000086000BF00BF9A
:1030C00000BF206840F020002060206840F480703D
:1030D0002060FFF7D9FE4FF09041886A40F480707D
:1030E000886200BF00BF00BF0848001F006885B2AB
:1030F000886940F480708861FFF7DCFE206840F446
:1031000000702060284670BD28040048140800485C
:1031100001B5BDF800000149488008BD100000203D
:1031200010B50C460146202000F068F82146BDE8A5
:103130001040212000F062B801B5BDF8000001493F
:10314000088008BD10000020134A116841F4007186
:103150001160114910390B6843F480730B600B68E0
:1031600043F020030B600D4B1860106840F0200006
:10317000106000BF00BF00BF086840F0200008607A
:10318000086840F48070086000BF00BF00BF086896
:1031900040F4007008607047280400481408004894
:1031A0001449086840F400700860086840F48070B2
:1031B000086010481038026842F0200202600E4B8E
:1031C00022221A600A6842F020020A6000BF00BF93
:1031D00000BF016841F020010160016841F4807185
:1031E000016000BF00BF00BF016841F400710160D1
:1031F000704700002804004814080048184B10B518
:103200001A6842F400721A601A6842F480721A60F6
:10321000134A103A146844F020041460114C2060E2
:10322000186840F02000186000BF00BF00BF1068A1
:1032300040F020001060106840F480701060216041
:10324000186840F02000186000BF00BF00BF106881
:1032500040F020001060106840F48070106010BDD5
:103260002804004814080048F0B587B014216846C7
:10327000FDF7CCF92D48C16C41F00401C164C16C6B
:1032800001F004010591C16C41F02001C164C16CE1
:1032900001F020010591C16C41F00101C164C16CD4
:1032A00001F001010591C16C41F00201C164C16CE2
:1032B00001F002010591C16C41F00801C164C06CCC
:1032C0001B4E00F008004FF47F4405900122214678
:1032D0003046FEF75CFB174F012204213846FEF70B
:1032E00056FB0125CDE9004500240294694630468D
:1032F0000394FEF723FACDE9005469464FF090405D
:103300000295FEF71BFA07208DE8310069460A484E
:10331000FEF714FA04200090CDE9015469463846BE
:103320000394FEF70BFA07B0F0BD00000010024056
:1033300000080048000C00480004004810B58AB09E
:103340000024079408941C2168460994FDF75EF94F
:1033500016481549016040F28F11C0E9011463213C
:10336000C0E903148461FFF7C5F908B1FEF761F9FC
:10337000079407A90D480994FFF7B4F808B1FEF7C0
:1033800058F96020CDE900040294042269460748F8
:103390000494FFF71DF908B1FEF74BF90348FFF756
:1033A000EFF80AB010BD00000004004058000020F3
:1033B000184810B5164901604FF4165141600021BC
:1033C00081600C22C160C0E904128161C1610162A7
:1033D00041628162FFF732FC08B1FEF72AF9002151
:1033E0000C48FFF792FA08B1FEF723F900210948CB
:1033F000FFF765FA08B1FEF71CF90648FFF73EFA39
:10340000002803D0BDE81040FEF713B910BD00003E
:1034100000380140A4000020FEE7FEE7704730B509
:1034200001210020FFF7EAFE4FF47A70FEF7F3F86F
:1034300000210120FFF7E2FE41F290711020FFF71A
:10344000DDFE4FF41C516020FFF7D8FE0121612002
:10345000FFF7D4FE02214620FFF7D0FE48F210010C
:103460001320FFF7CBFE48F2FE011220FFF7C6FE45
:103470004FF4A0610220FFF7C1FE41F230010320AA
:10348000FFF7BCFE40F2033421463020FFF7B6FEC2
:1034900021463120FFF7B2FE21463220FFF7AEFE73
:1034A000E51E29463320FFF7A9FE03213420FFF74C
:1034B000A5FE21463520FFF7A1FE14213620FFF797
:1034C0009DFE21463720FFF799FE21463820FFF761
:1034D00095FE21463920FFF791FE29463A20FFF755
:1034E0008DFE03213B20FFF789FE21463C20FFF79C
:1034F00085FE4FF4A0513D20FFF780FE4FF4007190
:103500009220FFF77BFE21469320FFF777FE40F6DF
:103510000D019020FFF772FE41F218010320FFF722
:103520006DFEBDE8304040F273110720FFF766BE24
:1035300010B543F20801E320FFF760FE1221E720F7
:10354000FFF75CFE41F23121EF20FFF757FE00212B
:103550000120FFF753FE4FF4E0610220FFF74EFE1B
:1035600041F230010320FFF749FE00210420FFF75C
:1035700045FE40F207210820FFF740FE0021092008
:10358000FFF73CFE00210A20FFF738FE00210C2047
:10359000FFF734FE00210D20FFF730FE00210F2041
:1035A000FFF72CFE00211020FFF728FE0721112035
:1035B000FFF724FE00211220FFF720FE0021132038
:1035C000FFF71CFEC820FEF7A7F841F2906110201B
:1035D000FFF714FE40F227211120FFF70FFE3220E3
:1035E000FEF79AF81D211220FFF708FE3220FEF7A1
:1035F00093F84FF400611320FFF700FE14212920F7
:10360000FFF7FCFD0B212B20FFF7F8FD3220FEF722
:1036100083F800212020FFF7F1FD00212120FFF792
:10362000EDFD07213020FFF7E9FD40F20771312061
:10363000FFF7E4FD06213220FFF7E0FD40F20471C0
:103640003520FFF7DBFD41F604713620FFF7D6FD8C
:1036500004213720FFF7D2FD00213820FFF7CEFDEF
:1036600040F206713920FFF7C9FD40F201713C209C
:10367000FFF7C4FD0F213D20FFF7C0FD00215020C2
:10368000FFF7BCFDEF215120FFF7B8FD00215220CC
:10369000FFF7B4FD40F23F115320FFF7AFFD4FF4A9
:1036A0001C516020FFF7AAFD01216120FFF7A6FD54
:1036B00000216A20FFF7A2FD00218020FFF79EFD78
:1036C00000218120FFF79AFD00218220FFF796FD5F
:1036D00000218320FFF792FD00218420FFF78EFD5B
:1036E00000218520FFF78AFD10219020FFF786FD3D
:1036F00000219220FFF782FD03219320FFF77EFD3A
:103700004FF488719520FFF779FD00219720FFF78E
:1037100075FD00219820FFF771FD41F2180103208B
:10372000FFF76CFDBDE8104040F273110720FFF772
:1037300065BD7047FEF736B910B594B038216846BC
:10374000FCF764FF14210EA8FCF760FF4FF4007033
:10375000FEF7BAF901200090000401900220032432
:10376000CDE907041421CDE90A100C900D900994BD
:103770006846FEF79DFC08B172B6FEE70F20CDE962
:103780000E04002010901190129002210EA8FEF756
:1037900045FB002801D072B6FEE714B010BD000052
:1037A0000248016841F470010160704788ED00E053
:1037B0002DE9F0430268234B234D244E244C4FF057
:1037C0008049984207D0484505D0A84203D0B0426E
:1037D00001D0A04203D122F070074A683A431D4F3E
:1037E000DFF874C0DFF8748098420DD048450BD0E4
:1037F000A84209D0B04207D0A04205D0B84203D0B9
:10380000604501D0404503D122F44075CA682A437F
:103810004D6922F080022A4302608A68C2620A6807
:103820008262984207D0A04205D0B84203D06045DA
:1038300001D0404501D10969016301214161BDE821
:10384000F0830000002C014000040040000800400C
:103850000034014000400140004401400048014064
:1038600010B501F01F030121046A99408C430462E2
:10387000016A9A401143016210BD00002DE9F04336
:10388000026A22F001020262056A436882691C4CE6
:1038900025F0020522400C6822F0030214438A68D6
:1038A000194E2A43174D194FDFF864C0DFF86490B2
:1038B000A84207D0B04205D0B84203D0604501D03D
:1038C000484506D122F00808CA6842EA080222F0F8
:1038D0000402A84207D0B04205D0B84203D06045E8
:1038E00001D0484505D14D6923F440731D438B69D0
:1038F0002B4343608461496841630262BDE8F08301
:103900008FFFFEFF002C01400034014000400140C9
:103910000044014000480140F0B5026A22F0100264
:103920000262056A42688369194C1B4E23400C6889
:1039300023F4407343EA042425F020038D6843EA0E
:103940000513144DA84201D0B04206D1CF6823F030
:10395000800343EA071323F04003A8420AD0B04291
:1039600008D00E4DA84205D00D4DA84202D00D4DF5
:10397000A84207D14D6922F4406242EA85028D696E
:1039800042EA850242608461496881630362F0BD56
:10399000FF8FFFFE002C0140003401400040014039
:1039A0000044014000480140F0B5026A22F48072F0
:1039B0000262056A4368C269194C1B4E22400C68BA
:1039C00022F00302144325F400728D6842EA0522B6
:1039D000144DA84201D0B04206D1CF6822F4006253
:1039E00042EA072222F48062A8420AD0B04208D0FC
:1039F0000E4DA84205D00E4DA84202D00D4DA84252
:103A000007D14D6923F4405343EA05138D6943EA16
:103A100005134360C4614968C1630262F0BD0000E0
:103A20008FFFFEFF002C01400034014000400140A8
:103A30000044014000480140F0B5026A22F480527F
:103A40000262056A4268C369194C1B4E23400C6828
:103A500023F4407343EA042425F400538D6843EAB9
:103A60000533144DA84201D0B04206D1CF6823F4EB
:103A7000004343EA073323F48043A8420AD0B0420C
:103A800008D00E4DA84205D00D4DA84202D00D4DD4
:103A9000A84207D14D6922F4404242EA85128D695D
:103AA00042EA85124260C461496801640362F0BD64
:103AB000FF8FFFFE002C0140003401400040014018
:103AC000004401400048014030B5026A22F48032CF
:103AD0000262046A4268036D114D2B400D681D435C
:103AE00024F400330C8943EA04430E4CA0420BD06B
:103AF0000D4CA04208D00D4CA04205D00C4CA04269
:103B000002D00C4CA04204D14C6922F4803242EA2B
:103B100004224260056549688164036230BD00008B
:103B20008FFFFEFF002C01400034014000400140A7
:103B3000004401400048014030B5026A22F480127E
:103B40000262046A4268036D114D24F400142B4094
:103B50000D6843EA05230D8944EA05540D4DA8423A
:103B60000BD00D4DA84208D00C4DA84205D00C4DED
:103B7000A84202D00B4DA84204D14D6922F4802204
:103B800042EA8522426003654968C164046230BD2F
:103B9000FF8FFFFE002C0140003401400040014037
:103BA000004401400048014030B5416EB9B102689F
:103BB00091689268C1F342610B4B520F9C5CE50027
:103BC00003F10804A25CB5FBF2F2A0F86A205A5C8B
:103BD000615CD200B2FBF1F1A0F8681030BD0121A8
:103BE000A0F86A10F8E700005E58000890F8281066
:103BF000C90706D001684A68C36A22F400321A4332
:103C00004A6090F82810890706D501684A68036B56
:103C100022F480321A434A6090F82810490706D5EA
:103C200001684A68436B22F480221A434A6090F884
:103C30002810090706D501684A68836B22F4004200
:103C40001A434A6090F82810C90606D501688A68A8
:103C5000C36B22F480521A438A6090F828108906B8
:103C600006D501688A68036C22F400521A438A6000
:103C700090F82810490611D501684A68436C22F46F
:103C800080121A434A60416CB1F5801F06D1016869
:103C90004A68836C22F4C0021A434A6090F82810E4
:103CA000090606D501684A68C06C22F40022024366
:103CB0004A607047F8B500260446C0F88C60FDF7EE
:103CC0006BFE0546206800686FF07E47000708D548
:103CD0002B4600224FF400112046009700F02CFCE8
:103CE00060B92068006840070AD52B4600224FF4CF
:103CF00080012046009700F01FFC08B10320F8BDAA
:103D00002020C4F88400C4F8880044F86C6F0020B8
:103D10002675F8BD10B5806A0021A0F85E10A0F8E5
:103D20005610FEF71AFE10BD10B5026852E8001FCB
:103D300021F4907142E80013002BF6D10E4B02687B
:103D4000083252E8001F194042E80014002CF6D156
:103D5000C16E012908D1016851E8002F22F010023C
:103D600041E80023002BF6D12021C0F88810002163
:103D7000C166016710BD0000FEFFFFEF10B5B0F88F
:103D80006020D0F888300168222B04D0886940F088
:103D90000800886110BD496A836D11401980816DEA
:103DA000891C8165B0F85E10491EA0F85E10B0F85D
:103DB0005E100029EED1026852E8001F21F49071D4
:103DC00042E80013002BF6D10168083151E8002FBA
:103DD00022F0010241E80023002BF5D12021C0F898
:103DE000881000210167C26E012A02D0FEF7CCFFC5
:103DF00010BDC166026852E8001F21F0100142E8C0
:103E00000013002BF6D10168CA69D243D20601D44F
:103E100010220A62B0F85C10FEF74FFD10BD0000E2
:103E20002DE9F0470446B0F860600068C569D0F835
:103E300000A0D0F80880D4F88810222905D0816924
:103E400041F008018161BDE8F087B4F868704FF077
:103E5000000963E02068406AA16D30400880A06DD1
:103E6000801CA065B4F85E00401EA4F85E002068C7
:103E7000C569690730D0E9070AD05FEACA5107D59A
:103E800001210162D4F88C0040F00100C4F88C00DC
:103E9000A8070BD55FEAC87008D021680220086225
:103EA000D4F88C0040F00400C4F88C0068070BD5EF
:103EB0005FEAC87008D0216804200862D4F88C003A
:103EC00040F00200C4F88C00D4F88C0020B12046E9
:103ED000FEF743FDC4F88C90B4F85E00F0B9216899
:103EE00051E8000F20F4807041E80002002AF6D16A
:103EF000264A2068083050E8001F114040E80013AF
:103F0000002BF6D12020C4F88800C4F87090E16E30
:103F10004846012923D02046FEF736FF0FB1A806F8
:103F200098D4B4F85E0000288DD0B4F868108142AF
:103F300089D92068083050E8001F21F0805140E8FE
:103F40000012002AF5D112482067206850E8001FAF
:103F500041F0200140E80012002AF6D173E7E06644
:103F6000216851E8000F20F0100041E80002002A0B
:103F7000F6D12068C169C943C90601D41021016284
:103F8000B4F85C102046FEF798FCC7E7FEFFFFEF91
:103F90007D3D000810B5B0F86020D0F88830016889
:103FA000222B04D0886940F00800886110BD496A5E
:103FB0001140826D1170816D491C8165B0F85E10F1
:103FC000491EA0F85E10B0F85E100029EED102681C
:103FD00052E8001F21F4907142E80013002BF6D143
:103FE0000168083151E8002F22F0010241E8002366
:103FF000002BF5D12021C0F8881000210167C26E86
:10400000012A02D0FEF7C0FE10BDC166026852E868
:10401000001F21F0100142E80013002BF6D10168C7
:10402000CA69D243D20601D410220A62B0F85C10E9
:10403000FEF743FC10BD00002DE9F0470446B0F840
:1040400060600068C569D0F800A0D0F80880D4F896
:104050008810222905D0816941F008018161BDE8FD
:10406000F087B4F868704FF0000963E02068406A98
:10407000A16D30400870A06D401CA065B4F85E00D2
:10408000401EA4F85E002068C569690730D0E907C2
:104090000AD05FEACA5107D501210162D4F88C0029
:1040A00040F00100C4F88C00A8070BD55FEAC87087
:1040B00008D0216802200862D4F88C0040F0040087
:1040C000C4F88C0068070BD55FEAC87008D0216877
:1040D00004200862D4F88C0040F00200C4F88C0080
:1040E000D4F88C0020B12046FEF737FCC4F88C9041
:1040F000B4F85E00F0B9216851E8000F20F4807038
:1041000041E80002002AF6D1264A2068083050E82B
:10411000001F114040E80013002BF6D12020C4F806
:104120008800C4F87090E16E4846012923D02046EB
:10413000FEF72AFE0FB1A80698D4B4F85E00002856
:104140008DD0B4F86810814289D92068083050E8D1
:10415000001F21F0805140E80012002AF5D11248DA
:104160002067216851E8000F40F0200041E800027C
:10417000002AF6D173E7E066216851E8000F20F0CD
:10418000100041E80002002AF6D12068C169C94345
:10419000C90601D410210162B4F85C102046FEF774
:1041A0008CFBC7E7FEFFFFEF953F00082DE9F041CC
:1041B0000446016880682269E3691043626900254A
:1041C0001A431043DFF82CC20A688B4B1A40024393
:1041D0000A6020684168E26821F44051114341605F
:1041E0002168A069614501D0226A10438A68834B27
:1041F0001A4002438A602068C16A626A21F00F0196
:104200001143C1627E4923687E488B420DD1D0F8AC
:10421000880010F0030006D0012855D0022842D0B3
:1042200003283FD152E001203DE077498B420BD17A
:10423000D0F8880010F00C0035D0042833D00828BE
:1042400040D00C282ED141E070498B420BD1D0F8E0
:10425000880010F0300026D0102835D0202831D02A
:1042600030281FD132E06A498B420BD1D0F8880048
:1042700010F0C00017D0402826D0802822D0C028B7
:1042800010D123E063450DD1D0F8880010F44060D0
:1042900009D0B0F5806F17D0B0F5006F12D0B0F52F
:1042A000406F13D010205B495B4F00264FF4004253
:1042B00063453BD160B1022813D004280BD00828F5
:1042C00072D10DE00220EEE70420ECE70820EAE7D7
:1042D000FDF792FE01E0FDF7B3FE010001D17CE0A5
:1042E0001146606A37F810206768B1FBF2F007EBFF
:1042F0004703834270D8B0EB073F6DD800230846D0
:104300001946FBF7EBFF090241EA10610202780847
:10431000101871413A460023FBF7E0FF3F4AA0F531
:104320004071914258D82168C86056E0E3694FF661
:10433000EF7893422CD109284ED2DFE800F005082F
:10434000114D0D4D4D4D1000FDF756FE01E0FDF7EE
:1043500065FE010004D140E0FDF772FEF9E7114669
:10436000606A37F81000B1FBF0F04100606801EBC3
:104370005001B1FBF0F0A0F1100141452CD84FF6EF
:10438000F0710140C0F3420001432068C16024E0A5
:10439000092821D2DFE800F0050912200E20202094
:1043A0001100FDF729FE02E016E0FDF737FE0100DF
:1043B00004D112E0FDF744FEF9E71146606A37F8D0
:1043C0001000B1FBF0F1606801EB5001B1FBF0F0BF
:1043D000A0F1100141450AD901250120A4F86A0085
:1043E00024F8680F2846A660E660BDE8F08180B238
:1043F00099E7000000800040F369FFCFFFF4FF1150
:1044000000380140001002400044004000480040D5
:10441000004C00400024F40046580008FFFC0F0048
:1044200070B58165A0F85C20A0F85E2000210167CE
:1044300083684FF48055FF24AB4204D10369FBB974
:1044400040F2FF1322E07F26C3B1B3F1805F1AD0A0
:10445000A0F86010C0F88C102223C0F888300368E0
:10446000083353E8004F44F0010443E80046002EAF
:10447000F5D1436EB3F1005F0ED032E0036943B96A
:10448000A0F86040E6E703691BB13F23A0F8603065
:10449000E0E7A0F86060DDE7B0F86830934220D82C
:1044A0008268AA4201D10269CAB11F4A026780F834
:1044B0008010016941B1026852E8001F41F4807127
:1044C00042E80013002BF6D10168083151E8002FB3
:1044D00042F0805241E80023002BF5D121E0134A3D
:1044E000E4E78268AA4201D102697AB1104A026700
:1044F00080F88010016959B1026852E8001F41F448
:10450000907142E80013002BF6D10AE0094AEEE769
:10451000026852E8001F41F0200142E80013002B1E
:10452000F6D1002070BD000039400008213E00088F
:10453000953F00087D3D00082DE9F0479A46174653
:104540000E4604464FF000094FF02008089D4AE04F
:10455000681C48D0FDF720FAA0EB0A00A8422AD830
:104560004DB32068016849073DD5C069C0430005C7
:1045700039D421684FF400600862206850E8001FB9
:1045800021F4D07140E80012002AF6D120680830EA
:1045900050E8001F21F0010140E80012002AF5D187
:1045A00044F8848FC4F80480C4F8088004F8049C9C
:1045B0000320BDE8F087216851E8000F20F4D07097
:1045C00041E80002002AF6D12068083050E8001FB8
:1045D00021F0010140E80012002AF5D144F8848F4F
:1045E000C4F80480E2E72068C06936EA000004D01D
:1045F0000020B842ACD00020DBE70120F9E7000042
:104600000148FEF7ABB90000A4000020FEE703B4A8
:1046100001984100009850EAC12018BF04204A0DBB
:1046200018BF40F0010040F2FF72B2EB515F08BFCB
:1046300040F00200012808BF052002B070470907BA
:10464000090E002804DB00F1E02080F80014704718
:1046500000F00F0000F1E02080F8141D70473038A2
:104660000A2801D201207047002070472DE9F04F41
:10467000FA492DED048B8BB0887800287ED000207D
:1046800088704861F64888460C3107780F70467884
:104690004E7085788D70C478CC704279091D914632
:1046A0000A7082794A700292C2798A700192027A03
:1046B000CA700092827AC17A303A02EB82023039B3
:1046C00001EB420100F148038E461960027B417BF9
:1046D000303A02EB8202303901EB42015960089115
:1046E000827BC17B303A02EB8202303901EB42011E
:1046F00099608B46027C417C303A02EB8202303971
:1047000001EB4202DA6090F812C0C17CACF1300CCF
:104710000CEB8C0C303901EB4C01196190F815C091
:10472000007DACF1300C303800EB80000CEB400029
:1047300058610390CB48CC4B006807901B68C0F1D0
:104740000800C01A0490069398F804304046059378
:10475000DFF80CA343690AF1780A1AF82380C145EF
:1047600018D10AEB830ADDF808809AF801C0E04509
:1047700010D19AF80280DDF804C000E03AE1C445A7
:1047800008D19AF80380DDF800C0C44502D10123A6
:10479000C37006E05B1C4361082BD9DBC378002B98
:1047A0007BD0049B082B79DA00238246C3704069D2
:1047B000DFF8AC8200EB400008F1980818F810C050
:1047C00008EB4000AEEB0C0CA8F1380ECEF800C0A0
:1047D00090F801C0089BA3EB0C0CCEF804C090F835
:1047E00002C0CDF824C0BBEB0C03CEF8083090F823
:1047F00003C0CDF820C0A2EB0C08CEF80C8090F8D6
:1048000004C0CDF810C0A1EB0C08CEF810804079A0
:10481000DDF80CC0ACEB000CCEF814C04FF03C0C33
:104820009FED928B9FED939B1BD00BEB4B0002EB0C
:10483000C000C0EB001001EB80020998A0EB001053
:1048400000EB400043010898A0EB001003EB800050
:1048500002440498101A90FBFCF30CFB130282B97B
:104860001DE0C2EB021083000898A0EB001003EBE0
:10487000800001440498081A90FBFCF30CFB130120
:1048800069B1D04600F063FD53EC182B00F0D8FB63
:1048900053EC192B00F02CFB08E0B3E01BE1D046F1
:1048A00000F055FD53EC182B00F0CAFB00F020FD82
:1048B000C8F81C00432F02D0562F12D017E04E2EFE
:1048C00015D1422D13D1522C11D166490798401EA3
:1048D0000860DAF81C0000F03AFD41EC100B674864
:1048E0001AE04E2E03D1422D01D1522C09D00120C5
:1048F0008AF80400002032238AF80400052260A10F
:104900003BE059490698401E0860DAF81C0000F0A8
:104910001EFD41EC100B5C4890ED001B51EC100BA0
:1049200053EC112B00F02AFD00F0B0FACAF8180081
:1049300005990029DED1D046DAF8180000F006FF0C
:10494000CDE908019DE80700D8F81C30CDF80890A3
:10495000CDE90503CDE903214148CDE900543346B3
:104960003A464AA11630FBF731FD3D481630FBF7B9
:104970002EFE3B49322382B216314B48FEF724FA11
:10498000374ADAF814000021783202EB800302F88B
:10499000201059709970D97000EB400502F1200386
:1049A00003F8151003EB45056970A970E9702971CA
:1049B00069711DE002EB80010D7902F820504E79FB
:1049C0004E708E798E70CE79CE7000EB400603EB80
:1049D00046018F7903F81670CE794E700E7A8E707C
:1049E0004E7ACE708E7A0E71CE7A4E713DB1401CE9
:1049F0000728DFDB0BB0BDEC048BBDE8F08FCAF8F5
:104A00000800F7E7049B002B65DD8246D0F808809C
:104A1000134808EB480C983000F81CE000EB4C0001
:104A2000089B437080F802B0C27001710399417114
:104A30000B49783101EB880001F82890029A427006
:104A4000019981700099C17008F10100CAF808004D
:104A5000432F2BD0562F32D037E0000030000020FB
:104A6000340100205000002054000020000000000D
:104A700000004E40000000000000F03F2000002039
:104A80004572726F720000002800002025632563C4
:104A9000256325633A25632563256325633A2564E9
:104AA0003A252E3266000000A40000204E2E0CD1C4
:104AB000422D0AD1522C08D11149079819E04E2EE7
:104AC00003D1422D01D1522C11D001208AF80400CB
:104AD00000208AF8040032230522AFF25C010BB0FB
:104AE0000848BDEC048BBDE8F04FFEF76DB90649F0
:104AF0000698401C086005980028E9D17AE7000074
:104B000050000020A40000205400002070B54B4D40
:104B100001212DED028B2846FCF734FF484C80B96B
:104B20001420FCF7F9FD01212846FCF72BFF002893
:104B3000F9D01420FCF7F0FD2178491C01F00100A8
:104B400020702078F0B302212846FCF71BFF9FED70
:104B50003D8BF8B91420FCF7DFFD02212846FCF755
:104B600011FF0028F9D01420FCF7D6FD94ED020BBC
:104B700053EC182B51EC100B00F0BAF9C4E9020108
:104B800094ED040B53EC182B51EC100B00F0B0F922
:104B9000C4E9040104212846FCF7F4FE90B914206E
:104BA000FCF7BAFD04212846FCF7ECFE0028F9D0FA
:104BB0001420FCF7B1FD94ED020B53EC182B51ECD3
:104BC000100B00E00DE000F0D7FCC4E9020194ED09
:104BD000040B53EC182B51EC100B00F0CDFCC4E986
:104BE00004014FF0904501212846FCF7CBFE002838
:104BF00020D11420FCF790FD01212846FCF7C2FECD
:104C00000028F9D01420FCF787FD60780F49401C7C
:104C100010F00100607003D014200860012102E050
:104C2000002008600146BDEC028B0220BDE8704008
:104C300000F0C4B8BDEC028B70BD00000004004859
:104C400018000020000000000000E03F3804004091
:104C500010B53148314C0078002832D030A13548A9
:104C6000FBF7B4FB33491820FEF7AAF9324833A109
:104C700090ED000B2F4853EC102BFBF7A7FB2D49B1
:104C80004820FEF79DF9324832A190ED000B2948EB
:104C900053EC102BFBF79AFB26497820FEF790F98E
:104CA00031A12448FBF792FB2249A820FEF788F99E
:104CB00020686168C0F10800401A002825DD012144
:104CC00024E02DA11B48FBF781FB1A491820FEF7B1
:104CD00077F92EA117482268FBF778FB1549482081
:104CE000FEF76EF92DA113486268FBF76FFB1149BF
:104CF0007820FEF765F920686168C0F10800421A63
:104D00002AA10C48FBF762FBCEE70021BDE810406A
:104D1000012000F053B800001800002050000020CF
:104D2000202020202020205061726120202020207F
:104D300020202000FC010020200000202020204313
:104D40004E42523A252E32662020202000000000DC
:104D500028000020202020564E42523A252E32664E
:104D600020202020000000002020202020202020C3
:104D7000202020202020000020202020202020444F
:104D8000617461202020202020202000202020434A
:104D90004E42523A25642020202000002020205638
:104DA0004E42523A25642020202000002020204935
:104DB000444C453A256420202020000070B50C4D5D
:104DC0000C460646012204212846FCF7E0FD80221D
:104DD000B240084891B20CB1002200E00122FCF779
:104DE000D6FD2846BDE8704000220421FCF7CFBD67
:104DF000000C004800080048FCF7DCFDFEF79CFCB6
:104E0000FEF732FAFEF79AFAFEF7D2FA00220421F0
:104E10000F48FCF7BCFDFEF71DF90020FEF762F815
:104E20000020FEF775F94FF6FF70FEF785F90421B3
:104E30000848FDF7A5FC012207490848FDF77AFF5D
:104E4000FFF714FCFFF762FEFFF702FFF8E7000030
:104E5000000C00485800002031000020A400002071
:104E600010B500290AD00878002807D005487844F2
:104E7000FBF7C0FF002801D0002010BD0248784495
:104E800010BD00009E1C0000961C000021F0004296
:104E9000A2F16052B2F5801F01F0004328BFD2F1A9
:104EA0007F6C0BD95FEA001C43EAC20242EB5070F0
:104EB00018BF704728BF20F001007047B2F5801F6F
:104EC000BCBF184670474FEA410C1CF5001F02D2C8
:104ED000084600F0B1BC70B500F0FAFA0000008995
:104EE000FFF7F6BF4FF00040A0F5800070470000CC
:104EF00010B591EA030F48BF83F0004300F14483EB
:104F0000841A71EB030C05D2121943EB0C03001B3E
:104F100061EB0C01DFF824E14FEA1154A4EB135CC0
:104F20001EEA430F18BF9EEA445F73D023EA0E03C4
:104F3000DCF1200E21EA045143F4801332D322FA2B
:104F40000CFE10EB0E0023FA0CFE41EB0E01CCF12F
:104F5000200E03FA0EFE10EB0E0051F10001B1F528
:104F6000801FCCF1200E32D201EB045112FA0EF266
:104F7000BDE8104058BF7047401C38BF5FEA42028E
:104F800018BF7047002814BF20F0010041F1000154
:104F90004FEA410313F5001F38BF7047A1F1C0412C
:104FA00000F0E4BA012A43EB0302ACF1200CDCF17F
:104FB0001F0E32BF4FF0000E23FA0CF310EB03006C
:104FC00041EB0451B4EB115FD0D0A1EB045101F5DA
:104FD000801149085FEA300001EB04510ED350F113
:104FE000000038BF12FA0EFE08D1BDE81040C9E734
:104FF000401C38BF5FEA4202CAD1C3E7BDE8104097
:105000004FEA410313F5001F38BF7047A1F1C041BB
:1050100000F0ACBA9EEA445F08D011EA5E0FBDE82A
:10502000104004BF01F0004100207047BDE810406F
:1050300070B500F04DFA00BF64FBBE3E0000E0FF1B
:105040002DE9C04130B4DFF8A0C23CEA111418BF0A
:105050003CEA131400F0EC8081EA03051CEA111409
:1050600044EAD57418BF1CEA131500F0C780A4EBFE
:1050700005044FF0004545EAC12145EAC32341EA52
:10508000505143EA525304F17F74994204F50034BD
:105090004FEAC0204FEAC22208BF904200F09C8035
:1050A0004FEA13650FF24016765D4FEA134506FB93
:1050B00005F7C7F1807706FB07F74FEAD737A7FB5D
:1050C00003687642C8F58038A7FB06CE38BFA8F142
:1050D000010807FB08E64FF0000EA6FB028CE6FB7A
:1050E00003CEDCF1000CCEF1004E38BFAEF1010E64
:1050F000A6FB0C584FF000074FF00005E6FB0E87AB
:10510000A1FB08C6A0FB07CE16EB0E0645F1000575
:10511000E1FB076515F1E04E7EBFA4F580345FEA40
:1051200046066D4116F1800745F100054FEA172745
:105130004FEA066647EA0567A6F1DE46B6F1805FEC
:105140004FEA15251FD9384624F0010C05EBC47130
:10515000BCF1FE6F01EB0C1102D8F0BCBDE8008180
:1051600024425CBF01F5801E9EEAC47F02D4F0BCDD
:10517000BDE80081244238D4F0BCA1F1C041BDE8B3
:10518000004100F0F3B94FEAD22242EA43524FEA1B
:10519000D323A7FB02864FEAD02040EA415007FB09
:1051A00003661EEA0E0F4FEAD12105FB026658BFC7
:1051B000A6EB0056B6EB00564FEA520E4EEAC37EFF
:1051C00018EB0E0E56EB530EBDD518EB02085E41E0
:1051D0007F1C55F10005B6E74FF480154FF000072E
:1051E0004FF000064FF00008ADE7F0BC4FF00000B4
:1051F00001F1C04101F00041BDE8008111EA0C1F3E
:105200000CEA131500D00CE013EA0C1F00F0258007
:105210004FF00000F0BC81EA030101F00041BDE85D
:105220000081F0BCBDE8004181EA030100F09EB9B5
:10523000F0BCBDE8004170B500F04AF9097EFC3EC3
:1052400000F007B881EA03014FF0000001F00041CF
:10525000704781EA030100F089B9F0BCBDE8004164
:105260004FF0000021497047FFFDFBF9F7F5F4F21C
:10527000F0EEEDEBE9E8E6E4E3E1E0DEDDDBDAD8F1
:10528000D7D5D4D3D1D0CFCDCCCBCAC8C7C6C5C44F
:10529000C2C1C0BFBEBDBCBBBAB9B8B7B6B5B4B366
:1052A000B2B1B0AFAEADACABAAA9A8A8A7A6A5A451
:1052B000A3A3A2A1A09F9F9E9D9C9C9B9A99999815
:1052C0009797969595949393929191908F8F8E8EB8
:1052D0008D8C8C8B8B8A8989888887878685858445
:1052E00084838382828181800000FF070000F87F31
:1052F0004FEA41034FEA5353A3F58063D3F11E03F2
:10530000C8BFD3F1210C0CDD4FF0004242EAC122AC
:1053100042EA505232FA03FC8CEAE17CACEBE170D9
:105320007047102BC4BF0020704703F5787CBCF198
:10533000FF3F04D06FF0004282EA2100704770B551
:1053400000F0C6F84992248000207047F2E710F080
:10535000004248BF4042B0FA80F310FA03F10AD08D
:10536000C3F11D0303F580634FEA415002EB035282
:1053700002EBD12170474FF000007047DFF848C1C1
:1053800070B51CEA111E1EBF1CEA13159EEA0C0F15
:1053900095EA0C0F00F06F8081EA030423EA4C13B6
:1053A0004EEAD47E21EA4C1141F4801143F480137B
:1053B000AE44A1FB024CA0FB0365AEF17F7E361923
:1053C00055EB0C05A1FB034C4CF10003A0FB021CA8
:1053D00016EB0C06654153F10003094218BF46F075
:1053E000010613F4007F0BD14FEA03314FEA053079
:1053F000340341EA155140EA16506FF003020AE007
:105400004FEAC3214FEAC520F40241EA555140EA70
:1054100056506FF0020202EB2E4201EB025585EA74
:10542000CE710AD05FEA440C18BF24F0004450F15A
:10543000000041F1000120EAD47040F2FE7C624598
:1054400000D270BDA84214BF4FF080444FF04044DA
:10545000002E08BF0024BEF1806FA8BFA1F1C0419B
:10546000BDE8704080F282804FF0000001F1C04141
:1054700001F0004170479EEA0C0F0CEA131518BFAB
:1054800095EA0C0F06D04FF0000081EA030E0EF0F3
:10549000004170BD00F01CF88900013E00F007B823
:1054A00000F009B84FEA430C5FEA5C5C08D081EA7F
:1054B000030100F05BB84FEA410C5FEA5C5CF6D197
:1054C0004FF00000014970470000FF070000F87F1F
:1054D0000EF1020E2EF0030E5EF8046B364205D478
:1054E000012A43EB030515F5001F12D8012841EBF3
:1054F000010C1CF5001F0CD80ED14FEAD17C15F51C
:10550000001F0CEB4C0C0CF1020C08BF4CEBD37CD5
:1055100004E04FF0080C01E04FEAD37C0CEB4C05A3
:1055200026FA05F606F00706B6F1040C06D20EEBD5
:10553000860CBDE870404CF0010C6047DFE80CF0D1
:10554000090B02024FF000414FF00000A1F50021CD
:1055500070BD19461046012851EB010418BFD4F55F
:10556000001484BF002001F0004170BD0808A0F5C0
:1055700000114FEA3101704710B591EA030F48BF9F
:1055800083F000433FF5BCAC841A71EB030C07D2E7
:1055900012198CF0004C43EB0C03001B61EB0C0167
:1055A000DFF8A4E14FEA1154A4EB135C1EEA430FA9
:1055B00018BF9EEA445F00F0B08023EA6E035242B7
:1055C00021EA0451C3EB6E0338BF5B1EDCF1200EF1
:1055D00025D322FA0CFE10EB0E0043FA0CFE41EB31
:1055E0000E01CCF1200E03FA0EFE10EB0E0051F16D
:1055F0000001CCF1200E29D412FA0EF201EB045175
:10560000BDE8104058BF7047401C1CBFB2F1004FAE
:10561000704700280CBF491C20F00100704712EBB6
:10562000020E43EB030218BF4FF0010E4EEA420296
:10563000ACF1200CDCF11E0E54D943FA0CFE10EB39
:105640000E0051F1FF31CCF11E0ED5D50EF1010E39
:1056500012FA0EFE404141EB010101EB445C5FEAAE
:105660005C5C10D910EBDE7001EB045138BFBEF169
:10567000004FBDE8104018BF704700280CBF491C00
:1056800020F00100704730D24FEAD42C11F5001100
:1056900024F400641BD0B1FA81F20B3AA41AA41EC0
:1056A000D2F12003914030FA03F31943904001EB0B
:1056B000CC71002C01EB0451BDE81040A8BF70472D
:1056C00001F1C0414FF0000001F000417047B0FA15
:1056D00080F310FA03F100D110BDE41A173C48051D
:1056E000C90AE4E701EB045110BD491001EB045174
:1056F000BDE810404FEA300002E04FF00001704773
:105700004A0008BF0042F8D0B2F5001F28BF70471A
:1057100001F000414FF0000070479EEA445F07D05F
:1057200011EA5E0FBDE8104004BF00210020704761
:10573000BDE8104070B5FFF7CBFE00BF40DFF63E7E
:1057400083F00041104670470000E0FF43004FEA3D
:10575000D30C4FEA3C0C43401FBF40070CF1605193
:1057600013F0FE4F70471CF0006F03D100200CF0C7
:10577000004170470CF0004343EA507010B540EA16
:10578000CC0000F00EF800BF000000924FEA0001CC
:10579000FFF7ECBE4FF000414FF00000A1F50021F3
:1057A00070470EF1020E2EF0030E5EF8044B2442F9
:1057B00004D44FEA4102B2F17F4F11D84FEA4003BF
:1057C000B3F17F4F0CD80ED14FEAD07CB2F17F4FAE
:1057D0000CEB4C0C0CF1020C08BF4CEBD17C04E040
:1057E0004FF0080C01E04FEAD17C0CEB4C0324FA9B
:1057F00003F404F00704B4F1040C06D20EEB840C9D
:10580000BDE810404CF0010C6047DFE80CF00708E1
:1058100002024FF00040A0F5800010BD0846420093
:1058200018BFD2F1807288BF00F0004010BD4FF069
:105830004070E1EE100A7047FF2141EAD050C005E8
:105840007047FBF73FB801000200040006000800A3
:105850000A000C001000200040008000000101013F
:10586000010307010000080402040801010100000F
:105870000000000000000102030406070809000000
:10588000000001020304000000000000000000000E
:105890000000000000000000000000000000000008
:1058A00000000000000000000000000000000000F8
:1058B00000000000000000008001800180018001E4
:1058C00080018001800180018001800180018001D0
:1058D0008001000000008001800100000000000045
:1058E00000000000000000000000CC00CC00CC0054
:1058F000CC00CC00CC000000000000000000000044
:105900000000000000000000000000000000000097
:105910000000000000000000000000000000000087
:105920000000600C600C600C30063006FE1FFE1F8D
:10593000300638071803FE1FFE1F180318038C01DA
:105940008C018C01000000008000E003F80F9C0E29
:105950008C1C8C188C009800F801E007800E801CCD
:105960008C188C189C18B80CF00FE0038000800095
:105970000000000000000000000000000E181B0CDA
:10598000110C11061106110311039B018E01C03881
:10599000C06C60446044304430441844186C0C3887
:1059A0000000000000000000E001F00338071806C6
:1059B00018063003F001F000F8009C310E33061E8B
:1059C000061C061C063FFC73F021000000000000CE
:1059D000000000000000000000000C000C000C00A3
:1059E0000C000C000C000000000000000000000093
:1059F00000000000000000000000000000000000A7
:105A00000000000000000000000200038001C00050
:105A1000C000600060003000300030003000300016
:105A200030003000300060006000C000C000800125
:105A3000000300020000000020006000C0008001A0
:105A400080010003000300060006000600060006B1
:105A50000006000600060003000380018001C0006C
:105A600060002000000000000000000000000000B6
:105A70000000C000C000D806F807E0013003380776
:105A80000000000000000000000000000000000016
:105A90000000000000000000000000000000000006
:105AA000000080018001800180018001FC3FFC3FFB
:105AB0008001800180018001800100000000000061
:105AC00000000000000000000000000000000000D6
:105AD00000000000000000000000000000000000C6
