:020000040800F2
:10000000D0080020990200081F2B0008A92500082D
:100010001D2B0008BB0D0008013600080000000081
:10002000000000000000000000000000372E000863
:10003000770E000800000000212B0008392E000870
:10004000B3020008B3020008B3020008B3020008BC
:10005000B3020008B3020008B3020008B3020008AC
:10006000B3020008B3020008B3020008BD0D000887
:10007000C90D0008B3020008B3020008B30200086B
:10008000B302000800000000B3020008B302000839
:10009000B3020008B3020008B3020008B30200086C
:1000A000B3020008B3020008B3020008B30200085C
:1000B000B3020008B3020008B3020008B30200084C
:1000C000B3020008B3020008B3020008B30200083C
:1000D000B3020008F5350008B3020008B3020008B7
:1000E000B3020008B3020008B3020008B30200081C
:1000F000B3020008B3020008B302000800000000C9
:1001000000000000B302000800000000B302000875
:10011000B302000800000000B3020008B3020008A8
:10012000B3020008B3020008B3020008B3020008DB
:10013000B30200080000000000000000B302000845
:10014000B3020008B3020008000000000000000035
:10015000000000000000000000000000000000009F
:10016000000000000000000000000000B3020008D2
:10017000B3020008000000000000000000000000C2
:1001800000000000B30200080000000000000000B2
:10019000000000000000000000000000000000005F
:1001A0000000000000000000B3020008B3020008D5
:1001B000B3020008B3020008B30200080000000008
:1001C00000000000B3020008000000000000000072
:1001D000B3020008B302000800F002F800F04DF886
:1001E0000AA090E8000C82448344AAF10107DA4592
:1001F00001D100F042F8AFF2090EBAE80F0013F097
:10020000010F18BFFB1A43F001031847A84800006C
:10021000C8480000103A24BF78C878C1FAD85207FD
:1002200024BF30C830C144BF04680C607047000070
:100230000023002400250026103A28BF78C1FBD8EF
:10024000520728BF30C148BF0B607047642900F0D7
:100250002D81732900F01D83002070471FB503F026
:100260001BFB00F05FFD04000020002103F0FEFAFC
:10027000401C60601FBD10B510BD00F017FD114699
:10028000FFF7ECFF03F05AFA00F03EFD03B4FFF76E
:10029000F2FF03BC00F04AFD0948804709480047C7
:1002A000FEE7FEE7FEE7FEE7FEE7FEE7FEE7FEE726
:1002B000FEE7FEE704480549054A064B7047000083
:1002C000A52E0008D9010008D0020020D008002087
:1002D000D0040020D004002053EA020C00F0698012
:1002E0002DE9F04B4FF00006002B1FBFB3FA83F54A
:1002F00003FA05F424FA05F65E4012BF1643B2FA7B
:1003000082F502FA05F4C5F120051EBF22FA05FCAC
:1003100044EA0C04203556EA044C4FEA144418BF52
:10032000641C4FF000084FF00009904271EB030C81
:1003300039D3002919BFB1FA81F701FA07F6B0FAEB
:1003400080F700FA07F6C7F120071EBF20FA07FC66
:1003500046EA0C062037B6FBF4FCA7EB0507103F76
:1003600007F01F0BCBF120060CFA0BFB2CFA06F65C
:1003700044BFB3460026202FA4BF5E464FF0000BBB
:100380005BEA060C08BF4FF0010B19EB0B09ABFB46
:10039000027C48EB0608C01B06FB02CC0BFB03CC1F
:1003A00071EB0C01C1E70B46024641464846BDE8E9
:1003B000F08B13B54FF000004FF00001AFF3008059
:1003C000BDE81C40704700000FB41CB5074B06AADF
:1003D0007B4469460090059800F031FA0020694698
:1003E00000F040FA1CBC5DF814FB00009104000012
:1003F0002DE9F0410E460446002020622046E168C7
:10040000884730B3252805D0D4E901219047206AD8
:10041000401CF2E7E168204600278847050018D015
:10042000A5F14100192802D820354FF40067324663
:10043000294620462760FFF709FF40B1012804D074
:10044000F61D26F007060836D8E7361DD6E72846FB
:10045000DAE7206ABDE8F08170B50C460546012A4E
:1004600005D02878800600D5EA69002302E0012340
:1004700005E05B1C934202D2E05C0028F9D1A86938
:10048000E618C01AA861286A184428622846AFF303
:10049000008004E0D5E9012114F8010B9047B44233
:1004A000F8D32846AFF3008070BD00002DE9F0417D
:1004B0000646002410687529314616A510D0AFF302
:1004C0000080002802DA404213A507E031688A075D
:1004D00001D512A502E0490704D511A5012401E0C8
:1004E000AFF3008000210A2206F1240709E0B0FBE7
:1004F000F2FCB0FBF2F302FB1C00303078541846DB
:10050000491C0028F3D123462A463046BDE8F04175
:1005100000F037B9000000002D0000002B000000A3
:10052000200000000FB400B58DB010A90990009113
:100530000B904FF0FF300A9000200C900648784452
:100540000690064878446A4607900F9909A800F07B
:10055000B9F90DB05DF814FBA3030000BB03000064
:100560002DE9FF5F1D464FF0FF3B91464FF000081D
:100570005F46D5E90146A96901987F1C8847296A29
:10058000824688470028F6D1BAF1FF3F0CD0002EF2
:1005900024F4C06419DD600614D5BAF12B0F09D01C
:1005A000BAF12D0F0ED103E0584604B0BDE8F09F1C
:1005B00044F48064A96901987F1C8847761E8246AE
:1005C000002E02DDBAF1300F03D0B9F1000F26D0B2
:1005D00032E0A969761E01987F1C44F400748847B4
:1005E000002E824605DDBAF1780F06D0BAF1580F19
:1005F00003D0B9F1000F10D01EE0B9F1000F02D006
:10060000B9F1100F18D1A969761E01987F1C24F446
:10061000007488478246102002E0082000E00A208B
:10062000814609E0A96908FB0908761E01987F1C2C
:1006300044F4007488478246002E05DD4946504642
:1006400000F02BF90028EDDAE96901988847A00548
:1006500002D46FF00100A8E7E00725D1600613D5AA
:10066000600502D5C8F1000000E0404629680A1D77
:100670002A600968220501D5087015E0220701D516
:10068000088011E008600FE02868011D29600068FB
:10069000210502D580F8008006E0210702D5A0F8E8
:1006A000008001E0C0F8008038467EE710B5431CAA
:1006B00002E010F8011B71B18107FAD14FF001324D
:1006C00002C88C1A8C4314EAC211F9D0C01A0A0667
:1006D00003D0C01E10BDC01A10BD0A0401D0801E78
:1006E00010BD0902FCD0401E10BD4FF000020429CD
:1006F000C0F0128010F0030C00F01B80CCF1040C51
:10070000BCF1020F18BF00F8012BA8BF20F8022B84
:10071000A1EB0C0100F00DB85FEAC17C24BF00F82A
:10072000012B00F8012B48BF00F8012B70474FF058
:10073000000200B5134694469646203922BFA0E831
:100740000C50A0E80C50B1F12001BFF4F7AF09073D
:1007500028BFA0E80C5048BF0CC05DF804EB89002E
:1007600028BF40F8042B08BF704748BF20F8022B71
:1007700011F0804F18BF00F8012B70477047704789
:1007800070472DE9F0470D4699469246044600F120
:1007900024080168880604D5E06921F01001216071
:1007A00000E00120A84201DD471B00E00027A1690D
:1007B0007A1902EB0900081AA0612078C00602D459
:1007C0002046AFF30080002608E0D4E901211AF8A2
:1007D00006009047206A401C761C20624E45F4DBE0
:1007E0002078C0060AD52046AFF3008006E0D4E9A1
:1007F000012130209047206A401C2062381EA7F15A
:100800000107F4DC07E0D4E9012118F8050090475E
:10081000206A401C2062281EA5F10105F3DC204659
:10082000AFF300802078000602D50220BDE8F087F3
:100830000120FBE701694A1C02610878704700B596
:100840008FB0CDE901310021059105497944CDE909
:10085000031011466846FFF7CBFD0FB000BD000046
:10086000E5FFFFFF0A6802F8010B0A60704710B548
:10087000436913B1AFF3008001E0FFF7EDFD012004
:1008800010BD127800F124010A7000224A70012282
:10089000EDE711684FF0FF32E9E73A2800D230382F
:1008A00020F02002412A01D3A2F13700884201D36F
:1008B0004FF0FF3070470000026811441378016068
:1008C00018467047D160054979445161044979441B
:1008D000116200211161114600F02EB8EDFFFFFFFB
:1008E00053000000426842B1016811F8013B23B196
:1008F000521EC0E90012184670470121C160881ECF
:10090000704742685AB1C368016843B983688B4233
:1009100005D0491E521CC0E90012002070474FF05C
:10092000FF30704710B5044600F0E6F90068005D3E
:1009300000F0010010BD00002DE9F34F4FF0000A58
:100940000C4656468DB001200C9001F10C000B9026
:1009500062690B9801219047051E2DD0252D2CD0C2
:10096000216A8847C0B162690B9801219047216ACA
:1009700088470028F7D16269411E0B98904700E034
:10098000761CA1690D988847216A88470028F7D10D
:10099000E1690D988847DBE7A1690D988847A8426F
:1009A000074601D1761CD3E7E1690D9888477F1C83
:1009B00002D1BAF1000F6FD06CE162690B98002789
:1009C0003D46394690472A2804D162690B98012197
:1009D00090470125DFF8D08262690B98012190478A
:1009E000A0F130010A290AD24745E5DC07EB87016F
:1009F00000EB4107303FDFD445F01005ECE7E90696
:100A000001D46FF000476C280AD04C2814D0682815
:100A100015D06A280DD074281CD07A281AD01DE071
:100A200062690B98012190476C2802D045F00405BB
:100A300014E045F002050DE045F020050AE062698A
:100A40000B9801219047682802D045F0080505E081
:100A500045F4006562690B9801219047C4E901578C
:100A600065283DD019DC58287AD00CDC452837D0D1
:100A700004DC252826D041289ED131E046282FD0FD
:100A8000472899D12CE05B2877D0612828D06328AB
:100A90007CD0642823D15AE0F7E06F2848D008DCE6
:100AA00066281DD067281BD0692821D06E2816D152
:100AB00027E0702845D0732868D0752847D078285B
:100AC0000DD14DE0A1690D988847252805463FF4D2
:100AD00069AFE1690D9888476D1C3FF46AAFD9E0B2
:100AE0000D9923466A466FF00100AFF30080C6E01F
:100AF00045F0400023464FF000026060A80736D45E
:100B00003EE0E8077FF447AF2068011D21600068E0
:100B1000290501D506701BE7290701D5068017E7CF
:100B2000A90703D5F117C0E9006111E706600FE7D7
:100B300045F0400023464FF008026060A80716D435
:100B40001EE040F60E0125EA0100606016E045F067
:100B5000400023464FF00A026060A80707D40FE068
:100B600045F040006060A80708D5234610220D9983
:100B70006FF00100AFF3008081E007E01022234610
:100B80000D996FF00100FFF7EBFC78E04FF00009E2
:100B900063284F46C8464B46CB4602D05B2807D059
:100BA00039E02079C00601D40120A060012732E09D
:100BB0006269D4F80CB00B98012190475E2807D1E8
:100BC0004FF0010949466269D4F80CB00B98904780
:100BD000216939B900210A4603AB43F82120491C99
:100BE0000829FADBD8B3216949B308F10108626921
:100BF0000B98012190475D28F4D1B9F1000F09D07D
:100C0000002003A951F82020D24341F82020401CA5
:100C10000828F7DB03AB2069002820794FEA4070F1
:100C20001ED05B462246CDF80080CDE901970D9994
:100C300000286FF0010020DAAFF300801FE0C11739
:100C400003AA00EBD1614B1121F01F0102EB8302DB
:100C5000411A13680120884003431360C7E719E075
:100C60000D99224600286FF00100009702DAAFF3D9
:100C7000008004E0AFF3008001E0AFF300800028C3
:100C80000ADA401C06D10C9820B14FF0FF300FB0AB
:100C9000BDE8F08F5046FAE7E90701D10AF1010AF1
:100CA000064400200C9053E6CCCCCC0C754600F0EA
:100CB00035F8AE4605006946534620F007008546E4
:100CC00018B020B5FFF7F6FABDE820404FF0000657
:100CD0004FF000074FF000084FF0000B21F0070124
:100CE000AC46ACE8C009ACE8C009ACE8C009ACE867
:100CF000C0098D467047000010B500F013F8001DC4
:100D000010BD00BF692B000010B50446AFF3008092
:100D10002046BDE81040FFF7B9BA00000048704710
:100D200070020020004870479002002001491820FE
:100D3000ABBEFEE7260002004FF0013C50F8042B4A
:100D400051F8043B9A4221D1A2EB0C03934313EADE
:100D5000CC1317D150F8042B51F8043B9A4215D10B
:100D6000A2EB0C03934313EACC130BD150F8042BE2
:100D700051F8043B9A4209D1A2EB0C03934313EAC6
:100D8000CC13DBD04FF00000704700BFD01A01BA7F
:100D9000B1FA81F101F0180122FA01F0CB40C1F162
:100DA0002001DBB2C0B2C01A2CFA01F3D11A914370
:100DB00011EAC311E6D170477047FEE7014800F021
:100DC000DCB80000C8000020014800F0D6B80000E0
:100DD000280100200D4902688A4201D20C4901E035
:100DE0000B492031D2B21423083AB2FBF3F2436C20
:100DF00002F01F0223F00303194481640449803187
:100E0000C16401219140016570470000080402405F
:100E1000000802400179074A02EB81024265054A57
:100E20004432491E826501F01F0201219140C165D3
:100E300070470000FC08024030B5D0E913456560FA
:100E4000446D14B1D0E91645656090F8444004F053
:100E50001F050124AC40056C6C6004686360836806
:100E6000102B036803D099600068C26030BD9A609F
:100E70000068C16030BD7047002240F6B83306E01C
:100E80000021491C89B29942FBD3521C92B2824282
:100E9000F6D3704772B6FEE710B590F82530002102
:100EA0000122022B03D00421C163012122E0036847
:100EB0001C6824F00E041C60836C1C6824F480748D
:100EC0001C6003681C6824F001041C6090F8443026
:100ED000046C03F01F0302FA03F36360D0E91334D8
:100EE0005C60436D33B11C6824F480741C60D0E9ED
:100EF00016345C6080F82520002280F82420084603
:100F000010BD70B590F82520002401212346022A47
:100F100007D00422C26380F8251080F82430012411
:100F200029E00268156825F00E051560026815684D
:100F300025F001051560826C156825F48075156033
:100F400090F84420056C02F01F0201FA02F26A6078
:100F5000D0E913255560426D32B1156825F48075CE
:100F60001560D0E91625556080F8251080F82430EA
:100F7000816B01B18847204670BDF0B4016C0C68EC
:100F800001680D6890F8442002F01F06042202FA5E
:100F900006F3234211D06B070FD50B689B0603D4D1
:100FA0000B6823F004030B6090F8441001F01F015C
:100FB0008A40016C4A60016B1DE0022303FA06F7C8
:100FC00027424FF0000C4FF0010218D0AF0716D5A2
:100FD0000C68A40605D40C6824F00A040C6080F8A0
:100FE000252090F8441001F01F018B40016C4B60EC
:100FF00080F824C0C16A00291AD0F0BC0847082331
:10100000B340234214D02B0712D50B6823F00E03F4
:101010000B6090F84410036C01F01F0102FA01F11B
:101020005960C26380F8252080F824C0416BE2E754
:10103000F0BC704770B504000CD02B4A2168142016
:10104000914209D2294A0A44B2FBF0F08000606460
:1010500027480AE0012070BD234A52420A44B2FBED
:10106000F0F080006064204808382064022084F892
:1010700025000A6847F6F0708243D4E9020318435A
:10108000D4E904352B431843A3691843E369184393
:10109000236A1843104308602046FFF79BFEA068B0
:1010A0000025B0F5804F00D16560A16C2079086003
:1010B000D4E9130141606068401E032808D8204627
:1010C000FFF7A8FE606D0560D4E91601416002E0FB
:1010D0006565A565E565E563012084F8250084F86C
:1010E0002450002070BD000008040240F8FFFDBF3E
:1010F0000000024070B5044690F824000025012845
:101100000CD0012084F8240094F825600020012EE2
:1011100006D084F824000225284670BD022070BD48
:10112000022684F82560E0632068066826F0010640
:1011300006602046FFF780FE206B002820680168CB
:1011400002D041F00E0106E021F0040101602068A8
:10115000016841F00A010160A06C0168C90303D570
:10116000016841F480710160606D18B1016841F45B
:10117000807101602068016841F001010160CBE7E6
:1011800070B5044600F03CF90546601C02D00448E6
:101190004068044400F034F9401BA042FAD370BD0B
:1011A000000000202DE9F04FDFF8209200230126F7
:1011B0000324A9F1040B85B00F2709F1040AABF150
:1011C000040EFAE006FA03F52A407CD091F804C038
:1011D0000CF0030CBCF1010F02D0BCF1020F26D1C0
:1011E000D0F808C0CDF800C04FEA430C04FA0CF860
:1011F000CDF810C0DDF800C02CEA080CCDF800C016
:10120000D1F80C80DDF810C008FA0CF8DDF800C049
:1012100048EA0C08C0F80880D0F804C02CEA050C95
:101220000D79C5F300159D4045EA0C0545600D7923
:10123000ED43AD070ED0C5684FEA430804FA08FC39
:1012400025EA0C05D1F808C00CFA08FC4CEA050C9C
:10125000C0F80CC00D7905F00305022D16D1DD088C
:1012600000EB850CCDF808C0DCF820805D074FEA64
:10127000D56C07FA0CF528EA05080D6905FA0CF596
:10128000DDF808C045EA0805CCF8205005684FEAAB
:10129000430CCDF808C004FA0CFC25EA0C0591F8C3
:1012A00004C00CF00308DDF808C008FA0CF848EA9E
:1012B0000508C0F800804D6815F4403F7CD0444DCF
:1012C000D5F860C000E077E04CF0010CC5F860C0D4
:1012D0002D6E23F0030C05F0010500953D4D65448E
:1012E0000295AD684FEA837C4FEA1C7807FA08FC48
:1012F00025EA0C05B0F1904F06D0DFF8DCC0604560
:1013000005D14FF0010C20E04FF0000C1DE0DFF89C
:10131000CCC0604502D14FF0020C16E0DFF8C0C02F
:10132000604502D14FF0030C0FE0DFF8B8C0604514
:1013300002D14FF0040C08E0DFF8ACC0604502D1E8
:101340004FF0050C01E04FF0060C0CFA08FC4CEADB
:10135000050C029DC5F808C0D9F80050CC46D1F85C
:10136000048095435FEAC82800D51543CCF80050A7
:10137000DAF80050D446D1F8048095435FEA882813
:1013800000D51543CCF80050DBF80050DC46D1F80E
:10139000048095435FEA883800D51543CCF80050A7
:1013A000DEF80050F446D1F8048095435FEAC8386F
:1013B00000D51543CCF800505B1C0A6832FA03F5DF
:1013C0007FF400AF05B0BDE8F08F000008040140D5
:1013D00000100240000001400004004800080048DE
:1013E000000C004800100048001400480069084044
:1013F00000D0012070470AB1816170478162704757
:1014000001488068704700000000002002488168A1
:1014100042681144816070470000002010B500242C
:10142000032000F073F80F2000F008F808B1012441
:1014300001E000F025F8204610BD000070B50E4E0A
:1014400005460024706898B14FF47A71B1FBF0F052
:101450000A490968B1FBF0F000F060FD40B9102DB9
:1014600006D200222946501E00F030F8356000E018
:101470000124204670BD0000000000200C00002068
:101480000A4882B0016E41F001010166016E01F06F
:1014900001010091816D41F080518165806D00F006
:1014A0008050009002B000F0A1B80000001002408F
:1014B000002809DB00F01F02012191404009800053
:1014C00000F1E020C0F8001170470000F0B40E4BAE
:1014D0001B680C46C3F30223C3F10705042D00D992
:1014E0000425191D072901D2002300E0DB1E012677
:1014F00006FA05F1491E214099409E40761E16408D
:101500003143F0BC02F07DB80CED00E0064900F07C
:10151000070208684FF6FF03184040EA0220034A1A
:1015200010430860704700000CED00E00000FA0571
:101530002B492C4B0A6832214A432B4940B1B0F564
:10154000007F086829D020F4C06040F480602CE05F
:101550000868C0F34120022804D051F8800F20F41D
:10156000807022E0D1F8800020F48070C1F8800003
:10157000086820F4C06040F400700860B2FBF3F02B
:10158000401C00E0401E4A69520501D50028F9D1EF
:10159000486940050AD503207047C0F3412002285E
:1015A00006D051F8800F40F480700860002070472A
:1015B000D1F8800040F48070C1F88000086820F401
:1015C000C06040F400700860B2FBF3F0401C00E023
:1015D000401E4A695205DBD50028F9D1D8E7000042
:1015E0000C00002040420F0000700040024881685B
:1015F00041F4804181607047007000402DE9F8435C
:101600000446006800269D4D00035ED5A86D0027A6
:10161000C00008D4A86D40F08050A865A86D0127CF
:1016200000F080500090DFF85892D9F8001041F493
:101630008071C9F80010FFF7E3FE804606E000BFA6
:10164000FFF7DEFEA0EB080002282BD8D9F8000037
:10165000C005F5D5D5F8900010F4407014D0216C79
:10166000814211D0D5F89000D5F8901020F4407048
:1016700041F48031C5F89010D5F8901021F48031F4
:10168000C5F89010C5F89000C00711D0FFF7B8FE5C
:10169000804641F2883907E0FFF7B2FEA0EB08016F
:1016A000494501D903260BE0D5F890008007F3D512
:1016B000D5F89000216C20F440700843C5F89000E4
:1016C0001FB1A86D20F08050A8652078C00707D012
:1016D000D5F88800616820F003000843C5F8880049
:1016E0002078800707D5D5F88800A16820F00C0085
:1016F0000843C5F888002078400707D5D5F888004A
:10170000E16820F030000843C5F888002078000721
:1017100007D5D5F88800216920F0C0000843C5F836
:1017200088002078800607D5D5F88800616920F404
:1017300040600843C5F888002078400607D5D5F8F2
:101740008800A16920F440500843C5F8880020783B
:10175000000607D5D5F88800E16920F44040084329
:10176000C5F888002088C00507D5D5F88800216A0B
:1017700020F440300843C5F888002088800507D54C
:10178000D5F88800616A20F440200843C5F8880035
:10179000208840050FD5D5F88800A16A20F44010B4
:1017A0000843C5F88800A06AB0F5801F03D1E86837
:1017B00040F48010E860208800050FD5D5F8880037
:1017C000E16A20F440000843C5F88800E06AB0F5FB
:1017D000800F03D1E86840F48010E8602088C004DE
:1017E0000FD5D5F88800216B20F040700843C5F86C
:1017F0008800206BB0F1807F03D1E86840F480104E
:10180000E86020884FF0006180040ED5D5F888008C
:10181000626B20F040601043C5F88800606B88421E
:1018200003D1E86840F48010E860208840040ED5B9
:10183000D5F88800A26B20F040601043C5F88800FE
:10184000A06B884203D1E86840F48010E8602088EB
:1018500000040FD5D5F88800E16B20F04050084314
:10186000C5F88800E06BB0F1805F03D1E86840F410
:101870008030E8603046BDE8F88300000010024088
:10188000007000402DE9F0470E4605004FF00007BC
:1018900025D0DFF8AC81D8F8000000F00F00B0428E
:1018A0000CD2D8F8001021F00F013143C8F8001015
:1018B000D8F8000000F00F00B04210D12968614C48
:1018C000C80741F2883A5AD06868DFF87C9103284B
:1018D00008D0022820682DD0400500282CDB0120EC
:1018E000BDE8F08720688001F9D5E06800F00302C8
:1018F000E068C0F30310401C032A19D0534A00BF0C
:10190000B2FBF0F0E268C2F306225043E268C2F391
:101910004162521C5200B0FBF2F0484517D9A06852
:1019200010F0F00F0CD0880711D5A86840B10EE078
:10193000474AE5E78003D0E700F0B6F8484506D906
:10194000A06820F0F00040F08000A0608027A06830
:10195000696820F003000843A060FFF751FD81464D
:1019600006E000BFFFF74CFDA0EB090151453AD856
:10197000A068696800F00C00B0EB810FF2D1286814
:10198000810714D5400703D5A06840F4E060A0604B
:101990002878000705D5A06820F4605040F4E06086
:1019A000A060A068A96820F0F000084304E0802F40
:1019B00003D1A06820F0F000A060D8F800104046E5
:1019C00001F00F01B14216D9016821F00F01314336
:1019D0000160FFF715FD074607E000BFFFF710FDA8
:1019E000C11B514501D903207AE7D8F8000000F067
:1019F0000F00B042F2D12878400705D5A068E96809
:101A000020F4E0600843A0602878000706D5A068AD
:101A1000296920F4605040EAC100A06000F044F859
:101A2000A1680C4AC1F30311515C01F01F01C840C9
:101A30000949086009480068BDE8F047FFF7FEBCA7
:101A4000002002400010024000B4C4040024F4004E
:101A500000366E01CA3800080C000020000000208B
:101A60000548064900688968054AC1F30221515CAE
:101A700001F01F01C84070470C0000200010024018
:101A8000DA3800080548064900688968054AC1F344
:101A9000C221515C01F01F01C84070470C000020BA
:101AA00000100240DA380008184910B58868C0F301
:101AB00081021748012A0BD08A68164BC2F38102B3
:101AC000022A06D08A68C2F38102032A03D00020CA
:101AD00010BD184610BDCA6802F00304CA68C2F3FC
:101AE0000312521C032C02D0B0FBF2F001E0B3FB56
:101AF000F2F0CA68C968C2F306225043C1F34161DB
:101B0000491C4900B0FBF1F010BD0000001002407C
:101B10000024F40000366E012DE9F84304007AD069
:101B20002078F84DC00747D0A868E96800F00C009D
:101B300001F003010C2802D0082817D001E0032986
:101B400014D06068B0F5803F17D0B0F5A02F28689A
:101B500017D020F480302860286820F48020286086
:101B60006068E0B1FFF74CFC064614E0286880038B
:101B700022D560680028D2D01EE0286840F480306A
:101B8000EDE740F480202860F7E700BFFFF738FC5E
:101B9000801B642870D828688003F7D50CE0FFF715
:101BA0002FFC064605E000BFFFF72AFC801B6428D7
:101BB000F0D828688003F7D4207880074CD5A8682F
:101BC000E96800F00C0001F003010C2802D00428A1
:101BD0000DD001E002290AD0E068002828682BD047
:101BE00040F480702860FFF70BFC064619E0286877
:101BF000400502D5E068002891D06868217C20F07B
:101C0000FE4040EA01606860BF480068FFF716FCCC
:101C1000002800D120E072E1FFF7F2FB801B0228D0
:101C2000B8D828684005F7D56868217C20F0FE40C8
:101C300040EA016068600FE020F480702860FFF7E0
:101C4000DFFB064605E000BFFFF7DAFB801B02283A
:101C5000A0D828684005F7D42078000729D5606906
:101C60000028D5F8940013D040F00100C5F8940086
:101C7000FFF7C6FB064606E090E000BFFFF7C0FB9B
:101C8000801B022886D8D5F894008007F6D510E08E
:101C900020F00100C5F89400FFF7B2FB064604E00F
:101CA000FFF7AEFB801B022878D8D5F89400800798
:101CB000F6D42078400761D5A86D0026C00008D46E
:101CC000A86D40F08050A865A86D012600F08050F6
:101CD00000908E480168C90511D40168804641F41E
:101CE00080710160FFF78CFB074604E0FFF788FB7B
:101CF000C01B022852D8D8F80000C005F6D5A0684D
:101D0000012815D00528D5F8900016D020F0010044
:101D1000C5F89000D5F8900020F00400C5F89000B8
:101D2000A06841F28838B8B1FFF76AFB07460EE0B9
:101D3000D5F8900040F00100F0E740F00400C5F84D
:101D40009000F5E7FFF75CFBC11B414526D8D5F8AD
:101D500090008007F6D50CE0FFF752FB074604E041
:101D6000FFF74EFBC11B414518D8D5F890008007FE
:101D7000F6D41EB1A86D20F08050A86520788006AA
:101D800029D5A0690028D5F8980013D040F00100AB
:101D9000C5F89800FFF734FB064606E075E000BF83
:101DA000FFF72EFB801B02286FD8D5F8980080071C
:101DB000F6D510E020F00100C5F89800FFF720FBF1
:101DC000064604E0FFF71CFB801B02285DD8D5F80F
:101DD00098008007F6D4E069F0B3A968C1F38101E7
:101DE00003295DD00228286820F08070286003D085
:101DF000FFF706FB04464BE0FFF702FB064604E054
:101E0000FFF7FEFA801B02283FD828688001F7D42C
:101E1000F4E908016FF00F0202EB01110843218A77
:101E20005204490802EB4151A26841EA02210843E9
:101E3000217D4FF07E42490802EB41610843217B3E
:101E400040EAC160E968324A11400843E860286806
:101E500040F08070286000E05EE0E86840F080704C
:101E6000E860FFF7CDFA044605E000BFFFF7C8FAC7
:101E7000001B022809D828688001F7D54CE000BF74
:101E8000FFF7BEFA001B022802D90320BDE8F88341
:101E900028688001F4D4E8681E490840E8603BE007
:101EA0000128F3D0E868226A00F00301914226D1AC
:101EB000616A00F0F0020901103991421FD1A26A53
:101EC00000F4FE41B1EB022F19D194F82C2000F060
:101ED0007841B1EBC26F12D1218E00F4C0024908E3
:101EE0004905A1F50011914209D194F8341000F090
:101EF000C06049084906A1F1007181420CD001205F
:101F0000C4E7000000100240000000200070004004
:101F10000C809F01FCFFEEFE0020B7E710B5401ECD
:101F2000B0F1807F01D3012010BD4FF0E02460614B
:101F30000F21601701F065FB0020A06107202061E0
:101F4000002010BD90F88410012918D0012180F8DC
:101F500084102421C0F8881001680A680B6823F0F7
:101F600001030B6022F000510022426603681960F1
:101F70002021C0F8881080F8842010467047022085
:101F8000704710B50446D0F88C00202801D00220FC
:101F900010BD61B15AB10120E066002020672046E3
:101FA00001F08AFA0028F3D1E16E012901D0012065
:101FB00010BD226810211162226852E8001F41F012
:101FC000100142E80013002BF6D110BD0068064A4C
:101FD000904208D1054801220270417064220449F0
:101FE0000448FFF7CEBF70470038014032000020A0
:101FF0000A02002034000020704770B5044690F8B3
:10200000840001281DD0012084F884002420C4F815
:10201000880020680568026822F0010202602068DA
:10202000826822F060620A438260204600F042FF2C
:10203000206805602020C4F88800002084F884000F
:1020400070BD022070BD70B5044690F88400012870
:102050001DD0012084F884002420C4F88800206862
:102060000568026822F0010202602068826822F09E
:1020700060420A438260204600F01CFF2068056031
:102080002020C4F88800002084F8840070BD02205D
:1020900070BD7047704770472DE9F04103680446F2
:1020A000D86919689A6840F60F0528424FF0000574
:1020B0004FF002060AD187067ED501F0200702F014
:1020C000805C57EA0C0777D0616F42E1B64FDFF8CA
:1020D000DCC2174001EA0C0C57EA0C0C6CD05FEA2A
:1020E000C07C0CD05FEAC15C09D54FF0010CC3F88D
:1020F00020C0D4F8903043F00103C4F89030830737
:1021000009D5D30707D023681E62D4F8903043F076
:102110000403C4F8903043070AD5D30708D02668D3
:1021200004233362D4F8903043F00203C4F89030B3
:1021300003070CD501F020033B4308D02668082391
:102140003362D4F8903043F00803C4F890300305AC
:102150000BD54B0109D526684FF400633362D4F8E0
:10216000903043F02003C4F89030D4F89030002B26
:102170003DD0800609D501F0200002F080510843CF
:1021800003D0616F09B120468847D4F890002168D8
:102190008968490602D410F0280F2AD0204601F0A1
:1021A0000FF82068806840061ED52068083050E887
:1021B000001F21F0400100E021E040E80012002A69
:1021C000F3D1D4F8800078B179498163D4F88000E4
:1021D000FEF797FE00280AD0D4F88000816B00E05B
:1021E0002046BDE8F04108472046FFF754FFBDE810
:1021F000F0812046FFF74FFFC4F89050F7E7D4F87E
:102200006CC02027BCF1010F7ED15FEAC06C7BD58A
:102210005FEAC16C78D5102018622068806840069B
:1022200051D5D4F880100A6850680004000C3ED0E4
:10223000B4F85C3083423AD9A4F85E0008680068BC
:1022400080062CD4216851E8000F20F4807041E80A
:102250000002002AF6D12068083050E8001F21F063
:10226000010140E80012002AF5D12068083050E84A
:10227000001F21F0400140E80012002AF5D1C4F807
:102280008C70E566216851E8000F20F0100041E8ED
:102290000002002AF6D1D4F88000FEF7FDFD266783
:1022A000B4F85C00B4F85E10401A81B207E0B4F8EC
:1022B0005C1081429BD11068800698D52667204625
:1022C000FFF784FE93E7B4F85C00B4F85E10401AA0
:1022D00081B2B4F85E00002889D0002987D0226836
:1022E00052E8000F20F4907042E80003002BF6D172
:1022F0002D4BDB432068083050E8002F1A4040E89F
:10230000002CBCF1000F00E00EE0F3D1C4F88C709B
:10231000E5666567206850E8002F22F0100240E86B
:102320000023002BF6D1C9E7C60209D5560207D50E
:102330004FF4801018622046BDE8F041FFF7AABEB6
:1023400003060AD501F0800302F40002134304D00F
:10235000A16F00297FF444AF49E7420611D54A0630
:102360000FD52046016851E8002F22F0400241E8D5
:102370000023002BF6D1C0F88870856700F012F9B1
:1023800035E7020206D54A0004D52046BDE8F041F3
:10239000FFF77FBEC00195D5002993DA2046BDE83E
:1023A000F041FFF729BE00000100001020010004E9
:1023B0006D30000810B5040003D0D4F8880010B1C7
:1023C00007E0012010BD002084F88400204600F0C2
:1023D00027F82420C4F888002068016821F0010152
:1023E0000160A06A10B1204600F086FD204600F092
:1023F00029FF0128E6D02068416821F4904141601E
:102400002068816821F02A0181602068016841F01C
:10241000010101602046BDE8104000F0D1BD000080
:10242000F0B597B00646142111A8FEF780F94421B3
:102430006846FEF77CF93249306888425ED1012057
:102440000024CDE900046846FFF7D8F808B1FEF78C
:1024500021FD2C48016E41F480410166016E01F4BA
:1024600080411691C16C41F00101C164C06C11A999
:1024700000F0010016904FF4C06011900220CDE9E9
:1024800012040720CDE914404FF09040FEF78AFE79
:102490001E4D1D48802728601820C5E90104C5E9A4
:1024A00003476C61AC61EC6128462C62FEF7C2FD0B
:1024B00008B1FEF7EFFCC6F88050AE62134D12482B
:1024C0006035143028601920686005F1080110207B
:1024D00081E891006C61AC61EC6128462C62FEF7EA
:1024E000A9FD08B1FEF7D6FCF567002211462520AC
:1024F000AE62FEF7EBFF2520FEF7DAFF17B0F0BD66
:10250000003801400010024008000240C8000020CE
:102510007047704770B50446D0F88800202801D075
:10252000022070BD39B332B32165A4F85420A4F859
:1025300056200021C4F890102120C4F88800E06FD4
:10254000D8B1154BC362E36F14481863E36F1448A6
:102550005863E06F134681632068E56F00F128023D
:102560002846216DFEF7C6FD38B11020C4F8900052
:102570002020C4F88800012070BD21684020086236
:102580002068083050E8001F41F0800140E8001248
:10259000002AF5D1002070BD73310008B531000864
:1025A0007D30000870477047FEE7000000B585B039
:1025B00014216846FEF7BBF84FF6FF70009000202C
:1025C0000321CDE90201019069460248FEF7EAFDC8
:1025D00005B000BD0008004800B585B0142168466C
:1025E000FEF7A5F84FF6FF70009001200190032040
:1025F00003900020029069460248FEF7D3FD05B023
:1026000000BD0000000800482DE9F0410A4E804658
:102610003068002485B22146204600F017F900F00A
:1026200055F94FF49637404600F024F9641CBC423B
:10263000F9D33560BDE8F0811408004870B586B064
:1026400014216846FEF773F81E48C16C41F004017E
:10265000C164C16C01F004010591C16C41F001013C
:10266000C164C16C01F001010591C16C41F002012E
:10267000C164C06C032500F0020005904FF448705F
:102680000124002603958DE8510069460E48FEF7A7
:1026900089FD200203958DE851004FF09044694672
:1026A0002046FEF77FFDFFF797FFA06940F480709A
:1026B000A06105481830016841F40871016006B056
:1026C00070BD00000010024000040048203AD2B261
:1026D000034B02EB420203EB021200F023B80000AE
:1026E000E23800082DE9F043DFF8348081460E46D9
:1026F000D8F80000002587B240F23F1407E02146D9
:102700004846FFF7E3FF103C6D1CA4B2761C3278FC
:102710000AB1142DF3D3C8F80070BDE8F0830000AF
:10272000140800482DE9F04791468A4600260446E1
:1027300000F08CF8DFF84080012700BF00F0C6F8F9
:102740005FF0000539F8160007FA05F10842404627
:1027500001D1408800E0008800F08CF86D1C102D3D
:10276000F0D3641CE4B25146204600F06FF8761CAA
:10277000182EE3D3BDE8F0872C00002070B50D4E75
:10278000306885B2FFF75AFF002000F017F80A4CB6
:10279000A080A088A0F50241303907D000F04AFAA5
:1027A000002000F00BF8A080356070BD00F0B9F992
:1027B000F6E70000140800482C00002070B51D4901
:1027C0000A6842F400720A600A6842F480720A6081
:1027D000184C103C226842F020022260164A106019
:1027E000086840F02000086000BF00BF00BF2068FC
:1027F00040F020002060206840F480702060FFF7E7
:10280000D5FE4FF09041886A40F48070886200BF26
:1028100000BF00BF0848001F006885B2886940F407
:1028200080708861FFF7D8FE206840F40070206057
:10283000284670BD280400481408004801B5BDF8BA
:1028400000000149488008BD2C00002010B50C464E
:102850000146202000F068F82146BDE81040212004
:1028600000F062B801B5BDF800000149088008BD5C
:102870002C000020134A116841F4007111601149C5
:1028800010390B6843F480730B600B6843F020032E
:102890000B600D4B1860106840F02000106000BF06
:1028A00000BF00BF086840F020000860086840F4DE
:1028B0008070086000BF00BF00BF086840F400706F
:1028C0000860704728040048140800481449086844
:1028D00040F400700860086840F480700860104898
:1028E0001038026842F0200202600E4B22221A6069
:1028F0000A6842F020020A6000BF00BF00BF016802
:1029000041F020010160016841F48071016000BF65
:1029100000BF00BF016841F4007101607047000012
:102920002804004814080048184B10B51A6842F4EF
:1029300000721A601A6842F480721A60134A103AE0
:10294000146844F020041460114C2060186840F0B2
:102950002000186000BF00BF00BF106840F02000DA
:102960001060106840F4807010602160186840F0BA
:102970002000186000BF00BF00BF106840F02000BA
:102980001060106840F48070106010BD280400488A
:1029900014080048114808B5816C41F004018164B5
:1029A000816C01F004010091816C41F001018164AE
:1029B000806C002200F00100009011460B20FEF711
:1029C00085FD0B20FEF774FD002211460C20FEF75A
:1029D0007DFDBDE808400C20FEF76ABD00100240F6
:1029E000F0B587B014216846FDF7A1FE2D48C16CF3
:1029F00041F00401C164C16C01F004010591C16C96
:102A000041F02001C164C16C01F020010591C16C4D
:102A100041F00101C164C16C01F001010591C16C7B
:102A200041F00201C164C16C01F002010591C16C69
:102A300041F00801C164C06C1B4E00F008004FF467
:102A40007F440590012221463046FEF7D4FC174F03
:102A5000012204213846FEF7CEFC0125CDE90045D0
:102A600000240294694630460394FEF79BFBCDE9AF
:102A7000005469464FF090400295FEF793FB072003
:102A80008DE8310069460A48FEF78CFB042000906F
:102A9000CDE90154694638460394FEF783FB07B03D
:102AA000F0BD00000010024000080048000C004883
:102AB00000040048184810B5164901604FF416513B
:102AC0004160002181600C22C160C0E90412816173
:102AD000C161016241628162FFF76CFC08B1FEF7DF
:102AE000D9F900210C48FFF7AEFA08B1FEF7D2F988
:102AF00000210948FFF781FA08B1FEF7CBF9064833
:102B0000FFF720FA002803D0BDE81040FEF7C2B955
:102B100010BD00000038014034000020FEE7FEE751
:102B2000704730B501210020FFF7FEFE4FF47A70A8
:102B3000FEF7A2F900210120FFF7F6FE41F29071A5
:102B40001020FFF7F1FE4FF41C516020FFF7ECFE60
:102B500001216120FFF7E8FE02214620FFF7E4FE95
:102B600048F210011320FFF7DFFE48F2FE011220A9
:102B7000FFF7DAFE4FF4A0610220FFF7D5FE41F225
:102B800030010320FFF7D0FE40F20334214630200D
:102B9000FFF7CAFE21463120FFF7C6FE214632204C
:102BA000FFF7C2FEE51E29463320FFF7BDFE0321D5
:102BB0003420FFF7B9FE21463520FFF7B5FE14217A
:102BC0003620FFF7B1FE21463720FFF7ADFE214644
:102BD0003820FFF7A9FE21463920FFF7A5FE294638
:102BE0003A20FFF7A1FE03213B20FFF79DFE21467F
:102BF0003C20FFF799FE4FF4A0513D20FFF794FED3
:102C00004FF400719220FFF78FFE21469320FFF7CB
:102C10008BFE40F60D019020FFF786FE41F2180171
:102C20000320FFF781FEBDE8304040F2731107201A
:102C3000FFF77ABE10B543F20801E320FFF774FEF8
:102C40001221E720FFF770FE41F23121EF20FFF75C
:102C50006BFE00210120FFF767FE4FF4E0610220C8
:102C6000FFF762FE41F230010320FFF75DFE002115
:102C70000420FFF759FE40F207210820FFF754FE19
:102C800000210920FFF750FE00210A20FFF74CFE2B
:102C900000210C20FFF748FE00210D20FFF744FE25
:102CA00000210F20FFF740FE00211020FFF73CFE1F
:102CB00007211120FFF738FE00211220FFF734FE14
:102CC00000211320FFF730FEC820FEF759FA41F229
:102CD00090611020FFF728FE40F227211120FFF716
:102CE00023FE3220FEF74CFA1D211220FFF71CFEB6
:102CF0003220FEF745FA4FF400611320FFF714FE6F
:102D000014212920FFF710FE0B212B20FFF70CFECA
:102D10003220FEF735FA00212020FFF705FE0021C2
:102D20002120FFF701FE07213020FFF7FDFD40F2D3
:102D300007713120FFF7F8FD06213220FFF7F4FD7F
:102D400040F204713520FFF7EFFD41F604713620A3
:102D5000FFF7EAFD04213720FFF7E6FD00213820C8
:102D6000FFF7E2FD40F206713920FFF7DDFD40F28A
:102D700001713C20FFF7D8FD0F213D20FFF7D4FD66
:102D800000215020FFF7D0FDEF215120FFF7CCFDAF
:102D900000215220FFF7C8FD40F23F115320FFF7FA
:102DA000C3FD4FF41C516020FFF7BEFD01216120DF
:102DB000FFF7BAFD00216A20FFF7B6FD0021802051
:102DC000FFF7B2FD00218120FFF7AEFD0021822038
:102DD000FFF7AAFD00218320FFF7A6FD0021842034
:102DE000FFF7A2FD00218520FFF79EFD1021902016
:102DF000FFF79AFD00219220FFF796FD0321932013
:102E0000FFF792FD4FF488719520FFF78DFD0021AB
:102E10009720FFF789FD00219820FFF785FD41F2FB
:102E200018010320FFF780FDBDE8104040F2731148
:102E30000720FFF779BD7047FEF7E8BA10B594B0E8
:102E400038216846FDF773FC14210EA8FDF76FFCCE
:102E50004FF40070FEF76CFB01200090000401901D
:102E600002200324CDE907041421CDE90A100C90B7
:102E70000D9009946846FEF74FFE08B172B6FEE762
:102E80000F20CDE90E040020109011901290022125
:102E90000EA8FEF7F7FC002801D072B6FEE714B0CA
:102EA00010BD00000248016841F4700101607047E4
:102EB00088ED00E030B5416EB9B102689168926862
:102EC000C1F342610B4B520F9C5CE50003F1080417
:102ED000A25CB5FBF2F2A0F86A205A5C615CD200F9
:102EE000B2FBF1F1A0F8681030BD0121A0F86A1022
:102EF000F8E70000BA38000890F82810090706D54E
:102F000001684A68836B22F400421A434A6090F8D1
:102F10002810C90706D001684A68C36A22F4003243
:102F20001A434A6090F82810890706D501684A6854
:102F3000036B22F480321A434A6090F82810490744
:102F400006D501684A68436B22F480221A434A601E
:102F500090F82810C90606D501688A68C36B22F468
:102F600080521A438A6090F82810890606D50168B5
:102F70008A68036C22F400521A438A6090F8281081
:102F8000490611D501684A68436C22F480121A433D
:102F90004A60416CB1F5801F06D101684A68836CB4
:102FA00022F4C0021A434A6090F82810090606D598
:102FB00001684A68C06C22F4002202434A607047EC
:102FC0002DE9F84300260446C0F89060FEF718FA91
:102FD0008046206800684FF0200500076FF07E47AC
:102FE00013D54346002229042046009700F0B8FA82
:102FF00058B1216851E8000F20F0800041E800023C
:10300000002AF6D1C4F8885021E020680068400703
:1030100022D5434600224FF480012046009700F05D
:103020009FFAC8B1216851E8000F20F4907041E880
:103030000002002AF6D12068083050E8001F21F075
:10304000010140E80012002AF5D1C4F88C5084F840
:1030500084600320BDE8F883C4F88850C4F88C501D
:1030600044F86C6F666026760020F3E710B5806A3E
:103070000021A0F85E10FFF70EF810BD70B5846A4D
:10308000D4F88800D4F88C50216889684FF0000685
:10309000090606D5212804D1A4F85660204600F080
:1030A000B9F820688068400606D5222D04D1A4F81E
:1030B0005E60204600F084F8D4F8900040F01000E4
:1030C000C4F890002046FEF7E6FF70BD10B501463B
:1030D000806A096809684FF0000289062DD4A0F8BB
:1030E0005E20036853E8001F21F4807143E8001458
:1030F000002CF6D10168083151E8003F23F00103AC
:1031000041E80034002CF5D10168083151E8003F56
:1031100023F0400341E80034002CF5D12021C0F811
:103120008C10C16E012908D1016851E8003F23F0DD
:10313000100341E80034002CF6D10267C16E01296A
:1031400002D0FFF7E5F910BDB0F85C10FEF73EFFC6
:1031500010BD10B5806A01210167C16E012902D03E
:10316000FFF7D7F910BDB0F85C104908FEF72EFF45
:1031700010BD10B50146806A09680968890616D431
:103180000021A0F856100168083151E8002F22F004
:10319000800241E80023002BF5D1026852E8001FAD
:1031A00041F0400142E80013002BF6D110BDFFF7BB
:1031B000F9F910BD10B5806AFFF7F5F910BD0000F0
:1031C00010B5026852E8001F21F4907142E8001324
:1031D000002BF6D10E4B0268083252E8001F19404E
:1031E00042E80014002CF6D1C16E012908D1016813
:1031F00051E8002F22F0100241E80023002BF6D105
:103200002021C0F88C100021C166416710BD00006C
:10321000FEFFFFEF026852E8001F21F0C00142E804
:103220000013002BF6D10168083151E8002F22F479
:10323000000241E80023002BF5D12021C0F88810BE
:10324000704700002DE9F04104460168806822695A
:10325000E3691043626900251A431043DFF82CC26A
:103260000A688B4B1A4002430A6020684168E26892
:1032700021F44051114341602168A069614501D0AA
:10328000226A10438A68834B1A4002438A6020688E
:10329000C16A626A21F00F011143C1627E4923684D
:1032A0007E488B420DD1D0F8880010F0030006D084
:1032B000012855D0022842D003283FD152E00120F6
:1032C0003DE077498B420BD1D0F8880010F00C001C
:1032D00035D0042833D0082840D00C282ED141E026
:1032E00070498B420BD1D0F8880010F0300026D006
:1032F000102835D0202831D030281FD132E06A493B
:103300008B420BD1D0F8880010F0C00017D04028B5
:1033100026D0802822D0C02810D123E063450DD1CB
:10332000D0F8880010F4406009D0B0F5806F17D055
:10333000B0F5006F12D0B0F5406F13D010205B498C
:103340005B4F00264FF4004263453BD160B1022839
:1033500013D004280BD0082872D10DE00220EEE72C
:103360000420ECE70820EAE7FEF77AFB01E0FEF72D
:103370009BFB010001D17CE01146606A37F8102008
:103380006768B1FBF2F007EB4703834270D8B0EBFC
:10339000073F6DD8002308461946FCF79DFF090238
:1033A00041EA106102027808101871413A46002380
:1033B000FCF792FF3F4AA0F54071914258D821682E
:1033C000C86056E0E3694FF6EF7893422CD10928A4
:1033D0004ED2DFE800F00508114D0D4D4D4D1000A7
:1033E000FEF73EFB01E0FEF74DFB010004D140E09B
:1033F000FEF75AFBF9E71146606A37F81000B1FB97
:10340000F0F04100606801EB5001B1FBF0F0A0F179
:10341000100141452CD84FF6F0710140C0F3420035
:1034200001432068C16024E0092821D2DFE800F0D0
:10343000050912200E2020201100FEF711FB02E0EA
:1034400016E0FEF71FFB010004D112E0FEF72CFB93
:10345000F9E71146606A37F81000B1FBF0F16068D7
:1034600001EB5001B1FBF0F0A0F1100141450AD988
:1034700001250120A4F86A0024F8680F2846E660B8
:103480002661BDE8F08180B299E70000008000402D
:10349000F369FFCFFFF4FF11003801400010024034
:1034A0000044004000480040004C00400024F4006C
:1034B000A2380008FFFC0F0070B58165A0F85C2001
:1034C00000210446C0F890102220C4F88C00D4F8E3
:1034D0008000F0B11F4BC362D4F880301E481863DF
:1034E000D4F880301D485863D4F8800013468163B7
:1034F000A56D21682A462431D4F88000FDF7FAFD35
:1035000038B11020C4F890002020C4F88C000120AD
:1035100070BD206940B1216851E8000F40F480700F
:1035200041E80002002AF6D12068083050E8001F68
:1035300041F0010140E80012002AF5D1206808306E
:1035400050E8001F41F0400140E80012002AF5D188
:10355000002070BDCD300008533100087D300008D8
:103560002DE9F047994617460D4604464FF00008EE
:10357000089E33E0701C31D0FDF742FFA0EB09003C
:10358000B04218D8BEB120680168490726D5802D01
:1035900024D0402D22D0C169C94309070DD4082584
:1035A00005622046FFF70CFEC4F8905084F8848032
:1035B0000120BDE8F0870320FBE7C069C043000598
:1035C0000CD421684FF4006008622046FFF7F8FD34
:1035D0002020C4F8900084F88480ECE72068C0695B
:1035E00035EA000004D00020B842C3D00020E0E754
:1035F0000120F9E70148FEF74FBD0000340000202C
:10360000FEE70907090E002804DB00F1E02080F83E
:103610000014704700F00F0000F1E02080F8141D46
:103620007047000070B5184D01212846FDF7DEFEF9
:10363000164C022120712846FDF7D8FE6071042146
:103640002846FDF7D3FEA07101214FF09040FDF711
:10365000CDFEE071207928B9207818B10121084603
:1036600000F04AF8607928B9607818B1002101208B
:1036700000F042F82079207060796070A079A07025
:10368000E079E07070BD00000004004810000020E8
:103690001CB510A11248FCF797FE11490020FFF756
:1036A00021F8104C2169A068CDE900010EA10C4859
:1036B000E3686268FCF788FE09494820FFF712F8C2
:1036C0002178022000F018F86178BDE81C40032042
:1036D00000F012B82020205445585420202000002B
:1036E00088010020180000202825642C2564293B2F
:1036F0002825642C2564290070B50E4E0D4604461D
:10370000012204213046FDF776FE4FF48070641EDE
:10371000A040094B81B20DB1002200E00122184601
:10372000FDF769FE3046BDE8704000220421FDF738
:1037300062BE0000000C004800080048FDF76EFE65
:10374000FFF77CFBFFF74CF9FFF724F9FFF7B2F91D
:10375000002204210D48FDF74EFEFFF70FF8002070
:10376000FEF752FF0020FFF769F84FF6FF70FFF7F2
:1037700079F8642206490748FEF703FC00F00CF8CC
:10378000FFF786FFFFF74EFFF8E70000000C004848
:103790000A020020340000201CB5224C20780028AA
:1037A0003ED00020204A207020A1A2F16400FCF746
:1037B0000BFE1D486438FCF779FF1B4982B264395F
:1037C0001B48FEF7A7FE184A1AA11D48FCF7FCFD8E
:1037D0001B491820FEF786FF6078012809D112489E
:1037E0000078322802D0332813D002E0154811E0C7
:1037F000017015491548CDE90001154B154A16A170
:103800000948FCF78FFEBDE81C4064210648FCF720
:103810006CBF1548017809B10021E9E70121E7E70C
:103820001CBD0000320000200A02002025730000A9
:1038300034000020202020257320202000000000DC
:10384000880100201800002028000020240000200B
:10385000200000201C0000202825642C25642C2535
:10386000642C2564290000001900002010B50029EF
:103870000AD00878002807D005487844FDF75CFA9C
:10388000002801D0002010BD0248784410BD00007F
:103890005A120000521200004FF04070E1EE100A80
:1038A0007047010002000400060008000A000C0036
:1038B0001000200040008000000101010103070109
:1038C00000000804020408010101000000000000DB
:1038D00000000102030406070809000000000102BD
:1038E00003040000000000000000000000000000D1
:1038F00000000000000000000000000000000000C8
:1039000000000000000000000000000000000000B7
:1039100000000000800180018001800180018001A1
:103920008001800180018001800180018001000010
:103930000000800180010000000000000000000085
:10394000000000000000CC00CC00CC00CC00CC007B
:10395000CC0000000000000000000000000000009B
:103960000000000000000000000000000000000057
:103970000000000000000000000000000000600CDB
:10398000600C600C30063006FE1FFE1F3006380744
:103990001803FE1FFE1F180318038C018C018C01F5
:1039A000000000008000E003F80F9C0E8C1C8C18B7
:1039B0008C009800F801E007800E801C8C188C1891
:1039C0009C18B80CF00FE00380008000000000009D
:1039D00000000000000000000E181B0C110C110666
:1039E0001106110311039B018E01C038C06C6044A5
:1039F0006044304430441844186C0C380000000017
:103A000000000000E001F003380718061806300334
:103A1000F001F000F8009C310E33061E061C061C57
:103A2000063FFC73F02100000000000000000000D1
:103A30000000000000000C000C000C000C000C004A
:103A40000C0000000000000000000000000000006A
:103A50000000000000000000000000000000000066
:103A600000000000000200038001C000C0006000F0
:103A70006000300030003000300030003000300096
:103A8000300060006000C000C00080010003000240
:103A90000000000020006000C000800180010003E1
:103AA00000030006000600060006000600060006E9
:103AB00000060003000380018001C00060002000B8
:103AC0000000000000000000000000000000C00036
:103AD000C000D806F807E0013003380700000000F6
:103AE00000000000000000000000000000000000D6
:103AF0000000000000000000000000000000800145
:103B00008001800180018001FC3FFC3F8001800139
:103B10008001800180010000000000000000000022
:103B20000000000000000000000000000000000095
:103B30000000000000000000000000000000000085
:103B400000000000800180010001000180000000F1
:103B50000000000000000000000000000000000065
:103B600000000000000000000000E007E007000087
:103B70000000000000000000000000000000000045
:103B80000000000000000000000000000000000035
:103B90000000000000000000000000000000000025
:103BA00000000000C000C000000000000000000095
:103BB00000000000000C000C0006000600060003D8
:103BC000000300038003800180018001C000C00069
:103BD000C000600060000000000000000000000065
:103BE00000000000E003F007380E180C0C180C1849
:103BF0000C180C180C180C180C180C180C18180CA5
:103C0000380EF007E0030000000000000000000094
:103C10000000000000018001C001F001980188014E
:103C2000800180018001800180018001800180018C
:103C30008001800180010000000000000000000001
:103C400000000000E003F80F180C0C180C18001806
:103C50000018000C000600038001C0006000300066
:103C60001800FC1FFC1F0000000000000000000006
:103C700000000000E001F807180E0C0C0C0C000C02
:103C80000006C003C007000C001800180C180C1820
:103C9000180CF807E003000000000000000000001E
:103CA00000000000000C000E000F000F800DC00C83
:103CB000600C600C300C180C0C0CFC3FFC3F000C32
:103CC000000C000C000C00000000000000000000D0
:103CD00000000000F80FF80F180018000C00EC03AB
:103CE000FC071C0E001C0018001800180C181C0CF7
:103CF000180EF807E00300000000000000000000BC
:103D000000000000C007F00F381C181818000C0045
:103D1000CC03EC0F3C0E1C1C0C180C180C18181CB7
:103D2000380EF007E0030000000000000000000073
:103D300000000000FC1FFC1F000C00060006000332
:103D400080038001C001C000E000600060007000DE
:103D500030003000300000000000000000000000D3
:103D600000000000E003F007380E180C180C180CC7
:103D70003806F007F007180C0C180C180C180C1863
:103D8000380CF80FE0030000000000000000000005
:103D900000000000E003F007380E1C0C0C180C1893
:103DA0000C181C1C381EF81BE0190018000C000C25
:103DB0001C0EF807F00100000000000000000000E9
:103DC0000000000000000000000000000000800172
:103DD0008001000000000000000000000000000062
:103DE00000008001800100000000000000000000D1
:103DF0000000000000000000000000000000800142
:103E00008001000000000000000000000000000031
:103E1000000080018001000100018000000000001E
:103E20000000000000000000000000000000000092
:103E300000000010001C800FE003F8001800F800DC
:103E4000E003800F001C00100000000000000000D4
:103E50000000000000000000000000000000000062
:103E60000000F81F000000000000F81F0000000024
:103E70000000000000000000000000000000000042
:103E80000000000000000000000000000000000032
:103E9000000008003800F001C007001F0018001FD4
:103EA000C007F0013800080000000000000000001A
:103EB00000000000E003F80F180C0C180C18001894
:103EC000000C000600038001C000C000C00000001C
:103ED0000000C000C0000000000000000000000062
:103EE000000000000000E00718180420C229224A40
:103EF000114409440944094409221113E20C024007
:103F000004201818E0070000000000000000000076
:103F10000000000080038003C006C006C006600CDD
:103F2000600C301830183018F83FF83F1C700C60E7
:103F30000C6006C006C00000000000000000000089
:103F400000000000FC03FC0F0C0C0C180C180C18E3
:103F50000C0CFC07FC0F0C180C300C300C300C3027
:103F60000C18FC1FFC07000000000000000000000F
:103F700000000000C007F01F38381C300C700660CD
:103F800006000600060006000600060006600C702B
:103F90001C30F01FE00700000000000000000000DF
:103FA00000000000FE03FE0F060E0618061806307D
:103FB0000630063006300630063006300618061881
:103FC000060EFE0FFE0300000000000000000000CF
:103FD00000000000FC3FFC3F0C000C000C000C003B
:103FE0000C00FC1FFC1F0C000C000C000C000C0053
:103FF0000C00FC3FFC3F000000000000000000003F
:1040000000000000F83FF83F1800180018001800E2
:104010001800F81FF81F18001800180018001800E2
:104020001800180018000000000000000000000048
:1040300000000000E00FF83F3C780E6006E007C08B
:104040000300030003FE03FE03C007C006C00EC04A
:104050003CF0F83FE00F000000000000000000000E
:10406000000000000C300C300C300C300C300C30E8
:104070000C30FC3FFC3F0C300C300C300C300C3062
:104080000C300C300C30000000000000000000007C
:10409000000000008001800180018001800180011A
:1040A0008001800180018001800180018001800108
:1040B000800180018001000000000000000000007D
:1040C00000000000000600060006000600060006CC
:1040D0000006000600060006000600061806180680
:1040E0003807F003E00100000000000000000000BD
:1040F0000000000006300618060C060606038601BE
:10410000C60066007600DE008E0106030606060C79
:1041100006180630066000000000000000000000E5
:1041200000000000180018001800180018001800FF
:1041300018001800180018001800180018001800BF
:104140001800F81FF81F0000000000000000000029
:10415000000000000EE01EF01EF01EF036D836D82B
:1041600036D836D866CC66CC66CCC6C6C6C6C6C6F9
:10417000C6C686C386C30000000000000000000021
:10418000000000000C301C303C303C306C306C3097
:10419000CC30CC308C310C330C330C360C360C3C20
:1041A0000C3C0C380C300000000000000000000047
:1041B00000000000E007F81F1C380E70066003C006
:1041C00003C003C003C003C003C003C006600E7079
:1041D0001C38F81FE007000000000000000000008D
:1041E00000000000FC0FFC1F0C380C300C300C30B1
:1041F0000C300C18FC1FFC070C000C000C000C0011
:104200000C000C000C00000000000000000000008A
:1042100000000000E007F81F1C380E70066003E085
:1042200003C003C003C003C003C007E006630E3F22
:104230001C3CF83FE0F700C0000000000000000058
:1042400000000000FE0FFE1F063806300630063064
:104250000638FE1FFE0706030606060C061806189B
:10426000063006300660000000000000000000007C
:1042700000000000E003F80F1C0C0C180C180C00D8
:104280001C00F803E00F001E0038063006300E3028
:104290001C1CF80FE00700000000000000000000F8
:1042A00000000000FE7FFE7F800180018001800110
:1042B00080018001800180018001800180018001F6
:1042C000800180018001000000000000000000006B
:1042D000000000000C300C300C300C300C300C3076
:1042E0000C300C300C300C300C300C300C300C30EE
:1042F0001818F81FE0070000000000000000000090
:104300000000000003600630063006300C180C1860
:104310000C18180C180C380E3006300670076003A5
:104320006003C001C00100000000000000000000A8
:10433000000000000360C361C361C361663366337C
:1043400066336633663366336C1B6C1B6C1B2C1A2E
:104350003C1E380E380E0000000000000000000077
:10436000000000000FE00C7018303018700C600E68
:10437000C00780038003C003E006700C301C1818CF
:104380000C300E6007E0000000000000000000009C
:104390000000000003C006600C301C383818300CD8
:1043A0006006E007C0038001800180018001800178
:1043B000800180018001000000000000000000007A
:1043C00000000000FC7FFC7F006000300018000C43
:1043D000000600038001C0006000300018000C00DF
:1043E0000600FE7FFE7F00000000000000000000CD
:1043F00000000000E003E003600060006000600077
:1044000060006000600060006000600060006000AC
:10441000600060006000600060006000E003E00396
:104420000000000030003000600060006000C0004C
:10443000C000C000C00180018001800100030003B2
:10444000000300060006000000000000000000005D
:1044500000000000E003E00300030003000300038A
:104460000003000300030003000300030003000334
:10447000000300030003000300030003E003E00364
:10448000000000000000C001C00160036003600381
:1044900030063006180C180C000000000000000068
:1044A000000000000000000000000000000000000C
:1044B00000000000000000000000000000000000FC
:1044C00000000000000000000000000000000000EC
:1044D00000000000FFFFFFFF0000000000000000E0
:1044E000000000000C000C000C000C000C000C0084
:1044F00000000000000000000000000000000000BC
:1045000000000000000000000000000000000000AB
:104510000000000000000000000000000000F003A8
:10452000F8071C0C0C0C000FF00FF80C0C0C0C0C0A
:104530001C0FF80FF0180000000000000000000041
:104540000000000018001800180018001800D80318
:10455000F80F380C181818181818181818181818F0
:10456000380CF80FD8030000000000000000000025
:104570000000000000000000000000000000C00378
:10458000F007300E180C1800180018001800180C4E
:10459000300EF007C0030000000000000000000023
:1045A0000000000000180018001800180018C01BB8
:1045B000F01F301C18181818181818181818181880
:1045C000301CF01FC01B00000000000000000000B5
:1045D0000000000000000000000000000000C00318
:1045E000F00F300C1818F81FF81F180018003818B2
:1045F000301CF00FC00700000000000000000000A9
:1046000000000000800FC00FC000C000C000F00715
:10461000F007C000C000C000C000C000C000C00063
:10462000C000C000C000000000000000000000004A
:104630000000000000000000000000000000E00D8D
:10464000F80F180E0C0C0C0C0C0C0C0C0C0C0C0CAD
:10465000180EF80FE00D000C0C0C1C06F807F0010A
:104660000000000018001800180018001800D807F3
:10467000F80F381C181818181818181818181818BF
:10468000181818181818000000000000000000009A
:1046900000000000C000C000000000000000C000DA
:1046A000C000C000C000C000C000C000C000C0000A
:1046B000C000C000C00000000000000000000000BA
:1046C00000000000C000C000000000000000C000AA
:1046D000C000C000C000C000C000C000C000C000DA
:1046E000C000C000C000C000C000C000F8007800DA
:1046F000000000000C000C000C000C000C000C0C66
:104700000C060C038C01CC006C00FC009C018C039B
:104710000C030C060C0C0000000000000000000060
:1047200000000000C000C000C000C000C000C00009
:10473000C000C000C000C000C000C000C000C00079
:10474000C000C000C0000000000000000000000029
:1047500000000000000000000000000000007C3CA1
:10476000FF7EC7E383C183C183C183C183C183C18A
:1047700083C183C183C1000000000000000000006D
:10478000000000000000000000000000000098078A
:10479000F80F381C1818181818181818181818189E
:1047A0001818181818180000000000000000000079
:1047B0000000000000000000000000000000C00336
:1047C000F00F300C1818181818181818181818188E
:1047D000300CF00FC00300000000000000000000DB
:1047E0000000000000000000000000000000D803EE
:1047F000F80F380C1818181818181818181818184E
:10480000380CF80FD803180018001800180018000A
:104810000000000000000000000000000000C01BBD
:10482000F01F301C1818181818181818181818180D
:10483000301CF01FC01B00180018001800180018CA
:104840000000000000000000000000000000B007B1
:10485000F0037000300030003000300030003000D5
:1048600030003000300000000000000000000000B8
:104870000000000000000000000000000000E00355
:10488000F003380E180C3800F003C007000C180CA9
:10489000380EF007E00300000000000000000000F8
:1048A0000000000000008000C000C000C000F00751
:1048B000F007C000C000C000C000C000C000C000C1
:1048C000C000C007800700000000000000000000DA
:1048D00000000000000000000000000000001818A8
:1048E0001818181818181818181818181818181848
:1048F000381CF01FE019000000000000000000005C
:1049000000000000000000000000000000000C1883
:10491000180C180C180C30063006300660036003C3
:104920006003C001C00100000000000000000000A2
:104930000000000000000000000000000000C14175
:10494000C141C361636363636363363636363636AB
:104950001C1C1C1C1C1C00000000000000000000AF
:1049600000000000000000000000000000001C38F3
:10497000381C300C6006600360036003600360064F
:10498000300C381C1C380000000000000000000043
:1049900000000000000000000000000000001830CF
:1049A000301830187018600C600CE00CC006C0069F
:1049B00080038003800380018001C001F00070004B
:1049C0000000000000000000000000000000FC1FCC
:1049D000FC1F000C000600038001C00060003000D6
:1049E0001800FC1FFC1F0000000000000000000079
:1049F0000000000000038001C000C000C000C00033
:104A0000C000C00060006000300060004000C000D6
:104A1000C000C000C000C000C00080010003000052
:104A20000000000080018001800180018001800180
:104A3000800180018001800180018001800180016E
:104A4000800180018001800180018001800180015E
:104A5000000000006000C000C001800180018001F2
:104A600080018001000300030006000300018001B3
:104A700080018001800180018001C0006000000091
:104A80000000000000000000000000000000000026
:104A90000000F010F81F080F0000000000000000E8
:104AA0000000000000000000000000000000000006
:104AB00000000000E44B000800000020340000006B
:104AC00014020008184C0008340000209C08000064
:104AD000300200081001000043000000F8FFFFFF53
:104AE0000040404040404040404041414141414001
:104AF00040404040404040404040404040404040B6
:104B00004005020202020202020202020202020244
:104B10000220202020202020202020020202020249
:104B200002029090909090901010101010101010A1
:104B300010101010101010101010101002020202AD
:104B400002028888888888880808080808080808F1
:104B500008080808080808080808080802020202ED
:104B60004000000000000000000000000000000005
:104B70000000000000000000000000000000000035
:104B80000000000000000000000000000000000025
:104B90000000000000000000000000000000000015
:104BA0000000000000000000000000000000000005
:104BB00000000000000000000000000000000000F5
:104BC00000000000000000000000000000000000E5
:104BD00000000000000000000000000000000000D5
:104BE00000000000100000000100000000000000B4
:104BF0000024F40001010101000000000000000099
:104C000000000000000000000000000000000000A4
:084C10000000FFFF000000009E
:04000005080001D915
:00000001FF
