:020000040800F2
:10000000B0060020ED010008CB3700081F2D0008C6
:10001000C9370008A5080008F949000800000000D9
:100020000000000000000000000000008D3B000800
:100030001D09000800000000CD3700088F3B0008B4
:10004000070200080702000807020008070200086C
:10005000070200080702000807020008070200085C
:10006000070200080702000807020008070200084C
:10007000070200080702000807020008070200083C
:10008000070200080000000007020008070200083D
:10009000070200080702000807020008070200081C
:1000A000253C000807020008313C00080702000850
:1000B00007020008070200080702000807020008FC
:1000C00007020008070200080702000807020008EC
:1000D00007020008ED4900080702000807020008AF
:1000E00007020008070200080702000807020008CC
:1000F00007020008070200080702000800000000CD
:1001000000000000070200080000000007020008CD
:1001100007020008000000000702000807020008AC
:10012000070200080702000807020008070200088B
:10013000070200080000000000000000070200089D
:10014000070200080702000800000000000000008D
:10015000000000000000000000000000000000009F
:10016000000000000000000000000000070200087E
:10017000070200080000000000000000000000006E
:10018000000000000702000800000000000000005E
:10019000000000000000000000000000000000005F
:1001A000000000000000000007020008070200082D
:1001B000070200080702000807020008000000000C
:1001C000000000000702000800000000000000001E
:1001D0000702000807020008DFF80CD000F0CCFA94
:1001E0000048004799530008B006002006488047A1
:1001F00006480047FEE7FEE7FEE7FEE7FEE7FEE70C
:10020000FEE7FEE7FEE7FEE7093C0008D90100082B
:100210002DE9F05F0546002092469B46884606463B
:10022000814640241BE0284641464746224600F0CE
:1002300076F953465A46C01A914110D311461846D2
:10024000224600F05DF92D1A67EB01084F46224661
:100250000120002100F054F917EB00094E41201E47
:10026000A4F10104DFDC484631462A464346BDE896
:10027000F09FD2B201E000F8012B491EFBD270477B
:100280000022F6E710B513460A4604461946FFF762
:10029000F0FF204610BD2DE9FE4F81EA030404F073
:1002A000004421F0004100944FF0000B23F0004384
:1002B00050EA01045ED052EA03045BD0C3F30A544F
:1002C000C1F30A552C44A4F2F3340194A0FB025468
:1002D000C1F3130141F48011C3F3130343F48013FA
:1002E00001FB024400FB034E840A970A44EA81544E
:1002F00047EA8357A4FB076802958D0A05FB07852B
:100300004FEA932C04FB0C542705029D4FEA065834
:1003100047EA1637B5EB08056EEB070C870E920E11
:1003200047EA811742EA8312A7FB0201B6EB0B01F1
:1003300064EB00042B0D43EA0C335E1844EB1C50B5
:10034000DA465146E7FB0201C5F313044FEA0B33CB
:1003500043EA14534FEA0432019C43EA0603A4F132
:100360000C040294009CCDE900B400F0F7F803B04F
:10037000BDE8F08F00200146F9E72DE9F04D81EA54
:10038000030404F0004B21F0004514464FF0000A2E
:1003900023F0004150EA050220D054EA01021DD0AA
:1003A000C5F30A570246C5F31303C1F31300C1F3A3
:1003B0000A5640F4801543F48013A7EB0608101B7F
:1003C000D64608F2FD3873EB050002D308F10108A8
:1003D00001E092185B41B8F1000F03DA00200146FA
:1003E000BDE8F08D00204FF48011064684460EE0F3
:1003F000171B73EB050705D3121B63EB05030643BD
:100400004CEA010C49084FEA300092185B4150EA6F
:100410000107EDD152EA030012D082EA040083EA18
:100420000501084305D0101BAB4106D20122002371
:1004300006E000224FF0004302E06FF0010253108B
:100440001AEB06004CEB085110EB0A0041EB0B01D4
:10045000BDE8F04D00F073B80EB540F233410291A3
:100460000021CDE900110A460B4600F077F803B0F1
:1004700000BDC1F30A5210B5C1F3130140F2FF33BE
:1004800041F480119A4201DA002010BD40F233435A
:100490009A42A2F2334203DC524200F040F810BD0F
:1004A000904010BD30B5041E71F1000404DB4FF024
:1004B0000044404264EB0101141E73F1000405DBAB
:1004C0001C464FF00043524263EB0403994208BFBD
:1004D000904230BD30B50B46014600202022012459
:1004E00009E021FA02F59D4205D303FA02F5491B02
:1004F00004FA02F52844151EA2F10102F1DC30BD18
:10050000202A04DB203A00FA02F1002070479140D3
:10051000C2F1200320FA03F3194390407047202AC8
:1005200004DB203A21FA02F00021704721FA02F39D
:10053000D040C2F12002914008431946704710B5DF
:10054000141E73F1000408DA401C41F100019218F6
:100550005B411A4301D120F0010010BD2DE9F04D9F
:1005600092469B4611B1B1FA81F202E0B0FA80F2F4
:1005700020329046FFF7C4FF04460F4640EA0A00C7
:1005800041EA0B0153465A46084313D0114653EA39
:10059000010019D0C8F140025046FFF7C0FF0546E0
:1005A0000E46504659464246FFF7AAFF084305D07B
:1005B000012004E020463946BDE8F08D00200543C7
:1005C00046EAE0762C4337430A986305E40AA0EB39
:1005D00008000022FD0A44EA47540A3002D50020F0
:1005E0000146E9E7010510196941DDE908450019EF
:1005F0006941BDE8F04DA2E72DE9FE4F804681EA52
:100600000300C00F0C46009021F0004123F000458C
:10061000B8EB0200A94105D24046214690461C464F
:100620000B46024623F00040104347D0270DC7F386
:100630000A00C3F30A510290401A019040286BDA75
:10064000C3F3130040F4801B0098924620B10023AE
:10065000D2EB030A63EB0B0B01985946C0F1400241
:100660005046FFF74DFF06460D4650465946019A43
:1006700000F094F810EB08006141002487EA115261
:1006800084EAE7731A4340D0009A62B3019A012AC0
:100690004FEA075215DC001B61EB02014FF00042EC
:1006A00002EA0752CDE90042001C41F580113246B2
:1006B0002B46FFF753FF03B0BDE8F08F40462146BD
:1006C000F9E7001B61EB0201001C41F580130018E3
:1006D0005B412018A2F5001747EB030140EAD570F3
:1006E000B6196D4111E06D084FEA360645EAC0754E
:1006F0004FEA0752001B61EB0201001C41F580111B
:1007000049084FEA30000019514132462B4603B0E8
:10071000BDE8F04FFFF713BF00980122400000230F
:10072000D0EB020263EBE073009821464FEAE074DD
:10073000B8EB000061EB0401E9E783F000435BE7FD
:1007400081F0004158E7C1F30A52C1F3130140F2AE
:10075000FF3341F480119A4202DA002001467047CB
:1007600040F233439A42A2F2334202DC5242FFF794
:10077000D6BEFFF7C5BE0000064C074D06E0E06898
:1007800040F0010394E8070098471034AC42F6D3D8
:10079000FFF726FD3867000858670008202A06DBA7
:1007A000CB17203A41FA02F043EAE07306E041FA3F
:1007B00002F3D040C2F1200291400843194670472D
:1007C00070B504460068816811F0010F28D1816876
:1007D000144A114215D18168D5432940491C8160D2
:1007E00000F008FE064616E0816811F0010F03D103
:1007F00081682940491C816000F0FCFD801B0228B3
:1008000009D9E06D40F01000E065206E40F0010075
:100810002066012070BD20680168C943C907E3D183
:10082000002070BD3F00008010B518482DED048BEE
:1008300000F02AFC154800F0F9FA154C6063FFF748
:100840000BFE9FED148B53EC182BFFF796FD9FEDDD
:10085000139B53EC192BFFF71EFDC4E912010B4843
:1008600000F012FC094800F0E1FAA063FFF7F4FD84
:1008700053EC182BFFF781FD53EC192BFFF70BFD01
:10088000C4E91401BDEC048B10BD00002001002060
:10089000100000200000000000FEAF4066666666A3
:1008A00066660A40FEE7000010B5074CA07A401CBF
:1008B000C0B2A072052805D300F008F884ED180B2B
:1008C0000020A07210BD00001000002010B504F040
:1008D00019FECC2004F004FE442004F001FE04F0D4
:1008E00011FECC2004F0FCFDBE2004F0F9FD04F064
:1008F000F4FD044604F0F1FD44EA0020FFF7ACFDEE
:100900009FED041B53EC112BFFF7C5FC41EC100BC2
:1009100010BD0000000000000000B03F7047002242
:1009200040F6B83306E00021491C89B29942FBD356
:10093000521C92B28242F6D37047000070B5314C1F
:1009400000264FF09045A078000601D5012200E076
:1009500000220221284600F048FD002208212846F6
:1009600000F043FD01220821284600F03EFDA0785A
:10097000761C4000F6B2A070082EE4D30026607802
:10098000000601D5012200E000220221284600F0E5
:100990002CFD00220821284600F027FD0122082115
:1009A000284600F022FD6078761C4000F6B26070A8
:1009B000082EE4D300262078000601D5012200E0AD
:1009C00000220221284600F010FD002208212846BE
:1009D00000F00BFD01220821284600F006FD2078DA
:1009E000761C4000F6B22070082EE4D300220421C9
:1009F000284600F0FAFC2846BDE870400122042198
:100A000000F0F3BCA3000020704700002DE9F84F70
:100A100000270446009790F85800DFF8DC930D4655
:100A2000B846012811D0012684F85860206802F0E9
:100A300009FD60B1E06D40F02000E0655FF0010766
:100A400084F858803846BDE8F88F0220FBE7D5E9E6
:100A500000210C23206803EA91131844036B01F072
:100A60001F014FF01F0C0CFA01FCC2F3846223EA51
:100A70000C038A4013430363206802F0E3FC8246C0
:100A8000206802F0DBFC5AEA00003CD1AA68296821
:100A90002068B2F1004F37D002F0D8FC20684169DD
:100AA00021F00041416120686969C268C2F3C10256
:100AB000520091402A69042A31D000EB82002B6851
:100AC000026EDFF838C303F0F84302EA0C020B436E
:100AD0001A4342F00041016622682869A96902EBC5
:100AE0008000026E22F080720A430266297F20682D
:100AF0002A69012910D0002100EB8200026E22F049
:100B000000720A4302667DE0002202F09FFC20682A
:100B1000416941F00041C5E74FF00071ECE7002169
:100B200002F086FC400320684FF0000172D002F012
:100B30007FFC90FAA0F0B0FA80F1286842036ED0F2
:100B400090FAA0F0B0FA80F0814204D10022114660
:100B5000206802F08AFC0121206802F069FC400351
:100B600020684FF001015DD002F062FC90FAA0F025
:100B7000B0FA80F12868420359D090FAA0F0B0FA98
:100B800080F0814204D100220121206802F06DFC36
:100B90000221206802F04CFC400320684FF0020163
:100BA00048D002F045FC90FAA0F0B0FA80F1286835
:100BB000420344D090FAA0F0B0FA80F0814204D110
:100BC00000220221206802F050FC0321206802F07C
:100BD0002FFC400320684FF0030133D002F028FCC3
:100BE00090FAA0F0B0FA80F1286842032FD090FA72
:100BF000A0F0B0FA80F0814204D1002203212068E5
:100C000002F033FC2068816811F0010F22D0ACE0C3
:100C100000E004E002F00CFCC0F384618DE7C0F357
:100C2000846091E702F004FCC0F38461A2E7C0F3A2
:100C30008460A6E702F0FCFBC0F38461B7E7C0F371
:100C40008460BBE702F0F4FBC0F38461CCE7C0F33F
:100C50008460D0E72A7B296850F8B03FC1F3120CBA
:100C600023EA0C0302F0180C654A22FA0CF20A403F
:100C700013430360E968494577D1286841031CD0D4
:100C800090FAA0F1B1FA81F1491C01F01F01092984
:100C90004FEA403132D8002912D000BF90FAA0F1BB
:100CA000B1FA81F101F1010101F01F0106FA01F62B
:100CB00009D100BFC0F3846109E0C0F38461E3E7B8
:100CC000C0F38461EEE790FAA0F1B1FA81F101F18D
:100CD000010101F01F0146EA816102D1C0F3846085
:100CE00003E090FAA0F0B0FA80F000F1010000F00B
:100CF0001F0000EB400041EA005132E000290ED015
:100D000090FAA0F1B1FA81F101F1010101F01F01A6
:100D100006FA01F606D100BFC0F3846106E0C0F315
:100D20008461F1E790FAA0F1B1FA81F101F10101DA
:100D300001F01F0146EA816102D1C0F3846003E043
:100D400090FAA0F0B0FA80F000F1010000F01F006E
:100D50002C4A00EB400002EB005041EA000141F058
:100D60000071AA68206802F071FB27482A680242D5
:100D70003FF466AE25488168254B01F0E0719A4248
:100D800002D0244B9A421BD10B0219D42268B2F133
:100D9000A04F7FF455AE826841F4000122F0E0726A
:100DA0000A4382601C481D490068B0FBF1F000EB6B
:100DB0004000800000E0401E00900028FBD13FE68C
:100DC000174D184BAA4207D1CD0105D422689A428B
:100DD000F5D041F0807109E0134DAA42EFD14A02EB
:100DE000EDD422689A42EAD041F48001826822F070
:100DF000E0720A43826023E600007F4000F0FF03B8
:100E0000FFFF0700000020FE0000088000030050E4
:100E1000000021C31000C090B4000020400D03006A
:100E2000000052C700010050000084CB0068006C35
:100E300070470000F8B54FF0000504002E460095FD
:100E400002D0E06D10B107E00120F8BD204600F0AF
:100E5000EDF8266684F8586020688168C1F3407117
:100E600019B18168694A1140816020688168C1F3C5
:100E7000007179B98168664A114041F08051816002
:100E8000644865490068B0FBF1F000E0401E009046
:100E90000028FBD120688168C1F3007141B9E16D80
:100EA00041F01001E165216E41F00101216601254B
:100EB00002F0C8FAE16DC90600D430B1E06D40F02F
:100EC0001000E06501252846F8BDE06D20F4807033
:100ED00040F00200E0652068806810F0010F11D139
:100EE0004FF0A04080684D4900F00100896801F092
:100EF0000101084306D14A486168826822F47C12E5
:100F00000A438260E168E06B627F0843A16841EABE
:100F10004231084394F8241040EA0140012904D1E9
:100F2000218D404A02EB41410843E16A29B101F4B5
:100F30007871226B014342EA01002168CA683A4B8A
:100F40001A400243CA6020680169626B21F0406167
:100F500011430161206802F075FA0646206802F02C
:100F60006DFA30432ED1207F94F83810800340EA88
:100F700041022068C16844F2020399431143C160F1
:100F800020690028206801690AD041F4803101619C
:100F9000206850F8C01F22696FF30D01114307E06C
:100FA00021F480310161206850F8C01F6FF30D01FA
:100FB000016094F8400001280CD02068016921F0FC
:100FC00001010161606901282068016B21F00F01B6
:100FD00011D013E0D4E911010843D4E913121143ED
:100FE000084321680A6940F2FC739A43104340F0B9
:100FF00001000861E6E7226A521E11430163E06DB9
:1010000020F0020040F00100E0655CE7C0FFFF5FF8
:10101000C0FFFF7FB4000020400D0300000100501E
:10102000000300500000FEFF0740F0FF10B586B03F
:10103000044614216846FFF723F9114920688842C5
:101040001BD11048C16C41F40051C164C16C01F462
:1010500000510591C16C41F00101C164C06C694649
:1010600000F0010005903020009003200190002046
:1010700002904FF0904000F0CFF806B010BD000095
:1010800000010050001002402DE9F04104463848AC
:10109000806800F01F05206802F0D4F918B1022121
:1010A0000846BDE8F08194F8580001280CD00120D2
:1010B00084F858002046FFF783FB01004FF000033F
:1010C00004D084F85830EBE70220EAE7E06D40F600
:1010D0000162904340F48070E065264A20684FF03A
:1010E000A046904201D1374600E00746874200D033
:1010F0001DB9E76D27F48017E765E76DFF0404D598
:10110000276E27F00607276600E023661C27076086
:1011100084F858302068904201D1334600E00346FD
:10112000834215D0A5B1052D12D0092D10D0E36D45
:1011300043F48013E365904200D13046C0688001DB
:10114000AED5E06D20F4005040F48050E065A7E794
:10115000C268920105D5E26D22F4005242F4805239
:10116000E2658268044B1A40121D826098E7000015
:101170000003005000010050C0FFFF7F70B590F8E1
:101180002520002401212346022A07D00422C2631D
:1011900080F8251080F82430012429E002681568C1
:1011A00025F00E0515600268156825F0010515602B
:1011B000826C156825F48075156090F84420056CE4
:1011C00002F01F0201FA02F26A60D0E913255560AD
:1011D000426D32B1156825F480751560D0E9162589
:1011E000556080F8251080F82430816B01B1884764
:1011F000204670BD70B5044600F0FCF80546601C42
:1012000002D004484068044400F0F4F8401BA042B7
:10121000FAD370BDA80000202DE9FC4FDFF8A0A193
:10122000002301250AF1040B03244FF00F0C0BF1EE
:10123000040EBDE005FA03F632406FD04F68012F6F
:1012400005D0022F03D0112F01D0122F17D1D0F8C3
:1012500008905F0004FA07F829EA08090097D1F816
:101260000C8008FA07F848EA0908C0F808804768BF
:10127000B7430E79C6F300169E403E434660C668EB
:101280004FEA430804FA08F7BE4301978F6807FA4C
:1012900008F73743C7604E68022E01D0122E13D1D3
:1012A000DE0800EB86060096366A5F07FF0E0CFA32
:1012B00007F926EA0906D1F8109009FA07F949EA70
:1012C0000609009EC6F820900668019FBE430F796C
:1012D00007F0030707FA08F7374307604E68F60080
:1012E00065D5384E376E47F001073766366E23F006
:1012F000030706F001060096334E3E44B146B66839
:101300009F074FEA17780CFA08F7BE43B0F1904FE9
:1013100005D02E4FB84204D1012717E047E000273F
:1013200014E02B4FB84201D102270FE0294FB842F9
:1013300001D103270AE0284FB84201D1042705E074
:10134000264FB84201D1052700E0062707FA08F723
:101350003743C9F80870DAF800605746D1F80480BE
:1013600096435FEAC83800D516433E60DBF800605C
:101370005F46D1F8048096435FEA883800D516436B
:101380003E60DEF800607746D1F8048096435FEA5D
:10139000C82800D516433E60094F0C373E68D1F887
:1013A000048096435FEA882800D516433E605B1CA4
:1013B0000A6832FA03F67FF43DAFBDE8FC8F000007
:1013C00000040140001002400000014000040048F9
:1013D00000080048000C00480010004800140048B5
:1013E0000069084000D0012070470AB18161704750
:1013F000816270470148806870470000A8000020A3
:10140000024881684268114481607047A80000204A
:1014100010B50024032000F077F8002000F008F851
:1014200008B1012401E000F025F8204610BD0000BD
:1014300070B50E4E05460024706898B14FF47A716D
:10144000B1FBF0F00A490968B1FBF0F000F060FD73
:1014500040B9102D06D200222946501E00F034F863
:10146000356000E00124204670BD0000A800002087
:10147000B40000200B4808B5016E41F0010101667F
:10148000016E01F001010091816D41F08051816593
:10149000806D00F0805000900348816841F48041E5
:1014A000816008BD0010024000700040002809DB88
:1014B00000F01F02012191404009800000F1E0206E
:1014C000C0F8001170470000F0B40E4B1B680C46CA
:1014D000C3F30223C3F10705042D00D90425191D08
:1014E000072901D2002300E0DB1E012606FA05F1E0
:1014F000491E214099409E40761E16403143F0BC63
:1015000003F0A0BA0CED00E0064900F007020868FD
:101510004FF6FF03184040EA0220034A10430860D8
:10152000704700000CED00E00000FA052B492C4B41
:101530000A6832214A432B4940B1B0F5007F086860
:1015400029D020F4C06040F480602CE00868C0F32B
:101550004120022804D051F8800F20F4807022E04E
:10156000D1F8800020F48070C1F88000086820F471
:10157000C06040F400700860B2FBF3F0401C00E073
:10158000401E4A69520501D50028F9D14869400535
:101590000AD503207047C0F34120022806D051F835
:1015A000800F40F48070086000207047D1F8800000
:1015B00040F48070C1F88000086820F4C06040F4F6
:1015C00000700860B2FBF3F0401C00E0401E4A6966
:1015D0005205DBD50028F9D1D8E70000B40000207F
:1015E00040420F00007000402DE9F84304460068B7
:1015F00000269D4D00035ED5A86D0027C00008D4CD
:10160000A86D40F08050A865A86D012700F08050BB
:101610000090DFF85892D9F8001041F48071C9F8B1
:101620000010FFF7E7FE804606E000BFFFF7E2FE8E
:10163000A0EB080002282BD8D9F80000C005F5D58A
:10164000D5F8900010F4407014D0216C814211D074
:10165000D5F89000D5F8901020F4407041F4803116
:10166000C5F89010D5F8901021F48031C5F890108D
:10167000C5F89000C00711D0FFF7BCFE804641F2CC
:10168000883907E0FFF7B6FEA0EB0801494501D90C
:1016900003260BE0D5F890008007F3D5D5F890002D
:1016A000216C20F440700843C5F890001FB1A86D6C
:1016B00020F08050A8652078C00707D0D5F88800B2
:1016C000616820F003000843C5F88800207880078F
:1016D00007D5D5F88800A16820F00C000843C5F8AC
:1016E00088002078400707D5D5F88800E16820F009
:1016F00030000843C5F888002078000707D5D5F8E2
:101700008800216920F0C0000843C5F888002078CF
:10171000800607D5D5F88800616920F44060084349
:10172000C5F888002078400607D5D5F88800A1695B
:1017300020F440500843C5F888002078000607D5FB
:10174000D5F88800E16920F440400843C5F88800D6
:101750002088C00507D5D5F88800216A20F44030DC
:101760000843C5F888002088800507D5D5F888008B
:10177000616A20F440200843C5F8880020884005AD
:101780000FD5D5F88800A16A20F440100843C5F8A9
:101790008800A06AB0F5801F03D1E86840F480108B
:1017A000E860208800050FD5D5F88800E16A20F4AC
:1017B00040000843C5F88800E06AB0F5800F03D107
:1017C000E86840F48010E8602088C0040FD5D5F8A0
:1017D0008800216B20F040700843C5F88800206B1A
:1017E000B0F1807F03D1E86840F48010E860208881
:1017F0004FF0006180040ED5D5F88800626B20F0B0
:1018000040601043C5F88800606B884203D1E868E7
:1018100040F48010E860208840040ED5D5F8880098
:10182000A26B20F040601043C5F88800A06B88428E
:1018300003D1E86840F48010E860208800040FD5E8
:10184000D5F88800E16B20F040500843C5F88800C7
:10185000E06BB0F1805F03D1E86840F48030E8606D
:101860003046BDE8F88300000010024000700040E0
:101870002DE9F0470E4605004FF0000725D0DFF8B0
:10188000AC81D8F8000000F00F00B0420CD2D8F8BC
:10189000001021F00F013143C8F80010D8F8000003
:1018A00000F00F00B04210D12968614CC80741F226
:1018B000883A5AD06868DFF87C91032808D002285B
:1018C00020682DD0400500282CDB0120BDE8F087E2
:1018D00020688001F9D5E06800F00302E068C0F3F9
:1018E0000310401C032A19D0534A00BFB2FBF0F08A
:1018F000E268C2F306225043E268C2F34162521C1E
:101900005200B0FBF2F0484517D9A06810F0F00F74
:101910000CD0880711D5A86840B10EE0474AE5E72A
:101920008003D0E700F0B6F8484506D9A06820F05B
:10193000F00040F08000A0608027A068696820F077
:1019400003000843A060FFF755FD814606E000BF95
:10195000FFF750FDA0EB090151453AD8A06869682E
:1019600000F00C00B0EB810FF2D12868810714D58C
:10197000400703D5A06840F4E060A0602878000725
:1019800005D5A06820F4605040F4E060A060A06835
:10199000A96820F0F000084304E0802F03D1A0687C
:1019A00020F0F000A060D8F80010404601F00F01D0
:1019B000B14216D9016821F00F0131430160FFF7F0
:1019C00019FD074607E000BFFFF714FDC11B514595
:1019D00001D903207AE7D8F8000000F00F00B042E8
:1019E000F2D12878400705D5A068E96820F4E060C6
:1019F0000843A0602878000706D5A068296920F46C
:101A0000605040EAC100A06000F044F8A1680C4AB0
:101A1000C1F30311515C01F01F01C840094908607E
:101A200009480068BDE8F047FFF702BD002002400A
:101A30000010024000B4C4040024F40000366E011B
:101A400020670008B4000020A800002005480649CF
:101A500000688968054AC1F30221515C01F01F0149
:101A6000C8407047B40000200010024030670008F2
:101A70000548064900688968054AC1F3C221515CDE
:101A800001F01F01C8407047B40000200010024060
:101A900030670008184910B58868C0F381021748FC
:101AA000012A0BD08A68164BC2F38102022A06D0A3
:101AB0008A68C2F38102032A03D0002010BD1846B1
:101AC00010BDCA6802F00304CA68C2F30312521CB4
:101AD000032C02D0B0FBF2F001E0B3FBF2F0CA68D5
:101AE000C968C2F306225043C1F34161491C490051
:101AF000B0FBF1F010BD0000001002400024F40023
:101B000000366E012DE9F84304007AD02078FA4DB2
:101B1000C00747D0A868E96800F00C0001F0030195
:101B20000C2802D0082817D001E0032914D06068DF
:101B3000B0F5803F17D0B0F5A02F286817D020F45B
:101B400080302860286820F4802028606068E0B138
:101B5000FFF750FC064614E02868800322D5606831
:101B60000028D2D01EE0286840F48030EDE740F431
:101B700080202860F7E700BFFFF73CFC801B64284B
:101B800070D828688003F7D50CE0FFF733FC0646D1
:101B900005E000BFFFF72EFC801B6428F0D8286802
:101BA0008003F7D4207880074CD5A868E96800F056
:101BB0000C0001F003010C2802D004280DD001E034
:101BC00002290AD0E068002828682BD040F48070F1
:101BD0002860FFF70FFC064619E02868400502D58B
:101BE000E068002891D06868217C20F0FE4040EA3F
:101BF00001606860C1480068FFF71AFC002800D146
:101C000020E076E1FFF7F6FB801B0228B8D82868B1
:101C10004005F7D56868217C20F0FE4040EA01606D
:101C200068600FE020F480702860FFF7E3FB064651
:101C300005E000BFFFF7DEFB801B0228A0D8286864
:101C40004005F7D42078000729D560690028D5F829
:101C5000940013D040F00100C5F89400FFF7CAFBD0
:101C6000064606E090E000BFFFF7C4FB801B022899
:101C700086D8D5F894008007F6D510E020F0010052
:101C8000C5F89400FFF7B6FB064604E0FFF7B2FB89
:101C9000801B022878D8D5F894008007F6D42078E5
:101CA000400761D5A86D0026C00008D4A86D40F09B
:101CB0008050A865A86D012600F0805000909048E3
:101CC0000168C90511D40168804641F48071016042
:101CD000FFF790FB074604E0FFF78CFBC01B0228D0
:101CE00052D8D8F80000C005F6D5A068012815D054
:101CF0000528D5F8900016D020F00100C5F8900016
:101D0000D5F8900020F00400C5F89000A06841F2DA
:101D10008838B8B1FFF76EFB07460EE0D5F89000A3
:101D200040F00100F0E740F00400C5F89000F5E74E
:101D3000FFF760FBC11B414526D8D5F8900080070E
:101D4000F6D50CE0FFF756FB074604E0FFF752FB21
:101D5000C11B414518D8D5F890008007F6D41EB1B4
:101D6000A86D20F08050A8652078800629D5A0694C
:101D70000028D5F8980013D040F00100C5F898006D
:101D8000FFF738FB064606E077E000BFFFF732FBBF
:101D9000801B022877D8D5F898008007F6D510E088
:101DA00020F00100C5F89800FFF724FB064604E088
:101DB000FFF720FB801B022865D8D5F89800800724
:101DC000F6D4E069F0B3A968C1F38101032961D0B9
:101DD0000228286820F0807028600BD0E86820F086
:101DE0000300E860E86847490840E860FFF702FB45
:101DF00004464BE0FFF7FEFA064604E0FFF7FAFA66
:101E0000801B02283FD828688001F7D4F4E9080134
:101E10006FF00F0202EB01110843218A52044908B6
:101E200002EB4151A26841EA02210843217D4FF0B3
:101E30007E42490802EB41610843217B40EAC160D0
:101E4000E96800E062E0304A11400843E860286831
:101E500040F080702860E86840F08070E860FFF72C
:101E6000C9FA044605E000BFFFF7C4FA001B0228C8
:101E700009D828688001F7D548E004E0FFF7BAFAEE
:101E8000001B022802D90320BDE8F88328688001DE
:101E9000F4D43BE00128F7D0E868226A00F003019F
:101EA000914226D1616A00F0F00209011039914295
:101EB0001FD1A26A00F4FE41B1EB022F19D194F8B0
:101EC0002C2000F07841B1EBC26F12D1218E00F4CA
:101ED000C00249084905A1F50011914209D194F8C1
:101EE000341000F0C06049084906A1F10071814238
:101EF0000CD00120C8E7000000100240A80000201C
:101F000000700040FFFFEEFE0C809F010020BBE749
:101F100010B5401EB0F1807F01D3012010BD4FF0FD
:101F2000E02460610F21601702F08CFD0020A061A9
:101F300007202061002010BD704770477047704730
:101F400070477047F0B590F83C20012A3AD001253F
:101F500080F83C50022280F83D2003685A689C6853
:101F6000194E1A4FB34201D0BB4204D122F4700C77
:101F70004A6842EA0C02DFF858C002EA0C02D1F8C3
:101F800000C04CEA020CC3F804C00268B2420DD093
:101F9000B2F1804F0AD00F4B9A4207D00E4B9A42B3
:101FA00004D0BA4202D00D4B9A4204D1896824F081
:101FB00080031943916080F83D50002180F83C1067
:101FC0000846F0BD0220F0BD002C01400034014065
:101FD0008FFFFFFD0004004000080040004001406A
:101FE000704710B5040003D094F83D0010B107E02D
:101FF000012010BD002084F83C00204600F022F8AB
:10200000022084F83D00211D206801F017FE012008
:1020100084F8480084F83E0084F83F0084F84000CB
:1020200084F8410084F8420084F8430084F84400B6
:1020300084F8450084F8460084F8470084F83D00A1
:10204000002010BD10B586B0044614216846FEF786
:1020500017F91F4A21681F4891420ED1016E41F4C1
:1020600080310166006E002200F480300590114638
:102070001820FFF729FA182025E0174A914224D1A9
:10208000016E41F480210166016E01F48021059109
:10209000C16C41F00101C164C06C694600F00100EF
:1020A0000590802000900220019000200290039073
:1020B000012004901004FFF7AFF8002211461A2007
:1020C000FFF702FA1A20FFF7F1F906B010BD000081
:1020D00000400140001002400048014090F83D10CF
:1020E000012901D001207047022180F83D100168CC
:1020F000CA6842F00102CA6000688168064A11405D
:10210000062906D0B1F5803F03D0016841F00101F6
:1021100001600020704700000700010070B5044610
:1021200090F83C00012815D0012584F83C5002208D
:1021300084F83D0022689068354B184020F47F40B9
:1021400090600868B0F5805F50D010DC10F00F0F81
:1021500003D04BE04FF0020070BD4FEA2012082A76
:1021600044D2DFE802F05151515149323A1B294B18
:10217000C21A984248D00ADCB0F5005F19D0B0F11D
:10218000101F41D0A0F5801120392FD13CE0102A3A
:102190003AD0302A38D0402A28D135E0CB68D1E96E
:1021A0000121206801F0AFFD2068816841F07701CE
:1021B00009E0CB68D1E90121206801F0A4FD206885
:1021C000816841F48041816010E0CA6849682068F4
:1021D00001F0AEFD5021206806E0CA684968206819
:1021E00001F0EEFD6021206801F098FD84F83D507B
:1021F000002084F83C0070BDCA684968206801F07E
:1022000097FD40212068EFE7226801461046EBE782
:1022100088FFCEFF300010002DE9F0413B4E2DED40
:10222000028BB04226D1017F012923D1384CA189EC
:1022300079B14FF6FF75012920D002291AD100216A
:1022400000F0A6FA6062216A884235D9A0EB01004D
:1022500038E04FF0000100F09BFA20623068016A1C
:1022600021F00A0101623068016A41F00201016255
:102270000120A081BDEC028BBDE8F081002100F0BF
:1022800087FA606231680A6A22F00A020A623168DB
:102290000A6A0A62216A884202D9A0EB010105E0BC
:1022A00005D2A5EB0101014401F1010121644FF0C8
:1022B0000201A1812062DDE705D2A5EB01010844FE
:1022C00000F10100E0634FF00000A081D4E90F07A6
:1022D0003844FEF7C1F80E4646EC100B054653ECA9
:1022E000102B9FED0C0B51EC100BFEF746F8FEF790
:1022F000C0F8606446EC185B3846FEF7ADF853EC66
:10230000182BFEF73AF8C4E91601B3E7D80100200C
:10231000100000200000000080842E412DE9F041D3
:10232000054690F83C000C46012836D0012085F87F
:102330003C008AB3042A42D02868082A51D0D4E944
:102340000023E168066A26F480560662C669076AB9
:1023500026F4407646EA03234FF6FF7606EA01317B
:1023600023F4704319434FF4204627F4204306EA30
:1023700002321A43C16102622868C16921F44061D6
:10238000C1612868C169A26841EA0221C1610020D7
:1023900085F83C00BDE8F08101E00220FAE7D4E9CD
:1023A0000012E368286801F0D5FC2868816921F0F3
:1023B0000C01816128688169A26811430FE0D4E9AA
:1023C0000012E368286801F00DFD2868816921F496
:1023D0004061816128688169A26841EA02218161C6
:1023E000D5E7D4E90027267B016A21F480710162D8
:1023F000C169036A21F00301394321F0F007310775
:102400004FF4206647EA116123F4206306EA0222B2
:102410001A43C16102622868C16921F00C01C161DF
:102420002868C169A2681143B0E710B5040003D061
:1024300094F83D0010B107E0012010BD002084F8A1
:102440003C00204600F022F8022084F83D00211DC7
:10245000206801F0F3FB012084F8480084F83E0076
:1024600084F83F0084F8400084F8410084F842007A
:1024700084F8430084F8440084F8450084F846005A
:1024800084F8470084F83D00002010BD704700002C
:1024900010B5044679B1042912D0082915D00C29A9
:1024A00018D0102919D094F8430000BF94F84720A1
:1024B000012817D114E094F83E0094F84420F7E77F
:1024C00094F83F0094F84520F2E794F8400094F81F
:1024D0004620EDE794F84100E8E794F84200E5E78C
:1024E000012A01D0012010BD022071B1042915D0AC
:1024F00008291CD00C2936D0102937D084F8430085
:1025000084F847000C291BD133E084F83E0084F89E
:1025100044002068C26842F0020210E084F83F00E4
:1025200084F845002068C26842F0040207E084F89D
:10253000400084F846002068C26842F00802C26089
:102540000122206801F0D2FB206881680B4A11400B
:10255000062906D0B1F5803F03D0016841F00101A2
:102560000160002010BD84F84100C9E784F84200F2
:10257000C6E72068C26842F01002E0E707000100E9
:1025800070B50446006801694FF00005C94389072A
:1025900015D4C168C943890711D4E91E016101201E
:1025A0002077206880698007204602D0FFF734FE3C
:1025B00004E000F0E3F8204600F0E1F82577206819
:1025C0000169C943490717D4C168C943490713D4EE
:1025D0006FF004010161022020772068806910F407
:1025E000407F204602D0FFF717FE04E000F0C6F857
:1025F000204600F0C4F8257720680169C94309071F
:1026000016D4C168C943090712D46FF008010161EB
:10261000042020772068C0698007204602D0FFF799
:10262000FBFD04E000F0AAF8204600F0A8F82577AA
:1026300020680169C943C90617D4C168C943C906DE
:1026400013D46FF010010161082020772068C06961
:1026500010F4407F204602D0FFF7DEFD04E000F0DA
:102660008DF8204600F08BF8257720680169C94372
:10267000C90708D1C168C943C90704D1891E0161CE
:10268000204600F07DF820680169C943090609D495
:10269000C168C943090605D46FF080010161204675
:1026A000FFF74BFC20680169C943C90509D4C1681B
:1026B000C943090605D46FF4807101612046FFF714
:1026C0003BFC20680169C943490609D4C168C94374
:1026D000490605D46FF040010161204600F06DF815
:1026E00020680169C943890609D4C168C9438906BC
:1026F00005D46FF0200101612046FFF71FFC206820
:102700000169C943C90209D4C168C943C90205D4D2
:102710006FF4801101612046FFF712FC2068016907
:10272000C943890209D4C168C943890205D46FF439
:10273000001101612046FFF702FC20680169C943CE
:10274000490209D4C168C943490205D46FF4800124
:1027500001612046FFF7F5FB20680169C9430902C2
:102760000BD4C168C943090207D46FF400010161A9
:102770002046BDE87040FFF733BC70BD704770471E
:102780000249884201D1FEF78FB870478C010020C2
:102790000246002041B1042909D008290AD00C2999
:1027A00001D11068006C70471068406B704710686A
:1027B000806B70471068C06B7047704790F87C1052
:1027C000012918D0012180F87C102421C0F8801044
:1027D00050F8601B0A680B6823F001030B6022F0BD
:1027E00000510022426050F8603C196020210162D3
:1027F00002771046704702207047704770B5044654
:1028000090F87C0001281DD0012084F87C00242051
:10281000C4F8800020680568026822F001020260A6
:102820002068826822F060620A438260204601F0DC
:10283000F5FA206805602020C4F88000002084F8A4
:102840007C0070BD022070BD70B5044690F87C001D
:1028500001281DD0012084F87C002420C4F88000C9
:1028600020680568026822F0010202602068826820
:1028700022F060420A438260204601F0CFFA2068CD
:1028800005602020C4F88000002084F87C0070BD22
:10289000022070BD70477047704700002DE9F0417D
:1028A00003680446D8691A68996810F00F0F4FF052
:1028B000000569D05E4E02F490770E4037437DD01C
:1028C000C70709D0D70507D501271F62D4F888307C
:1028D00043F00103C4F8883083070AD5CB0708D03A
:1028E000276802233B62D4F8883043F00403C4F81D
:1028F000883043070AD5CB0708D0276804233B62FA
:10290000D4F8883043F00203C4F8883003070CD5AC
:1029100002F02003334308D0266808233362D4F83A
:10292000883043F00803C4F88830D4F88830002B8E
:102930003CD0800609D502F0200001F08051084308
:1029400003D0E16E09B120468847D4F88800216899
:102950008968490601D400072AD5204601F02EFBDC
:102960002068816849061ED5816821F04001816098
:10297000A06FC0B12F498163A06FFEF7FFFB002855
:1029800014D0A06F816B0AE0860617D502F02006EE
:1029900001F080573E4311D0E16E24E02046BDE8AF
:1029A000F04108470AE02046FFF776FFBDE8F081D6
:1029B0002046FFF771FFC4F88850F7E7C60209D533
:1029C0004E0207D54FF4801018622046BDE8F04152
:1029D000FFF761BF060609D502F0800601F4000189
:1029E0000E4303D0216F0029D8D1DFE741060DD572
:1029F00051060BD51968204621F0400119602021AD
:102A0000C4F88010256700F089F9CFE7010206D5E8
:102A1000510004D52046BDE8F041FFF73BBFC0019F
:102A2000C4D5002AC2DA2046BDE8F041FFF7E5BE72
:102A300001000010A73F000810B5040003D0D4F82F
:102A4000800010B107E0012010BD002084F87C0058
:102A5000204600F027F82420C4F880002068016890
:102A600021F001010160204601F0BAFB0128EBD002
:102A7000A06A10B1204601F003FA2068416821F4F1
:102A8000904141602068816821F02A0181602068BE
:102A9000016841F0010101602046BDE8104001F0ED
:102AA00053BA000010B586B0044614216846FDF7FD
:102AB000E7FB17492068884227D11648016E41F488
:102AC00080410166016E01F480410591C16C41F0C5
:102AD0000101C164C06C694600F0010005904FF42B
:102AE000C060009002200190002002900390072017
:102AF00004904FF09040FEF78FFB002211462520F6
:102B0000FEF7E2FC2520FEF7D1FC06B010BD000068
:102B1000003801400010024070B5D0F88430202BFE
:102B20006DD1B9B1B2B190F87C30012B67D00123DF
:102B300080F87C308165A0F85C20A0F85E20002140
:102B4000C16683684FF48056FF24B34207D10369FE
:102B500013B11CE0012070BD40F2FF131DE07F2582
:102B60009BB1B3F1805F15D0A0F86010C0F8881059
:102B70002223C0F8843003689C6844F001049C6000
:102B8000436EB3F1005F0ED027E0036943B9A0F8AC
:102B90006040EBE703691BB13F23A0F86030E5E735
:102BA000A0F86050E2E7B0F86830934215D8826828
:102BB000B24201D1026972B1124AC26680F87C1039
:102BC00001680A6842F480720A600068816841F016
:102BD000805181600FE00C4AEFE78268B24201D178
:102BE000026952B1094AC26680F87C100068016827
:102BF00041F490710160002070BD054AF3E70220A6
:102C000070BD00004141000841400008E14000085B
:102C1000E13F000810B50D4800680D4C012204F199
:102C20001001E0620B48FFF777FF04F110000A4A39
:102C30000178607A1154401C60720A2905D1BDE800
:102C40001040114605A001F0D9BE10BDB000002013
:102C50001000002024020020BC000020257300008A
:102C60002DE9F8430446D0F880001F4616460D466D
:102C7000202851D1DDB1D6B194F87C0001284BD089
:102C8000012084F87C004FF00008C4F888802120DF
:102C9000C4F880001834FEF7ADFBA6878146E687AE
:102CA00054F8100C183CB0F5805F03D004E001200C
:102CB000BDE8F883206910B12E46002510E00026FB
:102CC0000EE08021204601F05EFEB8B9C6B116F8CC
:102CD000010B21688862B4F85600401EA4F8560023
:102CE000B4F856004B464FF0000200970028E8D198
:102CF0004FF04001204601F046FE30B10320D7E7F7
:102D000035F8020BC0F30800E3E72020C4F8800088
:102D100084F87C800020CBE70220C9E77047FEE7FB
:102D20002DE9F041454D2868454CE169401A1428C9
:102D300040D32868E06100F08BF8424E3078C0073D
:102D40000CD0002000F0DEF82178012088432070AC
:102D50000FD018B12079A070E078607030788107CA
:102D6000217815D5012925D1617981F001016171A1
:102D700010E0A0782179884203D16178E27891420D
:102D8000ECD0E189491CE18120716078E070E5E7D1
:102D900001290FD1617979B1410704D5A17801F0FA
:102DA0000101491CA170000704D5A07800F00100C2
:102DB000401CA070BDE8F081234B244946074FF426
:102DC0007A7202D52E6866611CE01E7877074FF094
:102DD000280606D52F68D4F814C0A7EB0C07974235
:102DE00009D80F787F070DD52F68D4F814C0A7EB4A
:102DF0000C07974206D267787F1CFFB26770292FB5
:102E000000D36670000702D52868A061D2E7187861
:102E1000000704D52868A369C01A904207D808782B
:102E20000007C7D52868A169401A9042C2D26078CD
:102E30000028BFD0401E6070BCE70000B00000203A
:102E400010000020060000200800002007000020DD
:102E500070B5134D01212846FEF7C2FA044602213F
:102E60002846FEF7BDFA44EA400404212846FEF74E
:102E7000B7FA44EA800401214FF09040FEF7B0FA1F
:102E8000084944EAC00040F0F0008A78C04320EAD4
:102E9000020342400B7082434A70887070BD00008C
:102EA000000400480600002000B585B014216846E3
:102EB000FDF7E6F94FF6FF70009000200321CDE901
:102EC0000201019069460248FEF7A6F905B000BD6F
:102ED0000008004800B585B014216846FDF7D0F918
:102EE0004FF6FF7000900120019003200390002016
:102EF000029069460248FEF78FF905B000BD000058
:102F00000008004870B5002406462146204600F01F
:102F1000EBF900F029FA4FF49635304600F0F8F955
:102F2000641CAC42F9D370BD30B587B0142168463B
:102F3000FDF7A6F91E48C16C41F00401C164C16CE3
:102F400001F004010591C16C41F00101C164C16C43
:102F500001F001010591C16C41F00201C164C06C36
:102F6000012500F0020005904FF44870CDE90005FE
:102F700000240394694602940E48FEF74DF9280296
:102F800003940090CDE901544FF0904469462046E7
:102F9000FEF742F9FFF79EFFA06940F48070A06140
:102FA00004481830016841F40871016007B030BD71
:102FB0000010024000040048203AD2B2034B02EB5A
:102FC000420203EB021200F019B80000505500084D
:102FD000F0B50E460746002540F23F1407E02146B3
:102FE0003846FFF7E9FF103C6D1CA4B2761C32781E
:102FF000002A01D0142DF2D3F0BD00002DE9F047D6
:1030000091468A460026044600F06EF9DFF84080BB
:10301000012700BF00F0A8F95FF0000539F816009D
:1030200007FA05F10842404601D1408800E00088D7
:1030300000F06EF96D1C102DF0D3641CE4B2514603
:10304000204600F051F9761C182EE3D3BDE8F08736
:103050000000002010B5FFF767FF002000F0FCF82B
:10306000084CA080A088A0F50241303906D000F0BD
:1030700037FC002000F0F0F8A08010BD00F0A7FBA6
:10308000F7E700000000002030B5464889B001682D
:10309000454C226B891A64297ED300682063FDF7B2
:1030A000C3FB207800284AD140A1684601F0B6FC55
:1030B00069461820FFF78CFF94ED120B3FA153ECEB
:1030C000102B684601F0AAFC69463020FFF780FF0C
:1030D00094ED140B3DA153EC102B684601F09EFCBF
:1030E00069464820FFF774FF9FED3C0B53EC102B13
:1030F00094ED160B51EC100BFDF7CDF841EC100BD5
:1031000038A153EC102B684601F088FC694660201A
:10311000FFF75EFF94ED180B37A153EC102B6846B8
:1031200001F07CFC69467820FFF752FFE28936A166
:10313000684601F073FC69469020FFF749FF20784C
:1031400001282DD132A1684601F068FC694618209B
:10315000FFF73EFF627832A1684601F05FFC6079BC
:103160004FF4FC6510B9284600F0B6F869463020E7
:10317000FFF72EFF002000F0AFF8607910B128466D
:1031800000F0AAF8A2782DA1684601F047FC694634
:103190004820FFF71DFF00E002E0002000F09CF84F
:1031A00009B030BDB00000201000002020202020F9
:1031B0002020204D61696E20000000002020204169
:1031C00030313A25342E326656000000202020414E
:1031D0004F323A25342E32665600000000000000BF
:1031E0000000594020202050574D323A25322E30D1
:1031F000662525202000000020202054656D703AAF
:1032000025352E32664300002020204E3A256400EA
:10321000202020202020205061726120000000002A
:10322000202020543A252D326420202020202020E8
:1032300020202020202020200000000020202058D6
:103240003A414F25642020202020202020202020CB
:10325000202020200000000070B51D490A6842F4BB
:1032600000720A600A6842F480720A60184C103CCE
:10327000226842F020022260164A1060086840F07E
:103280002000086000BF00BF00BF206840F02000A1
:103290002060206840F480702060FFF705FE4FF04A
:1032A0009041886A40F48070886200BF00BF00BF10
:1032B0000848001F006885B2886940F48070886102
:1032C000FFF708FE206840F400702060284670BDBB
:1032D000280400481408004801B5BDF80000014961
:1032E000488008BD0000002010B50C460146202093
:1032F00000F068F82146BDE81040212000F062B8D7
:1033000001B5BDF800000149088008BD000000209B
:10331000134A116841F400711160114910390B68AA
:1033200043F480730B600B6843F020030B600D4B7C
:103330001860106840F02000106000BF00BF00BFA0
:10334000086840F020000860086840F48070086059
:1033500000BF00BF00BF086840F4007008607047FD
:1033600028040048140800481449086840F4007014
:103370000860086840F480700860104810380268DF
:1033800042F0200202600E4B22221A600A6842F0CC
:1033900020020A6000BF00BF00BF016841F02001A9
:1033A0000160016841F48071016000BF00BF00BF8F
:1033B000016841F400710160704700002804004872
:1033C00014080048184B10B51A6842F400721A60CD
:1033D0001A6842F480721A60134A103A146844F072
:1033E00020041460114C2060186840F02000186020
:1033F00000BF00BF00BF106840F0200010601068E0
:1034000040F4807010602160186840F0200018605F
:1034100000BF00BF00BF106840F0200010601068BF
:1034200040F48070106010BD280400481408004863
:1034300000EB8100006E00F0F84070478068C0F338
:10344000C00070478068C0F380007047042303EA1F
:10345000D15310B518444369C1F3045107248C407B
:10346000A3438A401343436110BD00EB8100016E0A
:1034700021F00041114301667047000070B5124D04
:10348000044601224FF47F412846FDF7AEFF0F4E60
:10349000012204213046FDF7A8FF00220421304616
:1034A000FDF7A3FF210200222846FDF79EFF01221F
:1034B00004213046FDF799FF3046BDE870400022F8
:1034C0000421FDF792BF000000080048000C0048EE
:1034D00001488079FFF7D2BF1000002030B589B0D5
:1034E00020216846FCF7CCFE1F481E490024C0E995
:1034F00000148460042585610121C460C0E9044191
:10350000047744770221016280F82440C462046396
:1035100080F83840C46380F84040FDF78BFC08B168
:10352000FDF772FA114800900620019007200290E2
:103530007F200594CDE9030569460B48FDF766FA3F
:1035400008B1FDF761FA0A4800900C200190694625
:103550000548FDF75BFA002801D0FDF755FA09B0E0
:1035600030BD000000010050200100200000524743
:10357000002090362DE9F04F87B014216846FCF703
:103580007FFE4048C16C41F00401C164C16C01F090
:1035900004010591C16C41F02001C164C16C01F0CE
:1035A00020010591C16C41F00101C164C16C01F0C1
:1035B00001010591C16C41F00201C164C16C01F0CF
:1035C00002010591C16C41F00801C164C06CDFF8D3
:1035D000B88000F008004FF6FF74059000222146E5
:1035E0004046FDF702FF4FF487764FF090490022E6
:1035F00031464846FDF7F9FEDFF890A0002204218D
:103600005046FDF7F2FEDFF888B04FF4487700220D
:1036100039465846FDF7E9FE0125CDE9004500246D
:103620000294694640460394FDF7F6FDCDE9005447
:10363000694648460294FDF7EFFD0096CDE9015436
:10364000694648460394FDF7E7FD0720CDE90004ED
:10365000694658460294FDF7DFFD04200090CDE94D
:103660000154694650460394FDF7D6FD0097CDE915
:103670000154694658460394FDF7CEFD07B0BDE8F6
:10368000F08F00000010024000080048000C0048C5
:103690000004004810B588B0002418480094019434
:1036A000029403940494059413490694016041F62E
:1036B0003F71C0E90114C910C0E903148021C0E9B9
:1036C0000541FEF78EFC08B1FDF79EF94FF48050DE
:1036D000009069460948FEF721FD08B1FDF794F90D
:1036E000049404A905480694FEF72CFC002801D098
:1036F000FDF78AF908B010BD004001408C010020A0
:103700001FB50024154800940194029412490394B3
:1037100001604F21C0E901144FF6FF71C0E90314A5
:1037200044618461FEF75DFC08B1FDF76DF90B485B
:10373000FEF77BFE08B1FDF767F90120CDE90040F7
:1037400002940022694605480394FEF7E7FD00282D
:1037500001D0FDF759F91FBD00480140D8010020F4
:10376000184810B5164901604FF416514160002108
:1037700081600C22C160C0E904128161C1610162F3
:1037800041628162FFF758F908B1FDF73DF9002168
:103790000C48FFF759F808B1FDF736F90021094840
:1037A000FFF72CF808B1FDF72FF90648FFF706F8E8
:1037B000002803D0BDE81040FDF726B910BD000079
:1037C0000038014024020020FEE77047704730B502
:1037D00001210020FFF7F6FD4FF47A70FDF79FF806
:1037E00000210120FFF7EEFD41F290711020FFF75C
:1037F000E9FD4FF41C516020FFF7E4FD0121612039
:10380000FFF7E0FD02214620FFF7DCFD48F2100142
:103810001320FFF7D7FD48F2FE011220FFF7D2FD7B
:103820004FF4A0610220FFF7CDFD41F230010320EB
:10383000FFF7C8FD40F2033421463020FFF7C2FDF8
:1038400021463120FFF7BEFD21463220FFF7BAFDA9
:10385000E51E29463320FFF7B5FD03213420FFF78D
:10386000B1FD21463520FFF7ADFD14213620FFF7CD
:10387000A9FD21463720FFF7A5FD21463820FFF797
:10388000A1FD21463920FFF79DFD29463A20FFF78B
:1038900099FD03213B20FFF795FD21463C20FFF7D2
:1038A00091FD4FF4A0513D20FFF78CFD4FF40071C6
:1038B0009220FFF787FD21469320FFF783FD40F616
:1038C0000D019020FFF77EFD41F218010320FFF764
:1038D00079FDBDE8304040F273110720FFF772BD5B
:1038E00010B543F20801E320FFF76CFD1221E72039
:1038F000FFF768FD41F23121EF20FFF763FD002162
:103900000120FFF75FFD4FF4E0610220FFF75AFD51
:1039100041F230010320FFF755FD00210420FFF79D
:1039200051FD40F207210820FFF74CFD002109203E
:10393000FFF748FD00210A20FFF744FD00210C207D
:10394000FFF740FD00210D20FFF73CFD00210F2077
:10395000FFF738FD00211020FFF734FD072111206B
:10396000FFF730FD00211220FFF72CFD002113206E
:10397000FFF728FDC820FDF73DFC41F290611020C3
:10398000FFF720FD40F227211120FFF71BFD322019
:10399000FDF730FC1D211220FFF714FD3220FDF74A
:1039A00029FC4FF400611320FFF70CFD142129209E
:1039B000FFF708FD0B212B20FFF704FD3220FDF758
:1039C00019FC00212020FFF7FDFC00212120FFF73A
:1039D000F9FC07213020FFF7F5FC40F20771312098
:1039E000FFF7F0FC06213220FFF7ECFC40F20471F7
:1039F0003520FFF7E7FC41F604713620FFF7E2FCC3
:103A000004213720FFF7DEFC00213820FFF7DAFC25
:103A100040F206713920FFF7D5FC40F201713C20DD
:103A2000FFF7D0FC0F213D20FFF7CCFC00215020F8
:103A3000FFF7C8FCEF215120FFF7C4FC0021522002
:103A4000FFF7C0FC40F23F115320FFF7BBFC4FF4DF
:103A50001C516020FFF7B6FC01216120FFF7B2FC8A
:103A600000216A20FFF7AEFC00218020FFF7AAFCAE
:103A700000218120FFF7A6FC00218220FFF7A2FC95
:103A800000218320FFF79EFC00218420FFF79AFC91
:103A900000218520FFF796FC10219020FFF792FC73
:103AA00000219220FFF78EFC03219320FFF78AFC70
:103AB0004FF488719520FFF785FC00219720FFF7D0
:103AC00081FC00219820FFF77DFC41F218010320C2
:103AD000FFF778FCBDE8104040F273110720FFF7B4
:103AE00071BC000009490A680948C36AD21A322A1F
:103AF0000AD30968C162417A002905D000214172C8
:103B000064210448FCF7BCBB70470000B0000020F3
:103B100010000020BC000020F0B418490A681848C2
:103B2000836AD21A642A27D309688162C379154946
:103B3000154AA3B177240C705C244C708478125D14
:103B40008A70017A491CC9B20172142904D383F026
:103B50000101C17100210172F0BCFCF7EFBE3924F4
:103B60000C7045780A24B5FBF4F6965D4E70B5FBF3
:103B7000F4F604FB1654E2E7F0BC7047B0000020F6
:103B800010000020A3000020780000207047FDF7FF
:103B900037BC10B5A4B038216846FCF771FB14217E
:103BA0001FA8FCF76DFB44210EA8FCF769FB4FF43E
:103BB0000070FDF7BBFC0220C1010391402104917C
:103BC0000090079008901421CDE909010B900C900A
:103BD0000D906846FDF796FF0F201F9000240320EC
:103BE000CDE92004014622941FA82394FDF740FE4E
:103BF00048F20100CDE90E0440071D900EA8FDF724
:103C0000F3FC24B010BD00000548016841F47001C8
:103C1000016003494FF00060803908607047000080
:103C200088ED00E00148FEF7ABBC00008C010020ED
:103C30000148FEF7A5BC0000D80100202DE9F043A3
:103C40000268234B234D244E244C4FF08049984268
:103C500007D0484505D0A84203D0B04201D0A042C9
:103C600003D122F070074A683A431D4FDFF874C051
:103C7000DFF8748098420DD048450BD0A84209D097
:103C8000B04207D0A04205D0B84203D0604501D071
:103C9000404503D122F44075CA682A434D6922F099
:103CA00080022A4302608A68C2620A68826298427D
:103CB00007D0A04205D0B84203D0604501D04045AE
:103CC00001D10969016301214161BDE8F083000070
:103CD000002C014000040040000800400034014076
:103CE00000400140004401400048014010B501F08F
:103CF0001F030121046A99408C430462016A9A40BF
:103D00001143016210BD10B5846842EA032224F415
:103D10007F440A432243826010BD00008268034B47
:103D20001A400A4342F00701816070478FFFCFFFBE
:103D300010B5036A046A24F001040462846924F063
:103D4000F00444EA021423F00A020A438461026286
:103D500010BD000070B5046A24F001040462846997
:103D6000056A124EB0420ED0B0F1804F0BD0104E0B
:103D7000B04208D00F4EB04205D00F4EB04202D034
:103D80000E4EB04203D124F00304144301E044F08A
:103D900001041A0724F0F00444EA126225F00A0331
:103DA00001F00A0119438261016270BD002C0140DB
:103DB0000004004000080040003401400040014081
:103DC00010B5036A23F0100303628369046A23F4C5
:103DD000704343EA023224F0A00343EA01118261F6
:103DE000016210BD30B5046A24F0100404628469D5
:103DF000056A24F4407444EA022222F470444FF627
:103E0000FF7202EA03322243A02425F0A00304EA51
:103E1000011119438261016230BD00003FB514A158
:103E2000D1E90021CDE9002113A2D2E90012CDE9A8
:103E30000212416EB9B1026891689268C1F34261A1
:103E4000520F1DF80240E50002ACA25CB5FBF2F295
:103E5000A0F86A201DF80120615CD200B2FBF1F1EC
:103E6000A0F868103FBD0121A0F86A10F8E7000033
:103E70000101010307010000080402040801010117
:103E800090F82810C90706D001684A68C36A22F46E
:103E900000321A434A6090F82810890706D5016855
:103EA0004A68036B22F480321A434A6090F8281063
:103EB000490706D501684A68436B22F480221A43F9
:103EC0004A6090F82810090706D501684A68836B94
:103ED00022F400421A434A6090F82810C90606D519
:103EE00001688A68C36B22F480521A438A6090F892
:103EF0002810890606D501688A68036C22F40052EE
:103F00001A438A6090F82810490611D501684A685A
:103F1000436C22F480121A434A60416CB1F5801F51
:103F200006D101684A68836C22F4C0021A434A60D1
:103F300090F82810090606D501684A68C06C22F47A
:103F4000002202434A607047F8B500260446C0F8D4
:103F50008860FDF74FFA0546206800686FF07E47DD
:103F6000000708D52B4600224FF400112046009789
:103F700000F009FD60B92068006840070AD52B46AB
:103F800000224FF480012046009700F0FCFC08B1AD
:103F90000320F8BD2020C4F88000C4F8840084F811
:103FA0007C600020F8BD10B5806A0021A0F85E108A
:103FB000A0F85610FEF770FC10BD000001680A68FA
:103FC00022F490720A6001688A68044B1A408A6081
:103FD0002021C0F884100021C1667047FEFFFFEF6A
:103FE00010B5B0F86020D0F884300168222B04D0DE
:103FF000886940F00800886110BD496A836D1140EE
:104000001980816D891C8165B0F85E10491EA0F889
:104010005E10B0F85E100029EED101680A6822F443
:1040200090720A6001688A6822F001028A60202189
:10403000C0F884100021C166FEF7ECFD10BD000041
:1040400070B50446B0F86060D0F88400222805D02E
:104050002068816941F00801816170BDB4F8685041
:1040600023E02068406AA16D30400880A06D801C6C
:10407000A065B4F85E00401EA4F85E00B4F85E00CF
:1040800088B92068016821F4807101602068816826
:10409000114A114081602020C4F884000020E066AD
:1040A0002046FEF7B7FD6D1EADB2002DD9D1B4F894
:1040B0005E000028D1D0B4F868108142CDD92068C4
:1040C000816821F0805181600448E06620680168C1
:1040D00041F02001016070BDFEFFFFEFE13F0008ED
:1040E00010B5B0F86020D0F884300168222B04D0DD
:1040F000886940F00800886110BD496A1140826DEE
:104100001170816D491C8165B0F85E10491EA0F8E0
:104110005E10B0F85E100029EED101680A6822F442
:1041200090720A6001688A6822F001028A60202188
:10413000C0F884100021C166FEF76CFD10BD0000C0
:1041400070B50446B0F86060D0F88400222805D02D
:104150002068816941F00801816170BDB4F8685040
:1041600023E02068406AA16D30400870A06D401CBB
:10417000A065B4F85E00401EA4F85E00B4F85E00CE
:1041800088B92068016821F4807101602068816825
:10419000114A114081602020C4F884000020E066AC
:1041A0002046FEF737FD6D1EADB2002DD9D1B4F813
:1041B0005E000028D1D0B4F868108142CDD92068C3
:1041C000816821F0805181600448E06620680168C0
:1041D00041F02001016070BDFEFFFFEFE1400008EB
:1041E0002DE9F05F0446016880682369E56918439A
:1041F000636900272B431843636EFA4A0343086838
:10420000F94D28401843086020684168E36821F4AC
:104210004051194341602168A069914201D0236A4D
:1042200018438B68F14D2B4003438B602068C16AB3
:10423000636A21F00F011943C162ED4B2068ED491B
:1042400098420DD1D1F8881011F0030106D0012950
:104250005AD0022956D003293FD157E001253DE02D
:10426000E54B98420BD1D1F8881011F00C0147D0E2
:10427000042949D0082945D00C292ED146E0DF4B2E
:1042800098420BD1D1F8881011F0300138D01029A4
:104290003AD0202936D030291FD137E0D84B984268
:1042A0000BD1D1F8881011F0C00129D040292BD0B2
:1042B000802927D0C02910D128E090420DD1D1F813
:1042C000881011F440611BD0B1F5806F1CD0B1F59E
:1042D000006F17D0B1F5406F18D01025DFF824A378
:1042E0004FF480764FF000094FF4004B90426ED1AE
:1042F00075B1022D29D0042D59D0082D68D176E052
:104300000025EBE70225E9E70425E7E70825E5E7CF
:10431000FDF79CFB4DE0012851D0022851D0032825
:1043200051D0042851D0052853D0062853D007284F
:1043300053D0082853D0092853D00A2853D00B282B
:1043400053D03AE0B1FBF0F06CE0606AA8B101280C
:1043500017D0022817D0032817D0042817D0052813
:1043600017D0062817D0072817D0082817D00928F3
:1043700017D00A2817D00B2817D00120BAFBF0F06D
:1043800050E00220FAE70420F8E70620F6E70820CC
:10439000F4E70A20F2E70C20F0E71020EEE72020F7
:1043A000ECE74020EAE78020E8E73046E6E7FDF763
:1043B00071FB0146606A0028ADD10120C2E70220EE
:1043C000C0E70420BEE70620BCE70820BAE761E1A9
:1043D0004AE00A20B6E70C20B4E71020B2E720201C
:1043E000B0E74020AEE78020ACE73046AAE7606A3D
:1043F000A8B1012822D0022822D0032822D00428E4
:1044000022D0052822D0062822D0072822D008282A
:1044100022D0092822D00A2822D00B2822D001201D
:10442000BBFBF0F0002820D06168884601EB410119
:10443000814219D8B0EB083F16D817E00220EFE709
:104440000420EDE70620EBE70820E9E70A20E7E78C
:104450000C20E5E71020E3E72020E1E74020DFE73C
:104460008020DDE73046DBE7012739E27DB3022D0E
:1044700061D0042D7DD0082DF6D1606AA8B1012845
:1044800078D0022877D0032876D0042875D0052864
:1044900074D0062873D0072872D0082871D0092854
:1044A00070D00A286FD00B2800D0012632464D4626
:1044B000002358460021FBF7ABFE090241EA1061D8
:1044C00002024FEA580010186941424670E0FFE7C7
:1044D000FDF7BCFA0146606AA8B1012817D002288E
:1044E00017D0032817D0042817D0052817D006287E
:1044F00017D0072817D0082817D0092817D00A285E
:1045000017D00B2800D0012632464D468CE00226FB
:10451000FAE70426F8E70626F6E70826F4E70A266F
:10452000F2E70C26F0E71026EEE72026ECE740261F
:10453000EAE78026E8E7606AA8B1012824D00228CB
:1045400024D0032824D0042824D0052824D00628E9
:1045500024D0072824D0082824D0092824D00A28C9
:1045600024D00B2800D0012632464D460023504669
:10457000A0E726E07AE07BE07CE07DE07EE07FE083
:1045800080E081E082E083E00226EDE70426EBE7AD
:104590000626E9E70826E7E70A26E5E70C26E3E72B
:1045A0001026E1E72026DFE74026DDE78026DBE76F
:1045B0000023FBF72DFE144AA0F54071914271D9FA
:1045C00052E7FDF767FA0146606A50B3012839D017
:1045D000022839D0032839D0042839D0052839D009
:1045E000062813E000800040F369FFCFFFF4FF11BD
:1045F00000380140001002400044004000480040E4
:10460000004C00400024F400FFFC0F0024D00728D9
:1046100024D0082824D0092824D00A2824D00B2804
:1046200000D001264D463246002308461946FBF7C6
:10463000EFFD0902626841EA106103025008181890
:104640006941B5E70226EDE70426EBE70626E9E730
:104650000826E7E70A26E5E70C26E3E71026E1E768
:104660002026DFE74026DDE78026DBE702261DE780
:1046700004261BE7062619E7082617E70A2615E78A
:104680000C2613E7102611E720260FE740260DE73A
:1046900080260BE7E0694FF6EF78584570D1092D79
:1046A0008ED200E01AE1DFE805F006093C0580053E
:1046B00005058300D8E6FDF7C9F901E0FDF7D8F953
:1046C0000146606AA8B1012815D0022815D0032838
:1046D00015D0042815D0052815D0062815D0072890
:1046E00015D0082815D0092815D00A2815D00B2870
:1046F00014D0012612E0022610E004260EE0062661
:104700000CE008260AE00A2608E00C2606E010263F
:1047100004E0202602E0402600E08026B1FBF6F00F
:104720001AE0606AA8B101282BD002282BD00328F8
:104730002BD004282BD005282BD006282BD00728D7
:104740002BD008282BD009282BD00A282BD00B28B7
:1047500000D00126BAFBF6F04100606801EB500181
:10476000B1FBF0F080B2A0F110014145A2D84FF6A4
:10477000F0710140C0F3420001432068C160AFE026
:1047800046E00226E6E70426E4E70626E2E70826F6
:10479000E0E70A26DEE70C26DCE71026DAE720262B
:1047A000D8E74026D6E78026D4E7FDF773F987E7F8
:1047B000606AA8B1012817D0022817D0032817D0A3
:1047C000042817D0052817D0062817D0072817D097
:1047D000082817D0092817D00A2817D00B2800D08E
:1047E0000126BBFBF6F0B7E70226FAE70426F8E756
:1047F0000626F6E70826F4E70A26F2E70C26F0E795
:104800001026EEE72026ECE74026EAE78026E8E7D8
:10481000092DBFF4D5AEDFE805F006093C05830598
:104820000505860020E6FDF711F901E0FDF720F906
:104830000146606AA8B1012815D0022815D00328C6
:1048400015D0042815D0052815D0062815D007281E
:1048500015D0082815D0092815D00A2815D00B28FE
:1048600014D0012612E0022610E004260EE00626EF
:104870000CE008260AE00A2608E00C2606E01026CE
:1048800004E0202602E0402600E08026B1FBF6F19D
:104890001AE0606AA8B101282ED002282ED0032881
:1048A0002ED004282ED005282ED006282ED007285A
:1048B0002ED008282ED009282ED00A282ED00B283A
:1048C00000D00126BAFBF6F1606801EB5001B1FBA4
:1048D000F0F080B2A0F110014145A3D82168C86072
:1048E0000120A4F86A0024F8680F3846C4F8049040
:1048F000C4F80890BDE8F09F0226E3E70426E1E74C
:104900000626DFE70826DDE70A26DBE70C26D9E7DF
:104910001026D7E72026D5E74026D3E78026D1E723
:10492000FDF7B8F884E7606AA8B1012817D002281B
:1049300017D0032817D0042817D0052817D0062829
:1049400017D0072817D0082817D0092817D00A2809
:1049500017D00B2800D00126BBFBF6F1B4E70226E6
:10496000FAE70426F8E70626F6E70826F4E70A261B
:10497000F2E70C26F0E71026EEE72026ECE74026CB
:10498000EAE78026E8E72DE9F041984617460E460B
:104990000446069D08E0681C06D0FCF72BFDA0EB42
:1049A0000800A8420BD855B12068C06936EA00005B
:1049B00019D00020B842EED00020BDE8F081206878
:1049C000016821F4D07101602068816821F0010143
:1049D00081602020C4F88000C4F88400002084F89E
:1049E0007C000320E9E70120E4E700000148FDF72F
:1049F00055BF000024020020FEE700000FB4054B65
:104A000010B503A9044A029800F0FEF810BC5DF846
:104A100014FB000081530008B80000200FB4084BBD
:104A200010B504A902AA039800F0EEF8044602A902
:104A3000002000F080FC204610BC5DF814FB000054
:104A4000375300080907090E002804DB00F1E020B5
:104A500080F80014704700F00F0000F1E02080F8AB
:104A6000141D704702E008C8121F08C1002AFAD1BD
:104A700070477047002001E001C1121F002AFBD1DE
:104A8000704700002DE9FF5F82B00021DDE90430AE
:104A9000020DDDF840B0034318D044F61050A2F2E6
:104AA000FF3242431514119801281FD0A5EB0B00CB
:104AB000401C5FEA000A4FF000064E4FDFF83891C5
:104AC000B046504615D5CAF1000413E011980124F0
:104AD0004AA3012801D16FEA0B010298119AC0E99B
:104AE0000031C0E9024206B0BDE8F09FCBF1000002
:104AF000DFE704460021404A491842EB0450CDE963
:104B0000001012E0E00707D032463B4640464946D7
:104B1000FBF7C1FB8046894632463B4610461946A4
:104B2000FBF7B9FB06460F466410002CEAD1DDE91D
:104B30000401DDE90023BAF1000F06DAFBF7ABFB55
:104B400042464B46FBF7A7FB05E0FBF716FC424647
:104B50004B46FBF712FC04460E460022284BFBF79F
:104B6000A1FC03D84FF0FF30014607E00022254B9F
:104B700020463146FBF740FDFBF7E5FD102409E038
:104B8000002C0ADB0A220023FBF742FB039B303296
:104B90001A55641E50EA0102F2D1641C039AC4F152
:104BA00011031444119A012A03D0012208430DD1A4
:104BB0000AE0084304D000204FF0110B119072E777
:104BC000A3EB0B056D1E0DE05B4504DD4FF000020D
:104BD00005F1010504E003DA4FF00002A5F101053B
:104BE000002AECD002981199C0E90231C0E90045D1
:104BF00079E70000000014400000F03F30000000A2
:104C00000000F0430000E03F2DE9FF4F95B09B46C8
:104C10008946064600250FE2252877D1002427463D
:104C2000F84A0121059400E0044316F8013F203BB7
:104C300001FA03F01042F7D130782A2811D06FF032
:104C40002F033078A0F13002092A16D8059A44F0D3
:104C5000020402EB820203EB42021044761C059030
:104C6000EFE759F8042B0592002A03DA504244F486
:104C70000054059044F00204761C30782E2816D19A
:104C800016F8010F44F004042A280DD06FF02F020B
:104C90003078A0F13003092B09D807EB870302EB2A
:104CA0004303C718761CF3E759F8047B761C307869
:104CB0006C280FD006DC4C2817D068280DD06A2845
:104CC00014D104E0742810D07A280FD10DE044F4F8
:104CD00000140AE044F4801401E044F440147278B3
:104CE000824202D104F58014761C761C3078662846
:104CF0000BD013DC582877D009DC002875D0452864
:104D0000F6D04628F4D047281AD19DE118E0632850
:104D100035D0642879D0652812D195E1702873D0F8
:104D200008DC6728F1D069286FD06E280DD06F2875
:104D300006D1B5E073282CD0752875D0782874D0AA
:104D40005A46179990476D1C75E1C4F3025002282A
:104D500009D003280DD0D9F8001004280DD00D601B
:104D600009F1040967E1D9F80010EA17C1E9005216
:104D7000F6E7D9F800100D80F2E70D70F0E719F8AA
:104D8000041B8DF8001000208DF80100EA46012078
:104D900003E059F804AB4FF0FF3061074FF000011A
:104DA00002D40DE008F101018846B9420FDA8045CE
:104DB000F8DB1AF808100029F4D108E008F1010125
:104DC00088468142FADB1AF808100029F6D10598C6
:104DD0005B46A0EB080721463846179A00F094FA84
:104DE000284400EB080507E04DE029E10DE01AF842
:104DF000010B5A4617999047B8F10108F7D25B4664
:104E000021463846179A13E142E00A220092C4F381
:104E100002524FF0000A022A08D059F804CB032AA4
:104E20004FEAEC710AD00DE029E02AE009F1070110
:104E300021F00702F2E802C1914609E00FFA8CFC6A
:104E40004FEAEC71042A03D14FFA8CFC4FEAEC7163
:104E5000002907DA0A460021DCF1000C61EB0201AF
:104E60002D2202E0220504D52B228DF804200122F8
:104E700003E0E20701D02022F7E7904659E00A213B
:104E800002E010220DE010214FF0000A00910BE02B
:104E900010224FF0000A44F004040827009203E0B7
:104EA00008224FF0000A0092C4F30252022A05D0F1
:104EB00059F804CB0021032A08D009E009F10701C1
:104EC00021F00702F2E802C1914605E01FFA8CFCCE
:104ED000042A01D10CF0FF0C4FF00008220728D55E
:104EE000702806D0009B83F0100353EA0A0305D014
:104EF0000EE040228DF80420012208E05CEA010265
:104F000006D030228DF804208DF80500022290464C
:104F1000009B83F0080353EA0A030AD15CEA01020A
:104F200001D1620705D530228DF804204FF0010829
:104F30007F1E582804D034A003900EA802900DE0E4
:104F400036A0F9E753466046009AFBF761F98446BC
:104F50000398825C0298401E029002705CEA010095
:104F6000F0D1029806A9081A00F1200A600702D5BC
:104F700024F4803400E00127574502DDA7EB0A0046
:104F800000E0002000EB0A01009005984144401A1F
:104F90000590E00306D45B462146179A059800F079
:104FA000B3F90544002706E001A85A46C05D1799E9
:104FB00090476D1C7F1C4745F6DBE0030CD55B4634
:104FC0002146179A059800F09FF9054404E0302027
:104FD0005A46179990476D1C0099481E0090002969
:104FE000F5DC08E0029802995A460078491C0291C3
:104FF000179990476D1CBAF10001AAF1010AF1DC82
:1050000065E100000928010030313233343536378C
:105010003839616263646566000000003031323304
:1050200034353637383941424344454600000000A4
:1050300000F058F90544761C307800287FF4ECAD78
:1050400019B02846BDE8F08F620700D4062709F1A1
:10505000070222F0070CFCE80223E14603F00048B7
:105060005FEA080C02D00FF2702C0DE05FEA045CDE
:1050700002D50FF2682C07E05FEAC47C02D00FF281
:10508000602C01E0AFF2700C4FF0FF3823F00043CA
:10509000CDF850C065280CD006DC452809D046283C
:1050A0001DD047283DD13DE0662818D067287ED125
:1050B00038E00021112F01DB112000E0781CCDE940
:1050C000000106A90EA8FFF7DDFCDDE90F010E9A2D
:1050D00003910021009207F1010A04914DE04FF085
:1050E00000400097CDE9011006A90EA8FFF7CAFC01
:1050F000DDE90F0203920E9B11990022DDF80CA04E
:105100000093049211B9791C00EB010AB7EB0A0075
:1051100004D4C0F1FF3007F1010A0490AAEB0700A4
:10512000019044E0012F00DA01270021112F01DD59
:10513000112000E03846CDE9000106A90EA8FFF7CE
:10514000A1FCDDE90F010E9A039100210491009268
:10515000BA4621070CD40399514500DA8A46BAF1C0
:10516000010F05DD009AAAF10101515C302908D038
:10517000B84202DA10F1040F06DA0121CDE901107C
:1051800015E0AAF10101E9E7002805DC04990144D2
:105190000491AAEB000102E0411C514500DD8A4662
:1051A0000499401A401C01904FF0004002902007E3
:1051B00004D40198504501DBCDF8048000208DF81F
:1051C0004F0002980DF14F07B0F1004F25D02B2072
:1051D0000E9002984FF0020800280CDA404202902C
:1051E0002D200E9007E00A210298FBF773F9303169
:1051F000029007F8011DB8F10001A8F10108F2DCE6
:1052000002980028EFD1791E0E980870307800F0CF
:10521000200040F0450007F8020D12A8C01B00F165
:1052200007081498007800B1012000EB0A010198EA
:1052300001EBE07105984144401A401E0590E003DF
:1052400006D45B462146179A059800F05DF80544A0
:105250001498007818B15A46179990476D1CE003CE
:1052600024D55B462146179A059800F04DF8054471
:105270001CE00498002807DBDDE90301884203DD18
:105280000098405C179901E0179930205A469047E2
:10529000049805F10105401C04900198401E0190FE
:1052A00004D12E205A46179990476D1CBAF100017F
:1052B000AAF1010ADDDC05E017F8010B5A4617993F
:1052C00090476D1CB8F10001A8F10108F4DC5B46C1
:1052D0002146179A0598ABE62D0000002B00000030
:1052E000200000002DE9F041044600251E46174627
:1052F000880404D405E039462020B0476D1C641EA4
:10530000F9D52846BDE8F0812DE9F0410446002595
:105310001E469046C80301D5302700E020278804A8
:1053200004D505E041463846B0476D1C641EF9D5EA
:105330002846BDE8F0810A68531C0B601070704766
:1053400000B587B014216846FAF79AFF0B48C16C84
:1053500041F00101C164C06C022100F00100059020
:10536000402000900120CDE90201019069464FF0F4
:105370009040FBF751FF07B000BD00000010024055
:1053800013B53223012269460248FDF769FC0098F3
:105390001CBD0000240200202DED028BFCF738F824
:1053A000FEF7F7FBFEF7E6F8FEF798F8FEF7A8F928
:1053B000FEF7D6F9FEF76EF9FDF74CFE00211A480C
:1053C000FDF766F8FFF7BCFF9FED188BFBF77EFA41
:1053D00053EC182B51EC100BFBF764F8F6D9154879
:1053E000FCF77CFE012214491448FDF795FB0020D0
:1053F000FDF788FD0020FDF76FFF4FF6FF70FDF70A
:105400007FFF0020FEF73AF80DA0FFF7F7FA00BF84
:10541000FDF786FCFDF738FEFEF77EFBFEF758F839
:10542000FEF760FBF4E70000D80100200000000058
:10543000004055408C010020200000202402002064
:10544000B9FEE0B60D0A000000B585B0142168462B
:10545000FAF716FF40200090002001900290694664
:105460004FF09040FBF7D8FE05B000BD00B585B009
:1054700014216846FAF704FF4020009001200190B3
:10548000022003900020029069464FF09040FBF705
:10549000C3FE05B000BD70B50446FFF7E7FF4FF04F
:1054A0009045002240212846FBF79FFF1321491E0B
:1054B000FDD20CB1FFF7C8FFB220401EFDD2402143
:1054C0002846FBF78DFF00B9002440F28230401ED1
:1054D000FDD2FFF7B9FF204670BDFF20AFF300807B
:1054E00070B504465FF0080504F00100FFF7D3FF34
:1054F000640808B144F080046D1E15F0FF05F3D177
:10550000204670BD70B5FFF7B1FF4FF09044002208
:1055100040212046FBF769FF41F63F71491EFDD24D
:10552000FFF792FF40F22651491EFDD24021254649
:105530002046FBF755FF044642F25600401EFDD2BE
:1055400040212846FBF74CFF00B90124204670BDDE
:10555000000000000000000000000000000000004B
:10556000000000000000000000000000000000003B
:10557000000000000000000000000000000000002B
:105580000000800180018001800180018001800194
:105590008001800180018001800180010000000005
:1055A00080018001000000000000000000000000F9
:1055B00000000000CC00CC00CC00CC00CC00CC0023
:1055C00000000000000000000000000000000000DB
:1055D00000000000000000000000000000000000CB
:1055E000000000000000000000000000600C600CE3
:1055F000600C30063006FE1FFE1F30063807180309
:10560000FE1FFE1F180318038C018C018C01000083
:1056100000008000E003F80F9C0E8C1C8C188C009E
:105620009800F801E007800E801C8C188C189C18DC
:10563000B80CF00FE00380008000000000000000C4
:105640000000000000000E181B0C110C11061106C2
:10565000110311039B018E01C038C06C604460448B
:10566000304430441844186C0C380000000000002E
:105670000000E001F0033807180618063003F001B7
:10568000F000F8009C310E33061E061C061C063F77
:10569000FC73F0210000000000000000000000008A
:1056A000000000000C000C000C000C000C000C00B2
:1056B00000000000000000000000000000000000EA
:1056C00000000000000000000000000000000000DA
:1056D0000000000200038001C000C0006000600004
:1056E000300030003000300030003000300030003A
:1056F00060006000C000C0008001000300020000E4
:10570000000020006000C000800180010003000351
:105710000006000600060006000600060006000659
:105720000003000380018001C00060002000000031
:10573000000000000000000000000000C000C000E9
:10574000D806F807E0013003380700000000000029
:105750000000000000000000000000000000000049
:105760000000000000000000000000008001800137
:10577000800180018001FC3FFC3F800180018001AD
:105780008001800100000000000000000000000017
:105790000000000000000000000000000000000009
:1057A00000000000000000000000000000000000F9
:1057B0000000800180010001000180000000000065
:1057C00000000000000000000000000000000000D9
:1057D0000000000000000000E007E00700000000FB
:1057E00000000000000000000000000000000000B9
:1057F00000000000000000000000000000000000A9
:105800000000000000000000000000000000000098
:105810000000C000C0000000000000000000000008
:105820000000000C000C0006000600060003000348
:1058300000038003800180018001C000C000C0001F
:105840006000600000000000000000000000000098
:105850000000E003F007380E180C0C180C180C1898
:105860000C180C180C180C180C180C18180C380EF6
:10587000F007E0030000000000000000000000004E
:10588000000000018001C001F00198018801800141
:105890008001800180018001800180018001800100
:1058A00080018001000000000000000000000000F6
:1058B0000000E003F80F180C0C180C180018001862
:1058C000000C000600038001C000600030001800DA
:1058D000FC1FFC1F00000000000000000000000092
:1058E0000000E001F807180E0C0C0C0C000C000670
:1058F000C003C007000C001800180C180C18180C76
:10590000F807E003000000000000000000000000B5
:105910000000000C000E000F000F800DC00C600C8A
:10592000600C300C180C0C0CFC3FFC3F000C000C05
:10593000000C000C0000000000000000000000004F
:105940000000F80FF80F180018000C00EC03FC071B
:105950001C0E001C0018001800180C181C0C180E47
:10596000F807E00300000000000000000000000055
:105970000000C007F00F381C181818000C00CC03EA
:10598000EC0F3C0E1C1C0C180C180C18181C380EB4
:10599000F007E0030000000000000000000000002D
:1059A0000000FC1FFC1F000C000600060003800323
:1059B0008001C001C000E0006000600070003000A5
:1059C0003000300000000000000000000000000077
:1059D0000000E003F007380E180C180C180C3806FD
:1059E000F007F007180C0C180C180C180C18380CD1
:1059F000F80FE003000000000000000000000000BD
:105A00000000E003F007380E1C0C0C180C180C18E2
:105A10001C1C381EF81BE0190018000C000C1C0E92
:105A2000F807F00100000000000000000000000086
:105A30000000000000000000000000008001800164
:105A40000000000000000000000000000000000056
:105A50008001800100000000000000000000000044
:105A60000000000000000000000000008001800134
:105A70000000000000000000000000000000000026
:105A80008001800100010001800000000000000092
:105A90000000000000000000000000000000000006
:105AA0000010001C800FE003F8001800F800E0036D
:105AB000800F001C0010000000000000000000002B
:105AC00000000000000000000000000000000000D6
:105AD000F81F000000000000F81F00000000000098
