:020000040800F2
:1000000008040020ED010008230800085D02000834
:100010002108000859020008250A00080000000015
:1000200000000000000000000000000001090008BE
:100030005B02000800000000250800080309000812
:10004000070200080702000807020008070200086C
:10005000070200080702000807020008070200085C
:10006000070200080702000807020008070200084C
:10007000070200080702000807020008070200083C
:10008000070200080000000007020008070200083D
:10009000070200080702000807020008070200081C
:1000A000070200080702000807020008070200080C
:1000B00007020008070200080702000807020008FC
:1000C00007020008070200080702000807020008EC
:1000D00007020008E50900080702000807020008F7
:1000E00007020008070200080702000807020008CC
:1000F00007020008070200080702000800000000CD
:1001000000000000070200080000000007020008CD
:1001100007020008000000000702000807020008AC
:10012000070200080702000807020008070200088B
:10013000070200080000000000000000070200089D
:10014000070200080702000800000000000000008D
:10015000000000000000000000000000000000009F
:10016000000000000000000000000000070200087E
:10017000070200080000000000000000000000006E
:10018000000000000702000800000000000000005E
:10019000000000000000000000000000000000005F
:1001A000000000000000000007020008070200082D
:1001B000070200080702000807020008000000000C
:1001C000000000000702000800000000000000001E
:1001D0000702000807020008DFF80CD000F02AF838
:1001E00000480047450A00080804002006488047E8
:1001F00006480047FEE7FEE7FEE7FEE7FEE7FEE70C
:10020000FEE7FEE7FEE7FEE7C9090008D90100089E
:10021000D2B201E000F8012B491EFBD27047002248
:10022000F6E710B513460A4604461946FFF7F0FFF5
:10023000204610BD064C074D06E0E06840F0010383
:1002400094E8070098471034AC42F6D3FFF7C8FF94
:10025000F00A0008100B0008FEE77047FEE70000F8
:10026000044908B5CA6C0243CA64C96C01400091D4
:1002700008BD000000100240044908B50A6E0243A0
:100280000A66096E0140009108BD0000001002409E
:10029000F0B50A68032492FAA2F2B2FA82F30F25AB
:1002A0007BE0324601269E40324075D0D1F804E012
:1002B000066892FAA2F7B7FA87F74FEA470C04FAF2
:1002C0000CF7BE4392FAA2F7B7FA87F77F000EFA4F
:1002D00007FE46EA0E0606604E68012E01D0022E89
:1002E00015D1D1F808E0866892FAA2F7B7FA87F735
:1002F0004FEA470C04FA0CF7BE4392FAA2F7B7FA9A
:1003000087F77F000EFA07FE46EA0E068660D1F8F0
:1003100010C0C66892FAA2F7B7FA87F77F0004FA0E
:1003200007FE92FAA2F7B7FA87F77F0026EA0E06D1
:100330000CFA07FC46EA0C06C6604E68022E2BD16A
:10034000FF2A14D84E69076A92FAA2FCBCFA8CFC08
:100350004FEA8C0C05FA0CFC92FAA2F2B2FA82F285
:10036000920027EA0C0796403743076214E04F6972
:10037000466A120A92FAA2FCBCFA8CFC4FEA8C0C78
:1003800005FA0CFC92FAA2F2B2FA82F2920026EA84
:100390000C0697403E4346625B1C0A681646DA40EC
:1003A0007FF47FAF4A68012A01D0022A07D1CB68C7
:1003B00041683246914306FB03F21143416000203D
:1003C000F0BD4FF47A71B0FBF1F14FF0E020491E1F
:1003D00041610021816105210161704710B5002450
:1003E000C02823D11248D0F8880000F0C00040F4A3
:1003F00040004038B0F540000AD040280CD080289A
:100400000FD000F041FA00F00FFA00F01DFA01E001
:1004100000F03AFA044609E000F068F830B1054C03
:1004200004E000F06BF808B14FF40044204610BD22
:10043000001002400024F40070B5002429492A4D20
:100440004FF40046032804D00C281AD030282FD0AF
:1004500040E0D1F888006FF4403100F0030040F430
:10046000403040180AD0012836D002282ED000F0A3
:100470000BFA00F0D9F900F0F7F917E000F004FAF0
:1004800014E0D1F8880000F00C0040F44020001F78
:10049000B0F54020F2D004281ED0082816D000BFA6
:1004A00000F0F2F900F0C0F900F0CEF9044611E0D6
:1004B000D1F8880000F0300040F440101038B0F55A
:1004C0004010DBD0102807D02028E9D100F016F822
:1004D00000B13446204670BD00F008F80028F9D07D
:1004E0002C46F7E7001002400024F40002480068A0
:1004F000C0F3802070470000001002400248D0F88E
:100500009000C0F3400070470010024001490860AD
:1005100070470000040000202DE9F0410446006807
:100520000D46012610F0010F4CD12969A868EA692F
:10053000084369691143084321682B4A1140084365
:100540002060E868616821F4405101436160A86956
:10055000A16821F440710143A1602448844201D183
:10056000032008E02248844201D10C2003E0214806
:10057000844203D13020FFF75FFF05E01E4884422C
:1005800019D1C020FFF72AFFA8B1696899B12A687C
:100590000026EB690B2A0ED8184FD2B2B3F5004FE4
:1005A00057F82220B0FBF2F00FD000EB5100B0FB67
:1005B000F1F080B2E0602888E16A80B221F00F019A
:1005C0000143E1623046BDE8F081400000EB51009C
:1005D000B0FBF1F081B24FF6F07201EA0200C1F314
:1005E00042010843E6E70000F369FFEF00380140ED
:1005F0000044004000480040004C0040A80A0008A9
:100600002DE9F04F87B018216846FFF708FE042057
:10061000FFF726FE2020FFF723FE0120FFF720FE34
:100620000820FFF71DFE3D4D4FF40050A862470023
:10063000AF624FF40048C5F828804FF48079C5F8C0
:1006400028904FF4007AC5F828A04FF4806BC5F8C5
:1006500028B08110A9624110A962314A0421916237
:10066000009001260024CDE90164039469462846E0
:100670000494FFF70DFE0097CDE9016403946946E9
:1006800028460494FFF704FECDF80080CDE901640C
:100690000394694628460494FFF7FAFDCDF80090CC
:1006A000CDE901640394694628460494FFF7F0FD00
:1006B000CDF800A0CDE9016403946946284604946E
:1006C000FFF7E6FDCDF800B0CDE90164039469467B
:1006D00028460494FFF7DCFDF0020090CDE90164A8
:1006E0000394694628460494FFF7D2FD3003009036
:1006F000CDE901640394694628460494FFF7C8FDD8
:1007000004200090CDE901640394694604480494F0
:10071000FFF7BEFD07B0BDE8F08F000000080048FD
:10072000000C00482DE9F0418EB0202106A8FFF70B
:1007300076FD18216846FFF772FD4FF48040FFF701
:100740009BFD0120FFF78CFD4FF400700226CDE9E0
:10075000000600240727CDE9044701254FF0904803
:10076000CDE9024569464046FFF792FDA802CDE972
:100770000006CDE90447CDE9024569464046FFF74A
:1007800087FD24480068C0F30220011D072901D21B
:10079000002000E0C01E04FA00F108011E4981F8A3
:1007A00000041D4A20210420213AC2F800114FF410
:1007B0001651CDE90641CDE90A40184D0894099437
:1007C00006A928460D94FFF7A7FEA86864F35F709A
:1007D000A860A86820F06060A860286820F4006025
:1007E0002860286820F000502860686820F4904055
:1007F0006860A86820F02A00A860286840F001001E
:100800002860E869C0F380500028FAD00EB0BDE837
:10081000F08100000CED00E025E000E00038014030
:10082000FEE770477047000005498968054A01F0F6
:10083000F0010909515C01F01F01C8407047000038
:1008400000100240D80A000805498968054A01F4E9
:10085000E06102EB1121097801F01F01C8407047E7
:1008600000100240E80A000805498968054A01F4B9
:10087000605102EBD121097801F01F01C840704797
:1008800000100240E80A00080748806800F00C01E8
:100890000648042906D0082903D00C2902D100F00B
:1008A00009B8034870470000001002400024F4001B
:1008B00000366E010F49C86800F003020E48022A94
:1008C00002D0032A00D10D48CA68C2F3062242436F
:1008D000C868C96800F0F003012000EB1313B2FBF5
:1008E000F3F201F0C06100EB51604000B2FBF0F0A8
:1008F00070470000001002400024F40000366E0132
:100900007047704770B52B48016821F00F0141F026
:100910000301016000682848016821F4C06141F4C6
:1009200000710160254C206840F4807020602068D0
:10093000C0F380200028FAD0606820F0FE4040F02C
:1009400080406060E16841F212401D4A1140084356
:10095000E060E06840F08070E060206840F0807007
:1009600020602068C0F340600028FAD0A06840F002
:100970000300A060A06800F00C000C28FAD1A06869
:1009800020F0F000A060A06820F4E060A060A06803
:1009900020F46050A0600B4D2846FFF712FD28465A
:1009A000FFF7B4FDD4F8880020F00300C4F88800F5
:1009B00070BD0000002002400070004000100240A6
:1009C0000C80FFF900B4C4040548016841F47001CB
:1009D000016003494FF000608039086070470000F3
:1009E00088ED00E00B48C169C1F34011002910D027
:1009F000406A0949C0B20870FF2141EA0020074956
:100A0000086007480421816100BF00BF00BF0421C6
:100A1000816270470038014000000020140800483F
:100A2000000C0048FEE702E008C8121F08C1002AB7
:100A3000FAD170477047002001E001C1121F002A5F
:100A4000FBD1704708B50120FFF716FC1148816DF6
:100A500041F080518165806D0F4900F08050009019
:100A600008684FF6FF0210400C4A40F440701043F3
:100A700008600B48816841F480418160FFF742FFC4
:100A8000FFF7BEFDFFF74EFE0648016841F020016A
:100A90000160FEE7001002400CED00E00000FA05E6
:100AA000007000400038014001000000020000001A
:100AB0000400000006000000080000000A0000001A
:100AC0000C000000100000002000000040000000AA
:100AD0008000000000010000000000000000000095
:100AE00001020304060708090000000001020304D4
:100AF000100B00080000002008000000260A000873
:100B0000180B00080800002000040000360A000846
:080B1000000000000024F400C5
:04000005080001D915
:00000001FF
