:020000040800F2
:1000000050050020ED010008272B000829210008D9
:10001000252B00089908000895330008000000000F
:10002000000000000000000000000000072F000892
:100030009B08000800000000F12B0008092F0008B1
:10004000070200080702000807020008070200086C
:10005000070200080702000807020008070200085C
:10006000070200080702000807020008070200084C
:10007000070200080702000807020008070200083C
:10008000070200080000000007020008070200083D
:10009000070200080702000807020008070200081C
:1000A000070200080702000807020008070200080C
:1000B00007020008070200080702000807020008FC
:1000C00007020008070200080702000807020008EC
:1000D00007020008070200080702000807020008DC
:1000E00007020008070200080702000807020008CC
:1000F00007020008070200080702000800000000CD
:1001000000000000070200080000000007020008CD
:1001100007020008000000000702000807020008AC
:10012000070200080702000807020008070200088B
:10013000070200080000000000000000070200089D
:10014000070200080702000800000000000000008D
:10015000000000000000000000000000000000009F
:10016000000000000000000000000000070200087E
:10017000070200080000000000000000000000006E
:10018000000000000702000800000000000000005E
:10019000000000000000000000000000000000005F
:1001A000000000000000000007020008070200082D
:1001B000070200080702000807020008000000000C
:1001C000000000000702000800000000000000001E
:1001D0000702000807020008DFF80CD000F0F2FA6E
:1001E00000480047BD3C00085005002006488047F5
:1001F00006480047FEE7FEE7FEE7FEE7FEE7FEE70C
:10020000FEE7FEE7FEE7FEE7812F0008D9010008C0
:10021000D2B201E000F8012B491EFBD27047002248
:10022000F6E710B513460A4604461946FFF7F0FFF5
:10023000204610BD2DE9FE4F804681EA0300C00F25
:100240000C46009021F0004123F00045B8EB02007D
:10025000A94105D24046214690461C460B4602461F
:1002600023F00040104347D0270DC7F30A00C3F323
:100270000A510290401A019040286BDAC3F3130030
:1002800040F4801B0098924620B10023D2EB030A71
:1002900063EB0B0B01985946C0F14002504600F049
:1002A000EAF906460D4650465946019A00F002FA10
:1002B00010EB08006141002487EA115284EAE773D9
:1002C0001A4340D0009A62B3019A012A4FEA0752BA
:1002D00015DC001B61EB02014FF0004202EA0752FD
:1002E000CDE90042001C41F5801132462B4600F05A
:1002F00002FA03B0BDE8F08F40462146F9E7001B43
:1003000061EB0201001C41F5801300185B412018CD
:10031000A2F5001747EB030140EAD570B6196D410D
:1003200011E06D084FEA360645EAC0754FEA0752FC
:10033000001B61EB0201001C41F5801149084FEAE6
:1003400030000019514132462B4603B0BDE8F04F52
:1003500000F0C2B90098012240000023D0EB020255
:1003600063EBE073009821464FEAE074B8EB0000BD
:1003700061EB0401E9E783F000435BE781F00041B2
:1003800058E72DE9FE4F81EA030404F0004421F010
:10039000004100944FF0000B23F0004350EA0104A9
:1003A0005ED052EA03045BD0C3F30A54C1F30A558A
:1003B0002C44A4F2F3340194A0FB0254C1F31301C2
:1003C00041F48011C3F3130343F4801301FB02448F
:1003D00000FB034E840A970A44EA815447EA835794
:1003E000A4FB076802958D0A05FB07854FEA932C4D
:1003F00004FB0C542705029D4FEA065847EA1637BE
:10040000B5EB08056EEB070C870E920E47EA8117D5
:1004100042EA8312A7FB0201B6EB0B0164EB000476
:100420002B0D43EA0C335E1844EB1C50DA46514660
:10043000E7FB0201C5F313044FEA0B3343EA1453FD
:100440004FEA0432019C43EA0603A4F10C0402942F
:10045000009CCDE900B400F04EF903B0BDE8F08F88
:1004600000200146F9E72DE9F04D81EA030404F08C
:10047000004B21F0004514464FF0000A23F00041E4
:1004800050EA050220D054EA01021DD0C5F30A57F4
:100490000246C5F31303C1F31300C1F30A5640F437
:1004A000801543F48013A7EB0608101BD64608F20C
:1004B000FD3873EB050002D308F1010801E0921842
:1004C0005B41B8F1000F03DA00200146BDE8F08D72
:1004D00000204FF48011064684460EE0171B73EB94
:1004E000050705D3121B63EB050306434CEA010C19
:1004F00049084FEA300092185B4150EA0107EDD1FC
:1005000052EA030012D082EA040083EA050108439C
:1005100005D0101BAB4106D20122002306E00022C9
:100520004FF0004302E06FF0010253101AEB060097
:100530004CEB085110EB0A0041EB0B01BDE8F04D0C
:1005400000F0CAB80EB540F2334102910021CDE966
:1005500000110A460B4600F0CEF803B000BDC1F30F
:100560000A5210B5C1F3130140F2FF3341F4801178
:100570009A4201DA002010BD40F233439A42A2F2BF
:10058000334203DC524200F085F810BD904010BDAC
:1005900000F0004230F000400AD0C10D01F560715A
:1005A000C0F3160042EA0151C208400711437047E8
:1005B000002001467047000030B5041E71F10004B0
:1005C00004DB4FF00044404264EB0101141E73F160
:1005D000000405DB1C464FF00043524263EB04036A
:1005E000994208BF904230BD30B50B46014600200D
:1005F0002022012409E021FA02F59D4205D303FAE5
:1006000002F5491B04FA02F52844151EA2F1010265
:10061000F1DC30BD2DE9F05F0546002092469B4697
:1006200088460646814640241BE028464146474608
:10063000224600F02FF853465A46C01A914110D373
:1006400011461846224600F016F82D1A67EB0108ED
:100650004F4622460120002100F00DF817EB00095B
:100660004E41201EA4F10104DFDC484631462A46F3
:100670004346BDE8F09F202A04DB203A00FA02F14D
:10068000002070479140C2F1200320FA03F3194380
:1006900090407047202A04DB203A21FA02F0002122
:1006A000704721FA02F3D040C2F120029140084382
:1006B00019467047202A06DBCB17203A41FA02F090
:1006C00043EAE07306E041FA02F3D040C2F12002AF
:1006D000914008431946704710B5141E73F1000489
:1006E00008DA401C41F1000192185B411A4301D124
:1006F00020F0010010BD2DE9F04D92469B4611B14E
:10070000B1FA81F202E0B0FA80F220329046FFF7AF
:10071000B2FF04460F4640EA0A0041EA0B01534685
:100720005A46084313D0114653EA010019D0C8F1C4
:1007300040025046FFF7AEFF05460E46504659466A
:100740004246FFF798FF084305D0012004E0204609
:100750003946BDE8F08D0020054346EAE0762C439B
:1007600037430A986305E40AA0EB08000022FD0A5B
:1007700044EA47540A3002D500200146E9E7010562
:1007800010196941DDE9084500196941BDE8F04DDE
:10079000A2E7C1F30A52C1F3130140F2FF3341F45F
:1007A00080119A4202DA00200146704740F233433A
:1007B0009A42A2F2334202DC5242FFF76BBFFFF7CC
:1007C0005ABF0000064C074D06E0E06840F0010308
:1007D00094E8070098471034AC42F6D3FFF700FDC9
:1007E000044F0008244F000870B504460068816873
:1007F00011F0010F28D18168144A114215D1816886
:10080000D5432940491C816000F012FD064616E0E0
:10081000816811F0010F03D181682940491C816072
:1008200000F006FD801B022809D9E06D40F01000A1
:10083000E065206E40F001002066012070BD206858
:100840000168C943C907E3D1002070BD3F000080A3
:1008500010B50D4800F072FB0B4800F03FFA00EEB7
:10086000100A9FED0B1A094CF8EE400AE06080EE8A
:10087000810ADFED080A20EE200A10EE100AFFF7C9
:1008800087FEC4E9080110BD4C00002000000020D4
:1008900000F07F4533335340FEE77047002240F6B7
:1008A000B83306E00021491C89B29942FBD3521C9F
:1008B00092B28242F6D37047704700002DE9F84F9C
:1008C00000270446009790F85800DFF8DC930D46A7
:1008D000B846012811D0012684F85860206801F03C
:1008E0006DFF60B1E06D40F02000E0655FF0010752
:1008F00084F858803846BDE8F88F0220FBE7D5E938
:1009000000210C23206803EA91131844036B01F0C3
:100910001F014FF01F0C0CFA01FCC2F3846223EAA2
:100920000C038A4013430363206801F047FF8246AB
:10093000206801F03FFF5AEA00003CD1AA6829680C
:100940002068B2F1004F37D001F03CFF20684169C8
:1009500021F00041416120686969C268C2F3C102A7
:10096000520091402A69042A31D000EB82002B68A2
:10097000026EDFF838C303F0F84302EA0C020B43BF
:100980001A4342F00041016622682869A96902EB16
:100990008000026E22F080720A430266297F20687E
:1009A0002A69012910D0002100EB8200026E22F09A
:1009B00000720A4302667DE0002201F003FF206816
:1009C000416941F00041C5E74FF00071ECE70021BB
:1009D00001F0EAFE400320684FF0000172D001F000
:1009E000E3FE90FAA0F0B0FA80F1286842036ED0DE
:1009F00090FAA0F0B0FA80F0814204D100221146B2
:100A0000206801F0EEFE0121206801F0CDFE4003D8
:100A100020684FF001015DD001F0C6FE90FAA0F011
:100A2000B0FA80F12868420359D090FAA0F0B0FAE9
:100A300080F0814204D100220121206801F0D1FE22
:100A40000221206801F0B0FE400320684FF002014F
:100A500048D001F0A9FE90FAA0F0B0FA80F1286821
:100A6000420344D090FAA0F0B0FA80F0814204D161
:100A700000220221206801F0B4FE0321206801F069
:100A800093FE400320684FF0030133D001F08CFE49
:100A900090FAA0F0B0FA80F1286842032FD090FAC3
:100AA000A0F0B0FA80F0814204D100220321206836
:100AB00001F097FE2068816811F0010F22D0ACE0B0
:100AC00000E004E001F070FEC0F384618DE7C0F344
:100AD000846091E701F068FEC0F38461A2E7C0F38F
:100AE0008460A6E701F060FEC0F38461B7E7C0F35D
:100AF0008460BBE701F058FEC0F38461CCE7C0F32B
:100B00008460D0E72A7B296850F8B03FC1F3120C0B
:100B100023EA0C0302F0180C654A22FA0CF20A4090
:100B200013430360E968494577D1286841031CD025
:100B300090FAA0F1B1FA81F1491C01F01F010929D5
:100B40004FEA403132D8002912D000BF90FAA0F10C
:100B5000B1FA81F101F1010101F01F0106FA01F67C
:100B600009D100BFC0F3846109E0C0F38461E3E709
:100B7000C0F38461EEE790FAA0F1B1FA81F101F1DE
:100B8000010101F01F0146EA816102D1C0F38460D6
:100B900003E090FAA0F0B0FA80F000F1010000F05C
:100BA0001F0000EB400041EA005132E000290ED066
:100BB00090FAA0F1B1FA81F101F1010101F01F01F8
:100BC00006FA01F606D100BFC0F3846106E0C0F367
:100BD0008461F1E790FAA0F1B1FA81F101F101012C
:100BE00001F01F0146EA816102D1C0F3846003E095
:100BF00090FAA0F0B0FA80F000F1010000F01F00C0
:100C00002C4A00EB400002EB005041EA000141F0A9
:100C10000071AA68206801F0D5FD27482A680242C1
:100C20003FF466AE25488168254B01F0E0719A4299
:100C300002D0244B9A421BD10B0219D42268B2F184
:100C4000A04F7FF455AE826841F4000122F0E072BB
:100C50000A4382601C481D490068B0FBF1F000EBBC
:100C60004000800000E0401E00900028FBD13FE6DD
:100C7000174D184BAA4207D1CD0105D422689A42DC
:100C8000F5D041F0807109E0134DAA42EFD14A023C
:100C9000EDD422689A42EAD041F48001826822F0C1
:100CA000E0720A43826023E600007F4000F0FF0309
:100CB000FFFF0700000020FE000008800003005036
:100CC000000021C31000C09048000020400D030028
:100CD000000052C700010050000084CB0068006C87
:100CE00070470000F8B54FF0000504002E4600954F
:100CF00002D0E06D10B107E00120F8BD204600F001
:100D0000EDF8266684F8586020688168C1F3407168
:100D100019B18168694A1140816020688168C1F316
:100D2000007179B98168664A114041F08051816053
:100D3000644865490068B0FBF1F000E0401E009097
:100D40000028FBD120688168C1F3007141B9E16DD1
:100D500041F01001E165216E41F00101216601259C
:100D600001F02CFDE16DC90600D430B1E06D40F01A
:100D70001000E06501252846F8BDE06D20F4807084
:100D800040F00200E0652068806810F0010F11D18A
:100D90004FF0A04080684D4900F00100896801F0E3
:100DA0000101084306D14A486168826822F47C1236
:100DB0000A438260E168E06B627F0843A16841EA10
:100DC0004231084394F8241040EA0140012904D13B
:100DD000218D404A02EB41410843E16A29B101F407
:100DE0007871226B014342EA01002168CA683A4BDC
:100DF0001A400243CA6020680169626B21F04061B9
:100E000011430161206801F0D9FC0646206801F019
:100E1000D1FC30432ED1207F94F83810800340EA73
:100E200041022068C16844F2020399431143C16042
:100E300020690028206801690AD041F480310161ED
:100E4000206850F8C01F22696FF30D01114307E0BD
:100E500021F480310161206850F8C01F6FF30D014B
:100E6000016094F8400001280CD02068016921F04D
:100E700001010161606901282068016B21F00F0107
:100E800011D013E0D4E911010843D4E9131211433E
:100E9000084321680A6940F2FC739A43104340F00A
:100EA00001000861E6E7226A521E11430163E06D0A
:100EB00020F0020040F00100E0655CE7C0FFFF5F4A
:100EC000C0FFFF7F48000020400D030000010050DC
:100ED000000300500000FEFF0740F0FF10B586B091
:100EE000044614216846FFF79AF9114920688842A0
:100EF0001BD11048C16C41F40051C164C16C01F4B4
:100F000000510591C16C41F00201C164C06C694699
:100F100000F0020005904FF4004000900320019083
:100F200000200290044800F095F806B010BD0000C3
:100F30000001005000100240000400482DE9F0417B
:100F400004463848806800F01F05206801F036FC30
:100F500018B102210846BDE8F08194F85800012834
:100F60000CD0012084F858002046FFF73DFC01001A
:100F70004FF0000304D084F85830EBE70220EAE792
:100F8000E06D40F60162904340F48070E065264ACF
:100F900020684FF0A046904201D1374600E0074656
:100FA000874200D01DB9E76D27F48017E765E76D2C
:100FB000FF0404D5276E27F00607276600E02366A6
:100FC0001C27076084F858302068904201D13346CE
:100FD00000E00346834215D0A5B1052D12D0092D9E
:100FE00010D0E36D43F48013E365904200D13046A6
:100FF000C0688001AED5E06D20F4005040F4805010
:10100000E065A7E7C268920105D5E26D22F40052BF
:1010100042F48052E2658268044B1A40121D8260DD
:1010200098E700000003005000010050C0FFFF7F60
:1010300070B5044600F0FCF80546601C02D0044878
:101040004068044400F0F4F8401BA042FAD370BD9D
:101050003C0000202DE9FC4FDFF8A0A10023012572
:101060000AF1040B03244FF00F0C0BF1040EBDE04A
:1010700005FA03F632406FD04F68012F05D0022FDA
:1010800003D0112F01D0122F17D1D0F808905F0094
:1010900004FA07F829EA08090097D1F80C8008FA41
:1010A00007F848EA0908C0F808804768B7430E798E
:1010B000C6F300169E403E434660C6684FEA4308AA
:1010C00004FA08F7BE4301978F6807FA08F7374319
:1010D000C7604E68022E01D0122E13D1DE0800EB3D
:1010E00086060096366A5F07FF0E0CFA07F926EAB5
:1010F0000906D1F8109009FA07F949EA0609009E95
:10110000C6F820900668019FBE430F7907F00307D9
:1011100007FA08F7374307604E68F60065D5384E82
:10112000376E47F001073766366E23F0030706F087
:1011300001060096334E3E44B146B6689F074FEA1B
:1011400017780CFA08F7BE43B0F1904F05D02E4F38
:10115000B84204D1012717E047E0002714E02B4FE5
:10116000B84201D102270FE0294FB84201D103272D
:101170000AE0284FB84201D1042705E0264FB842C3
:1011800001D1052700E0062707FA08F73743C9F819
:101190000870DAF800605746D1F8048096435FEA99
:1011A000C83800D516433E60DBF800605F46D1F8D2
:1011B000048096435FEA883800D516433E60DEF827
:1011C00000607746D1F8048096435FEAC82800D5CE
:1011D00016433E60094F0C373E68D1F804809643B1
:1011E0005FEA882800D516433E605B1C0A6832FA25
:1011F00003F67FF43DAFBDE8FC8F00000004014022
:1012000000100240000001400004004800080048AF
:10121000000C004800100048001400480069084015
:1012200000D0012070470AB1816170478162704728
:1012300001488068704700003C0000200248816837
:1012400042681144816070473C00002010B50024C2
:10125000032000F069F8002000F008F808B101242C
:1012600001E000F025F8204610BD000070B50E4EDC
:1012700005460024706898B14FF47A71B1FBF0F024
:101280000A490968B1FBF0F000F02EFD40B9102DBD
:1012900006D200222946501E00F026F8356000E0F4
:1012A0000124204670BD00003C00002048000020C2
:1012B0000B4808B5016E41F001010166016E01F0B5
:1012C00001010091816D41F080518165806D00F0D8
:1012D000805000900348816841F48041816008BDDE
:1012E0000010024000700040F0B40E4B1B680C462A
:1012F000C3F30223C3F10705042D00D90425191DEA
:10130000072901D2002300E0DB1E012606FA05F1C1
:10131000491E214099409E40761E16403143F0BC44
:1013200002F04EB80CED00E0064900F00702086834
:101330004FF6FF03184040EA0220034A10430860BA
:10134000704700000CED00E00000FA052B492C4B23
:101350000A6832214A432B4940B1B0F5007F086842
:1013600029D020F4C06040F480602CE00868C0F30D
:101370004120022804D051F8800F20F4807022E030
:10138000D1F8800020F48070C1F88000086820F453
:10139000C06040F400700860B2FBF3F0401C00E055
:1013A000401E4A69520501D50028F9D14869400517
:1013B0000AD503207047C0F34120022806D051F817
:1013C000800F40F48070086000207047D1F88000E2
:1013D00040F48070C1F88000086820F4C06040F4D8
:1013E00000700860B2FBF3F0401C00E0401E4A6948
:1013F0005205DBD50028F9D1D8E7000048000020CD
:1014000040420F00007000402DE9F8430446006898
:1014100000269D4D00035ED5A86D0027C00008D4AE
:10142000A86D40F08050A865A86D012700F080509D
:101430000090DFF85892D9F8001041F48071C9F893
:101440000010FFF7F5FE804606E000BFFFF7F0FE54
:10145000A0EB080002282BD8D9F80000C005F5D56C
:10146000D5F8900010F4407014D0216C814211D056
:10147000D5F89000D5F8901020F4407041F48031F8
:10148000C5F89010D5F8901021F48031C5F890106F
:10149000C5F89000C00711D0FFF7CAFE804641F2A0
:1014A000883907E0FFF7C4FEA0EB0801494501D9E0
:1014B00003260BE0D5F890008007F3D5D5F890000F
:1014C000216C20F440700843C5F890001FB1A86D4E
:1014D00020F08050A8652078C00707D0D5F8880094
:1014E000616820F003000843C5F888002078800771
:1014F00007D5D5F88800A16820F00C000843C5F88E
:1015000088002078400707D5D5F88800E16820F0EA
:1015100030000843C5F888002078000707D5D5F8C3
:101520008800216920F0C0000843C5F888002078B1
:10153000800607D5D5F88800616920F4406008432B
:10154000C5F888002078400607D5D5F88800A1693D
:1015500020F440500843C5F888002078000607D5DD
:10156000D5F88800E16920F440400843C5F88800B8
:101570002088C00507D5D5F88800216A20F44030BE
:101580000843C5F888002088800507D5D5F888006D
:10159000616A20F440200843C5F88800208840058F
:1015A0000FD5D5F88800A16A20F440100843C5F88B
:1015B0008800A06AB0F5801F03D1E86840F480106D
:1015C000E860208800050FD5D5F88800E16A20F48E
:1015D00040000843C5F88800E06AB0F5800F03D1E9
:1015E000E86840F48010E8602088C0040FD5D5F882
:1015F0008800216B20F040700843C5F88800206BFC
:10160000B0F1807F03D1E86840F48010E860208862
:101610004FF0006180040ED5D5F88800626B20F091
:1016200040601043C5F88800606B884203D1E868C9
:1016300040F48010E860208840040ED5D5F888007A
:10164000A26B20F040601043C5F88800A06B884270
:1016500003D1E86840F48010E860208800040FD5CA
:10166000D5F88800E16B20F040500843C5F88800A9
:10167000E06BB0F1805F03D1E86840F48030E8604F
:101680003046BDE8F88300000010024000700040C2
:101690002DE9F0470E4605004FF0000725D0DFF892
:1016A000AC81D8F8000000F00F00B0420CD2D8F89E
:1016B000001021F00F013143C8F80010D8F80000E5
:1016C00000F00F00B04210D12968614CC80741F208
:1016D000883A5AD06868DFF87C91032808D002283D
:1016E00020682DD0400500282CDB0120BDE8F087C4
:1016F00020688001F9D5E06800F00302E068C0F3DB
:101700000310401C032A19D0534A00BFB2FBF0F06B
:10171000E268C2F306225043E268C2F34162521CFF
:101720005200B0FBF2F0484517D9A06810F0F00F56
:101730000CD0880711D5A86840B10EE0474AE5E70C
:101740008003D0E700F092F8484506D9A06820F061
:10175000F00040F08000A0608027A068696820F059
:1017600003000843A060FFF763FD814606E000BF69
:10177000FFF75EFDA0EB090151453AD8A068696802
:1017800000F00C00B0EB810FF2D12868810714D56E
:10179000400703D5A06840F4E060A0602878000707
:1017A00005D5A06820F4605040F4E060A060A06817
:1017B000A96820F0F000084304E0802F03D1A0685E
:1017C00020F0F000A060D8F80010404601F00F01B2
:1017D000B14216D9016821F00F0131430160FFF7D2
:1017E00027FD074607E000BFFFF722FDC11B51455B
:1017F00001D903207AE7D8F8000000F00F00B042CA
:10180000F2D12878400705D5A068E96820F4E060A7
:101810000843A0602878000706D5A068296920F44D
:10182000605040EAC100A06000F020F8A1680C4AB6
:10183000C1F30311515C01F01F01C8400949086060
:1018400009480068BDE8F047FFF710BD00200240DE
:101850000010024000B4C4040024F40000366E01FD
:10186000F44E0008480000203C000020184910B544
:101870008868C0F381021748012A0BD08A68164B8A
:10188000C2F38102022A06D08A68C2F38102032AC7
:1018900003D0002010BD184610BDCA6802F0030432
:1018A000CA68C2F30312521C032C02D0B0FBF2F040
:1018B00001E0B3FBF2F0CA68C968C2F306225043E4
:1018C000C1F34161491C4900B0FBF1F010BD0000BB
:1018D000001002400024F40000366E012DE9F843A8
:1018E00004007AD02078FA4DC00747D0A868E9688C
:1018F00000F00C0001F003010C2802D0082817D0DA
:1019000001E0032914D06068B0F5803F17D0B0F52E
:10191000A02F286817D020F480302860286820F491
:10192000802028606068E0B1FFF782FC064614E082
:101930002868800322D560680028D2D01EE028687D
:1019400040F48030EDE740F480202860F7E700BFE6
:10195000FFF76EFC801B642870D828688003F7D5D9
:101960000CE0FFF765FC064605E000BFFFF760FCF2
:10197000801B6428F0D828688003F7D4207880077B
:101980004CD5A868E96800F00C0001F003010C28B0
:1019900002D004280DD001E002290AD0E068002816
:1019A00028682BD040F480702860FFF741FC064681
:1019B00019E02868400502D5E068002891D06868E1
:1019C000217C20F0FE4040EA01606860C148006868
:1019D000FFF74CFC002800D120E076E1FFF728FC5F
:1019E000801B0228B8D828684005F7D56868217C94
:1019F00020F0FE4040EA016068600FE020F4807053
:101A00002860FFF715FC064605E000BFFFF710FC55
:101A1000801B0228A0D828684005F7D4207800074A
:101A200029D560690028D5F8940013D040F0010052
:101A3000C5F89400FFF7FCFB064606E090E000BF07
:101A4000FFF7F6FB801B022886D8D5F894008007A4
:101A5000F6D510E020F00100C5F89400FFF7E8FB90
:101A6000064604E0FFF7E4FB801B022878D8D5F88F
:101A700094008007F6D42078400761D5A86D002631
:101A8000C00008D4A86D40F08050A865A86D01265C
:101A900000F08050009090480168C90511D4016899
:101AA000804641F480710160FFF7C2FB074604E005
:101AB000FFF7BEFBC01B022852D8D8F80000C005B3
:101AC000F6D5A068012815D00528D5F8900016D0C5
:101AD00020F00100C5F89000D5F8900020F0040037
:101AE000C5F89000A06841F28838B8B1FFF7A0FBB4
:101AF00007460EE0D5F8900040F00100F0E740F016
:101B00000400C5F89000F5E7FFF792FBC11B4145C3
:101B100026D8D5F890008007F6D50CE0FFF788FBB3
:101B2000074604E0FFF784FBC11B414518D8D5F8F0
:101B300090008007F6D41EB1A86D20F08050A865F3
:101B40002078800629D5A0690028D5F8980013D000
:101B500040F00100C5F89800FFF76AFB064606E072
:101B600077E000BFFFF764FB801B022877D8D5F829
:101B700098008007F6D510E020F00100C5F8980025
:101B8000FFF756FB064604E0FFF752FB801B0228D6
:101B900065D8D5F898008007F6D4E069F0B3A96855
:101BA000C1F38101032961D00228286820F08070E8
:101BB00028600BD0E86820F00300E860E868474937
:101BC0000840E860FFF734FB04464BE0FFF730FBCA
:101BD000064604E0FFF72CFB801B02283FD828684C
:101BE0008001F7D4F4E908016FF00F0202EB011154
:101BF0000843218A5204490802EB4151A26841EA94
:101C000002210843217D4FF07E42490802EB4161E9
:101C10000843217B40EAC160E96800E062E0304AA5
:101C200011400843E860286840F080702860E86848
:101C300040F08070E860FFF7FBFA044605E000BF63
:101C4000FFF7F6FA001B022809D828688001F7D5AB
:101C500048E004E0FFF7ECFA001B022802D9032059
:101C6000BDE8F88328688001F4D43BE00128F7D070
:101C7000E868226A00F00301914226D1616A00F00F
:101C8000F0020901103991421FD1A26A00F4FE410D
:101C9000B1EB022F19D194F82C2000F07841B1EB70
:101CA000C26F12D1218E00F4C00249084905A1F586
:101CB0000011914209D194F8341000F0C060490835
:101CC0004906A1F1007181420CD00120C8E7000053
:101CD000001002403C00002000700040FFFFEEFEBC
:101CE0000C809F010020BBE710B5401EB0F1807F43
:101CF00001D3012010BD4FF0E02460610F21601777
:101D000001F05EFB0020A06107202061002010BDD3
:101D1000F0B590F83C20012A4AD0012280F83C20FE
:101D2000CA688B6822F440721A434B6822F48062BE
:101D30001A430B6822F400621A430B6922F48052A2
:101D40001A434B6922F400521A430B6B22F480426F
:101D50001A430B8B22F4702242EA0342154C0368AB
:101D60000026154DA34201D0AB4203D1CF6922F02A
:101D700080523A43A34201D0AB4214D10F8D22F4DA
:101D8000700242EA07520F6A22F080723A434F6AA9
:101D900022F000723A43A34201D0AB4203D1C96A98
:101DA00022F000520A435A6480F83C600020F0BDE3
:101DB0000220F0BD002C01400034014010B50400A9
:101DC00003D094F83D0010B107E0012010BD0020C1
:101DD00084F83C00204600F023F8022084F83D00FF
:101DE000211D206801F0DAF8012084F8480084F809
:101DF0003E0084F83F0084F8400084F8410084F8F5
:101E0000420084F8430084F8440084F8450084F8D4
:101E1000460084F8470084F83D00002010BD000013
:101E200008B50C4A01680C48914207D1016E41F493
:101E300000310166006E00F4003009E0074A91426B
:101E400007D1016E41F480210166006E00F480200C
:101E5000009008BD004401400010024000480140CD
:101E600070B586B0044614216846FEF7D8F9154EC1
:101E7000256800221449022401234FF09040B54206
:101E800009D1CD6C45F00105CD64C96C01F00101AB
:101E9000059140210BE00D4EB54210D1CD6C45F0BF
:101EA0000105CD64C96C01F001010591802100910B
:101EB000CDE901426946CDE90323FFF7CBF806B02F
:101EC00070BD000000440140001002400048014085
:101ED00070B5044690F83C000D4601280BD0012057
:101EE00084F83C000C2A45D007DC5AB1042A1BD0E8
:101EF000082A78D12CE0022070BD102A4ED0142A76
:101F000071D15DE0206801F0AFF82068816941F08F
:101F1000080181612068816921F0040181612068E4
:101F200081692A69114311E0206801F0EBF820680B
:101F3000816941F4006181612068816921F48061D7
:101F40008161206881692A6941EA022181614AE050
:101F5000206801F01FF92068C16941F00801C161E2
:101F60002068C16921F00401C1612068C1692A6942
:101F7000114311E0206801F055F92068C16941F46E
:101F80000061C1612068C16921F48061C16120687C
:101F9000C1692A6941EA0221C16124E0206801F097
:101FA00089F92068016D41F0080101652068016D23
:101FB00021F0040101652068016D2A69114311E0D7
:101FC000206801F0AFF92068016D41F400610165FE
:101FD0002068016D21F4806101652068016D2A6926
:101FE00041EA02210165002084F83C0070BD10B573
:101FF000040003D094F83D0010B107E0012010BDAB
:10200000002084F83C00204600F022F8022084F8EA
:102010003D00211D206800F0C1FF012084F8480028
:1020200084F83E0084F83F0084F8400084F84100C2
:1020300084F8420084F8430084F8440084F84500A2
:1020400084F8460084F8470084F83D00002010BD65
:102050007047000010B50446022269B1042912D06D
:10206000082917D00C291CD0102921D094F843003E
:10207000012824D0012010BD94F83E000128F9D198
:1020800084F83E201DE094F83F000128F2D184F846
:102090003F2016E094F840000128EBD184F840205E
:1020A0000FE094F841000128E4D184F8412008E0D1
:1020B00094F842000128DDD184F8422001E084F840
:1020C00043200122206800F0C1FF114920688842A6
:1020D0000BD01049884208D00F49884205D00F49DB
:1020E000884202D00E49884203D1416C41F400413C
:1020F0004164206881680B4A1140062906D0B1F579
:10210000803F03D0016841F001010160002010BD53
:10211000002C0140003401400040014000440140D7
:102120000048014007000100FEE7000070B530489C
:102130002DED048B01682F4C6268891A142953D342
:102140000068606000F062F82B4D4FF001062878BF
:10215000C00706D0002000F0B3F8207826EA00007F
:10216000207028789FED259B9FED268B800719D541
:102170002078012816D194ED040B53EC182B51EC68
:10218000100BFEF757F841EC100B53EC192B84EDB4
:10219000040BFEF711FA05D2B0EE480AF0EE680A19
:1021A00084ED040B2878400715D52078012812D13A
:1021B00094ED060B53EC182B51EC100BFEF73AF88C
:1021C00041EC100B53EC192B84ED060BFEF7F4F9E0
:1021D00001D284ED068B2878000705D520780028E9
:1021E00002D1607886436670BDEC048B70BD000040
:1021F0004400002000000020360000201F85EB5125
:10220000B81EED3F9A9999999999B93F70B5134DB8
:1022100001212846FFF702F8044602212846FEF76E
:10222000FDFF44EA400404212846FEF7F7FF44EA94
:10223000800401214FF09040FEF7F0FF084944EA86
:10224000C00040F0F0008A78C04320EA0203424018
:102250000B7082434A70887070BD00000004004813
:102260003600002000B585B014216846FDF7D7FF81
:102270004FF6FF70009000200321CDE9020101908C
:1022800069460248FEF7E6FE05B000BD00080048BA
:1022900000B585B014216846FDF7C1FF4FF6FF7009
:1022A00000900120019003200390002002906946D5
:1022B0000248FEF7CFFE05B000BD00000008004850
:1022C00070B5002406462146204600F0ABF900F028
:1022D000E9F94FF49635304600F0B8F9641CAC4289
:1022E000F9D370BD30B587B014216846FDF797FF6C
:1022F0001E48C16C41F00401C164C16C01F00401CD
:102300000591C16C41F00101C164C16C01F0010192
:102310000591C16C41F00201C164C06C012500F05F
:10232000020005904FF44870CDE9000500240394A5
:10233000694602940E48FEF78DFE28020394009031
:10234000CDE901544FF0904469462046FEF782FEE5
:10235000FFF79EFFA06940F48070A0610448183028
:10236000016841F40871016007B030BD00100240FF
:1023700000040048203AD2B2034B02EB420203EBC6
:10238000021200F019B80000243D0008F0B50E4616
:102390000746002540F23F1407E021463846FFF784
:1023A000E9FF103C6D1CA4B2761C3278002A01D0E3
:1023B000142DF2D3F0BD00002DE9F04791468A4676
:1023C0000026044600F02EF9DFF84080012700BF08
:1023D00000F068F95FF0000539F8160007FA05F11A
:1023E0000842404601D1408800E0008800F02EF904
:1023F0006D1C102DF0D3641CE4B25146204600F051
:1024000011F9761C182EE3D3BDE8F08730000020C8
:1024100010B5FFF767FF002000F0BCF8084CA08063
:10242000A088A0F50241303906D000F06BFC0020F6
:1024300000F0B0F8A08010BD00F0DBFBF7E7000073
:102440003000002010B534482DED028B88B00168B3
:10245000324CA268891A642957D30068A06020789A
:10246000F0B92FA1684600F097FF69460020FFF7FA
:102470008DFF94ED080B2DA153EC102B684600F056
:102480008BFF69463020FFF781FF6078002840D03D
:102490002AA1684600F080FF69464820FFF776FFD2
:1024A0002078012831D129A1684600F075FF6946DE
:1024B0000020FFF76BFF9FED288B94ED040B53EC8E
:1024C000182B51EC100BFDF75CFF41EC100B24A115
:1024D00053EC102B684600F05FFF69463020FFF791
:1024E00055FF94ED060B53EC182B51EC100BFDF738
:1024F00048FF41EC100B1EA153EC102B684600F076
:102500004BFF69464820FFF741FF08B0BDEC028B46
:1025100010BD1CA1BDE70000440000200000002009
:1025200020202020202044617461000020202020F1
:10253000563A25342E326656000000002020202016
:102540004D6F64653A4D414E55000000202020201B
:10255000202050617261000000000000000059401E
:10256000202020205041363A25322E306625250085
:10257000202020205041373A25322E306625252054
:1025800000000000202020204D6F64653A41555422
:102590004F00000070B51D490A6842F400720A60DD
:1025A0000A6842F480720A60184C103C226842F0BB
:1025B00020022260164A1060086840F0200008607F
:1025C00000BF00BF00BF206840F0200020602068EE
:1025D00040F480702060FFF745FE4FF09041886A1C
:1025E00040F48070886200BF00BF00BF0848001F31
:1025F000006885B2886940F480708861FFF748FE02
:10260000206840F400702060284670BD280400480F
:102610001408004801B5BDF800000149488008BD14
:102620003000002010B50C460146202000F068F86C
:102630002146BDE81040212000F062B801B5BDF888
:1026400000000149088008BD30000020134A1168CD
:1026500041F400711160114910390B6843F4807323
:102660000B600B6843F020030B600D4B1860106883
:1026700040F02000106000BF00BF00BF086840F0BD
:1026800020000860086840F48070086000BF00BF48
:1026900000BF086840F400700860704728040048D4
:1026A000140800481449086840F40070086008687D
:1026B00040F48070086010481038026842F0200230
:1026C00002600E4B22221A600A6842F020020A6061
:1026D00000BF00BF00BF016841F020010160016838
:1026E00041F48071016000BF00BF00BF016841F488
:1026F0000071016070470000280400481408004879
:10270000184B10B51A6842F400721A601A6842F445
:1027100080721A60134A103A146844F0200414605E
:10272000114C2060186840F02000186000BF00BF06
:1027300000BF106840F020001060106840F4807006
:1027400010602160186840F02000186000BF00BFD2
:1027500000BF106840F020001060106840F48070E6
:10276000106010BD28040048140800480D480146B8
:10277000427889783AB121F001018170017829B15C
:10278000012907D00AE041F00101F6E7817841F024
:10279000020102E0817821F002018170807800F06E
:1027A00029B800000000002000EB8100006E00F05E
:1027B000F84070478068C0F3C00070478068C0F37D
:1027C00080007047042303EAD15310B518444369CD
:1027D000C1F3045107248C40A3438A40134343614F
:1027E00010BD00EB8100016E21F000411143016634
:1027F0007047000070B5124D044601224FF47F412E
:102800002846FEF710FD0F4E012204213046FEF748
:102810000AFD002204213046FEF705FD21020022B8
:102820002846FEF700FD012204213046FEF7FBFC9E
:102830003046BDE8704000220421FEF7F4BC0000E1
:1028400000080048000C004830B589B020216846D7
:10285000FDF7E5FC194818490024C0E9001484601C
:10286000C46004250461C0E905450477447701216B
:10287000016280F82440C462046380F83840C46375
:1028800080F84040FEF72EFA08B1FEF715F80C4824
:10289000009006200190072002907F200594CDE94A
:1028A000030569460548FEF709F8002801D0FEF740
:1028B00003F809B030BD0000000100504C000020BA
:1028C0000080F03E2DE9F04F87B014216846FDF7F7
:1028D000A6FC4048C16C41F00401C164C16C01F028
:1028E00004010591C16C41F02001C164C16C01F08B
:1028F00020010591C16C41F00101C164C16C01F07E
:1029000001010591C16C41F00201C164C16C01F08B
:1029100002010591C16C41F00801C164C06CDFF88F
:10292000B88000F008004FF6FF74059000222146A1
:102930004046FEF778FC4FF480764FF09049002235
:1029400031464846FEF76FFCDFF890A000220421D4
:102950005046FEF768FCDFF888B04FF44877002255
:1029600039465846FEF75FFC0125CDE900450024B5
:102970000294694640460394FEF76CFBCDE900548F
:10298000694648460294FEF765FB0720CDE900043E
:10299000694658460294FEF75DFB0096CDE9015466
:1029A000694648460394FEF755FB04200090CDE9A4
:1029B0000154694650460394FEF74CFB0097CDE95D
:1029C0000154694658460394FEF744FB07B0BDE83E
:1029D000F08F00000010024000080048000C004882
:1029E0000004004810B594B01C210DA8FDF717FC99
:1029F00034216846FDF713FC21482049002401607A
:102A00004F21C0E9011442F20F71C0E90314802183
:102A1000C0E90541FFF7D2F908B1FDF74DFF1848AD
:102A2000FFF7E5FA08B1FDF747FF60200D9041F28E
:102A30008830CDE90E0410941194129400220DA94F
:102A40000F481394FFF744FA08B1FDF735FF0094DF
:102A50004FF40050CDE9044001940294039406948D
:102A6000694607480C94FFF753F908B1FDF724FFB6
:102A70000348FFF7F5F914B010BD00000044014011
:102A8000B800002010B594B01C210DA8FDF7C7FBBD
:102A900034216846FDF7C3FB21482049002401602A
:102AA0004F21C0E9011441F28731C0E903148021AC
:102AB000C0E90541FFF782F908B1FDF7FDFE1848AE
:102AC000FFF795FA08B1FDF7F7FE60200D9040F68C
:102AD000C410CDE90E0410941194129400220DA993
:102AE0000F481394FFF7F4F908B1FDF7E5FE0094E1
:102AF0004FF40050CDE904400194029403940694ED
:102B0000694607480C94FFF703F908B1FDF7D4FEB6
:102B10000348FFF7A5F914B010BD000000480140BC
:102B200004010020FEE770472DE9F0412B4D42F2F1
:102B30000F702DED028B2860294E40103060294C1B
:102B4000264FDFF89C806078083708F1080818B332
:102B50002868401CFDF7F6FC94ED041B53EC112B88
:102B6000FDF70FFCFDF7FBFC38603068401CFDF7FB
:102B7000E9FC94ED061B41EC100B53EC112B00BF4C
:102B800051EC100BFDF7FDFBFDF7E9FCC8F8000068
:102B9000BDEC028BBDE8F0819FED130B53EC102BC5
:102BA00094ED080B51EC100BFDF75DFC41EC180B9C
:102BB00084ED0A8B2868401CFDF7C4FC53EC182BED
:102BC000FDF7DFFBFDF7CBFC38603068401CFDF7FC
:102BD000B9FC41EC100B53EC182BD1E72C4401400D
:102BE0002C480140000000206666666666660A4062
:102BF000704730B501210020FFF782FD4FF47A7055
:102C0000FDF74CFE00210120FFF77AFD41F29071A3
:102C10001020FFF775FD4FF41C516020FFF770FD89
:102C200001216120FFF76CFD02214620FFF768FDBE
:102C300048F210011320FFF763FD48F2FE01122055
:102C4000FFF75EFD4FF4A0610220FFF759FD41F24E
:102C500030010320FFF754FD40F2033421463020B9
:102C6000FFF74EFD21463120FFF74AFD2146322075
:102C7000FFF746FDE51E29463320FFF741FD0321FE
:102C80003420FFF73DFD21463520FFF739FD1421A3
:102C90003620FFF735FD21463720FFF731FD21466D
:102CA0003820FFF72DFD21463920FFF729FD294661
:102CB0003A20FFF725FD03213B20FFF721FD2146A8
:102CC0003C20FFF71DFD4FF4A0513D20FFF718FDFC
:102CD0004FF400719220FFF713FD21469320FFF778
:102CE0000FFD40F60D019020FFF70AFD41F218019B
:102CF0000320FFF705FDBDE8304040F273110720C7
:102D0000FFF7FEBC10B543F20801E320FFF7F8FC23
:102D10001221E720FFF7F4FC41F23121EF20FFF709
:102D2000EFFC00210120FFF7EBFC4FF4E0610220F3
:102D3000FFF7E6FC41F230010320FFF7E1FC002140
:102D40000420FFF7DDFC40F207210820FFF7D8FC44
:102D500000210920FFF7D4FC00210A20FFF7D0FC56
:102D600000210C20FFF7CCFC00210D20FFF7C8FC50
:102D700000210F20FFF7C4FC00211020FFF7C0FC4A
:102D800007211120FFF7BCFC00211220FFF7B8FC3F
:102D900000211320FFF7B4FCC820FEF749F941F2E7
:102DA00090611020FFF7ACFC40F227211120FFF7C3
:102DB000A7FC3220FEF73CF91D211220FFF7A0FCF2
:102DC0003220FEF735F94FF400611320FFF798FC2D
:102DD00014212920FFF794FC0B212B20FFF790FCF6
:102DE0003220FEF725F900212020FFF789FC002181
:102DF0002120FFF785FC07213020FFF781FC40F2FE
:102E000007713120FFF77CFC06213220FFF778FCA8
:102E100040F204713520FFF773FC41F6047136204F
:102E2000FFF76EFC04213720FFF76AFC00213820F1
:102E3000FFF766FC40F206713920FFF761FC40F2B3
:102E400001713C20FFF75CFC0F213D20FFF758FC8F
:102E500000215020FFF754FCEF215120FFF750FCD8
:102E600000215220FFF74CFC40F23F115320FFF7A6
:102E700047FC4FF41C516020FFF742FC0121612008
:102E8000FFF73EFC00216A20FFF73AFC002180207A
:102E9000FFF736FC00218120FFF732FC0021822061
:102EA000FFF72EFC00218320FFF72AFC002184205D
:102EB000FFF726FC00218520FFF722FC102190203F
:102EC000FFF71EFC00219220FFF71AFC032193203C
:102ED000FFF716FC4FF488719520FFF711FC0021D5
:102EE0009720FFF70DFC00219820FFF709FC41F225
:102EF00018010320FFF704FCBDE8104040F27311F5
:102F00000720FFF7FDBB7047FEF798B900B5A5B0E5
:102F100038216846FDF783F914211FA8FDF77FF9D2
:102F200044210EA8FDF77BF94FF40070FEF70EFA6E
:102F30000220C10103914021049100900790089064
:102F40001421CDE909010B900C900D906846FEF715
:102F5000C5FC0F201F90032020900020219022907C
:102F6000239003211FA8FEF793FB4FF400400E901F
:102F700080031D900EA8FEF747FA25B000BD0000A3
:102F80000548016841F47001016003494FF0006099
:102F9000803908607047000088ED00E02DE9F043BB
:102FA0000268234B234D244E244C4FF08049984215
:102FB00007D0484505D0A84203D0B04201D0A04276
:102FC00003D122F070074A683A431D4FDFF874C0FE
:102FD000DFF8748098420DD048450BD0A84209D044
:102FE000B04207D0A04205D0B84203D0604501D01E
:102FF000404503D122F44075CA682A434D6922F046
:1030000080022A4302608A68C2620A688262984229
:1030100007D0A04205D0B84203D0604501D040455A
:1030200001D10969016301214161BDE8F08300001C
:10303000002C014000040040000800400034014022
:1030400000400140004401400048014010B501F03B
:103050001F030121046A99408C430462016A9A406B
:103060001143016210BD00002DE9F043026A22F015
:1030700001020262056A436882691C4C25F0020560
:1030800022400C6822F0030214438A68194E2A4336
:10309000174D194FDFF864C0DFF86490A84207D0DD
:1030A000B04205D0B84203D0604501D0484506D1B2
:1030B00022F00808CA6842EA080222F00402A84284
:1030C00007D0B04205D0B84203D0604501D0484592
:1030D00005D14D6923F440731D438B692B43436035
:1030E0008461496841630262BDE8F0838FFFFEFF9F
:1030F000002C0140003401400040014000440140E8
:1031000000480140F0B5026A22F010020262056A2E
:1031100042688369194C1B4E23400C6823F44073AA
:1031200043EA042425F020038D6843EA0513144D77
:10313000A84201D0B04206D1CF6823F0800343EA11
:10314000071323F04003A8420AD0B04208D00E4D26
:10315000A84205D00D4DA84202D00D4DA84207D17E
:103160004D6922F4406242EA85028D6942EA850295
:1031700042608461496881630362F0BDFF8FFFFE96
:10318000002C014000340140004001400044014057
:1031900000480140F0B5026A22F480720262056ABA
:1031A0004368C269194C1B4E22400C6822F003028E
:1031B000144325F400728D6842EA0522144DA8429A
:1031C00001D0B04206D1CF6822F4006242EA072261
:1031D00022F48062A8420AD0B04208D00E4DA84224
:1031E00005D00E4DA84202D00D4DA84207D14D6921
:1031F00023F4405343EA05138D6943EA0513436002
:10320000C4614968C1630262F0BD00008FFFFEFF28
:10321000002C0140003401400040014000440140C6
:1032200000480140F0B5026A22F480520262056A49
:103230004268C369194C1B4E23400C6823F4407349
:1032400043EA042425F400538D6843EA0533144D02
:10325000A84201D0B04206D1CF6823F4004343EA2C
:10326000073323F48043A8420AD0B04208D00E4D61
:10327000A84205D00D4DA84202D00D4DA84207D15D
:103280004D6922F4404242EA85128D6942EA851274
:103290004260C461496801640362F0BDFF8FFFFEB4
:1032A000002C014000340140004001400044014036
:1032B0000048014030B5026A22F480320262046A9A
:1032C0004268036D114D2B400D681D4324F40033FB
:1032D0000C8943EA04430E4CA0420BD00D4CA04293
:1032E00008D00D4CA04205D00C4CA04202D00C4C92
:1032F000A04204D14C6922F4803242EA04224260A6
:10330000056549688164036230BD00008FFFFEFFE0
:10331000002C0140003401400040014000440140C5
:103320000048014030B5026A22F480120262046A49
:103330004268036D114D24F400142B400D6843EADC
:1033400005230D8944EA05540D4DA8420BD00D4DBF
:10335000A84208D00C4DA84205D00C4DA84202D07E
:103360000B4DA84204D14D6922F4802242EA852205
:10337000426003654968C164046230BDFF8FFFFE8F
:10338000002C014000340140004001400044014055
:1033900000480140FEE700000FB4084B10B504A937
:1033A00002AA039800F0EEF8044602A9002000F0FB
:1033B00080FC204610BC5DF814FB0000B33C000804
:1033C0000907090E002804DB00F1E02080F8001452
:1033D000704700F00F0000F1E02080F8141D7047E6
:1033E00002E008C8121F08C1002AFAD170477047CE
:1033F000002001E001C1121F002AFBD1704700002C
:103400002DE9FF5F82B00021DDE90430020DDDF817
:1034100040B0034318D044F61050A2F2FF324243AA
:103420001514119801281FD0A5EB0B00401C5FEA72
:10343000000A4FF000064E4FDFF83891B046504674
:1034400015D5CAF1000413E0119801244AA30128FC
:1034500001D16FEA0B010298119AC0E90031C0E96D
:10346000024206B0BDE8F09FCBF10000DFE7044662
:103470000021404A491842EB0450CDE9001012E007
:10348000E00707D032463B4640464946FCF779FF05
:103490008046894632463B4610461946FCF771FF86
:1034A00006460F466410002CEAD1DDE90401DDE98F
:1034B0000023BAF1000F06DAFCF763FF42464B46E1
:1034C000FCF75FFF05E0FCF7CEFF42464B46FCF7FA
:1034D000CAFF04460E460022284BFDF76DF803D8BC
:1034E0004FF0FF30014607E00022254B20463146D1
:1034F000FCF7A0FEFDF74DF9102409E0002C0ADBD3
:103500000A220023FDF786F8039B30321A55641E09
:1035100050EA0102F2D1641C039AC4F1110314446D
:10352000119A012A03D0012208430DD10AE0084371
:1035300004D000204FF0110B119072E7A3EB0B05A4
:103540006D1E0DE05B4504DD4FF0000205F1010545
:1035500004E003DA4FF00002A5F10105002AECD0E7
:1035600002981199C0E90231C0E9004579E70000ED
:10357000000014400000F03F300000000000F04365
:103580000000E03F2DE9FF4F95B09B468946064677
:1035900000250FE2252877D100242746F84A01218B
:1035A000059400E0044316F8013F203B01FA03F0C4
:1035B0001042F7D130782A2811D06FF02F033078DD
:1035C000A0F13002092A16D8059A44F0020402EB51
:1035D000820203EB42021044761C0590EFE759F893
:1035E000042B0592002A03DA504244F4005405905B
:1035F00044F00204761C30782E2816D116F8010FFC
:1036000044F004042A280DD06FF02F023078A0F186
:103610003003092B09D807EB870302EB4303C718D4
:10362000761CF3E759F8047B761C30786C280FD0B1
:1036300006DC4C2817D068280DD06A2814D104E085
:10364000742810D07A280FD10DE044F400140AE059
:1036500044F4801401E044F440147278824202D1B0
:1036600004F58014761C761C307866280BD013DCA9
:10367000582877D009DC002875D04528F6D0462890
:10368000F4D047281AD19DE118E0632835D064288A
:1036900079D0652812D195E1702873D008DC6728AD
:1036A000F1D069286FD06E280DD06F2806D1B5E013
:1036B00073282CD0752875D0782874D05A4617995D
:1036C00090476D1C75E1C4F30250022809D003280D
:1036D0000DD0D9F8001004280DD00D6009F10409AF
:1036E00067E1D9F80010EA17C1E90052F6E7D9F806
:1036F00000100D80F2E70D70F0E719F8041B8DF84B
:10370000001000208DF80100EA46012003E059F87E
:1037100004AB4FF0FF3061074FF0000102D40DE021
:1037200008F101018846B9420FDA8045F8DB1AF842
:1037300008100029F4D108E008F10101884681420F
:10374000FADB1AF808100029F6D105985B46A0EBC1
:10375000080721463846179A00F094FA284400EBEF
:10376000080507E04DE029E10DE01AF8010B5A4683
:1037700017999047B8F10108F7D25B4621463846C1
:10378000179A13E142E00A220092C4F302524FF06A
:10379000000A022A08D059F804CB032A4FEAEC7138
:1037A0000AD00DE029E02AE009F1070121F0070223
:1037B000F2E802C1914609E00FFA8CFC4FEAEC7185
:1037C000042A03D14FFA8CFC4FEAEC71002907DA86
:1037D0000A460021DCF1000C61EB02012D2202E01F
:1037E000220504D52B228DF80420012203E0E207F4
:1037F00001D02022F7E7904659E00A2102E010228A
:103800000DE010214FF0000A00910BE010224FF064
:10381000000A44F004040827009203E008224FF055
:10382000000A0092C4F30252022A05D059F804CBD0
:103830000021032A08D009E009F1070121F007025D
:10384000F2E802C1914605E01FFA8CFC042A01D17E
:103850000CF0FF0C4FF00008220728D5702806D086
:10386000009B83F0100353EA0A0305D00EE04022C8
:103870008DF80420012208E05CEA010206D0302223
:103880008DF804208DF8050002229046009B83F0FD
:10389000080353EA0A030AD15CEA010201D1620774
:1038A00005D530228DF804204FF001087F1E5828DE
:1038B00004D034A003900EA802900DE036A0F9E7E2
:1038C00053466046009AFCF7A5FE84460398825C46
:1038D0000298401E029002705CEA0100F0D102984A
:1038E00006A9081A00F1200A600702D524F48034E2
:1038F00000E00127574502DDA7EB0A0000E00020A9
:1039000000EB0A01009005984144401A0590E0033D
:1039100006D45B462146179A059800F0B3F9054492
:10392000002706E001A85A46C05D179990476D1C14
:103930007F1C4745F6DBE0030CD55B462146179A12
:10394000059800F09FF9054404E030205A46179985
:1039500090476D1C0099481E00900029F5DC08E096
:10396000029802995A460078491C0291179990478B
:103970006D1CBAF10001AAF1010AF1DC65E1000059
:103980000928010030313233343536373839616235
:1039900063646566000000003031323334353637F9
:1039A00038394142434445460000000000F058F9D0
:1039B0000544761C307800287FF4ECAD19B0284619
:1039C000BDE8F08F620700D4062709F1070222F054
:1039D000070CFCE80223E14603F000485FEA080C0C
:1039E00002D00FF2702C0DE05FEA045C02D50FF2FA
:1039F000682C07E05FEAC47C02D00FF2602C01E083
:103A0000AFF2700C4FF0FF3823F00043CDF850C0F8
:103A100065280CD006DC452809D046281DD047284B
:103A20003DD13DE0662818D067287ED138E00021DE
:103A3000112F01DB112000E0781CCDE9000106A95F
:103A40000EA8FFF7DDFCDDE90F010E9A03910021BE
:103A5000009207F1010A04914DE04FF000400097F9
:103A6000CDE9011006A90EA8FFF7CAFCDDE90F0297
:103A700003920E9B11990022DDF80CA00093049292
:103A800011B9791C00EB010AB7EB0A0004D4C0F1AC
:103A9000FF3007F1010A0490AAEB0700019044E00F
:103AA000012F00DA01270021112F01DD112000E094
:103AB0003846CDE9000106A90EA8FFF7A1FCDDE913
:103AC0000F010E9A0391002104910092BA4621073A
:103AD0000CD40399514500DA8A46BAF1010F05DD8D
:103AE000009AAAF10101515C302908D0B84202DAEB
:103AF00010F1040F06DA0121CDE9011015E0AAF159
:103B00000101E9E7002805DC049901440491AAEBCE
:103B1000000102E0411C514500DD8A460499401A2B
:103B2000401C01904FF000400290200704D40198FF
:103B3000504501DBCDF8048000208DF84F0002983D
:103B40000DF14F07B0F1004F25D02B200E900298B9
:103B50004FF0020800280CDA404202902D200E900F
:103B600007E00A210298FCF73FFD3031029007F888
:103B7000011DB8F10001A8F10108F2DC029800284B
:103B8000EFD1791E0E980870307800F0200040F0D8
:103B9000450007F8020D12A8C01B00F10708149891
:103BA000007800B1012000EB0A01019801EBE071FF
:103BB00005984144401A401E0590E00306D45B4638
:103BC0002146179A059800F05DF80544149800788E
:103BD00018B15A46179990476D1CE00324D55B46EF
:103BE0002146179A059800F04DF805441CE004980A
:103BF000002807DBDDE90301884203DD0098405C13
:103C0000179901E0179930205A469047049805F11A
:103C10000105401C04900198401E019004D12E2003
:103C20005A46179990476D1CBAF10001AAF1010A92
:103C3000DDDC05E017F8010B5A46179990476D1C1B
:103C4000B8F10001A8F10108F4DC5B462146179A9F
:103C50000598ABE62D0000002B00000020000000BE
:103C60002DE9F041044600251E461746880404D479
:103C700005E039462020B0476D1C641EF9D5284662
:103C8000BDE8F0812DE9F041044600251E4690462E
:103C9000C80301D5302700E02027880404D505E0BB
:103CA00041463846B0476D1C641EF9D52846BDE82C
:103CB000F0810A68531C0B6010707047FDF7C6FA5C
:103CC000FFF724F9FEF7FEFDFEF7BEFDFEF78AFEC4
:103CD000FEF7D8FEFEF79CFB00211048FEF7BAF96C
:103CE00000210F48FEF7B6F90020FEF7E9FA0020A0
:103CF000FEF790FC4FF6FF70FEF7A0FC0020FEF7E9
:103D000079FD00BFFEF712FAFEF70EFFFCF7A0FDEB
:103D1000FEF798FBFEF72AFDF4E70000B80000204C
:103D2000040100200000000000000000000000006E
:103D30000000000000000000000000000000000083
:103D40000000000000000000000000000000000073
:103D500000000000000080018001800180018001DE
:103D6000800180018001800180018001800180014B
:103D70000000000080018001000000000000000041
:103D80000000000000000000CC00CC00CC00CC0003
:103D9000CC00CC000000000000000000000000008B
:103DA0000000000000000000000000000000000013
:103DB0000000000000000000000000000000000003
:103DC000600C600C600C30063006FE1FFE1F3006D3
:103DD00038071803FE1FFE1F180318038C018C01FF
:103DE0008C01000000008000E003F80F9C0E8C1C8A
:103DF0008C188C009800F801E007800E801C8C184D
:103E00008C189C18B80CF00FE003800080000000B4
:103E1000000000000000000000000E181B0C110C38
:103E200011061106110311039B018E01C038C06CED
:103E300060446044304430441844186C0C3800002E
:103E4000000000000000E001F00338071806180623
:103E50003003F001F000F8009C310E33061E061C02
:103E6000061C063FFC73F02100000000000000006B
:103E700000000000000000000C000C000C000C0012
:103E80000C000C000000000000000000000000001A
:103E90000000000000000000000000000000000022
:103EA000000000000000000200038001C000C0000C
:103EB0006000600030003000300030003000300022
:103EC0003000300060006000C000C00080010003CE
:103ED00000020000000020006000C000800180019E
:103EE00000030003000600060006000600060006A8
:103EF000000600060003000380018001C00060008E
:103F00002000000000000000000000000000000091
:103F1000C000C000D806F807E001300338070000F1
:103F20000000000000000000000000000000000091
:103F30000000000000000000000000000000000081
:103F400080018001800180018001FC3FFC3F8001F5
:103F5000800180018001800100000000000000005D
:103F60000000000000000000000000000000000051
:103F70000000000000000000000000000000000041
:103F800000000000000080018001000100018000AD
:103F90000000000000000000000000000000000021
:103FA000000000000000000000000000E007E00743
:103FB0000000000000000000000000000000000001
:103FC00000000000000000000000000000000000F1
:103FD00000000000000000000000000000000000E1
:103FE000000000000000C000C00000000000000051
:103FF000000000000000000C000C00060006000697
:104000000003000300038003800180018001C000E1
:10401000C000C00060006000000000000000000060
:10402000000000000000E003F007380E180C0C1828
:104030000C180C180C180C180C180C180C180C1860
:10404000180C380EF007E00300000000000000002C
:1040500000000000000000018001C001F001980193
:104060008801800180018001800180018001800140
:10407000800180018001800100000000000000003C
:10408000000000000000E003F80F180C0C180C18DA
:1040900000180018000C000600038001C00060003A
:1040A00030001800FC1FFC1F000000000000000092
:1040B000000000000000E001F807180E0C0C0C0CCA
:1040C000000C0006C003C007000C001800180C18F4
:1040D0000C18180CF807E0030000000000000000B6
:1040E000000000000000000C000E000F000F800D0B
:1040F000C00C600C600C300C180C0C0CFC3FFC3F2E
:10410000000C000C000C000C00000000000000007F
:10411000000000000000F80FF80F180018000C0055
:10412000EC03FC071C0E001C0018001800180C18EB
:104130001C0C180EF807E00300000000000000004F
:10414000000000000000C007F00F381C181818000D
:104150000C00CC03EC0F3C0E1C1C0C180C180C189B
:10416000181C380EF007E0030000000000000000FB
:10417000000000000000FC1FFC1F000C00060006F1
:10418000000380038001C001C000E0006000600007
:10419000700030003000300000000000000000001F
:1041A000000000000000E003F007380E180C180CA7
:1041B000180C3806F007F007180C0C180C180C181F
:1041C0000C18380CF80FE00300000000000000009D
:1041D000000000000000E003F007380E1C0C0C1873
:1041E0000C180C181C1C381EF81BE0190018000CC9
:1041F000000C1C0EF807F001000000000000000099
:1042000000000000000000000000000000000000AE
:10421000800180010000000000000000000000009C
:10422000000000008001800100000000000000008C
:10423000000000000000000000000000000000007E
:10424000800180010000000000000000000000006C
:1042500000000000800180010001000180000000DA
:10426000000000000000000000000000000000004E
:10427000000000000010001C800FE003F800180090
:10428000F800E003800F001C001000000000000098
:10429000000000000000000000000000000000001E
:1042A00000000000F81F000000000000F81F0000E0
:1042B00000000000000000000000000000000000FE
:1042C00000000000000000000000000000000000EE
:1042D0000000000008003800F001C007001F0018AF
:1042E000001FC007F00138000800000000000000B7
:1042F000000000000000E003F80F180C0C180C1868
:104300000018000C000600038001C000C000C000BF
:1043100000000000C000C00000000000000000001D
:104320000000000000000000E00718180420C22967
:10433000224A114409440944094409221113E20C98
:10434000024004201818E0070000000000000000F0
:1043500000000000000080038003C006C006C00605
:10436000600C600C301830183018F83FF83F1C70A3
:104370000C600C6006C006C00000000000000000D9
:10438000000000000000FC03FC0F0C0C0C180C18C3
:104390000C180C0CFC07FC0F0C180C300C300C30FB
:1043A0000C300C18FC1FFC0700000000000000008F
:1043B000000000000000C007F01F38381C300C70EF
:1043C00006600600060006000600060006000660FD
:1043D0000C701C30F01FE00700000000000000001F
:1043E000000000000000FE03FE0F060E061806186F
:1043F0000630063006300630063006300630061825
:104400000618060EFE0FFE0300000000000000006C
:10441000000000000000FC3FFC3F0C000C000C0002
:104420000C000C00FC1FFC1F0C000C000C000C000E
:104430000C000C00FC3FFC3F0000000000000000EE
:10444000000000000000F83FF83F180018001800B6
:1044500018001800F81FF81F18001800180018009E
:1044600018001800180018000000000000000000EC
:10447000000000000000E00FF83F3C780E6006E00E
:1044800007C00300030003FE03FE03C007C006C00D
:104490000EC03CF0F83FE00F0000000000000000FC
:1044A0000000000000000C300C300C300C300C30E0
:1044B0000C300C30FC3FFC3F0C300C300C300C301E
:1044C0000C300C300C300C300000000000000000FC
:1044D0000000000000008001800180018001800157
:1044E00080018001800180018001800180018001C4
:1044F00080018001800180010000000000000000B8
:10450000000000000000000600060006000600068D
:104510000006000600060006000600060006180653
:1045200018063807F003E00100000000000000005A
:1045300000000000000006300618060C0606060300
:104540008601C60066007600DE008E0106030606C0
:10455000060C06180630066000000000000000008F
:1045600000000000000018001800180018001800D3
:10457000180018001800180018001800180018007B
:1045800018001800F81FF81F0000000000000000CD
:104590000000000000000EE01EF01EF01EF036D8F5
:1045A00036D836D836D866CC66CC66CCC6C6C6C633
:1045B000C6C6C6C686C386C3000000000000000051
:1045C0000000000000000C301C303C303C306C30EF
:1045D0006C30CC30CC308C310C330C330C360C3688
:1045E0000C3C0C3C0C380C300000000000000000BB
:1045F000000000000000E007F81F1C380E70066085
:1046000003C003C003C003C003C003C003C00660EF
:104610000E701C38F81FE0070000000000000000CA
:10462000000000000000FC0FFC1F0C380C300C30A8
:104630000C300C300C18FC1FFC070C000C000C009C
:104640000C000C000C000C0000000000000000003A
:10465000000000000000E007F81F1C380E70066024
:1046600003E003C003C003C003C003C007E0066348
:104670000E3F1C3CF83FE0F700C0000000000000C7
:10468000000000000000FE0FFE1F06380630063056
:1046900006300638FE1FFE0706030606060C06183F
:1046A000061806300630066000000000000000001A
:1046B000000000000000E003F80F1C0C0C180C18A0
:1046C0000C001C00F803E00F001E00380630063016
:1046D0000E301C1CF80FE007000000000000000076
:1046E000000000000000FE7FFE7F8001800180014D
:1046F00080018001800180018001800180018001B2
:1047000080018001800180010000000000000000A5
:104710000000000000000C300C300C300C300C306D
:104720000C300C300C300C300C300C300C300C30A9
:104730000C301818F81FE00700000000000000000F
:1047400000000000000003600630063006300C1840
:104750000C180C18180C180C380E300630067007A0
:1047600060036003C001C001000000000000000001
:104770000000000000000360C361C361C3616633D1
:10478000663366336633663366336C1B6C1B6C1B97
:104790002C1A3C1E380E380E0000000000000000ED
:1047A0000000000000000FE00C7018303018700C92
:1047B000600EC00780038003C003E006700C301C4D
:1047C00018180C300E6007E0000000000000000028
:1047D00000000000000003C006600C301C383818D0
:1047E000300C6006E007C003800180018001800179
:1047F00080018001800180010000000000000000B5
:10480000000000000000FC7FFC7F0060003000180A
:10481000000C000600038001C0006000300018009A
:104820000C000600FE7FFE7F00000000000000007C
:10483000000000000000E003E00360006000600092
:104840006000600060006000600060006000600068
:104850006000600060006000600060006000E003D5
:10486000E0030000000030003000600060006000E5
:10487000C000C000C000C0018001800180010003B1
:104880000003000300060006000000000000000016
:10489000000000000000E003E00300030003000349
:1048A00000030003000300030003000300030003F0
:1048B0000003000300030003000300030003E00300
:1048C000E003000000000000C001C00160036003BD
:1048D000600330063006180C180C000000000000C1
:1048E00000000000000000000000000000000000C8
:1048F00000000000000000000000000000000000B8
:1049000000000000000000000000000000000000A7
:10491000000000000000FFFFFFFF0000000000009B
:104920000000000000000C000C000C000C000C004B
:104930000C0000000000000000000000000000006B
:104940000000000000000000000000000000000067
:104950000000000000000000000000000000000057
:10496000F003F8071C0C0C0C000FF00FF80C0C0CEB
:104970000C0C1C0FF80FF0180000000000000000E5
:1049800000000000000018001800180018001800AF
:10499000D803F80F380C1818181818181818181801
:1049A0001818380CF80FD8030000000000000000B1
:1049B00000000000000000000000000000000000F7
:1049C000C003F007300E180C18001800180018006B
:1049D000180C300EF007C0030000000000000000BB
:1049E000000000000000001800180018001800184F
:1049F000C01BF01F301C1818181818181818181891
:104A00001818301CF01FC01B000000000000000040
:104A10000000000000000000000000000000000096
:104A2000C003F00F300C1818F81FF81F18001800FA
:104A30003818301CF00FC007000000000000000014
:104A4000000000000000800FC00FC000C000C000C8
:104A5000F007F007C000C000C000C000C000C000E8
:104A6000C000C000C000C000000000000000000046
:104A70000000000000000000000000000000000036
:104A8000E00DF80F180E0C0C0C0C0C0C0C0C0C0C94
:104A90000C0C180EF80FE00D000C0C0C1C06F8079F
:104AA000F00100000000180018001800180018009D
:104AB000D807F80F381C18181818181818181818CC
:104AC0001818181818181818000000000000000026
:104AD000000000000000C000C00000000000000056
:104AE000C000C000C000C000C000C000C000C000C6
:104AF000C000C000C000C0000000000000000000B6
:104B0000000000000000C000C00000000000000025
:104B1000C000C000C000C000C000C000C000C00095
:104B2000C000C000C000C000C000C000C000F8004D
:104B30007800000000000C000C000C000C000C00C1
:104B40000C0C0C060C038C01CC006C00FC009C01CE
:104B50008C030C030C060C0C00000000000000008D
:104B6000000000000000C000C000C000C000C00085
:104B7000C000C000C000C000C000C000C000C00035
:104B8000C000C000C000C000000000000000000025
:104B90000000000000000000000000000000000015
:104BA0007C3CFF7EC7E383C183C183C183C183C1D2
:104BB00083C183C183C183C10000000000000000E5
:104BC00000000000000000000000000000000000E5
:104BD0009807F80F381C18181818181818181818EB
:104BE0001818181818181818000000000000000005
:104BF00000000000000000000000000000000000B5
:104C0000C003F00F300C18181818181818181818B6
:104C10001818300CF00FC003000000000000000066
:104C20000000000000000000000000000000000084
:104C3000D803F80F380C181818181818181818185E
:104C40001818380CF80FD8031800180018001800AE
:104C5000180000000000000000000000000000003C
:104C6000C01BF01F301C181818181818181818181E
:104C70001818301CF01FC01B00180018001800186E
:104C8000001800000000000000000000000000000C
:104C9000B007F0037000300030003000300030000A
:104CA0003000300030003000000000000000000044
:104CB00000000000000000000000000000000000F4
:104CC000E003F003380E180C3800F003C007000CA6
:104CD000180C380EF007E003000000000000000090
:104CE00000000000000000008000C000C000C00004
:104CF000F007F007C000C000C000C000C000C00046
:104D0000C000C000C00780070000000000000000D5
:104D10000000000000000000000000000000000093
:104D20001818181818181818181818181818181803
:104D30001818381CF01FE0190000000000000000E7
:104D40000000000000000000000000000000000063
:104D50000C18180C180C180C3006300630066003BE
:104D600060036003C001C0010000000000000000FB
:104D70000000000000000000000000000000000033
:104D8000C141C141C36163636363636336363636D1
:104D900036361C1C1C1C1C1C0000000000000000FF
:104DA0000000000000000000000000000000000003
:104DB0001C38381C300C600660036003600360031D
:104DC0006006300C381C1C38000000000000000099
:104DD00000000000000000000000000000000000D3
:104DE0001830301830187018600C600CE00CC006D9
:104DF000C00680038003800380018001C001F000B1
:104E00007000000000000000000000000000000032
:104E1000FC1FFC1F000C000600038001C0006000A6
:104E200030001800FC1FFC1F000000000000000004
:104E300000000000000000038001C000C000C000AE
:104E4000C000C000C0006000600030006000400092
:104E5000C000C000C000C000C000C000800100034E
:104E600000000000000080018001800180018001BD
:104E7000800180018001800180018001800180012A
:104E8000800180018001800180018001800180011A
:104E90008001000000006000C000C00180018001AE
:104EA000800180018001000300030006000300016F
:104EB000800180018001800180018001C0006000CC
:104EC00000000000000000000000000000000000E2
:104ED00000000000F010F81F080F000000000000A4
:104EE00000000000000000000000000000000000C2
:104EF00000000000000000000000000001020304A8
:104F000006070809244F0008000000204C0000009C
:104F1000E0330008704F00084C000020040500003A
:104F2000F033000800000000000000000000000056
:104F3000000000009A9999999999E93F9A9999994D
:104F40009999B93F00000000000000000000000037
:104F5000000000000000FFFF000000000000000053
:104F60001000000001000000000000000024F40018
:04000005080001D915
:00000001FF
