:020000040800F2
:1000000008040020ED010008870700089902000895
:100010008507000895020008490900080000000053
:10002000000000000000000000000000650800085B
:100030009702000800000000890700086708000810
:10004000070200080702000807020008070200086C
:10005000070200080702000807020008070200085C
:10006000070200080702000807020008070200084C
:10007000070200080702000807020008070200083C
:10008000070200080000000007020008070200083D
:10009000070200080702000807020008070200081C
:1000A000070200080702000807020008070200080C
:1000B00007020008070200080702000807020008FC
:1000C00007020008070200080702000807020008EC
:1000D00007020008070200080702000807020008DC
:1000E00007020008070200080702000807020008CC
:1000F00007020008070200080702000800000000CD
:1001000000000000070200080000000007020008CD
:1001100007020008000000000702000807020008AC
:10012000070200080702000807020008070200088B
:10013000070200080000000000000000070200089D
:10014000070200080702000800000000000000008D
:10015000000000000000000000000000000000009F
:10016000000000000000000000000000070200087E
:10017000070200080000000000000000000000006E
:10018000000000000702000800000000000000005E
:10019000000000000000000000000000000000005F
:1001A000000000000000000007020008070200082D
:1001B000070200080702000807020008000000000C
:1001C000000000000702000800000000000000001E
:1001D0000702000807020008DFF80CD000F048F81A
:1001E00000480047E10C000808040020064880474A
:1001F00006480047FEE7FEE7FEE7FEE7FEE7FEE70C
:10020000FEE7FEE7FEE7FEE72D090008D90100083A
:10021000D2B201E000F8012B491EFBD27047002248
:10022000F6E710B513460A4604461946FFF7F0FFF5
:10023000204610BD421C10F8011B0029FBD1801A7A
:10024000704730B50B46014600202022012409E00A
:1002500021FA02F59D4205D303FA02F5491B04FA7F
:1002600002F52844151EA2F10102F1DC30BD0000A8
:10027000064C074D06E0E06840F0010394E80700F3
:1002800098471034AC42F6D3FFF7AAFFE40D0008FC
:10029000040E0008FEE77047FEE70000044908B5B9
:1002A000CA6C0243CA64C96C0140009108BD0000D9
:1002B00000100240044908B50A6E02430A66096E3E
:1002C0000140009108BD000000100240F0B50A682E
:1002D000032492FAA2F2B2FA82F30F257BE03246AF
:1002E00001269E40324075D0D1F804E0066892FAAB
:1002F000A2F7B7FA87F74FEA470C04FA0CF7BE43A8
:1003000092FAA2F7B7FA87F77F000EFA07FE46EADD
:100310000E0606604E68012E01D0022E15D1D1F8CE
:1003200008E0866892FAA2F7B7FA87F74FEA470C17
:1003300004FA0CF7BE4392FAA2F7B7FA87F77F00E8
:100340000EFA07FE46EA0E068660D1F810C0C668AF
:1003500092FAA2F7B7FA87F77F0004FA07FE92FA3B
:10036000A2F7B7FA87F77F0026EA0E060CFA07FC19
:1003700046EA0C06C6604E68022E2BD1FF2A14D81E
:100380004E69076A92FAA2FCBCFA8CFC4FEA8C0C0C
:1003900005FA0CFC92FAA2F2B2FA82F2920027EA73
:1003A0000C0796403743076214E04F69466A120A09
:1003B00092FAA2FCBCFA8CFC4FEA8C0C05FA0CFCFD
:1003C00092FAA2F2B2FA82F2920026EA0C06974062
:1003D0003E4346625B1C0A681646DA407FF47FAFF4
:1003E0004A68012A01D0022A07D1CB684168324607
:1003F000914306FB03F2114341600020F0BD4FF42E
:100400007A71B0FBF1F14FF0E020491E416100210B
:10041000816105210161704710B50024C02823D1F6
:100420001248D0F8880000F0C00040F44000403886
:10043000B0F540000AD040280CD080280FD000F042
:10044000D5F900F0A3F900F0B1F901E000F0CEF920
:10045000044609E000F068F830B1054C04E000F013
:100460006BF808B14FF40044204610BD0010024064
:100470000024F40070B5002429492A4D4FF40046A9
:10048000032804D00C281AD030282FD040E0D1F80F
:1004900088006FF4403100F0030040F44030401811
:1004A0000AD0012836D002282ED000F09FF900F0A3
:1004B0006DF900F08BF917E000F098F914E0D1F82D
:1004C000880000F00C0040F44020001FB0F54020F0
:1004D000F2D004281ED0082816D000BF00F086F9FC
:1004E00000F054F900F062F9044611E0D1F88800F8
:1004F00000F0300040F440101038B0F54010DBD070
:10050000102807D02028E9D100F016F800B13446B1
:10051000204670BD00F008F80028F9D02C46F7E717
:10052000001002400024F40002480068C0F380205C
:1005300070470000001002400248D0F89000C0F35D
:1005400040007047001002400149086070470000F9
:100550000000002010B50368002213F0010F02D044
:100560000122104610BD0B6863B1D1E90134234369
:10057000C968446824F4706421430B4343F4006168
:100580004160EEE7416821F40061F9E72DE9F041AF
:10059000044600680D46012610F0010F4CD1296970
:1005A000A868EA69084369691143084321682B4A2E
:1005B000114008432060E868616821F4405101431C
:1005C0006160A869A16821F440710143A1602448D9
:1005D000844201D1032008E02248844201D10C204A
:1005E00003E02148844203D13020FFF743FF05E0B8
:1005F0001E48844219D1C020FFF70EFFA8B16968D8
:1006000099B12A680026EB690B2A0ED8184FD2B28E
:10061000B3F5004F57F82220B0FBF2F00FD000EBFB
:100620005100B0FBF1F080B2E0602888E16A80B24E
:1006300021F00F010143E1623046BDE8F081400046
:1006400000EB5100B0FBF1F081B24FF6F07201EA1D
:100650000200C1F342010843E6E70000F369FFEF3F
:10066000003801400044004000480040004C004079
:100670009C0D000808B54FF0E0210A690092421C69
:1006800000D0401C0A69D20300D5401E0028F9D1D1
:1006900008BD0000F0B593B0202106A8FFF7BFFD0C
:1006A00000240E940F941094182168461194FFF7BB
:1006B000B6FD4FF48040FFF7FDFD0120FFF7EEFD92
:1006C0004FF4807000900225CDE901540726CDE952
:1006D00004464FF09047694638460394FFF7F6FD0D
:1006E00028020090CDE90154CDE904466946384618
:1006F0000394FFF7EBFD68020090CDE90154CDE9CA
:100700000446694638460394FFF7E0FD4FF416505F
:10071000CDE906400820CDE90A4008940003184DB1
:100720000D90099406A92846FFF730FFA86864F3E6
:100730005F70A860A86820F06060A8600F941094B3
:100740000EA928461194FFF705FF286820F00050F5
:100750002860686820F480406860A86820F02A005B
:10076000A860686840F400606860286840F0010094
:100770002860E869C0F340500028FAD013B0F0BDFB
:1007800000380140FEE7704770470000054989685E
:10079000054A01F0F0010909515C01F01F01C84050
:1007A0007047000000100240CC0D00080549896820
:1007B000054A01F4E06102EB1121097801F01F0103
:1007C000C840704700100240DC0D000805498968E8
:1007D000054A01F4605102EBD121097801F01F01B3
:1007E000C840704700100240DC0D000807488068D0
:1007F00000F00C010648042906D0082903D00C2972
:1008000002D100F009B80348704700000010024010
:100810000024F40000366E010F49C86800F003029E
:100820000E48022A02D0032A00D10D48CA68C2F33A
:1008300006224243C868C96800F0F003012000EBBB
:100840001313B2FBF3F201F0C06100EB5160400002
:10085000B2FBF0F070470000001002400024F400EA
:1008600000366E017047704770B52B48016821F063
:100870000F0141F00301016000682848016821F47C
:10088000C06141F400710160254C206840F4807023
:1008900020602068C0F380200028FAD0606820F033
:1008A000FE4040F080406060E16841F212401D4A25
:1008B00011400843E060E06840F08070E06020682C
:1008C00040F0807020602068C0F340600028FAD0BB
:1008D000A06840F00300A060A06800F00C000C28A5
:1008E000FAD1A06820F0F000A060A06820F4E060D9
:1008F000A060A06820F46050A0600B4D2846FFF770
:100900007EFD2846FFF720FED4F8880020F0030083
:10091000C4F8880070BD0000002002400070004054
:10092000001002400C80FFF900B4C40405480168BF
:1009300041F47001016003494FF0006080390860A4
:100940007047000088ED00E0FEE700000FB4084BA0
:1009500010B504A902AA039800F01CF8044602A9E5
:10096000002000F0B8F9204610BC5DF814FB000030
:10097000D70C000802E008C8121F08C1002AFAD1EB
:1009800070477047002001E001C1121F002AFBD10F
:10099000704700002DE9FF4F8BB0884605460026C2
:1009A00006E025280BD0DDE90D1290476D1C761C62
:1009B00028780028F5D10FB03046BDE8F08F00242C
:1009C000A146A2460122AE4900E0044315F8013FCA
:1009D000203B02FA03F00842F7D128782A2810D0E9
:1009E0006FF02F022878A0F13001092915D809EB02
:1009F000890102EB410144F0020400EB01096D1C86
:100A0000F0E758F8041B5FEA010903D544F40054E9
:100A1000C9F1000944F002046D1C28782E2817D172
:100A200015F8010F44F004042A280ED06FF02F02AD
:100A30002878A0F1300109290AD80AEB8A0102EBD3
:100A4000410100EB010A6D1CF2E758F804AB6D1C84
:100A500028786C280FD006DC4C2817D068280DD0D9
:100A60006A2814D104E0742810D07A280FD10DE040
:100A700044F400140AE044F4801401E044F4401407
:100A80006978814202D104F580146D1C6D1C2878B0
:100A9000692865D006DC00288DD0632827D064281B
:100AA00006D15DE06E2808D073282AD0752877D04B
:100AB000DDE90D129047761CE0E0C4F302500228F5
:100AC00009D003280DD0D8F8001004280DD00E60EE
:100AD00008F10408D2E0D8F80010F217C1E900626A
:100AE000F6E7D8F800100E80F2E70E70F0E718F87D
:100AF000041B8DF8001000208DF80100EB4601204A
:100B000003E058F804BB4FF0FF3061074FF00007D7
:100B100001D40AE07F1C57450DDA8742FADB1BF847
:100B200007100029F6D106E07F1C8742FCDB1BF88A
:100B300007100029F8D1DDE90D23A9EB0700814654
:100B4000214600F0B1F83044C61904E0DDE90D1289
:100B50001BF8010B90477F1EF8D22146484688E0DB
:100B600058F8040BC4F302514FF00A0B032900D1CB
:100B700000B2042900D140B2002802DA40422D21FF
:100B800002E0210505D52B218DF82410012104E078
:100B900006E0E10710D02021F6E708AF089113E046
:100BA00058F8040BC4F302514FF00A0B032900D18B
:100BB00080B2042900D1C0B20021EEE75946FFF708
:100BC00040FB303107F8011D0028F7D1ADEB0700DD
:100BD00000F1200B600702D524F4803401E04FF0CF
:100BE000010ADA4502DDAAEB0B0000E00020824694
:100BF00000EB0B0108980144A9EB01000A90E00307
:100C000006D4DDE90D2321460A9800F04DF806448C
:100C10004FF0000908E009A911F80900DDE90D12FB
:100C2000904709F10109761C08998945F3DBE00337
:100C30000CD5DDE90D2321460A9800F035F806446D
:100C400004E0DDE90D1230209047761CBAF1000176
:100C5000AAF1010AF5DC05E0DDE90D1217F8010B38
:100C60009047761CBBF10001ABF1010BF4DC0A9854
:100C70002146DDE90D2300F005F806446D1C97E6DA
:100C8000092801002DE9F041044600251E461746BB
:100C9000880404D405E039462020B0476D1C641E4A
:100CA000F9D52846BDE8F0812DE9F041044600253C
:100CB0001E469046C80301D5302700E0202788044F
:100CC00004D505E041463846B0476D1C641EF9D591
:100CD0002846BDE8F0810A68531C0B60107070470D
:100CE0008CB000250120FFF7E5FA2248816D41F024
:100CF00080518165806D204900F080500A9008681D
:100D00004FF6FF0210401D4A40F440701043086047
:100D10001B48816841F480418160FFF7A5FD2020D8
:100D2000FFF7BCFA0120FFF7B9FAFFF7B3FC154E45
:100D30006F464FF4FA7942F210782A4612A16846BB
:100D4000FFF704FE002407E0385DB062F069C0F3ED
:100D500080100028FAD0641C6846FFF76BFAA042A6
:100D6000F2D84846FFF786FC6D1C4545E5D10025C5
:100D7000E3E70000001002400CED00E00000FA057F
:100D80000070004000380140253034643A48656CFA
:100D90006C6F2C776F726C642E0D0A0001000000DE
:100DA000020000000400000006000000080000002F
:100DB0000A0000000C0000001000000020000000ED
:100DC0004000000080000000000100000000000062
:100DD00000000000010203040607080900000000EB
:100DE00001020304040E00080000002004000000BB
:100DF00074090008080E0008040000200404000024
:080E0000840900080024F4003D
:04000005080001D915
:00000001FF
