:020000040800F2
:1000000010040020ED010008DB0E0008AF07000817
:10001000D90E00088F070008DD120008000000005C
:10002000000000000000000000000000F3110008C4
:100030009107000800000000DD0E0008F51100081F
:10004000070200080702000807020008070200086C
:10005000070200080702000807020008070200085C
:10006000070200080702000807020008070200084C
:10007000070200080702000807020008070200083C
:10008000070200080000000007020008070200083D
:10009000070200080702000807020008070200081C
:1000A000070200080702000807020008070200080C
:1000B00007020008070200080702000807020008FC
:1000C00007020008070200080702000807020008EC
:1000D00007020008070200080702000807020008DC
:1000E00007020008070200080702000807020008CC
:1000F00007020008070200080702000800000000CD
:1001000000000000070200080000000007020008CD
:1001100007020008000000000702000807020008AC
:10012000070200080702000807020008070200088B
:10013000070200080000000000000000070200089D
:10014000070200080702000800000000000000008D
:10015000000000000000000000000000000000009F
:10016000000000000000000000000000070200087E
:10017000070200080000000000000000000000006E
:10018000000000000702000800000000000000005E
:10019000000000000000000000000000000000005F
:1001A000000000000000000007020008070200082D
:1001B000070200080702000807020008000000000C
:1001C000000000000702000800000000000000001E
:1001D0000702000807020008DFF80CD000F094FACC
:1001E00000480047091C000810040020064880470A
:1001F00006480047FEE7FEE7FEE7FEE7FEE7FEE70C
:10020000FEE7FEE7FEE7FEE7C1120008D90100089D
:10021000D2B201E000F8012B491EFBD27047002248
:10022000F6E710B513460A4604461946FFF7F0FFF5
:10023000204610BD2DE9FE4F81EA030404F000447E
:1002400021F0004100944FF0000B23F0004350EAEE
:1002500001045ED052EA03045BD0C3F30A54C1F335
:100260000A552C44A4F2F3340194A0FB0254C1F3C8
:10027000130141F48011C3F3130343F4801301FB12
:10028000024400FB034E840A970A44EA815447EA79
:100290008357A4FB076802958D0A05FB07854FEA83
:1002A000932C04FB0C542705029D4FEA065847EA9D
:1002B0001637B5EB08056EEB070C870E920E47EA72
:1002C000811742EA8312A7FB0201B6EB0B0164EB34
:1002D00000042B0D43EA0C335E1844EB1C50DA4645
:1002E0005146E7FB0201C5F313044FEA0B3343EA1F
:1002F00014534FEA0432019C43EA0603A4F10C04B0
:100300000294009CCDE900B400F069F803B0BDE8A8
:10031000F08F00200146F9E70EB540F2334102911B
:100320000021CDE900110A460B4600F058F803B051
:1003300000BD30B50B46014600202022012409E013
:1003400021FA02F59D4205D303FA02F5491B04FA8E
:1003500002F52844151EA2F10102F1DC30BD2DE9A1
:10036000F05F0546002092469B4688460646814639
:1003700040241BE0284641464746224600F0E5F966
:1003800053465A46C01A914110D311461846224688
:1003900000F0CCF92D1A67EB01084F4622460120E8
:1003A000002100F0C3F917EB00094E41201EA4F113
:1003B0000104DFDC484631462A464346BDE8F09F4B
:1003C00010B5141E73F1000408DA401C41F100015D
:1003D00092185B411A4301D120F0010010BD2DE9B4
:1003E000F04D92469B4611B1B1FA81F202E0B0FAAB
:1003F00080F22032904600F099F904460F4640EA18
:100400000A0041EA0B0153465A46084313D01146ED
:1004100053EA010019D0C8F14002504600F095F9A6
:1004200005460E4650465946424600F07FF90843BD
:1004300005D0012004E020463946BDE8F08D0020BB
:10044000054346EAE0762C4337430A986305E40AFD
:10045000A0EB08000022FD0A44EA47540A3002D506
:1004600000200146E9E7010510196941DDE9084569
:1004700000196941BDE8F04DA2E72DE9FE4F804625
:1004800081EA0300C00F0C46009021F0004123F0E8
:100490000045B8EB0200A94105D2404621469046EE
:1004A0001C460B46024623F00040104347D0270D60
:1004B000C7F30A00C3F30A510290401A0190402882
:1004C0006BDAC3F3130040F4801B0098924620B10E
:1004D0000023D2EB030A63EB0B0B01985946C0F1E2
:1004E0004002504600F022F906460D465046594655
:1004F000019A00F03AF910EB08006141002487EA04
:10050000115284EAE7731A4340D0009A62B3019A09
:10051000012A4FEA075215DC001B61EB02014FF084
:10052000004202EA0752CDE90042001C41F5801169
:1005300032462B46FFF753FF03B0BDE8F08F40462D
:100540002146F9E7001B61EB0201001C41F5801315
:1005500000185B412018A2F5001747EB030140EAA1
:10056000D570B6196D4111E06D084FEA360645EABF
:10057000C0754FEA0752001B61EB0201001C41F5F8
:10058000801149084FEA30000019514132462B468C
:1005900003B0BDE8F04FFFF713BF00980122400001
:1005A0000023D0EB020263EBE073009821464FEA90
:1005B000E074B8EB000061EB0401E9E783F000436D
:1005C0005BE781F0004158E72DE9F04D81EA030433
:1005D00004F0004B21F0004514464FF0000A23F0D0
:1005E000004150EA050220D054EA01021DD0C5F3B3
:1005F0000A570246C5F31303C1F31300C1F30A56A9
:1006000040F4801543F48013A7EB0608101BD64670
:1006100008F2FD3873EB050002D308F1010801E090
:1006200092185B41B8F1000F03DA00200146BDE8E3
:10063000F08D00204FF48011064684460EE0171B13
:1006400073EB050705D3121B63EB050306434CEA66
:10065000010C49084FEA300092185B4150EA01074B
:10066000EDD152EA030012D082EA040083EA0501C8
:10067000084305D0101BAB4106D20122002306E03F
:1006800000224FF0004302E06FF0010253101AEB1A
:1006900006004CEB085110EB0A0041EB0B01BDE8E2
:1006A000F04DFFF78DBEC1F30A52C1F3130140F2C2
:1006B000FF3341F480119A4202DA0020014670476C
:1006C00040F233439A42A2F2334202DC524200F03B
:1006D0003CB800F02BB8000030B5041E71F10004E6
:1006E00004DB4FF00044404264EB0101141E73F13F
:1006F000000405DB1C464FF00043524263EB040349
:10070000994208BF904230BD064C074D06E0E068B4
:1007100040F0010394E8070098471034AC42F6D348
:10072000FFF75EFD6C2F00088C2F0008202A04DBE9
:10073000203A00FA02F1002070479140C2F12003F4
:1007400020FA03F3194390407047202A04DB203A33
:1007500021FA02F00021704721FA02F3D040C2F1E1
:1007600020029140084319467047202A06DBCB1728
:10077000203A41FA02F043EAE07306E041FA02F35C
:10078000D040C2F120029140084319467047FEE76D
:100790007047002240F6B83306E00021491C89B2B8
:1007A0009942FBD3521C92B28242F6D37047FEE7C5
:1007B00000B587B018216846FFF731FD4FF6FF708E
:1007C000009000200321CDE9010104906946024810
:1007D00000F03AFA07B000BD0008004800B587B045
:1007E00018216846FFF71BFD4FF6FF7000900120AF
:1007F0000190032002900020039004906946024873
:1008000000F022FA07B000BD0008004870B50024CF
:1008100006462146204600F0F3F800F031F94FF487
:100820009635304600F000F9641CAC42F9D370BD37
:1008300030B587B018216846FFF7F1FC012000F0C1
:10084000F7F9022000F0F4F9042000F0F1F94FF478
:100850004870009001250024CDE9015403946946B5
:100860000E48049400F0F0F928020090CDE90154FC
:10087000039404944FF090446946204600F0E4F954
:10088000FFF7ACFFA06940F48070A0610348183006
:10089000016841F40871016007B030BD00040048F0
:1008A000203AD2B2034B02EB420203EB021200F0F9
:1008B00019B800009C1D0008F0B50E46074600253B
:1008C00040F23F1407E021463846FFF7E9FF103CAD
:1008D0006D1CA4B2761C3278002A01D0142DF2D3FC
:1008E000F0BD00002DE9F04791468A4600260446F7
:1008F00000F086F8DFF84080012700BF00F0C0F864
:100900005FF0000539F8160007FA05F10842404685
:1009100001D1408800E0008800F086F86D1C102DA1
:10092000F0D3641CE4B25146204600F069F8761C0E
:10093000182EE3D3BDE8F0870000002010B5FFF7C4
:1009400077FF002000F014F8084CA080A088A0F5E4
:100950000241303906D000F04BFB002000F008F8CF
:10096000A08010BD00F0BBFAF7E7000000000020F7
:1009700070B51D490A6842F400720A600A6842F4C0
:1009800080720A60184C103C226842F020022260FB
:10099000164A1060086840F02000086000BF00BFE1
:1009A00000BF206840F020002060206840F4807084
:1009B0002060FFF7FDFE4FF09041886A40F48070A0
:1009C000886200BF00BF00BF0848001F006885B2F2
:1009D000886940F480708861FFF700FF206840F468
:1009E00000702060284670BD2804004814080048A4
:1009F00001B5BDF800000149488008BD0000002095
:100A000010B50C460146202000F068F82146BDE8EC
:100A10001040212000F062B801B5BDF80000014986
:100A2000088008BD00000020134A116841F40071DD
:100A30001160114910390B6843F480730B600B6827
:100A400043F020030B600D4B1860106840F020004D
:100A5000106000BF00BF00BF086840F020000860C1
:100A6000086840F48070086000BF00BF00BF0868DD
:100A700040F40070086070472804004814080048DB
:100A80001449086840F400700860086840F48070F9
:100A9000086010481038026842F0200202600E4BD5
:100AA00022221A600A6842F020020A6000BF00BFDA
:100AB00000BF016841F020010160016841F48071CC
:100AC000016000BF00BF00BF016841F40071016018
:100AD000704700002804004814080048184B10B55F
:100AE0001A6842F400721A601A6842F480721A603E
:100AF000134A103A146844F020041460114C20602A
:100B0000186840F02000186000BF00BF00BF1068E8
:100B100040F020001060106840F480701060216088
:100B2000186840F02000186000BF00BF00BF1068C8
:100B300040F020001060106840F48070106010BD1C
:100B4000280400481408004830B54FF0A0444B6812
:100B5000A46800220E4D04F00104AD6805F0010503
:100B60002C4302D00122104630BD0A4D53B10C680F
:100B70001C43D1E902310B4381681C4329400C43DB
:100B80008460F0E7836809682B400B438360EAE7E1
:100B900000010050E030C0FF30B58368002213F040
:100BA000010F02D00122104630BDD1E900342343A9
:100BB0008968C4684CF21805AC4321430B43C360F9
:100BC000F1E7000070B54C688368002213F0010F54
:100BD00002D00122104670BD002C0E4B0C6807D0CD
:100BE0008D682C43D1E9035635432C434D6904E00D
:100BF000CD682C43D1E9045635432C43C5681D40CC
:100C00002C43C4604968036B23F00F030B43036359
:100C1000E0E700001CC0F0FF044908B5CA6C0243BD
:100C2000CA64C96C0140009108BD00000010024078
:100C3000044908B5CA6C0243CA64C96C01400091FA
:100C400008BD000000100240F0B50A68032492FAC3
:100C5000A2F2B2FA82F30F257BE0324601269E40D3
:100C6000324075D0D1F804E0066892FAA2F7B7FADC
:100C700087F74FEA470C04FA0CF7BE4392FAA2F743
:100C8000B7FA87F77F000EFA07FE46EA0E060660FF
:100C90004E68012E01D0022E15D1D1F808E08668E9
:100CA00092FAA2F7B7FA87F74FEA470C04FA0CF763
:100CB000BE4392FAA2F7B7FA87F77F000EFA07FE53
:100CC00046EA0E068660D1F810C0C66892FAA2F70E
:100CD000B7FA87F77F0004FA07FE92FAA2F7B7FA8D
:100CE00087F77F0026EA0E060CFA07FC46EA0C0698
:100CF000C6604E68022E2BD1FF2A14D84E69076AAF
:100D000092FAA2FCBCFA8CFC4FEA8C0C05FA0CFCA3
:100D100092FAA2F2B2FA82F2920027EA0C07964007
:100D20003743076214E04F69466A120A92FAA2FC3E
:100D3000BCFA8CFC4FEA8C0C05FA0CFC92FAA2F27D
:100D4000B2FA82F2920026EA0C0697403E434662CF
:100D50005B1C0A681646DA407FF47FAF4A68012AB6
:100D600001D0022A07D1CB6841683246914306FB85
:100D700003F2114341600020F0BD4FF47A71B0FBE3
:100D8000F1F14FF0E020491E416100218161052110
:100D900001617047014908607047000008000020A9
:100DA00008B54FF0E0210A690092421C00D0401CB7
:100DB0000A69D20300D5401E0028F9D108BD000001
:100DC00070B594B000250C950D95182168460E95C8
:100DD000FFF725FA0F9510951195182106A8129581
:100DE000FFF71DFA4FF400563046FFF715FF0220BB
:100DF000FFF712FFB00006900320079006A90A959E
:100E00002F48FFF721FF2F4C0C950D950CA920467C
:100E10000E95FFF7C1FE00952001CDE90450CDE904
:100E20000256019569462046FFF7CCFED4F8C00073
:100E30006FF30D00C4F8C000206920F480302061F9
:100E4000206940F2034188432061A0681E490840A0
:100E5000A060A0681D4E304040F08050A0600FA9F7
:100E60001B480F95FFF770FE606820F0040060607B
:100E7000606820F00800606012483030016821F49A
:100E8000F86141F4707101600E481830016841F456
:100E900060310160D4F8B00020F40040C4F8B00024
:100EA000A0680C49084040F00040A060A068C00F56
:100EB000FCD1A0683040401CA06014B070BD0000A0
:100EC0000004004800010050C0FFFF5FC0FFFF7F2B
:100ED00000030050C0FFFF3FFEE77047704730B58A
:100EE00001210020FFF7FAFD4FF47A70FFF751FC63
:100EF00000210120FFF7F2FD41F290711020FFF771
:100F0000EDFD4FF41C516020FFF7E8FD0121612049
:100F1000FFF7E4FD02214620FFF7E0FD48F2100153
:100F20001320FFF7DBFD48F2FE011220FFF7D6FD8C
:100F30004FF4A0610220FFF7D1FD41F23001032000
:100F4000FFF7CCFD40F2033421463020FFF7C6FD09
:100F500021463120FFF7C2FD21463220FFF7BEFDBA
:100F6000E51E29463320FFF7B9FD03213420FFF7A2
:100F7000B5FD21463520FFF7B1FD14213620FFF7DE
:100F8000ADFD21463720FFF7A9FD21463820FFF7A8
:100F9000A5FD21463920FFF7A1FD29463A20FFF79C
:100FA0009DFD03213B20FFF799FD21463C20FFF7E3
:100FB00095FD4FF4A0513D20FFF790FD4FF40071D7
:100FC0009220FFF78BFD21469320FFF787FD40F627
:100FD0000D019020FFF782FD41F218010320FFF779
:100FE0007DFDBDE8304040F273110720FFF776BD6C
:100FF00010B543F20801E320FFF770FD1221E7204E
:10100000FFF76CFD41F23121EF20FFF767FD002172
:101010000120FFF763FD4FF4E0610220FFF75EFD62
:1010200041F230010320FFF759FD00210420FFF7B2
:1010300055FD40F207210820FFF750FD002109204F
:10104000FFF74CFD00210A20FFF748FD00210C208E
:10105000FFF744FD00210D20FFF740FD00210F2088
:10106000FFF73CFD00211020FFF738FD072111207C
:10107000FFF734FD00211220FFF730FD002113207F
:10108000FFF72CFDC820FFF78BFE41F29061102086
:10109000FFF724FD40F227211120FFF71FFD32202A
:1010A000FFF77EFE1D211220FFF718FD3220FFF70B
:1010B00077FE4FF400611320FFF710FD1421292063
:1010C000FFF70CFD0B212B20FFF708FD3220FFF767
:1010D00067FE00212020FFF701FD00212120FFF7FE
:1010E000FDFC07213020FFF7F9FC40F207713120A9
:1010F000FFF7F4FC06213220FFF7F0FC40F2047108
:101100003520FFF7EBFC41F604713620FFF7E6FCD3
:1011100004213720FFF7E2FC00213820FFF7DEFC36
:1011200040F206713920FFF7D9FC40F201713C20F2
:10113000FFF7D4FC0F213D20FFF7D0FC0021502009
:10114000FFF7CCFCEF215120FFF7C8FC0021522013
:10115000FFF7C4FC40F23F115320FFF7BFFC4FF4F0
:101160001C516020FFF7BAFC01216120FFF7B6FC9B
:1011700000216A20FFF7B2FC00218020FFF7AEFCBF
:1011800000218120FFF7AAFC00218220FFF7A6FCA6
:1011900000218320FFF7A2FC00218420FFF79EFCA2
:1011A00000218520FFF79AFC10219020FFF796FC84
:1011B00000219220FFF792FC03219320FFF78EFC81
:1011C0004FF488719520FFF789FC00219720FFF7E5
:1011D00085FC00219820FFF781FC41F218010320D3
:1011E000FFF77CFCBDE8104040F273110720FFF7C9
:1011F00075BC70477047000070B52C48016821F03D
:101200000F0141F00301016000682948016821F4E1
:10121000C06141F400710160264C206840F4807088
:1012200020602068C0F380200028FAD0606820F099
:10123000FE4040F080406060E16841F212401E4A8A
:1012400011400843E060E06840F08070E060206892
:1012500040F0807020602068C0F340600028FAD021
:10126000A06840F00300A060A06800F00C000C280B
:10127000FAD1A06820F0F000A060A06820F4E0603F
:10128000A060A06820F46050A0600C4D2846FFF7D5
:1012900074FD2846FFF77EFDD4F8880020F040500A
:1012A00040F00050C4F8880070BD000000200240EB
:1012B00000700040001002400C80FFF900B4C4042C
:1012C0000548016841F47001016003494FF0006076
:1012D000803908607047000088ED00E0FEE70000FC
:1012E0000FB4084B10B504A902AA039800F0DEF869
:1012F000044602A9002000F070FC204610BC5DF8F6
:1013000014FB0000DB1B000802E008C8121F08C124
:10131000002AFAD170477047002001E001C1121F76
:10132000002AFBD1704700002DE9FF5F82B0002149
:10133000DDE90430020DDDF840B0034318D044F677
:101340001050A2F2FF3242431514119801281FD009
:10135000A5EB0B00401C5FEA000A4FF000064E4F61
:10136000DFF83891B046504615D5CAF1000413E0B5
:10137000119801244AA3012801D16FEA0B010298B8
:10138000119AC0E90031C0E9024206B0BDE8F09F01
:10139000CBF10000DFE704460021404A491842EB48
:1013A0000450CDE9001012E0E00707D032463B467A
:1013B00040464946FEF73EFF8046894632463B4658
:1013C00010461946FEF736FF06460F466410002CFD
:1013D000EAD1DDE90401DDE90023BAF1000F06DA04
:1013E000FEF728FF42464B46FEF724FF05E0FFF7D5
:1013F000EBF842464B46FFF7E7F804460E4600225C
:10140000284BFFF769F903D84FF0FF30014607E09A
:101410000022254B20463146FFF72FF8FFF743F90E
:10142000102409E0002C0ADB0A220023FEF797FFB4
:10143000039B30321A55641E50EA0102F2D1641C3B
:10144000039AC4F111031444119A012A03D0012212
:1014500008430DD10AE0084304D000204FF0110BDF
:10146000119072E7A3EB0B056D1E0DE05B4504DDEB
:101470004FF0000205F1010504E003DA4FF000022D
:10148000A5F10105002AECD002981199C0E90231BA
:10149000C0E9004579E70000000014400000F03F7B
:1014A000300000000000F0430000E03F2DE9FF4F56
:1014B00095B09B468946064600250FE2252877D140
:1014C00000242746F84A0121059400E0044316F859
:1014D000013F203B01FA03F01042F7D130782A286F
:1014E00011D06FF02F033078A0F13002092A16D8FE
:1014F000059A44F0020402EB820203EB420210441C
:10150000761C0590EFE759F8042B0592002A03DAC0
:10151000504244F40054059044F00204761C3078A4
:101520002E2816D116F8010F44F004042A280DD0F5
:101530006FF02F023078A0F13003092B09D807EBA8
:10154000870302EB4303C718761CF3E759F8047BC3
:10155000761C30786C280FD006DC4C2817D0682811
:101560000DD06A2814D104E0742810D07A280FD145
:101570000DE044F400140AE044F4801401E044F463
:1015800040147278824202D104F58014761C761CD5
:10159000307866280BD013DC582877D009DC002877
:1015A00075D04528F6D04628F4D047281AD19DE1B9
:1015B00018E0632835D0642879D0652812D195E1E8
:1015C000702873D008DC6728F1D069286FD06E28A6
:1015D0000DD06F2806D1B5E073282CD0752875D0B2
:1015E000782874D05A46179990476D1C75E1C4F35A
:1015F0000250022809D003280DD0D9F80010042881
:101600000DD00D6009F1040967E1D9F80010EA175F
:10161000C1E90052F6E7D9F800100D80F2E70D702D
:10162000F0E719F8041B8DF8001000208DF8010078
:10163000EA46012003E059F804AB4FF0FF306107A0
:101640004FF0000102D40DE008F101018846B942D3
:101650000FDA8045F8DB1AF808100029F4D108E009
:1016600008F1010188468142FADB1AF808100029C6
:10167000F6D105985B46A0EB080721463846179A35
:1016800000F094FA284400EB080507E04DE029E15A
:101690000DE01AF8010B5A4617999047B8F1010866
:1016A000F7D25B4621463846179A13E142E00A22F8
:1016B0000092C4F302524FF0000A022A08D059F8EF
:1016C00004CB032A4FEAEC710AD00DE029E02AE0AE
:1016D00009F1070121F00702F2E802C1914609E091
:1016E0000FFA8CFC4FEAEC71042A03D14FFA8CFC00
:1016F0004FEAEC71002907DA0A460021DCF1000C00
:1017000061EB02012D2202E0220504D52B228DF887
:101710000420012203E0E20701D02022F7E79046EF
:1017200059E00A2102E010220DE010214FF0000ADA
:1017300000910BE010224FF0000A44F00404082747
:10174000009203E008224FF0000A0092C4F3025214
:10175000022A05D059F804CB0021032A08D009E059
:1017600009F1070121F00702F2E802C1914605E004
:101770001FFA8CFC042A01D10CF0FF0C4FF000087A
:10178000220728D5702806D0009B83F0100353EA67
:101790000A0305D00EE040228DF80420012208E063
:1017A0005CEA010206D030228DF804208DF8050095
:1017B00002229046009B83F0080353EA0A030AD1F1
:1017C0005CEA010201D1620705D530228DF80420C0
:1017D0004FF001087F1E582804D034A003900EA8B3
:1017E00002900DE036A0F9E753466046009AFEF7F6
:1017F000B6FD84460398825C0298401E02900270F7
:101800005CEA0100F0D1029806A9081A00F1200A4A
:10181000600702D524F4803400E00127574502DD3B
:10182000A7EB0A0000E0002000EB0A0100900598F9
:101830004144401A0590E00306D45B462146179ABE
:10184000059800F0B3F90544002706E001A85A46C0
:10185000C05D179990476D1C7F1C4745F6DBE00380
:101860000CD55B462146179A059800F09FF9054470
:1018700004E030205A46179990476D1C0099481E85
:1018800000900029F5DC08E0029802995A46007899
:10189000491C0291179990476D1CBAF10001AAF1F9
:1018A000010AF1DC65E10000092801003031323322
:1018B000343536373839616263646566000000008C
:1018C0003031323334353637383941424344454676
:1018D0000000000000F058F90544761C307800281C
:1018E0007FF4ECAD19B02846BDE8F08F620700D454
:1018F000062709F1070222F0070CFCE80223E14663
:1019000003F000485FEA080C02D00FF2702C0DE0E3
:101910005FEA045C02D50FF2682C07E05FEAC47C42
:1019200002D00FF2602C01E0AFF2700C4FF0FF38E4
:1019300023F00043CDF850C065280CD006DC4528C4
:1019400009D046281DD047283DD13DE0662818D053
:1019500067287ED138E00021112F01DB112000E043
:10196000781CCDE9000106A90EA8FFF7DDFCDDE932
:101970000F010E9A03910021009207F1010A0491D0
:101980004DE04FF000400097CDE9011006A90EA8E8
:10199000FFF7CAFCDDE90F0203920E9B11990022AA
:1019A000DDF80CA00093049211B9791C00EB010A38
:1019B000B7EB0A0004D4C0F1FF3007F1010A04902C
:1019C000AAEB0700019044E0012F00DA0127002173
:1019D000112F01DD112000E03846CDE9000106A9F4
:1019E0000EA8FFF7A1FCDDE90F010E9A039100217B
:1019F00004910092BA4621070CD40399514500DAAC
:101A00008A46BAF1010F05DD009AAAF10101515C85
:101A1000302908D0B84202DA10F1040F06DA0121A9
:101A2000CDE9011015E0AAF10101E9E7002805DC84
:101A3000049901440491AAEB000102E0411C5145C4
:101A400000DD8A460499401A401C01904FF0004086
:101A50000290200704D40198504501DBCDF80480A2
:101A600000208DF84F0002980DF14F07B0F1004FA4
:101A700025D02B200E9002984FF0020800280CDA97
:101A8000404202902D200E9007E00A210298FEF7B6
:101A900050FC3031029007F8011DB8F10001A8F1A7
:101AA0000108F2DC02980028EFD1791E0E98087028
:101AB000307800F0200040F0450007F8020D12A831
:101AC000C01B00F107081498007800B1012000EB5A
:101AD0000A01019801EBE07105984144401A401E4B
:101AE0000590E00306D45B462146179A059800F05E
:101AF0005DF805441498007818B15A461799904734
:101B00006D1CE00324D55B462146179A059800F02A
:101B10004DF805441CE00498002807DBDDE90301CB
:101B2000884203DD0098405C179901E01799302046
:101B30005A469047049805F10105401C049001980D
:101B4000401E019004D12E205A46179990476D1CD3
:101B5000BAF10001AAF1010ADDDC05E017F8010B7A
:101B60005A46179990476D1CB8F10001A8F1010879
:101B7000F4DC5B462146179A0598ABE62D00000081
:101B80002B000000200000002DE9F0410446002554
:101B90001E461746880404D405E039462020B04785
:101BA0006D1C641EF9D52846BDE8F0812DE9F04191
:101BB000044600251E469046C80301D5302700E0A4
:101BC0002027880404D505E041463846B0476D1CFF
:101BD000641EF9D52846BDE8F0810A68531C0B60E5
:101BE0001070704706488168064A1140091D8160DF
:101BF0000168C1F380010029FAD0006C80B27047FF
:101C000000010050C0FFFF7F2DED048B454886B0DA
:101C1000016E41F001010166016E01F001010591C3
:101C2000816D41F080518165806D3F4900F08050A9
:101C3000059008684FF6FF0210403C4A40F440709F
:101C4000104308603A48816841F480418160FFF7A1
:101C5000D3FA2020FEF7E0FF0220FEF7DDFFFFF7BA
:101C6000AFF8FEF76BFE1F20FEF7D0FD1F20FEF73A
:101C7000BFFE4FF6FF742046FEF7CEFE2DA10020DA
:101C8000FEF71AFE2BA11820FEF716FE2FA130201A
:101C9000FEF712FE27A14820FEF70EFE25A16020C8
:101CA000FEF70AFE2046FEF7A3FE1F20FEF7B4FE55
:101CB00020A17820FEF700FE2AA19020FEF7FCFD6F
:101CC0001CA1A820FEF7F8FD1AA1C020FEF7F4FD24
:101CD00018A1D820FEF7F0FD9FED288B9FED299BE2
:101CE0004FF478442046FEF797FEFFF77BFFFEF7A0
:101CF00013FB53EC182BFEF79DFA53EC192BFEF750
:101D000099FA41EC100B21A153EC102B6846FFF718
:101D1000E7FA6420FFF744F86946C020FEF7CCFDDF
:101D2000E0E70000001002400CED00E00000FA05C2
:101D30000070004020202020202020202020202073
:101D40002020202020202020000000002020202013
:101D500020204144432054657374202020202020FB
:101D60000000000020202020202041444332204356
:101D7000483135202020202000000000666666667D
:101D800066660A40000000000000303F202020204E
:101D9000202056414C3A252E3266560000000000A5
:101DA0000000000000000000000000000000000033
:101DB0000000000000000000000000000000000023
:101DC0000000000000000000000000000000800192
:101DD00080018001800180018001800180018001FB
:101DE00080018001800180010000000080018001ED
:101DF00000000000000000000000000000000000E3
:101E0000CC00CC00CC00CC00CC00CC00000000000A
:101E100000000000000000000000000000000000C2
:101E200000000000000000000000000000000000B2
:101E30000000000000000000600C600C600C300628
:101E40003006FE1FFE1F300638071803FE1FFE1F58
:101E5000180318038C018C018C0100000000800025
:101E6000E003F80F9C0E8C1C8C188C009800F80175
:101E7000E007800E801C8C188C189C18B80CF00F92
:101E8000E00380008000000000000000000000006F
:101E900000000E181B0C110C110611061103110382
:101EA0009B018E01C038C06C6044604430443044B3
:101EB0001844186C0C380000000000000000E0011D
:101EC000F0033807180618063003F001F000F80098
:101ED0009C310E33061E061C061C063FFC73F021C7
:101EE00000000000000000000000000000000000F2
:101EF0000C000C000C000C000C000C00000000009A
:101F000000000000000000000000000000000000D1
:101F100000000000000000000000000000000002BF
:101F200000038001C000C00060006000300030008D
:101F300030003000300030003000300060006000C1
:101F4000C000C0008001000300020000000020006B
:101F50006000C0008001800100030003000600064D
:101F60000006000600060006000600060003000347
:101F700080018001C000600020000000000000001F
:101F80000000000000000000C000C000D806F807F4
:101F9000E0013003380700000000000000000000EE
:101FA0000000000000000000000000000000000031
:101FB000000000000000000080018001800180011D
:101FC0008001FC3FFC3F8001800180018001800195
:101FD0000000000000000000000000000000000001
:101FE00000000000000000000000000000000000F1
:101FF0000000000000000000000000000000800160
:1020000080010001000180000000000000000000CD
:1020100000000000000000000000000000000000C0
:1020200000000000E007E0070000000000000000E2
:1020300000000000000000000000000000000000A0
:102040000000000000000000000000000000000090
:102050000000000000000000000000000000C000C0
:10206000C000000000000000000000000000000CA4
:10207000000C0006000600060003000300038003B6
:10208000800180018001C000C000C00060006000CD
:102090000000000000000000000000000000E0035D
:1020A000F007380E180C0C180C180C180C180C181B
:1020B0000C180C180C180C18180C380EF007E0034C
:1020C000000000000000000000000000000000010F
:1020D0008001C001F0019801880180018001800128
:1020E00080018001800180018001800180018001E8
:1020F0000000000000000000000000000000E003FD
:10210000F80F180C0C180C1800180018000C00061A
:1021100000038001C000600030001800FC1FFC1F9D
:102120000000000000000000000000000000E001CE
:10213000F807180E0C0C0C0C000C0006C003C007AE
:10214000000C001800180C180C18180CF807E00305
:102150000000000000000000000000000000000C73
:10216000000E000F000F800DC00C600C600C300CD6
:10217000180C0C0CFC3FFC3F000C000C000C000C7D
:102180000000000000000000000000000000F80F48
:10219000F80F180018000C00EC03FC071C0E001CC4
:1021A0000018001800180C181C0C180EF807E00393
:1021B0000000000000000000000000000000C00758
:1021C000F00F381C181818000C00CC03EC0F3C0E54
:1021D0001C1C0C180C180C18181C380EF007E00307
:1021E0000000000000000000000000000000FC1FD4
:1021F000FC1F000C00060006000380038001C001E4
:10220000C000E0006000600070003000300030006E
:102210000000000000000000000000000000E003DB
:10222000F007380E180C180C180C3806F007F007D9
:10223000180C0C180C180C180C18380CF80FE003BC
:102240000000000000000000000000000000E003AB
:10225000F007380E1C0C0C180C180C181C1C381E1F
:10226000F81BE0190018000C000C1C0EF807F00118
:10227000000000000000000000000000000000005E
:10228000000000000000000080018001000000004C
:10229000000000000000000000000000800180013C
:1022A000000000000000000000000000000000002E
:1022B000000000000000000080018001000000001C
:1022C000000000000000000000000000800180010C
:1022D000000100018000000000000000000000007C
:1022E0000000000000000000000000000010001CC2
:1022F000800FE003F8001800F800E003800F001CD6
:1023000000100000000000000000000000000000BD
:10231000000000000000000000000000F81F0000A6
:1023200000000000F81F0000000000000000000096
:10233000000000000000000000000000000000009D
:10234000000000000000000000000000080038004D
:10235000F001C007001F0018001FC007F00138007F
:102360000800000000000000000000000000E00382
:10237000F80F180C0C180C180018000C00060003BD
:102380008001C000C000C00000000000C000C0000C
:10239000000000000000000000000000000000003D
:1023A000E00718180420C229224A114409440944AC
:1023B000094409221113E20C024004201818E00716
:1023C000000000000000000000000000000080038A
:1023D0008003C006C006C006600C600C30183018C0
:1023E0003018F83FF83F1C700C600C6006C006C047
:1023F0000000000000000000000000000000FC03DE
:10240000FC0F0C0C0C180C180C180C0CFC07FC0F17
:102410000C180C300C300C300C300C18FC1FFC0766
:102420000000000000000000000000000000C007E5
:10243000F01F38381C300C700660060006000600DD
:1024400006000600060006600C701C30F01FE00756
:102450000000000000000000000000000000FE037B
:10246000FE0F060E06180618063006300630063037
:1024700006300630063006180618060EFE0FFE035C
:102480000000000000000000000000000000FC3F11
:10249000FC3F0C000C000C000C000C00FC1FFC1F8F
:1024A0000C000C000C000C000C000C00FC3FFC3F6E
:1024B0000000000000000000000000000000F83FE5
:1024C000F83F18001800180018001800F81FF81F2F
:1024D000180018001800180018001800180018003C
:1024E0000000000000000000000000000000E00FFD
:1024F000F83F3C780E6006E007C00300030003FECF
:1025000003FE03C007C006C00EC03CF0F83FE00F5A
:1025100000000000000000000000000000000C307F
:102520000C300C300C300C300C300C30FC3FFC3FCD
:102530000C300C300C300C300C300C300C300C30BB
:10254000000000000000000000000000000080010A
:102550008001800180018001800180018001800173
:102560008001800180018001800180018001800163
:102570000000000000000000000000000000000655
:10258000000600060006000600060006000600061B
:10259000000600060006180618063807F003E001DA
:1025A00000000000000000000000000000000630F5
:1025B0000618060C060606038601C60066007600AD
:1025C000DE008E0106030606060C061806300660BD
:1025D00000000000000000000000000000001800E3
:1025E000180018001800180018001800180018002B
:1025F000180018001800180018001800F81FF81F1D
:1026000000000000000000000000000000000EE0DC
:102610001EF01EF01EF036D836D836D836D866CC26
:1026200066CC66CCC6C6C6C6C6C6C6C686C386C384
:1026300000000000000000000000000000000C305E
:102640001C303C303C306C306C30CC30CC308C3179
:102650000C330C330C360C360C3C0C3C0C380C3068
:102660000000000000000000000000000000E00783
:10267000F81F1C380E70066003C003C003C003C0FF
:1026800003C003C003C006600E701C38F81FE007CB
:102690000000000000000000000000000000FC0F2F
:1026A000FC1F0C380C300C300C300C300C18FC1F9C
:1026B000FC070C000C000C000C000C000C000C00C3
:1026C0000000000000000000000000000000E00723
:1026D000F81F1C380E70066003E003C003C003C07F
:1026E00003C003C007E006630E3F1C3CF83FE0F761
:1026F00000C0000000000000000000000000FE0F0D
:10270000FE1F06380630063006300638FE1FFE076C
:1027100006030606060C0618061806300630066084
:102720000000000000000000000000000000E003C6
:10273000F80F1C0C0C180C180C001C00F803E00F10
:10274000001E0038063006300E301C1CF80FE00763
:102750000000000000000000000000000000FE7FFC
:10276000FE7F800180018001800180018001800165
:102770008001800180018001800180018001800151
:1027800000000000000000000000000000000C300D
:102790000C300C300C300C300C300C300C300C3059
:1027A0000C300C300C300C300C301818F81FE007CF
:1027B00000000000000000000000000000000360B6
:1027C0000630063006300C180C180C18180C180CB3
:1027D000380E30063006700760036003C001C00188
:1027E0000000000000000000000000000000036086
:1027F000C361C361C3616633663366336633663370
:1028000066336C1B6C1B6C1B2C1A3C1E380E380E6E
:1028100000000000000000000000000000000FE0C9
:102820000C7018303018700C600EC00780038003E5
:10283000C003E006700C301C18180C300E6007E066
:10284000000000000000000000000000000003C0C5
:1028500006600C301C383818300C6006E007C003E6
:102860008001800180018001800180018001800160
:102870000000000000000000000000000000FC7FDD
:10288000FC7F006000300018000C0006000380018F
:10289000C0006000300018000C000600FE7FFE7FC4
:1028A0000000000000000000000000000000E00345
:1028B000E003600060006000600060006000600095
:1028C0006000600060006000600060006000600008
:1028D000600060006000E003E003000000003000E2
:1028E0003000600060006000C000C000C000C00197
:1028F0008001800180010003000300030006000640
:102900000000000000000000000000000000E003E4
:10291000E0030003000300030003000300030003BF
:10292000000300030003000300030003000300038F
:10293000000300030003E003E003000000000000C8
:10294000C001C00160036003600330063006180C4C
:10295000180C000000000000000000000000000053
:102960000000000000000000000000000000000067
:102970000000000000000000000000000000000057
:102980000000000000000000000000000000FFFF49
:10299000FFFF0000000000000000000000000C002D
:1029A0000C000C000C000C000C00000000000000EB
:1029B0000000000000000000000000000000000017
:1029C0000000000000000000000000000000000007
:1029D0000000000000000000F003F8071C0C0C0CC5
:1029E000000FF00FF80C0C0C0C0C1C0FF80FF0186B
:1029F00000000000000000000000000000001800BF
:102A00001800180018001800D803F80F380C181810
:102A100018181818181818181818380CF80FD803A0
:102A200000000000000000000000000000000000A6
:102A30000000000000000000C003F007300E180C7A
:102A40001800180018001800180C300EF007C0030A
:102A5000000000000000000000000000000000185E
:102A60000018001800180018C01BF01F301C1818A0
:102A700018181818181818181818301CF01FC01B30
:102A80000000000000000000000000000000000046
:102A90000000000000000000C003F00F300C181808
:102AA000F81FF81F180018003818301CF00FC00766
:102AB0000000000000000000000000000000800F87
:102AC000C00FC000C000C000F007F007C000C00089
:102AD000C000C000C000C000C000C000C000C000F6
:102AE00000000000000000000000000000000000E6
:102AF0000000000000000000E00DF80F180E0C0CA4
:102B00000C0C0C0C0C0C0C0C0C0C180EF80FE00D33
:102B1000000C0C0C1C06F807F00100000000180067
:102B20001800180018001800D807F80F381C1818DB
:102B30001818181818181818181818181818181815
:102B40000000000000000000000000000000C000C5
:102B5000C000000000000000C000C000C000C000B5
:102B6000C000C000C000C000C000C000C000C00065
:102B70000000000000000000000000000000C00095
:102B8000C000000000000000C000C000C000C00085
:102B9000C000C000C000C000C000C000C000C00035
:102BA000C000C000C000F8007800000000000C0069
:102BB0000C000C000C000C000C0C0C060C038C011F
:102BC000CC006C00FC009C018C030C030C060C0C6C
:102BD0000000000000000000000000000000C00035
:102BE000C000C000C000C000C000C000C000C000E5
:102BF000C000C000C000C000C000C000C000C000D5
:102C000000000000000000000000000000000000C4
:102C100000000000000000007C3CFF7EC7E383C191
:102C200083C183C183C183C183C183C183C183C184
:102C30000000000000000000000000000000000094
:102C400000000000000000009807F80F381C18185A
:102C500018181818181818181818181818181818F4
:102C60000000000000000000000000000000000064
:102C70000000000000000000C003F00F300C181826
:102C800018181818181818181818300CF00FC00356
:102C90000000000000000000000000000000000034
:102CA0000000000000000000D803F80F380C1818CE
:102CB00018181818181818181818380CF80FD803FE
:102CC000180018001800180018000000000000008C
:102CD0000000000000000000C01BF01F301C18188E
:102CE00018181818181818181818301CF01FC01BBE
:102CF000001800180018001800180000000000005C
:102D00000000000000000000B007F0037000300079
:102D10003000300030003000300030003000300033
:102D200000000000000000000000000000000000A3
:102D30000000000000000000E003F003380E180C53
:102D40003800F003C007000C180C380EF007E00341
:102D50000000000000000000000000000000000073
:102D60008000C000C000C000F007F007C000C00035
:102D7000C000C000C000C000C000C000C007800785
:102D80000000000000000000000000000000000043
:102D90000000000000000000181818181818181873
:102DA00018181818181818181818381CF01FE019D7
:102DB0000000000000000000000000000000000013
:102DC00000000000000000000C18180C180C180C73
:102DD000300630063006600360036003C001C001A6
:102DE00000000000000000000000000000000000E3
:102DF0000000000000000000C141C141C3616363E5
:102E0000636363633636363636361C1C1C1C1C1C4A
:102E100000000000000000000000000000000000B2
:102E200000000000000000001C38381C300C600658
:102E300060036003600360036006300C381C1C38BC
:102E40000000000000000000000000000000000082
:102E50000000000000000000183030183018701812
:102E6000600C600CE00CC006C00680038003800389
:102E700080018001C001F00070000000000000002F
:102E80000000000000000000FC1FFC1F000C0006FA
:102E900000038001C000600030001800FC1FFC1F10
:102EA000000000000000000000000000000000031F
:102EB0008001C000C000C000C000C000C0006000B1
:102EC0006000300060004000C000C000C000C000D2
:102ED000C000C0008001000300000000000080016D
:102EE00080018001800180018001800180018001DA
:102EF00080018001800180018001800180018001CA
:102F000080018001800180018001000000006000DC
:102F1000C000C001800180018001800180010003A8
:102F20000003000600030001800180018001800190
:102F300080018001C000600000000000000000006F
:102F4000000000000000000000000000F010F81F6A
:102F5000080F00000000000000000000000000005A
:102F60000000000000000000000000008C2F00089E
:102F7000000000200C00000008130008982F000833
:102F80000C00002004040000181300080000FFFFDC
:082F9000000000000024F40021
:04000005080001D915
:00000001FF
