:020000040800F2
:100000007806002081020008C5190008891100083F
:10001000C119000881050008F93900080000000036
:10002000000000000000000000000000D5390008BA
:100030008505000800000000C9190008D93900082A
:100040009B0200089B0200089B0200089B0200081C
:100050009B0200089B0200089B0200089B0200080C
:100060009B0200089B0200089B0200089B020008FC
:100070009B0200089B0200089B0200089B020008EC
:100080009B020008000000009B0200089B02000881
:100090009B0200089B0200089B0200089B020008CC
:1000A0009B0200089B0200089B0200089B020008BC
:1000B0009B0200089B0200089B0200089B020008AC
:1000C0009B0200089B0200089B0200089B0200089C
:1000D0009B0200089B0200089B0200089B0200088C
:1000E0009B0200089B0200089B0200089B0200087C
:1000F0009B0200089B0200089B0200080000000011
:10010000000000009B020008000000009B020008A5
:100110009B020008000000009B0200089B020008F0
:100120009B0200089B0200089B0200089B0200083B
:100130009B02000800000000000000009B02000875
:100140009B0200089B020008000000000000000065
:10015000000000000000000000000000000000009F
:100160000000000000000000000000009B020008EA
:100170009B020008000000000000000000000000DA
:10018000000000009B0200080000000000000000CA
:10019000000000000000000000000000000000005F
:1001A00000000000000000009B0200089B02000805
:1001B0009B0200089B0200089B0200080000000050
:1001C000000000009B02000800000000000000008A
:1001D0009B0200089B02000800F002F800F041F8C2
:1001E0000AA090E8000C82448344AAF10107DA4592
:1001F00001D100F036F8AFF2090EBAE80F0013F0A3
:10020000010F18BFFB1A43F001031847804D00008F
:10021000A04D0000103A24BF78C878C1FAD8520720
:1002200024BF30C830C144BF04680C607047000070
:100230000023002400250026103A28BF78C1FBD8EF
:10024000520728BF30C148BF0B607047642900F0D7
:100250007F80002070471FB503F09AFD1FBD10B5C9
:1002600010BD00F052F91146FFF7F5FF03F02AFD2B
:1002700000F070F903B4FFF7F2FF03BC00F078F967
:100280000948804709480047FEE7FEE7FEE7FEE72A
:10029000FEE7FEE7FEE7FEE7FEE7FEE70448054966
:1002A000054A064B70470000DD390008D9010008F7
:1002B00078000020780600207802002078020020D4
:1002C0000FB41CB5074B06AA7B44694600900598FD
:1002D00000F003F90020694600F012F91CBC5DF83B
:1002E00014FB0000350200002DE9F0410E460446E3
:1002F000002020622046E168884730B3252805D0D9
:10030000D4E901219047206A401CF2E7E1682046C9
:1003100000278847050018D0A5F14100192802D808
:1003200020354FF400673246294620462760FFF704
:100330008DFF40B1012804D0F61D26F007060836CF
:10034000D8E7361DD6E72846DAE7206ABDE8F0810F
:100350002DE9F0410646002410687529314616A59E
:1003600010D0AFF30080002802DA404213A507E066
:1003700031688A0701D512A502E0490704D511A505
:10038000012401E0AFF3008000210A2206F12407D6
:1003900009E0B0FBF2FCB0FBF2F302FB1C003030D2
:1003A00078541846491C0028F3D123462A46304683
:1003B000BDE8F04100F032B8000000002D00000060
:1003C0002B000000200000004FF0000200B5134693
:1003D00094469646203922BFA0E80C50A0E80C5065
:1003E000B1F12001BFF4F7AF090728BFA0E80C5016
:1003F00048BF0CC05DF804EB890028BF40F8042B0F
:1004000008BF704748BF20F8022B11F0804F18BF7B
:1004100000F8012B70477047704770472DE9F0478F
:100420000D4699469246044600F124080168880664
:1004300004D5E06921F01001216000E00120A8420C
:1004400001DD471B00E00027A1697A1902EB0900D2
:10045000081AA0612078C00602D42046AFF30080BD
:10046000002608E0D4E901211AF806009047206A26
:10047000401C761C20624E45F4DB2078C0060AD56D
:100480002046AFF3008006E0D4E9012130209047F8
:10049000206A401C2062381EA7F10107F4DC07E047
:1004A000D4E9012118F805009047206A401C206219
:1004B000281EA5F10105F3DC2046AFF3008020786B
:1004C000000602D50220BDE8F0870120FBE700000E
:1004D00001694A1C02610878704700B58FB0CDE908
:1004E00001310021059105497944CDE903101146F8
:1004F0006846FFF7F9FE0FB000BD0000E5FFFFFF03
:100500000A6802F8010B0A607047754600F02CF883
:10051000AE4605006946534620F00700854618B0F0
:1005200020B5FFF7BBFEBDE820404FF000064FF0BE
:1005300000074FF000084FF0000BAC46ACE8C009D4
:10054000ACE8C009ACE8C009ACE8C00921F007017B
:100550008D46704710B50446AFF300802046BDE8D5
:100560001040FFF787BE00000048704710000020D1
:1005700001491820ABBEFEE72600020070470000CC
:10058000FEE7000070470000B0B5044600F0E4F854
:10059000054640F20800C2F200000068611C18BF66
:1005A000044400BF00F0D8F8401BA042FAD3B0BD0D
:1005B0002DE9F04F82B00E68002E00F0C48041F2A9
:1005C000004500F13842C4F60005062340F2004C15
:1005D0004FEAB227A84208BF0523C4F2010C052F39
:1005E00038BF4FEAB22300244FF0010A002700224F
:1005F000009309E00E68013236FA02F307F10207B0
:1006000004F1040400F09F800AFA02F916EA0908CE
:10061000F0D04E68122E18D80AFA06F515F0061F0B
:1006200013D085680323D1F80CB003FA07FE25EA3E
:100630000E050BFA07F32B4383604368C6F30015DE
:1006400023EA090395402B4343600325C36805FA59
:1006500007FE8D6823EA0E03BD402B4346F01005CC
:10066000122DC36012D16FF0030303EA5203034457
:1006700004F01C060F25D3F8209005FA06FB0D693F
:1006800029EA0B09B54045EA09051D6206684D686F
:100690006FEA0E03334005F00306BE403343EE001D
:1006A0000360A7D541F26006C4F2020633684FF634
:1006B000084943F0010333603368CFF6FF7903F054
:1006C00001030193019B22F00303634453F809E003
:1006D00004F00C050F26AE402EEA060E009E06FA28
:1006E00005F545EA0E0643F80960DCF800E04E68BF
:1006F0004EEA0805F30358BF2EEA0805CCF800506F
:10070000DCF804E0B3034EEA080558BF2EEA0805FA
:10071000CCF80450DCF808E0F3024EEA080558BFB4
:100720002EEA080540F20C4ECCF80850C4F2010E37
:10073000DEF80030B60243EA080558BF23EA080590
:10074000CEF8005056E702B0BDE8F08F00690840CF
:1007500018BF01207047000040F27400C2F2000090
:100760000068704740F2080040F27401C2F20000D5
:10077000C2F2000100680A68104408607047000077
:1007800080B5032000F07CF80F2000F009F8002865
:100790001CBF012080BD00F02DF8002080BD0000AE
:1007A000B0B540F20801C2F20001096801B3044685
:1007B00040F20400C2F200004FF47A720068B2FB0B
:1007C000F1F1B0FBF1F000F0C9FC0F2C4FF0010586
:1007D0000CD858B94FF0FF3021460022002500F018
:1007E00023F840F20C00C2F2000004602846B0BDBD
:1007F0000120B0BD82B041F25800C4F2020081680D
:1008000041F001018160816801F0010101910199CC
:10081000016841F080510160006800F08050009054
:10082000009802B000F0C0B810B54EF60C5CCEF2E5
:10083000000CDCF80030C3F3022E8EF00704042C09
:1008400028BF0424BEF103034FF0FF3E0EFA04F468
:1008500038BF0023A14399400EFA03F39A43114392
:1008600000F1604200F00F03090102F56442043B0D
:100870006344002848BF03F10C02117010BD000052
:100880004EF60C51CEF200010A684FF6FF031A40F3
:1008900060F30A2242F0806040F0FD70086070470B
:1008A000B0F5007F3BD0002872D147F2000CC4F2B3
:1008B000000CDCF80010DCF8802001F4C06122F4A8
:1008C0008072B1F5806FCCF8802026D1DCF8001062
:1008D000012262F34A21CCF8001040F20401C2F276
:1008E00000010968322359434DF68363C4F21B3378
:1008F000A1FB031302EB9341002200BFDCF81400BC
:10090000013942F10003400501D5002BF6D1DCF896
:100910001400400544BF032070470020704747F291
:10092000000CC4F2000CDCF80010DCF8802001F4AC
:10093000C06142F48072B1F5806FCCF88020ECD1B8
:10094000DCF80010012262F34A21CCF8001040F2DA
:100950000401C2F200010968322359434DF6836352
:10096000C4F21B33A1FB031302EB9341002200BF2F
:10097000DCF81400013942F10003400501D5002BD9
:10098000F6D1DCF81400400544BF03207047C4E7EB
:1009900047F20000C4F200000168022262F34A211B
:1009A000016000207047000047F20800C4F2000018
:1009B000016841F480410160704700002DE9F04773
:1009C000002800F0088142F2000AC4F2020A04463C
:1009D000DAF800000D4600F00F0088420DD2DAF878
:1009E000000020F00F002843CAF80000DAF80000E9
:1009F00000F00F00A84240F0EE80216841F20808A4
:100A0000C807C4F202080CD14FF000092068810722
:100A10004BD4B9F1800F61D1D8F8000020F0F0007C
:100A20005AE06068022800F0CA80032840F0CF80B6
:100A300058F8082C920140F1CE80D8F80420D8F85C
:100A4000043042F20046C3F3031302F00302D8F865
:100A500004700133C0F2F406032A04BF43F20066B7
:100A6000C0F26E16B6FBF3F2D8F80430C7F30627CF
:100A70007A43C3F34163022707EB4303B2FBF3F26C
:100A80004BF20043C0F2C4439A4240F2EC80D8F8E3
:100A9000002012F0F00F00F0DC80890740F1E380C5
:100AA000A168002940F0DF80D3E0410705D5D8F8E0
:100AB000001041F4E061C8F80010000706D5D8F82E
:100AC0000000072161F30D20C8F80000D8F80000ED
:100AD000A16820F0F0000843C8F80000DAF8000030
:100AE00000F00F00A84219D9DAF8000020F00F003A
:100AF0002843CAF80000FFF72FFE064641F2883768
:100B0000DAF8000000F00F00A84207D0FFF724FE3B
:100B1000801BB842F4D90320BDE8F0872068410764
:100B200007D5D8F80010E26821F4E0611143C8F855
:100B30000010000708D5D8F80000216920F46050A3
:100B400040EAC100C8F80000D8F8000042F20041B5
:100B5000C0F2F40100F00C000428084600F0A48064
:100B6000D8F8000000F00C00082843F20060C0F242
:100B70006E1000F09980D8F8002002F00C020C2AC8
:100B800040F09180D8F80420D8F8043002F0030235
:100B9000C3F30313D8F804700133032A08BF0146D6
:100BA000B1FBF3F0D8F80410C7F30627C1F3416195
:100BB0000222784302EB4101B0FBF1F074E058F8F7
:100BC000081C89035CBF0120BDE8F08706E058F8E7
:100BD000081C490502D40120BDE8F087D8F80010B0
:100BE00001F00C0104293ED0D8F8001001F00C01EE
:100BF000082938D0D8F8001001F00C010C2932D1A6
:100C0000D8F80410D8F8042042F20047C2F30312C7
:100C100001F00301D8F804300132C0F2F4070329CF
:100C200004BF43F20067C0F26E17B7FBF2F1D8F8C9
:100C30000420C3F306235943C2F34162022303EBAA
:100C40004202B1FBF2F14BF20042C0F2C4429142C7
:100C500009D9D8F80010082262F307114FF0800973
:100C6000C8F8001001E04FF00009D8F8001021F09A
:100C700003010843C8F80000FFF76EFD064641F285
:100C8000883700BFD8F80000616800F00C00B0EBB6
:100C9000810F3FF4BBAEFFF75FFD801BB842F1D977
:100CA0000320BDE8F0870020D8F8001043F6AA52D0
:100CB000C1F30311C0F60002515C40F2040201F0DE
:100CC0001F0120FA01F140F20C00C2F2000000689E
:100CD000C2F200021160BDE8F047FFF761BD0000FD
:100CE0002DE9F04182B0002800F00181044600782F
:100CF00041F20006C007C4F2020654D120788007F2
:100D000072D42078000700F195802078400700F128
:100D1000B3802078800600F10081E069002840D08F
:100D2000B16801F00C010C2940F05881012800F055
:100D3000DE80F068216A00F003028A4240F0D7802A
:100D4000626A6FF00F0300F0F00103EB02129142B0
:100D500040F0CD80A16A00F4FE42B2EB012F40F0DA
:100D6000C680E16A00F07842B2EBC16F40F0BF800C
:100D7000226B0023CFF6E07303EA025200F4C001B5
:100D8000A2F50012914240F0B280616B4FF07E42BA
:100D900002EA016100F0C06001F17E41884240F04A
:100DA000A6800020D7E1B06800F00C01F0680829A7
:100DB00059D0032281F00C0122EA00000844B0FA65
:100DC00080F040094FD16568B5F5A02F00F0D180C3
:100DD000B5F5803F00F0D180306820F4803030607D
:100DE000306820F48020CBE0B068F16800F00C009F
:100DF000042866D001F0030180F00C0081F00201AC
:100E00000844B0FA80F040095BD1E16830680029FD
:100E100000F0D28040F480703060FFF79DFC054602
:100E20003068400500F1EF80FFF796FC401B022878
:100E3000F6D920E16169D6F89400002900F0878096
:100E400040F00100C6F89400FFF786FC054600BF9D
:100E5000D6F8940080073FF558AFFFF77DFC401BA4
:100E60000228F5D907E1306880037FF547AF606855
:100E700000287FF443AF3AE0B06D10F0805808D1FD
:100E8000B06D40F08050B065B06D00F080500190C2
:100E9000019847F20007C4F200073868C0052AD459
:100EA000386840F480703860FFF756FC054600BF94
:100EB0003868C0051FD4FFF74FFC401B0228F7D944
:100EC000D9E03068400501D5E06880B170682169DB
:100ED00020F0FE4040EA0160706040F20C00C2F277
:100EE00000000068FFF75CFC00283FF40AAF012017
:100EF00002B0BDE8F081A568052D00F0A080012DAD
:100F000000F0A380D6F8900020F00100C6F8900011
:100F1000D6F8900020F004009BE0A169D6F8980074
:100F2000002978D040F00100C6F89800FFF714FCC3
:100F3000054600BFD6F8980080073FF5EEAEFFF7F4
:100F40000BFC401B02284FF00300F3D903E120F013
:100F50000100C6F89400FFF7FFFB0546D6F89400A1
:100F600080077FF5D2AEFFF7F7FB401B0228F5D9CB
:100F700081E0306840F480203060306840F4803098
:100F80003060FFF7E9FB002D054611D03068800383
:100F90003FF5B4AEFFF7E0FB401B6428F6D96AE0EA
:100FA000FFF7DAFB401B64284FF0030000F2D38008
:100FB00030688003F4D4A1E620F480703060FFF73D
:100FC000CBFB0546306840057FF59BAEFFF7C4FBC1
:100FD000401B02284FF00300F4D9BCE0316802281E
:100FE00021F0807131605FD1FFF7B6FB054600BF8D
:100FF0003068800172D5FFF7AFFB401B02284FF02D
:101000000300F5D9A7E07068216920F0FE4040EAAE
:101010000160706075E620F00100C6F89800FFF7E7
:101020009BFB0546D6F8980080077FF576AEFFF764
:1010300093FB401B02284FF00300F3D98BE0D6F856
:10104000900040F00400C6F89000D6F8900040F000
:101050000100C6F89000FFF77FFB002D054641F226
:10106000883714D0D6F89000800714D4FFF774FBAB
:10107000401BB842F6D9032002B0BDE8F08100BFA2
:10108000FFF76AFB401BB8424FF0030063D8D6F865
:1010900090008007F4D4B8F1000F7FF43AAEB06D41
:1010A00020F08050B06534E6F0684FF6FF7120F014
:1010B0000300F060F068CFF6EE610840F060FFF7E3
:1010C0004BFB0446306880017FF56BAEFFF744FBB5
:1010D000001B02284FF00300F4D93CE0F06848F20E
:1010E0000C01C0F29F1104F1200700EA010C8ECF21
:1010F0006FF00F00D4E90C5400EB02100022CFF681
:10110000E07241EA0C0102EA05520843A2F500121E
:101110004FF07E4540EA032005EA0465104305F1DF
:101120007E4540EAC7602843F060306840F0807038
:101130003060F06840F08070F060FFF70DFB04460F
:10114000306880013FF52DAEFFF706FB001B02283B
:101150004FF00300F4D902B0BDE8F081411E002039
:10116000B0EB116F1CBF012070474EF21002CEF29F
:10117000000251604EF62351CEF20001F0230B70B5
:101180000721906011607047FEE7000080B586B0CF
:1011900000200590C02001900120CDE9020002202E
:1011A000049040F20040C4F6000001A9FFF700FAE5
:1011B00006B080BDF0B585B040F228448020C4F66A
:1011C0000004002600900120049602900220A4F161
:1011D00028050390694628460196FFF7E9F9082794
:1011E0002068802140F04000206054F8100C013F3E
:1011F00040F0400044F8100C2846FFF7A7FA0138E9
:10120000B0FA80F04009390640EA4606E8D1206885
:10121000694640F0400044F82809002004900290FC
:101220008020009011200190022003902046FFF7BB
:10123000BFF9F0B205B0F0BD70B586B0002040F245
:101240001845059002908020C4F600050190012009
:1012500003900220A5F11804049001A92046FFF78D
:10126000A7F92868052640F0400028602046802124
:10127000FFF76CFA012821D1013E3004F6D100209D
:10128000059003908020019011200290022004908C
:1012900001A92046FFF78CF9286940F04000286139
:1012A000286940F080002861286840F040002860EC
:1012B000286840F080002860012510E0286901A915
:1012C00040F0400028618020002501901120059504
:1012D00003950290022004902046FFF769F9284602
:1012E00006B070BD40F21841C4F60001D1F8FCC34D
:1012F0000B6943F400730B610B6943F480730B615A
:101300000B6843F020030B602023C1F8FC330B690A
:1013100043F020030B6100BF00BF00BF0B6843F028
:1013200020030B600B6843F480730B600023C1F84B
:10133000FC330A6942F020020A6100BF00BF00BF0F
:101340000A6842F020020A600A6842F480720A6069
:101350000A6942F400720A610A6942F480720A6101
:101360000A6842F020020A602122C1F8FC230A69BF
:1013700042F020020A6100BF00BF00BF0A6842F0CD
:1013800020020A600A6842F480720A60C1F8FC33E5
:101390000A694FF4963342F020020A6100BF00BF91
:1013A00000BF0A6842F020020A600A6842F48072B4
:1013B0000A600A6942F400720A610A6942F48072A2
:1013C0000A610A6842F020020A602222C1F8FC2366
:1013D0000A6942F020020A6100BF00BF00BF0A682C
:1013E00042F020020A600A6842F480720A6000BF7C
:1013F00000BF00BF0A6842F400720A600A69013B3C
:1014000042F400720A610A6842F480720A600A6853
:1014100042F020020A60C1F8FC030A6942F020028F
:101420000A6100BF00BF00BF0A6842F020020A60E4
:101430000A6842F480720A6000BF00BF00BF0A68F9
:1014400042F400720A60D9D11FFA8CF0C1F8FC0393
:10145000704700002DE9F04740F61408C4F6000874
:10146000D8F800900A78E2B143F6BA5A04464F1C05
:10147000002640F23F15C0F6000A00BFA2F120008E
:10148000C1B2490051FA80F00AEB0012A9B220461D
:1014900000F00EF8BA5D22B1103D132E06F10106E0
:1014A000ECD31FFA89F0C8F80000BDE8F08700000F
:1014B0002DE9F04740F21843C4F600031F694FF0CE
:1014C000200C47F400771F611F694FF0210E47F48D
:1014D00080771F611F6840F2000947F020071F60F6
:1014E000C3F8FCC31F6940F2700A47F020071F6170
:1014F00000BF00BF00BF1F684FF0220847F0200761
:101500001F601F68C2F2000947F480771F60C3F8AC
:10151000FC031F69C2F2000A47F020071F6100BFE9
:1015200000BF00BF1F6847F020071F601F6847F417
:1015300080771F601F6947F400771F611F6947F4B8
:1015400080771F611F6847F020071F60C3F8FCE326
:101550001C6944F020041C6100BF00BF00BF1C6870
:1015600044F020041C601C6844F480741C60C3F8C0
:10157000FC131C6944F020041C6100BF00BF00BFC5
:101580001C6844F020041C601C6844F480741C60D7
:10159000002400BF1D6945F400751D611D6945F4F7
:1015A00080751D611D6845F020051D60C3F8FC8332
:1015B0001D6945F020051D6100BF00BF00BF1D680B
:1015C00045F020051D601D6845F480751D6000BF55
:1015D00000BF00BF1D6845F400751D60002500BFF9
:1015E00032F81460EE40F607564608BF4E4636887D
:1015F0001F69013547F400771F611F68102D47F4FC
:1016000080771F601F6847F020071F60C3F8FC63E6
:101610001E6946F020061E6100BF00BF00BF1E68A5
:1016200046F020061E601E6846F480761E6000BFED
:1016300000BF00BF1E6846F400761E60D0D11D6951
:10164000013045F400751D611D69013445F4807554
:101650001D611D68182C45F020051D60C3F8FCC3F2
:101660001D6945F020051D6100BF00BF00BF1D685A
:1016700045F020051D601D6845F480751D60C5B2EC
:10168000C3F8FC531D6945F020051D6100BF00BF74
:1016900000BF1D6845F020051D601D6845F480757C
:1016A0001D601D6945F400751D611D6945F4807557
:1016B0001D611D6845F020051D60C3F8FCE31D6930
:1016C00045F020051D6100BF00BF00BF1D6845F04B
:1016D00020051D601D6845F480751D60C3F8FC136E
:1016E0001D6945F020051D6100BF00BF00BF1D68DA
:1016F00045F020051D601D6845F480751D6008BF1C
:10170000BDE8F08746E700002DE9F04F8BB040F6CA
:101710001408C4F60008D8F800000025009041F233
:101720004C000595CDE90355CDE90155C4F2020001
:10173000016840F2184741F0040101600168C4F6F5
:10174000000701F0040106910699016801AC41F01F
:101750000101016001684FF0030901F001010691E8
:1017600006990168012641F00201016000682146E6
:1017700000F00200069006984FF448700190012096
:101780000290A7F11800CDE90359FEF711FF4FF4BD
:101790008070CDE901064FF090402146CDE9035914
:1017A000FEF706FF4FF6FF7007F57A74069006A95C
:1017B00020460A9508954FF6FF7A0796CDF82490B3
:1017C000FEF7F6FE4FF6004BCFF6FF7B57F80B0007
:1017D00006A940F4807047F80B0038684FF6FF7692
:1017E00040F408703860386940F400703861386936
:1017F00040F480703861386840F020003860C8F8E4
:101800000050386940F02000386100BF00BF00BFC1
:10181000386840F020003860386840F480703860E4
:1018200020460A950895CDE906A5CDF82490FEF747
:10183000BFFE4FF61048CFF6FF7857F8080006A90C
:1018400040F4807047F8080000BF00BF00BFD7F821
:10185000F8A357F80B0040F4807047F80B00012004
:101860000A950895079020460696CDF82490FEF735
:101870009FFE386848F2302140F40070386040F232
:101880007200C2F20000A0F800A00088884202D1D5
:1018900000F09CF801E000F00DFE3869002640F4ED
:1018A0000070386138694FF6FF7940F48070386114
:1018B00038684FF0030A40F02000386040F614000A
:1018C000C4F600000660386906A940F020003861BF
:1018D00000BF00BF00BF386840F0200038603868A3
:1018E00040F48070386020460A96CDE90766CDF84E
:1018F0001890CDF824A0FEF75BFE57F8080006A963
:1019000040F4807047F8080000BF00BF00BFD7F860
:10191000F85357F80B0040F4807047F80B00012093
:101920000A96089607902046CDF81890CDF824A086
:10193000FEF73EFE386840F6140140F4007038604F
:1019400040F27200C2F2000005800098C4F6000167
:1019500080B208600BB0BDE8F08F000081B0ADF838
:101960000200BDF8020040F20001C2F2000108804E
:1019700001B0704781B0ADF80200BDF8020040F23E
:101980007001C2F20001088001B0704782B041F2DC
:101990004C00C4F20200016841F0200101600168BE
:1019A00001F0200101910199016841F001010160FC
:1019B000006800F001000090009802B0704700003D
:1019C000FEE70000FEE700007047000040F218400C
:1019D000C4F600000169002241F40071016101694F
:1019E0004FF0030C41F480710161016841F0200166
:1019F0000160C0F8FC23016941F02001016100BFD2
:101A000000BF00BF016841F020010160016841F49E
:101A1000807101600121C0F8FC13036943F02003C9
:101A2000036100BF00BF00BF036843F020030360F1
:101A3000036843F480730360036943F40073036134
:101A4000036943F480730361036843F02003036078
:101A5000C0F8FC13036943F02003036100BF00BF1B
:101A600000BF036843F020030360036843F48073FE
:101A70000360C0F8FC23026942F02002026100BF4B
:101A800000BF00BF026842F020020260026842F418
:101A900080720260026942F400720261026942F4DB
:101AA00080720261026842F0200202601022C0F8D7
:101AB000FC23026942F02002026100BF00BF00BFA8
:101AC000026842F020020260026842F48072026002
:101AD00041F29072C0F8FC23026942F020020261D8
:101AE00000BF00BF00BF026842F02002026002682F
:101AF00042F480720260026942F40072026102697B
:101B000042F480720261026842F0200202606022A8
:101B1000C0F8FC23026942F02002026100BF00BF4E
:101B200000BF026842F020020260026842F4807244
:101B300002604FF41C52C0F8FC23026942F02002FC
:101B4000026100BF00BF00BF026842F020020260D5
:101B5000026842F480720260026942F4007202611B
:101B6000026942F480720261026842F0200202605F
:101B70006122C0F8FC23026942F02002026100BF2A
:101B800000BF00BF026842F020020260026842F417
:101B900080720260C0F8FC13016941F0200101610C
:101BA00000BF00BF00BF016841F020010160016873
:101BB00041F480710160016941F4007101610169C2
:101BC00041F480710161016841F02001016046210A
:101BD000C0F8FC13016941F02001016100BF00BFA2
:101BE00000BF016841F020010160016841F480718B
:101BF00001600221C0F8FC13026942F02002026178
:101C000000BF00BF00BF026842F02002026002680D
:101C100042F480720260026942F400720261026959
:101C200042F480720261026842F0200202601322D4
:101C3000C0F8FC23026942F02002026100BF00BF2D
:101C400000BF026842F020020260026842F4807223
:101C5000026048F21002C0F8FC23026942F0200240
:101C6000026100BF00BF00BF026842F020020260B4
:101C7000026842F480720260026942F400720261FA
:101C8000026942F480720261026842F0200202603E
:101C90001222C0F8FC23026942F02002026100BF58
:101CA00000BF00BF026842F020020260026842F4F6
:101CB0008072026048F2FE02C0F8FC23026942F022
:101CC0002002026100BF00BF00BF026842F0200294
:101CD0000260026842F480720260026942F400729B
:101CE0000261026942F480720261026842F02002DD
:101CF0000260C0F8FC13016941F02001016100BFDE
:101D000000BF00BF016841F020010160016841F49B
:101D1000807101604FF4A061C0F8FC13016941F0CB
:101D20002001016100BF00BF00BF016841F0200138
:101D30000160016841F480710160016941F4007142
:101D40000161016941F480710161016841F0200184
:101D50000160C0F8FCC3026942F02002026100BFCA
:101D600000BF00BF026842F020020260026842F435
:101D70008072026041F23002C0F8FC23026942F036
:101D80002002026100BF00BF00BF026842F02002D3
:101D90000260026842F480720260026942F40072DA
:101DA0000261026942F480720261026842F020021C
:101DB00002603022C0F8FC23026942F02002026176
:101DC00000BF00BF00BF026842F02002026002684C
:101DD00042F48072026040F20332C0F8FC230369CF
:101DE00043F02003036100BF00BF00BF036843F05E
:101DF00020030360036843F480730360036943F4C2
:101E000000730361036943F480730361036843F063
:101E1000200303603123C0F8FC33036943F020033F
:101E2000036100BF00BF00BF036843F020030360ED
:101E3000036843F480730360C0F8FC23036943F034
:101E40002003036100BF00BF00BF036843F020030D
:101E50000360036843F480730360036943F4007311
:101E60000361036943F480730361036843F0200353
:101E700003603223C0F8FC33036943F0200303619D
:101E800000BF00BF00BF036843F020030360036886
:101E900043F480730360C0F8FC23036943F020031C
:101EA000036100BF00BF00BF036843F0200303606D
:101EB000036843F480730360036943F400730361B0
:101EC000036943F480730361036843F020030360F4
:101ED0003323C0F8FC33036943F02003036100BFE0
:101EE00000BF00BF036843F020030360036843F4AE
:101EF000807303604FF44073C0F8FC33016941F014
:101F00002001016100BF00BF00BF016841F0200156
:101F10000160016841F480710160016941F4007160
:101F20000161016941F480710161016841F02001A2
:101F300001603421C0F8FC13016941F02001016106
:101F400000BF00BF00BF016841F0200101600168CF
:101F500041F480710160C0F8FCC3016941F02001C7
:101F6000016100BF00BF00BF016841F020010160B6
:101F7000016841F480710160016941F400710161FF
:101F8000016941F480710161016841F02001016043
:101F90003521C0F8FC13016941F02001016100BF47
:101FA00000BF00BF016841F020010160016841F4F9
:101FB00080710160C0F8FC23016941F020010161DA
:101FC00000BF00BF00BF016841F02001016001684F
:101FD00041F480710160016941F40071016101699E
:101FE00041F480710161016841F0200101603621F6
:101FF000C0F8FC13016941F02001016100BF00BF7E
:1020000000BF016841F020010160016841F4807166
:1020100001601421C0F8FC13016941F02001016145
:1020200000BF00BF00BF016841F0200101600168EE
:1020300041F480710160016941F40071016101693D
:1020400041F480710161016841F020010160372194
:10205000C0F8FC13016941F02001016100BF00BF1D
:1020600000BF016841F020010160016841F4807106
:102070000160C0F8FC23016941F02001016100BF4B
:1020800000BF00BF016841F020010160016841F418
:1020900080710160016941F400710161016941F4DD
:1020A00080710161016841F0200101603821C0F8B0
:1020B000FC13016941F02001016100BF00BF00BFB6
:1020C000016841F020010160016841F48071016004
:1020D000C0F8FC23016941F02001016100BF00BF8D
:1020E00000BF016841F020010160016841F4807186
:1020F0000160016941F400710161016941F480717D
:102100000161016841F0200101603921C0F8FC1330
:10211000016941F02001016100BF00BF00BF0168FB
:1021200041F020010160016841F480710160C0F854
:10213000FC23016941F02001016100BF00BF00BF25
:10214000016841F020010160016841F48071016083
:10215000016941F400710161016941F4807101611B
:10216000016841F0200101603A21C0F8FC130169C7
:1021700041F02001016100BF00BF00BF016841F0D4
:1021800020010160016841F480710160C0F8FC33F6
:10219000016941F02001016100BF00BF00BF01687B
:1021A00041F020010160016841F480710160016922
:1021B00041F400710161016941F4807101610168BC
:1021C00041F0200101603B21C0F8FC13016941F09E
:1021D0002001016100BF00BF00BF016841F0200184
:1021E0000160016841F480710160C0F8FCC30169BD
:1021F00041F02001016100BF00BF00BF016841F054
:1022000020010160016841F480710160016941F4BD
:1022100000710161016941F480710161016841F05F
:10222000200101603C21C0F8FC13016941F020014C
:10223000016100BF00BF00BF016841F020010160E3
:10224000016841F480710160C0F8FC23016941F02C
:102250002001016100BF00BF00BF016841F0200103
:102260000160016841F480710160016941F400710D
:102270000161016941F480710161016841F020014F
:1022800001603D21C0F8FC13016941F020010161AA
:1022900000BF00BF00BF016841F02001016001687C
:1022A00041F4807101604FF4A051C0F8FC13016942
:1022B00041F02001016100BF00BF00BF016841F093
:1022C00020010160016841F480710160016941F4FD
:1022D00000710161016941F480710161016841F09F
:1022E000200101609221C0F8FC13016941F0200136
:1022F000016100BF00BF00BF016841F02001016023
:10230000016841F4807101604FF40071C0F8FC1362
:10231000016941F02001016100BF00BF00BF0168F9
:1023200041F020010160016841F4807101600169A0
:1023300041F400710161016941F48071016101683A
:1023400041F0200101609321C0F8FC13016941F0C4
:102350002001016100BF00BF00BF016841F0200102
:102360000160016841F480710160C0F8FC230169DB
:1023700041F02001016100BF00BF00BF016841F0D2
:1023800020010160016841F480710160016941F43C
:1023900000710161016941F480710161016841F0DE
:1023A000200101609021C0F8FC13016941F0200177
:1023B000016100BF00BF00BF016841F02001016062
:1023C000016841F48071016040F60D01C0F8FC1312
:1023D000016941F02001016100BF00BF00BF016839
:1023E00041F020010160016841F4807101600169E0
:1023F00041F400710161016941F48071016101687A
:1024000041F020010160C0F8FCC3016941F02001E6
:10241000016100BF00BF00BF016841F02001016001
:10242000016841F48071016041F21801C0F8FC13A9
:10243000016941F02001016100BF00BF00BF0168D8
:1024400041F020010160016841F48071016001697F
:1024500041F400710161016941F480710161016819
:1024600041F0200101600721C0F8FC13016941F02F
:102470002001016100BF00BF00BF016841F02001E1
:102480000160016841F48071016040F27311C0F88D
:10249000FC13016941F02001016100BF00BF00BFD2
:1024A000016841F020010160016841F48071016020
:1024B000704700002DE9F04F81B040F21844C4F697
:1024C000000420694FF0120940F400702061206977
:1024D000002540F4807020612068112640F0200023
:1024E0002060E320C4F8FC0320694FF0130B40F098
:1024F0002000206100BF00BF00BF2068102740F00F
:102500002000206020684FF0070840F480702060B1
:1025100043F20800C4F8FC03206940F02000206169
:1025200000BF00BF00BF206840F02000206020688E
:1025300040F480702060206940F4007020612069C0
:1025400040F480702061206840F020002060E72087
:10255000C4F8FC03206940F02000206100BF00BFE8
:1025600000BF206840F020002060206840F48070A8
:102570002060C4F8FC93206940F02000206100BF77
:1025800000BF00BF206840F020002060206840F4B9
:1025900080702060206940F400702061206940F460
:1025A00080702061206840F020002060EF20C4F897
:1025B000FC03206940F02000206100BF00BF00BF85
:1025C000206840F020002060206840F48070206087
:1025D00041F23120C4F8FC03206940F02000206162
:1025E00000BF00BF00BF206840F0200020602068CE
:1025F00040F480702060206940F400702061206900
:1026000040F480702061206840F0200020600120AC
:10261000C4F8FC03206940F02000206100BF00BF27
:1026200000BF206840F020002060206840F48070E7
:102630002060C4F8FC53206940F02000206100BFF6
:1026400000BF00BF206840F020002060206840F4F8
:1026500080702060206940F400702061206940F49F
:1026600080702061206840F0200020600220C4F8C3
:10267000FC03206940F02000206100BF00BF00BFC4
:10268000206840F020002060206840F480702060C6
:102690004FF4E060C4F8FC03206940F020002061A2
:1026A00000BF00BF00BF206840F02000206020680D
:1026B00040F480702060206940F40070206120693F
:1026C00040F480702061206840F0200020600320EA
:1026D000C4F8FC03206940F02000206100BF00BF67
:1026E00000BF206840F020002060206840F4807027
:1026F000206041F23000C4F8FC03206940F0200063
:10270000206100BF00BF00BF206840F020002060B3
:10271000206840F480702060206940F400702061DF
:10272000206940F480702061206840F02000206023
:102730000420C4F8FC03206940F02000206100BFA1
:1027400000BF00BF206840F020002060206840F4F7
:1027500080702060C4F8FC53206940F020002061A4
:1027600000BF00BF00BF206840F02000206020684C
:1027700040F480702060206940F40070206120697E
:1027800040F480702061206840F020002060082024
:10279000C4F8FC03206940F02000206100BF00BFA6
:1027A00000BF206840F020002060206840F4807066
:1027B000206040F20720C4F8FC03206940F02000AC
:1027C000206100BF00BF00BF206840F020002060F3
:1027D000206840F480702060206940F4007020611F
:1027E000206940F480702061206840F02000206063
:1027F0000920C4F8FC03206940F02000206100BFDC
:1028000000BF00BF206840F020002060206840F436
:1028100080702060C4F8FC53206940F020002061E3
:1028200000BF00BF00BF206840F02000206020688B
:1028300040F480702060206940F4007020612069BD
:1028400040F480702061206840F0200020600A2061
:10285000C4F8FC03206940F02000206100BF00BFE5
:1028600000BF206840F020002060206840F48070A5
:102870002060C4F8FC53206940F02000206100BFB4
:1028800000BF00BF206840F020002060206840F4B6
:1028900080702060206940F400702061206940F45D
:1028A00080702061206840F0200020600C20C4F877
:1028B000FC03206940F02000206100BF00BF00BF82
:1028C000206840F020002060206840F48070206084
:1028D000C4F8FC53206940F02000206100BF00BF15
:1028E00000BF206840F020002060206840F4807025
:1028F0002060206940F400702061206940F48070FD
:102900002061206840F0200020600D20C4F8FC0306
:10291000206940F02000206100BF00BF00BF206898
:1029200040F020002060206840F480702060C4F8EF
:10293000FC53206940F02000206100BF00BF00BFB1
:10294000206840F020002060206840F48070206003
:10295000206940F400702061206940F4807020619B
:10296000206840F0200020600F20C4F8FC0320699C
:1029700040F02000206100BF00BF00BF206840F091
:1029800020002060206840F480702060C4F8FC5370
:10299000206940F02000206100BF00BF00BF206818
:1029A00040F020002060206840F4807020602069A2
:1029B00040F400702061206940F48070206120683C
:1029C00040F0200020601020C4F8FC03206940F093
:1029D0002000206100BF00BF00BF206840F0200041
:1029E0002060206840F480702060C4F8FC532069A7
:1029F00040F02000206100BF00BF00BF206840F011
:102A000020002060206840F480702060206940F43D
:102A100000702061206940F480702061206840F0DF
:102A200020002060C4F8FC63206940F02000206191
:102A300000BF00BF00BF206840F020002060206879
:102A400040F4807020600720C4F8FC03206940F047
:102A50002000206100BF00BF00BF206840F02000C0
:102A60002060206840F480702060206940F400708D
:102A70002061206940F480702061206840F02000CF
:102A80002060C4F8FC93206940F02000206100BF62
:102A900000BF00BF206840F020002060206840F4A4
:102AA00080702060C4F8FC53206940F02000206151
:102AB00000BF00BF00BF206840F0200020602068F9
:102AC00040F480702060206940F40070206120692B
:102AD00040F480702061206840F020002060C4F83D
:102AE000FCB3206940F02000206100BF00BF00BFA0
:102AF000206840F020002060206840F48070206052
:102B0000C4F8FC53206940F02000206100BF00BFE2
:102B100000BF206840F020002060206840F48070F2
:102B20002060C820FDF730FD20694FF0320A40F4E4
:102B300000702061206940F480702061206840F0BE
:102B400020002060C4F8FC732069102740F02000AA
:102B5000206100BF00BF00BF206840F0200020605F
:102B6000206840F48070206041F29060C4F8FC035B
:102B7000206940F02000206100BF00BF00BF206836
:102B800040F020002060206840F4807020602069C0
:102B900040F400702061206940F48070206120685A
:102BA00040F020002060C4F8FC63206940F0200061
:102BB000206100BF00BF00BF206840F020002060FF
:102BC000206840F48070206040F22720C4F8FC03A5
:102BD000206940F02000206100BF00BF00BF2068D6
:102BE00040F020002060206840F480702060322097
:102BF000FDF7CAFC206940F400702061206940F4B0
:102C000080702061206840F020002060C4F8FC93B0
:102C1000206940F02000206100BF00BF00BF206895
:102C200040F020002060206840F4807020601D206B
:102C3000C4F8FC03206940F02000206100BF00BF01
:102C400000BF206840F020002060206840F48070C1
:102C500020603220FDF798FC206940F4007020616C
:102C6000206940F480702061206840F020002060DE
:102C7000C4F8FCB3206940F02000206100BF00BF11
:102C800000BF206840F020002060206840F4807081
:102C900020604FF40060C4F8FC03206940F020007D
:102CA000206100BF00BF00BF206840F0200020600E
:102CB000206840F480702060206940F4007020613A
:102CC000206940F480702061206840F0200020607E
:102CD0002920C4F8FC03206940F02000206100BFD7
:102CE00000BF00BF206840F020002060206840F452
:102CF000807020601420C4F8FC03206940F020009C
:102D0000206100BF00BF00BF206840F020002060AD
:102D1000206840F480702060206940F400702061D9
:102D2000206940F480702061206840F0200020601D
:102D30002B20C4F8FC03206940F02000206100BF74
:102D400000BF00BF206840F020002060206840F4F1
:102D5000807020600B20C4F8FC03206940F0200044
:102D6000206100BF00BF00BF206840F0200020604D
:102D7000206840F4807020603220FDF705FC206957
:102D8000032140F4007020612069072240F4807024
:102D90002061206840F0200020602020C4F8FC035F
:102DA000206940F02000206100BF00BF00BF206804
:102DB00040F020002060206840F480702060C4F85B
:102DC000FC53206940F02000206100BF00BF00BF1D
:102DD000206840F020002060206840F4807020606F
:102DE000206940F400702061206940F48070206107
:102DF000206840F0200020602120C4F8FC032069F6
:102E000040F02000206100BF00BF00BF206840F0FC
:102E100020002060206840F480702060C4F8FC53DB
:102E2000206940F02000206100BF00BF00BF206883
:102E300040F020002060206840F48070206020690D
:102E400040F400702061206940F4807020612068A7
:102E500040F0200020603020C4F8FC03206940F0DE
:102E60002000206100BF00BF00BF206840F02000AC
:102E70002060206840F480702060C4F8FC832069E2
:102E800040F02000206100BF00BF00BF206840F07C
:102E900020002060206840F480702060206940F4A9
:102EA00000702061206940F480702061206840F04B
:102EB000200020603120C4F8FC03206940F020008D
:102EC000206100BF00BF00BF206840F020002060EC
:102ED000206840F48070206040F20770C4F8FC0362
:102EE000206940F02000206100BF00BF00BF2068C3
:102EF00040F020002060206840F48070206020694D
:102F000040F400702061206940F4807020612068E6
:102F100040F020002060C4F8FCA3206940F02000AD
:102F2000206100BF00BF00BF206840F0200020608B
:102F3000206840F4807020600620C4F8FC032069FB
:102F400040F02000206100BF00BF00BF206840F0BB
:102F500020002060206840F480702060206940F4E8
:102F600000702061206940F480702061206840F08A
:102F7000200020603520C4F8FC03206940F02000C8
:102F8000206100BF00BF00BF206840F0200020602B
:102F9000206840F48070206040F20470C4F8FC03A4
:102FA000206940F02000206100BF00BF00BF206802
:102FB00040F020002060206840F48070206020698C
:102FC00040F400702061206940F480702061206826
:102FD00040F0200020603620C4F8FC03206940F057
:102FE0002000206100BF00BF00BF206840F020002B
:102FF0002060206840F48070206041F60470C4F8BE
:10300000FC03206940F02000206100BF00BF00BF2A
:10301000206840F020002060206840F4807020602C
:10302000206940F400702061206940F480702061C4
:10303000206840F0200020603720C4F8FC0320699D
:1030400040F02000206100BF00BF00BF206840F0BA
:1030500020002060206840F4807020600420C4F8C4
:10306000FC03206940F02000206100BF00BF00BFCA
:10307000206840F020002060206840F480702060CC
:10308000206940F400702061206940F48070206164
:10309000206840F0200020603820C4F8FC0320693C
:1030A00040F02000206100BF00BF00BF206840F05A
:1030B00020002060206840F480702060C4F8FC5339
:1030C000206940F02000206100BF00BF00BF2068E1
:1030D00040F020002060206840F48070206020696B
:1030E00040F400702061206940F480702061206805
:1030F00040F0200020603920C4F8FC03206940F033
:103100002000206100BF00BF00BF206840F0200009
:103110002060206840F48070206040F20670C4F89F
:10312000FC03206940F02000206100BF00BF00BF09
:10313000206840F020002060206840F4807020600B
:10314000206940F400702061206940F480702061A3
:10315000206840F0200020603C20C4F8FC03206977
:1031600040F02000206100BF00BF00BF206840F099
:1031700020002060206840F48070206040F20170E0
:10318000C4F8FC03206940F02000206100BF00BFAC
:1031900000BF206840F020002060206840F480706C
:1031A0002060206940F400702061206940F4807044
:1031B0002061206840F0200020603D20C4F8FC031E
:1031C000206940F02000206100BF00BF00BF2068E0
:1031D00040F020002060206840F4807020600F20C4
:1031E000C4F8FC03206940F02000206100BF00BF4C
:1031F00000BF206840F020002060206840F480700C
:103200002060206940F400702061206940F48070E3
:103210002061206840F0200020605020C4F8FC03AA
:10322000206940F02000206100BF00BF00BF20687F
:1032300040F020002060206840F480702060C4F8D6
:10324000FC53206940F02000206100BF00BF00BF98
:10325000206840F020002060206840F480702060EA
:10326000206940F400702061206940F48070206182
:10327000206840F0200020605120C4F8FC03206941
:1032800040F02000206100BF00BF00BF206840F078
:1032900020002060206840F480702060EF20C4F897
:1032A000FC03206940F02000206100BF00BF00BF88
:1032B000206840F020002060206840F4807020608A
:1032C000206940F400702061206940F48070206122
:1032D000206840F0200020605220C4F8FC032069E0
:1032E00040F02000206100BF00BF00BF206840F018
:1032F00020002060206840F480702060C4F8FC53F7
:10330000206940F02000206100BF00BF00BF20689E
:1033100040F020002060206840F480702060206928
:1033200040F400702061206940F4807020612068C2
:1033300040F0200020605320C4F8FC03206940F0D6
:103340002000206100BF00BF00BF206840F02000C7
:103350002060206840F48070206040F23F10C4F884
:10336000FC03206940F02000206100BF00BF00BFC7
:10337000206840F020002060206840F480702060C9
:10338000206940F400702061206940F48070206161
:10339000206840F0200020606020C4F8FC03206911
:1033A00040F02000206100BF00BF00BF206840F057
:1033B00020002060206840F4807020604FF41C5092
:1033C000C4F8FC03206940F02000206100BF00BF6A
:1033D00000BF206840F020002060206840F480702A
:1033E0002060206940F400702061206940F4807002
:1033F0002061206840F0200020606120C4F8FC03B8
:10340000206940F02000206100BF00BF00BF20689D
:1034100040F020002060206840F48070206001208F
:10342000C4F8FC03206940F02000206100BF00BF09
:1034300000BF206840F020002060206840F48070C9
:103440002060206940F400702061206940F48070A1
:103450002061206840F0200020606A20C4F8FC034E
:10346000206940F02000206100BF00BF00BF20683D
:1034700040F020002060206840F480702060C4F894
:10348000FC53206940F02000206100BF00BF00BF56
:10349000206840F020002060206840F480702060A8
:1034A000206940F400702061206940F48070206140
:1034B000206840F0200020608020C4F8FC032069D0
:1034C00040F02000206100BF00BF00BF206840F036
:1034D00020002060206840F480702060C4F8FC5315
:1034E000206940F02000206100BF00BF00BF2068BD
:1034F00040F020002060206840F480702060206947
:1035000040F400702061206940F4807020612068E0
:1035100040F0200020608120C4F8FC03206940F0C6
:103520002000206100BF00BF00BF206840F02000E5
:103530002060206840F480702060C4F8FC5320694B
:1035400040F02000206100BF00BF00BF206840F0B5
:1035500020002060206840F480702060206940F4E2
:1035600000702061206940F480702061206840F084
:10357000200020608220C4F8FC03206940F0200075
:10358000206100BF00BF00BF206840F02000206025
:10359000206840F480702060C4F8FC53206940F03B
:1035A0002000206100BF00BF00BF206840F0200065
:1035B0002060206840F480702060206940F4007032
:1035C0002061206940F480702061206840F0200074
:1035D00020608320C4F8FC03206940F020002061B3
:1035E00000BF00BF00BF206840F0200020602068BE
:1035F00040F480702060C4F8FC53206940F0200043
:10360000206100BF00BF00BF206840F020002060A4
:10361000206840F480702060206940F400702061D0
:10362000206940F480702061206840F02000206014
:103630008420C4F8FC03206940F02000206100BF12
:1036400000BF00BF206840F020002060206840F4E8
:1036500080702060C4F8FC53206940F02000206195
:1036600000BF00BF00BF206840F02000206020683D
:1036700040F480702060206940F40070206120696F
:1036800040F480702061206840F020002060852098
:10369000C4F8FC03206940F02000206100BF00BF97
:1036A00000BF206840F020002060206840F4807057
:1036B0002060C4F8FC53206940F02000206100BF66
:1036C00000BF00BF206840F020002060206840F468
:1036D00080702060206940F400702061206940F40F
:1036E00080702061206840F0200020609020C4F8A5
:1036F000FC03206940F02000206100BF00BF00BF34
:10370000206840F020002060206840F48070206035
:10371000C4F8FC73206940F02000206100BF00BFA6
:1037200000BF206840F020002060206840F48070D6
:103730002060206940F400702061206940F48070AE
:103740002061206840F0200020609220C4F8FC0333
:10375000206940F02000206100BF00BF00BF20684A
:1037600040F020002060206840F480702060C4F8A1
:10377000FC53206940F02000206100BF00BF00BF63
:10378000206840F020002060206840F480702060B5
:10379000206940F400702061206940F4807020614D
:1037A000206840F0200020609320C4F8FC032069CA
:1037B00040F02000206100BF00BF00BF206840F043
:1037C00020002060206840F480702060C4F8FC1362
:1037D000206940F02000206100BF00BF00BF2068CA
:1037E00040F020002060206840F480702060206954
:1037F00040F400702061206940F4807020612068EE
:1038000040F0200020609520C4F8FC03206940F0BF
:103810002000206100BF00BF00BF206840F02000F2
:103820002060206840F4807020604FF48870C4F8F5
:10383000FC03206940F02000206100BF00BF00BFF2
:10384000206840F020002060206840F480702060F4
:10385000206940F400702061206940F4807020618C
:10386000206840F0200020609720C4F8FC03206905
:1038700040F02000206100BF00BF00BF206840F082
:1038800020002060206840F480702060C4F8FC5361
:10389000206940F02000206100BF00BF00BF206809
:1038A00040F020002060206840F480702060206993
:1038B00040F400702061206940F48070206120682D
:1038C00040F0200020609820C4F8FC03206940F0FC
:1038D0002000206100BF00BF00BF206840F0200032
:1038E0002060206840F480702060C4F8FC53206998
:1038F00040F02000206100BF00BF00BF206840F002
:1039000020002060206840F480702060206940F42E
:1039100000702061206940F480702061206840F0D0
:1039200020002060C4F8FC13206940F020002061D2
:1039300000BF00BF00BF206840F02000206020686A
:1039400040F48070206041F21800C4F8FC03206944
:1039500040F02000206100BF00BF00BF206840F0A1
:1039600020002060206840F480702060206940F4CE
:1039700000702061206940F480702061206840F070
:1039800020002060C4F8FC23206940F02000206162
:1039900000BF00BF00BF206840F02000206020680A
:1039A00040F48070206040F27310C4F8FC0320697A
:1039B00040F02000206100BF00BF00BF206840F041
:1039C00020002060206840F48070206001B0BDE8D5
:1039D000F08F000070470000FCF7C4BE4EF6885020
:1039E000CEF20000016841F4700101604FF0006107
:1039F00040F8801C70470000FEE7000070B540F200
:103A00002845C4F6000555F8101C044641F0800115
:103A100045F8101C55F8101CA5F1100641F04001A6
:103A200045F8101C296841F080012960296841F09F
:103A300040002860A02008212A68013942F0400295
:103A40002A6042B2B2F1FF3F3246C8BF2A4613682D
:103A5000400043F08003136055F8102C0B0642F031
:103A6000400245F8102CE7D1286840F0400028605B
:103A7000FDF7E2FB082000BF2968013841F0400152
:103A8000296061B2B1F1FF3F3146C8BF29460A68DB
:103A9000640042F080020A6055F8101C020641F0F2
:103AA000400145F8101CE7D1286840F0400028602C
:103AB000FDF7C2FB2868082140F040002860286814
:103AC00040F08000286055F8100C40F0400045F8A8
:103AD000100C55F8100C40F0800045F8100C55F80B
:103AE000100C40F0800045F8100C55F8100C40F018
:103AF000400045F8100C286840F0800028602868D5
:103B000040F040002860A1202A68013942F04002BC
:103B10002A6042B2B2F1FF3F3246C8BF2A4613685C
:103B2000400043F08003136055F8102C0B0642F060
:103B3000400245F8102CE7D1286840F0400028608A
:103B4000FDF77AFBFDF736FB55F8101C41F08001BC
:103B500045F8101C55F8101C41F0400145F8101CA8
:103B6000296841F040012960296841F0400129603D
:103B7000296841F08001296055F8101C41F040018E
:103B800045F8101C55F8101C41F0800145F8101C38
:103B900070BD0000F0B581B040F22846C4F60006C2
:103BA00056F8102C0C4642F0800246F8102C56F8BD
:103BB000102C054642F0400246F8102C3268A6F15F
:103BC000100742F080013160316841F04000306000
:103BD000A02008213268013942F04002326042B22E
:103BE000B2F1FF3F3A46C8BF32461368400043F087
:103BF0008003136056F8102C0B0642F0400246F882
:103C0000102CE7D1306840F040003060FDF714FB25
:103C1000082000BF3168013841F04001316069B2CD
:103C2000B1F1FF3F3946C8BF31460A686D0042F026
:103C300080020A6056F8101C020641F0400146F866
:103C4000101CE7D1306840F040003060FDF7F4FA16
:103C5000082000BF3168013841F04001316061B295
:103C6000B1F1FF3F3946C8BF31460A68640042F0EF
:103C700080020A6056F8101C020641F0400146F826
:103C8000101CE7D1306840F040003060FDF7D4FAF6
:103C9000306840F040003060306840F080003060B4
:103CA00056F8100C40F0400046F8100C56F8100C76
:103CB00040F08001142046F8101C01B0BDE8F0402F
:103CC000FCF762BC94B0FCF75BFD06AC20463821E3
:103CD000FCF77AFB00254FF400700595CDE90355FC
:103CE000CDE90155FCF7DCFD012006904FF4803052
:103CF0000790022014210D900326CDE91010CDE984
:103D000012002046CDE90E66FCF7EAFF18B1EFF38A
:103D1000108072B6FEE70F20CDE9010601A802214E
:103D2000CDE903550595FCF749FE20B1EFF310806E
:103D300072B600BFFEE7FDF729FEFDF7E5FC4FF682
:103D4000FF70FDF717FE0020FDF708FE0020FDF7CD
:103D5000C9FAFDF71BFA01204221FFF71BFF0120E2
:103D6000FFF74CFE044606A506AE00BF30462946C6
:103D70002246FCF7A5FA00203146FDF76BFBF5E77C
:103D8000202020202020256420202020202020000A
:103D9000F1EE100A4FF6FF71C0F2C03120EA0100C7
:103DA00040F04070E1EE100A704700000000000093
:103DB00000000102030406070809000000000000DB
:103DC00000000000000000000000000000000000F3
:103DD00000000000000000000000000000000000E3
:103DE00000000000000000000000000080018001D1
:103DF00080018001800180018001800180018001BB
:103E0000800180018001000000008001800100002D
:103E10000000000000000000000000000000CC00D6
:103E2000CC00CC00CC00CC00CC0000000000000096
:103E30000000000000000000000000000000000082
:103E40000000000000000000000000000000000072
:103E5000000000000000600C600C600C30063006B2
:103E6000FE1FFE1F300638071803FE1FFE1F180333
:103E700018038C018C018C01000000008000E0031D
:103E8000F80F9C0E8C1C8C188C009800F801E00731
:103E9000800E801C8C188C189C18B80CF00FE00356
:103EA0008000800000000000000000000000000012
:103EB0000E181B0C110C11061106110311039B01A6
:103EC0008E01C038C06C60446044304430441844B3
:103ED000186C0C380000000000000000E001F00346
:103EE0003807180618063003F001F000F8009C317E
:103EF0000E33061E061C061C063FFC73F021000054
:103F000000000000000000000000000000000C00A5
:103F10000C000C000C000C000C0000000000000065
:103F20000000000000000000000000000000000091
:103F3000000000000000000000000000000200037C
:103F40008001C000C0006000600030003000300020
:103F50003000300030003000300060006000C000F1
:103F6000C00080010003000200000000200060008B
:103F7000C000800180010003000300060006000667
:103F8000000600060006000600060003000380018C
:103F90008001C00060002000000000000000000060
:103FA000000000000000C000C000D806F807E001D3
:103FB000300338070000000000000000000000008F
:103FC00000000000000000000000000000000000F1
:103FD000000000000000800180018001800180015C
:103FE000FC3FFC3F800180018001800180010000D6
:103FF00000000000000000000000000000000000C1
:1040000000000000000000000000000000000000B0
:10401000000000000000000000000000800180019E
:10402000000100018000000000000000000000000E
:104030000000000000000000000000000000000080
:104040000000E007E00700000000000000000000A2
:104050000000000000000000000000000000000060
:104060000000000000000000000000000000000050
:10407000000000000000000000000000C000C000C0
:10408000000000000000000000000000000C000C18
:104090000006000600060003000300038003800101
:1040A00080018001C000C000C0006000600000000E
:1040B000000000000000000000000000E003F00726
:1040C000380E180C0C180C180C180C180C180C18AE
:1040D0000C180C180C18180C380EF007E003000030
:1040E000000000000000000000000000000180014E
:1040F000C001F001980188018001800180018001E8
:104100008001800180018001800180018001000028
:10411000000000000000000000000000E003F80FB5
:10412000180C0C180C1800180018000C00060003DE
:104130008001C000600030001800FC1FFC1F000060
:10414000000000000000000000000000E001F8078F
:10415000180E0C0C0C0C000C0006C003C007000C61
:10416000001800180C180C18180CF807E0030000D1
:10417000000000000000000000000000000C000E25
:10418000000F000F800DC00C600C600C300C180C80
:104190000C0CFC3FFC3F000C000C000C000C000061
:1041A000000000000000000000000000F80FF80F01
:1041B000180018000C00EC03FC071C0E001C001873
:1041C000001800180C181C0C180EF807E00300006B
:1041D000000000000000000000000000C007F00F19
:1041E000381C181818000C00CC03EC0F3C0E1C1CDB
:1041F0000C180C180C18181C380EF007E0030000FF
:10420000000000000000000000000000FC1FFC1F78
:10421000000C00060006000380038001C001C000FE
:10422000E0006000600070003000300030000000EE
:10423000000000000000000000000000E003F007A4
:10424000380E180C180C180C3806F007F007180C6C
:104250000C180C180C180C18380CF80FE0030000A0
:10426000000000000000000000000000E003F00774
:10427000380E1C0C0C180C180C181C1C381EF81BC3
:10428000E0190018000C000C1C0EF807F0010000EB
:10429000000000000000000000000000000000001E
:1042A000000000000000800180010000000000000C
:1042B00000000000000000000000800180010000FC
:1042C00000000000000000000000000000000000EE
:1042D00000000000000080018001000000000000DC
:1042E00000000000000000000000800180010001CB
:1042F000000180000000000000000000000000003D
:10430000000000000000000000000010001C800FF2
:10431000E003F8001800F800E003800F001C001014
:10432000000000000000000000000000000000008D
:1043300000000000000000000000F81F0000000066
:104340000000F81F00000000000000000000000056
:10435000000000000000000000000000000000005D
:104360000000000000000000000008003800F0011C
:10437000C007001F0018001FC007F0013800080028
:10438000000000000000000000000000E003F80F43
:10439000180C0C180C180018000C00060003800103
:1043A000C000C000C00000000000C000C00000004D
:1043B0000000000000000000000000000000E00716
:1043C00018180420C229224A114409440944094406
:1043D00009221113E20C024004201818E007000023
:1043E00000000000000000000000000080038003C7
:1043F000C006C006C006600C600C301830183018BB
:10440000F83FF83F1C700C600C6006C006C000004E
:10441000000000000000000000000000FC03FC0F92
:104420000C0C0C180C180C180C0CFC07FC0F0C18BE
:104430000C300C300C300C300C18FC1FFC0700004A
:10444000000000000000000000000000C007F01F96
:1044500038381C300C7006600600060006000600A6
:104460000600060006600C701C30F01FE00700001C
:10447000000000000000000000000000FE03FE0F2E
:10448000060E0618061806300630063006300630CE
:104490000630063006180618060EFE0FFE03000052
:1044A000000000000000000000000000FC3FFC3F96
:1044B0000C000C000C000C000C00FC1FFC1F0C007E
:1044C0000C000C000C000C000C00FC3FFC3F00003A
:1044D000000000000000000000000000F83FF83F6E
:1044E00018001800180018001800F81FF81F18000E
:1044F0001800180018001800180018001800000014
:10450000000000000000000000000000E00FF83F85
:104510003C780E6006E007C00300030003FE03FEC4
:1045200003C007C006C00EC03CF0F83FE00F00001B
:104530000000000000000000000000000C300C3003
:104540000C300C300C300C300C30FC3FFC3F0C308D
:104550000C300C300C300C300C300C300C300000B7
:104560000000000000000000000000008001800149
:104570008001800180018001800180018001800133
:1045800080018001800180018001800180010000A4
:10459000000000000000000000000000000600060F
:1045A00000060006000600060006000600060006DB
:1045B00000060006180618063807F003E0010000A0
:1045C0000000000000000000000000000630061897
:1045D000060C060606038601C60066007600DE00AD
:1045E0008E0106030606060C06180630066000005B
:1045F000000000000000000000000000180018008B
:1046000018001800180018001800180018001800EA
:1046100018001800180018001800F81FF81F0000F4
:104620000000000000000000000000000EE01EF08E
:104630001EF01EF036D836D836D836D866CC66CCC2
:1046400066CCC6C6C6C6C6C6C6C686C386C3000076
:104650000000000000000000000000000C301C30D2
:104660003C303C306C306C30CC30CC308C310C3346
:104670000C330C360C360C3C0C3C0C380C30000067
:10468000000000000000000000000000E007F81F2C
:104690001C380E70066003C003C003C003C003C013
:1046A00003C003C006600E701C38F81FE00700004E
:1046B000000000000000000000000000FC0FFC1FD4
:1046C0000C380C300C300C300C300C18FC1FFC0774
:1046D0000C000C000C000C000C000C000C00000086
:1046E000000000000000000000000000E007F81FCC
:1046F0001C380E70066003E003C003C003C003C093
:1047000003C007E006630E3F1C3CF83FE0F700C023
:10471000000000000000000000000000FE0FFE1F6F
:1047200006380630063006300638FE1FFE07060340
:104730000606060C0618061806300630066000004D
:10474000000000000000000000000000E003F80F7F
:104750001C0C0C180C180C001C00F803E00F001EB9
:104760000038063006300E301C1CF80FE007000041
:10477000000000000000000000000000FE7FFE7F3F
:104780008001800180018001800180018001800121
:104790008001800180018001800180018001000092
:1047A0000000000000000000000000000C300C3091
:1047B0000C300C300C300C300C300C300C300C3019
:1047C0000C300C300C300C301818F81FE0070000CB
:1047D0000000000000000000000000000360063040
:1047E000063006300C180C180C18180C180C380E63
:1047F00030063006700760036003C001C00100008E
:104800000000000000000000000000000360C36121
:10481000C361C361663366336633663366336633BA
:104820006C1B6C1B6C1B2C1A3C1E380E380E0000C7
:104830000000000000000000000000000FE00C700D
:1048400018303018700C600EC00780038003C0035E
:10485000E006700C301C18180C300E6007E00000E9
:1048600000000000000000000000000003C006601F
:104870000C301C383818300C6006E007C00380018B
:1048800080018001800180018001800180010000A1
:10489000000000000000000000000000FC7FFC7F22
:1048A000006000300018000C000600038001C0000A
:1048B0006000300018000C000600FE7FFE7F000044
:1048C000000000000000000000000000E003E00322
:1048D00060006000600060006000600060006000D8
:1048E00060006000600060006000600060006000C8
:1048F00060006000E003E0030000000030003000D2
:10490000600060006000C000C000C000C001800105
:104910008001800100030003000300060006000080
:10492000000000000000000000000000E003E003C1
:10493000000300030003000300030003000300035F
:10494000000300030003000300030003000300034F
:1049500000030003E003E003000000000000C001CA
:10496000C00160036003600330063006180C180CA9
:104970000000000000000000000000000000000037
:104980000000000000000000000000000000000027
:104990000000000000000000000000000000000017
:1049A000000000000000000000000000FFFFFFFF0B
:1049B0000000000000000000000000000C000C00DF
:1049C0000C000C000C000C000000000000000000B7
:1049D00000000000000000000000000000000000D7
:1049E00000000000000000000000000000000000C7
:1049F000000000000000F003F8071C0C0C0C000F76
:104A0000F00FF80C0C0C0C0C1C0FF80FF018000039
:104A10000000000000000000000000001800180066
:104A2000180018001800D803F80F380C18181818B8
:104A30001818181818181818380CF80FD803000090
:104A40000000000000000000000000000000000066
:104A5000000000000000C003F007300E180C180022
:104A6000180018001800180C300EF007C0030000E2
:104A70000000000000000000000000000018001806
:104A8000001800180018C01BF01F301C1818181848
:104A90001818181818181818301CF01FC01B000020
:104AA0000000000000000000000000000000000006
:104AB000000000000000C003F00F300C1818F81FB1
:104AC000F81F180018003818301CF00FC00700003D
:104AD000000000000000000000000000800FC00F78
:104AE000C000C000C000F007F007C000C000C00058
:104AF000C000C000C000C000C000C000C000000076
:104B000000000000000000000000000000000000A5
:104B1000000000000000E00DF80F180E0C0C0C0C4B
:104B20000C0C0C0C0C0C0C0C180EF80FE00D000CFF
:104B30000C0C1C06F807F00100000000180018001B
:104B4000180018001800D807F80F381C1818181883
:104B50001818181818181818181818181818000005
:104B6000000000000000000000000000C000C000C5
:104B7000000000000000C000C000C000C000C00075
:104B8000C000C000C000C000C000C000C0000000E5
:104B9000000000000000000000000000C000C00095
:104BA000000000000000C000C000C000C000C00045
:104BB000C000C000C000C000C000C000C000C000F5
:104BC000C000C000F8007800000000000C000C00DD
:104BD0000C000C000C000C0C0C060C038C01CC001F
:104BE0006C00FC009C018C030C030C060C0C0000F8
:104BF000000000000000000000000000C000C00035
:104C0000C000C000C000C000C000C000C000C000A4
:104C1000C000C000C000C000C000C000C000000054
:104C20000000000000000000000000000000000084
:104C30000000000000007C3CFF7EC7E383C183C10D
:104C400083C183C183C183C183C183C183C1000088
:104C50000000000000000000000000000000000054
:104C60000000000000009807F80F381C18181818EA
:104C700018181818181818181818181818180000E4
:104C80000000000000000000000000000000000024
:104C9000000000000000C003F00F300C18181818B6
:104CA0001818181818181818300CF00FC003000046
:104CB00000000000000000000000000000000000F4
:104CC000000000000000D803F80F380C181818185E
:104CD0001818181818181818380CF80FD8031800D6
:104CE0001800180018001800000000000000000064
:104CF000000000000000C01BF01F301C181818181E
:104D00001818181818181818301CF01FC01B001895
:104D10000018001800180018000000000000000033
:104D2000000000000000B007F00370003000300009
:104D30003000300030003000300030003000000023
:104D40000000000000000000000000000000000063
:104D5000000000000000E003F003380E180C3800DB
:104D6000F003C007000C180C380EF007E003000039
:104D700000000000000000000000000000008000B3
:104D8000C000C000C000F007F007C000C000C000B5
:104D9000C000C000C000C000C000C0078007000005
:104DA0000000000000000000000000000000000003
:104DB0000000000000001818181818181818181803
:104DC0001818181818181818381CF01FE0190000C7
:104DD00000000000000000000000000000000000D3
:104DE0000000000000000C18180C180C180C3006FD
:104DF00030063006600360036003C001C00100009C
:104E000000000000000000000000000000000000A2
:104E1000000000000000C141C141C36163636363DE
:104E200063633636363636361C1C1C1C1C1C0000D0
:104E30000000000000000000000000000000000072
:104E40000000000000001C38381C300C60066003B5
:104E50006003600360036006300C381C1C380000DF
:104E60000000000000000000000000000000000042
:104E70000000000000001830301830187018600C66
:104E8000600CE00CC006C006800380038003800134
:104E90008001C001F0007000000000000000000070
:104EA000000000000000FC1FFC1F000C00060003B7
:104EB0008001C000600030001800FC1FFC1F0000D3
:104EC000000000000000000000000000000380015E
:104ED000C000C000C000C000C000C0006000600092
:104EE000300060004000C000C000C000C000C00032
:104EF000C00080010003000000000000800180016C
:104F00008001800180018001800180018001800199
:104F10008001800180018001800180018001800189
:104F20008001800180018001000000006000C0005D
:104F3000C001800180018001800180010003000325
:104F400000060003000180018001800180018001D2
:104F50008001C000600000000000000000000000B0
:104F600000000000000000000000F010F81F080F13
:104F70000000000000000000000000000000000031
:104F8000000000000000000000000000B04F00081A
:104F9000000000201000000014020008C04F0008AC
:104FA0001000002068060000300200080000000029
:104FB000FFFF00000024F4000100000010000000CA
:04000005080001D915
:00000001FF
