:020000040800F2
:10000000B8080020ED01000887480008BB38000848
:1000100085480008DD080008855F00080000000032
:10002000000000000000000000000000C94D0008B2
:100030007909000800000000E9480008CB4D0008DD
:10004000070200080702000807020008070200086C
:10005000070200080702000807020008070200085C
:10006000070200080702000807020008070200084C
:10007000070200080702000807020008070200083C
:10008000070200080000000007020008070200083D
:10009000070200080702000807020008070200081C
:1000A0006D4E00080702000807020008070200085A
:1000B000794E0008854E0008070200080702000874
:1000C00007020008070200080702000807020008EC
:1000D00007020008795F000807020008070200080D
:1000E00007020008070200080702000807020008CC
:1000F00007020008070200080702000800000000CD
:1001000000000000070200080000000007020008CD
:100110000702000800000000914E000807020008D6
:10012000070200080702000807020008070200088B
:10013000070200080000000000000000070200089D
:10014000070200080702000800000000000000008D
:10015000000000000000000000000000000000009F
:10016000000000000000000000000000070200087E
:10017000070200080000000000000000000000006E
:10018000000000000702000800000000000000005E
:10019000000000000000000000000000000000005F
:1001A000000000000000000007020008070200082D
:1001B000070200080702000807020008000000000C
:1001C000000000000702000800000000000000001E
:1001D0000702000807020008DFF80CD000F0DEFA82
:1001E00000480047F1680008B8080020064880472A
:1001F00006480047FEE7FEE7FEE7FEE7FEE7FEE70C
:10020000FEE7FEE7FEE7FEE7514E0008D9010008D1
:100210002DE9F05F0546002092469B46884606463B
:10022000814640241BE0284641464746224600F0CE
:1002300071F953465A46C01A914110D311461846D7
:10024000224600F058F92D1A67EB01084F46224666
:100250000120002100F04FF917EB00094E41201E4C
:10026000A4F10104DFDC484631462A464346BDE896
:10027000F09FD2B201E000F8012B491EFBD270477B
:100280000022F6E710B513460A4604461946FFF762
:10029000F0FF204610BD2DE9FE4F81EA030404F073
:1002A000004421F0004100944FF0000B23F0004384
:1002B00050EA01045ED052EA03045BD0C3F30A544F
:1002C000C1F30A552C44A4F2F3340194A0FB025468
:1002D000C1F3130141F48011C3F3130343F48013FA
:1002E00001FB024400FB034E840A970A44EA81544E
:1002F00047EA8357A4FB076802958D0A05FB07852B
:100300004FEA932C04FB0C542705029D4FEA065834
:1003100047EA1637B5EB08056EEB070C870E920E11
:1003200047EA811742EA8312A7FB0201B6EB0B01F1
:1003300064EB00042B0D43EA0C335E1844EB1C50B5
:10034000DA465146E7FB0201C5F313044FEA0B33CB
:1003500043EA14534FEA0432019C43EA0603A4F132
:100360000C040294009CCDE900B400F0F2F803B054
:10037000BDE8F08F00200146F9E72DE9F04D81EA54
:10038000030404F0004B21F0004514464FF0000A2E
:1003900023F0004150EA050220D054EA01021DD0AA
:1003A000C5F30A570246C5F31303C1F31300C1F3A3
:1003B0000A5640F4801543F48013A7EB0608101B7F
:1003C000D64608F2FD3873EB050002D308F10108A8
:1003D00001E092185B41B8F1000F03DA00200146FA
:1003E000BDE8F08D00204FF48011064684460EE0F3
:1003F000171B73EB050705D3121B63EB05030643BD
:100400004CEA010C49084FEA300092185B4150EA6F
:100410000107EDD152EA030012D082EA040083EA18
:100420000501084305D0101BAB4106D20122002371
:1004300006E000224FF0004302E06FF0010253108B
:100440001AEB06004CEB085110EB0A0041EB0B01D4
:10045000BDE8F04D00F06EB80EB540F233410291A8
:100460000021CDE900110A460B4600F072F803B0F6
:1004700000BDC1F30A5210B5C1F3130140F2FF33BE
:1004800041F480119A4201DA002010BD40F233435A
:100490009A42A2F2334203DC524200F03BF810BD14
:1004A000904010BD00F0004230F000400AD0C10D75
:1004B00001F56071C0F3160042EA0151C20840071D
:1004C0001143704700200146704730B50B46014686
:1004D00000202022012409E021FA02F59D4205D3E3
:1004E00003FA02F5491B04FA02F52844151EA2F18D
:1004F0000102F1DC30BD202A04DB203A00FA02F1CF
:10050000002070479140C2F1200320FA03F3194301
:1005100090407047202A04DB203A21FA02F00021A3
:10052000704721FA02F3D040C2F120029140084303
:100530001946704710B5141E73F1000408DA401C08
:1005400041F1000192185B411A4301D120F00100F2
:1005500010BD2DE9F04D92469B4611B1B1FA81F2E2
:1005600002E0B0FA80F220329046FFF7C4FF044662
:100570000F4640EA0A0041EA0B0153465A46084337
:1005800013D0114653EA010019D0C8F14002504679
:10059000FFF7C0FF05460E46504659464246FFF754
:1005A000AAFF084305D0012004E020463946BDE8F3
:1005B000F08D0020054346EAE0762C4337430A9845
:1005C0006305E40AA0EB08000022FD0A44EA475450
:1005D0000A3002D500200146E9E7010510196941FA
:1005E000DDE9084500196941BDE8F04DA2E72DE9B4
:1005F000FE4F804681EA0300C00F0C46009021F0B8
:10060000004123F00045B8EB0200A94105D2404665
:10061000214690461C460B46024623F000401043FC
:1006200047D0270DC7F30A00C3F30A510290401ABE
:10063000019040286BDAC3F3130040F4801B00984C
:10064000924620B10023D2EB030A63EB0B0B019817
:100650005946C0F140025046FFF74DFF06460D4691
:1006600050465946019A00F0ABF810EB0800614182
:10067000002487EA115284EAE7731A4340D0009AB3
:1006800062B3019A012A4FEA075215DC001B61EBA5
:1006900002014FF0004202EA0752CDE90042001C7D
:1006A00041F5801132462B46FFF753FF03B0BDE8FA
:1006B000F08F40462146F9E7001B61EB0201001C68
:1006C00041F5801300185B412018A2F5001747EB95
:1006D000030140EAD570B6196D4111E06D084FEA8B
:1006E000360645EAC0754FEA0752001B61EB02016E
:1006F000001C41F5801149084FEA300000195141B2
:1007000032462B4603B0BDE8F04FFFF713BF009809
:10071000012240000023D0EB020263EBE07300985B
:1007200021464FEAE074B8EB000061EB0401E9E711
:1007300083F000435BE781F0004158E7C1F30A52C0
:10074000C1F3130140F2FF3341F480119A4202DAFF
:1007500000200146704740F233439A42A2F23342EE
:1007600002DC5242FFF7D6BEFFF7C5BE30B5041E0D
:1007700071F1000404DB4FF00044404264EB0101DE
:10078000141E73F1000405DB1C464FF00043524277
:1007900063EB0403994208BF904230BD064C074DFD
:1007A00006E0E06840F0010394E807009847103441
:1007B000AC42F6D3FFF714FDC47B0008E47B0008CD
:1007C000202A06DBCB17203A41FA02F043EAE07315
:1007D00006E041FA02F3D040C2F120029140084302
:1007E0001946704770B504460068816811F0010F22
:1007F00028D18168144A114215D18168D543294016
:10080000491C816000F0E6FF064616E0816811F0A1
:10081000010F03D181682940491C816000F0DAFF93
:10082000801B022809D9E06D40F01000E065206EC1
:1008300040F001002066012070BD20680168C943B6
:10084000C907E3D1002070BD3F00008010B51E48ED
:100850002DED028B00F06CFC1B4800F017FB00EE46
:10086000100A9FED1B8ADFED1B8AF8EE400A174C39
:1008700080EE880A6062184820EE280A84ED0A0A91
:1008800000F056FC144800F001FB00EE100A206254
:100890001148F8EE400A80EE880A20EE280A84ED1E
:1008A0000B0A00F045FC0C4800F0F0FA00EE100ACC
:1008B0002063B8EE400AC0EE080A20EEA80A84EDD4
:1008C0000D0ABDEC028B10BD6C0100200800002059
:1008D00000F07F453333534000010020FEE7000065
:1008E00070B5214C2DED048B9FED1D8B94ED160BF7
:1008F00053EC182B51EC100BFFF73FFD9FED1B9BAA
:1009000053EC192BFFF7C7FCFFF7B3FD85B2258128
:1009100094ED180B53EC182B51EC100BFFF72DFD39
:1009200053EC192BFFF7B7FCFFF7A3FD6081002202
:100930002B4611460F4800F0CFFD00210D4800F076
:10094000D8FD6389002210210A4800F0C5FDBDECE6
:10095000048B1021BDE87040064800F0CABD0000BD
:100960006666666666660A400800002000000000B1
:1009700000FEAF40D80100207047002240F6B83397
:1009800006E00021491C89B29942FBD3521C92B265
:100990008242F6D3704770472DE9F047044690F83D
:1009A00058009CB00D464FF00008012814D00120DB
:1009B00084F8580020684FF0A0474FF00009B84273
:1009C0000ED1284E0096304603F070FB8246206818
:1009D00003F06CFB60B10EE002201CB0BDE8F087B4
:1009E000E16D41F02001E16584F858900120F4E7C1
:1009F000BAF1000F0AD0E06D40F02000E0654FF042
:100A0000010800BF84F858904046E6E716482A6877
:100A100040F61F71002A826822F4604215D094F8D3
:100A2000383042EA43326B681A438260BA68B3686E
:100A300002F0010203F001031A43E3D1AB682A6814
:100A40001A4383688B431A430AE08260BA68B3682A
:100A500002F0010203F001031A43D3D182688A43F2
:100A60008260CFE700010050000300502DE9F84FED
:100A700000270446009790F85800DFF8DC930D46F5
:100A8000B846012811D0012684F85860206803F088
:100A900009FB60B1E06D40F02000E0655FF0010708
:100AA00084F858803846BDE8F88F0220FBE7D5E986
:100AB00000210C23206803EA91131844036B01F012
:100AC0001F014FF01F0C0CFA01FCC2F3846223EAF1
:100AD0000C038A4013430363206803F0E3FA824661
:100AE000206803F0DBFA5AEA00003CD1AA682968C2
:100AF0002068B2F1004F37D003F0DCFA206841697A
:100B000021F00041416120686969C268C2F3C102F5
:100B1000520091402A69042A31D000EB82002B68F0
:100B2000026EDFF838C303F0F84302EA0C020B430D
:100B30001A4342F00041016622682869A96902EB64
:100B40008000026E22F080720A430266297F2068CC
:100B50002A69012910D0002100EB8200026E22F0E8
:100B600000720A4302667DE0002203F0A3FA2068C7
:100B7000416941F00041C5E74FF00071ECE7002109
:100B800003F086FA400320684FF0000172D003F0B2
:100B90007FFA90FAA0F0B0FA80F1286842036ED094
:100BA00090FAA0F0B0FA80F0814204D10022114600
:100BB000206803F08EFA0121206803F069FA4003EF
:100BC00020684FF001015DD003F062FA90FAA0F0C6
:100BD000B0FA80F12868420359D090FAA0F0B0FA38
:100BE00080F0814204D100220121206803F071FAD3
:100BF0000221206803F04CFA400320684FF0020104
:100C000048D003F045FA90FAA0F0B0FA80F12868D5
:100C1000420344D090FAA0F0B0FA80F0814204D1AF
:100C200000220221206803F054FA0321206803F017
:100C30002FFA400320684FF0030133D003F028FA65
:100C400090FAA0F0B0FA80F1286842032FD090FA11
:100C5000A0F0B0FA80F0814204D100220321206884
:100C600003F037FA2068816811F0010F22D0ACE060
:100C700000E004E003F00CFAC0F384618DE7C0F3F8
:100C8000846091E703F004FAC0F38461A2E7C0F343
:100C90008460A6E703F0FCF9C0F38461B7E7C0F312
:100CA0008460BBE703F0F4F9C0F38461CCE7C0F3E0
:100CB0008460D0E72A7B296850F8B03FC1F3120C5A
:100CC00023EA0C0302F0180C654A22FA0CF20A40DF
:100CD00013430360E968494577D1286841031CD074
:100CE00090FAA0F1B1FA81F1491C01F01F01092924
:100CF0004FEA403132D8002912D000BF90FAA0F15B
:100D0000B1FA81F101F1010101F01F0106FA01F6CA
:100D100009D100BFC0F3846109E0C0F38461E3E757
:100D2000C0F38461EEE790FAA0F1B1FA81F101F12C
:100D3000010101F01F0146EA816102D1C0F3846024
:100D400003E090FAA0F0B0FA80F000F1010000F0AA
:100D50001F0000EB400041EA005132E000290ED0B4
:100D600090FAA0F1B1FA81F101F1010101F01F0146
:100D700006FA01F606D100BFC0F3846106E0C0F3B5
:100D80008461F1E790FAA0F1B1FA81F101F101017A
:100D900001F01F0146EA816102D1C0F3846003E0E3
:100DA00090FAA0F0B0FA80F000F1010000F01F000E
:100DB0002C4A00EB400002EB005041EA000141F0F8
:100DC0000071AA68206803F075F927482A68024272
:100DD0003FF466AE25488168254B01F0E0719A42E8
:100DE00002D0244B9A421BD10B0219D42268B2F1D3
:100DF000A04F7FF455AE826841F4000122F0E0720A
:100E00000A4382601C481D490068B0FBF1F000EB0A
:100E10004000800000E0401E00900028FBD13FE62B
:100E2000174D184BAA4207D1CD0105D422689A422A
:100E3000F5D041F0807109E0134DAA42EFD14A028A
:100E4000EDD422689A42EAD041F48001826822F00F
:100E5000E0720A43826023E600007F4000F0FF0357
:100E6000FFFF0700000020FE000008800003005084
:100E7000000021C31000C09080000020400D03003E
:100E8000000052C700010050000084CB0068006CD5
:100E900070470000F8B54FF0000504002E4600959D
:100EA00002D0E06D10B107E00120F8BD204600F04F
:100EB000EDF8266684F8586020688168C1F34071B7
:100EC00019B18168694A1140816020688168C1F365
:100ED000007179B98168664A114041F080518160A2
:100EE000644865490068B0FBF1F000E0401E0090E6
:100EF0000028FBD120688168C1F3007141B9E16D20
:100F000041F01001E165216E41F0010121660125EA
:100F100003F0C8F8E16DC90600D430B1E06D40F0CF
:100F20001000E06501252846F8BDE06D20F48070D2
:100F300040F00200E0652068806810F0010F11D1D8
:100F40004FF0A04080684D4900F00100896801F031
:100F50000101084306D14A486168826822F47C1284
:100F60000A438260E168E06B627F0843A16841EA5E
:100F70004231084394F8241040EA0140012904D189
:100F8000218D404A02EB41410843E16A29B101F455
:100F90007871226B014342EA01002168CA683A4B2A
:100FA0001A400243CA6020680169626B21F0406107
:100FB00011430161206803F075F80646206803F0CC
:100FC0006DF830432ED1207F94F83810800340EA2A
:100FD00041022068C16844F2020399431143C16091
:100FE00020690028206801690AD041F4803101613C
:100FF000206850F8C01F22696FF30D01114307E00C
:1010000021F480310161206850F8C01F6FF30D0199
:10101000016094F8400001280CD02068016921F09B
:1010200001010161606901282068016B21F00F0155
:1010300011D013E0D4E911010843D4E9131211438C
:10104000084321680A6940F2FC739A43104340F058
:1010500001000861E6E7226A521E11430163E06D58
:1010600020F0020040F00100E0655CE7C0FFFF5F98
:10107000C0FFFF7F80000020400D030000010050F2
:10108000000300500000FEFF0740F0FFF0B587B0FE
:10109000044614216846FFF7F3F8214B2668002424
:1010A0001A6803251F482049521CB6F1A04F06D0EC
:1010B0001E4FBE4231D11A60012A16D01DE01A60BF
:1010C000012A07D1CA6C42F40052CA64CA6C02F405
:1010D00000520592CA6C42F00202CA64C96C01F067
:1010E000020105914FF4A04111E0CA6C42F4005294
:1010F000CA64CA6C02F400520592CA6C42F0020241
:10110000CA64C96C01F0020105914FF40041CDE9B8
:1011100000150294694600F06FFA07B0F0BD0000B8
:101120007000002000040048001002400001005040
:101130002DE9F04104463848806800F01F0520681A
:1011400002F0B0FF18B102210846BDE8F08194F822
:10115000580001280CD0012084F858002046FFF7E1
:1011600041FB01004FF0000304D084F85830EBE756
:101170000220EAE7E06D40F60162904340F480709F
:10118000E065264A20684FF0A046904201D13746DC
:1011900000E00746874200D01DB9E76D27F48017AD
:1011A000E765E76DFF0404D5276E27F0060727667D
:1011B00000E023661C27076084F8583020689042BE
:1011C00001D1334600E00346834215D0A5B1052D79
:1011D00012D0092D10D0E36D43F48013E3659042E3
:1011E00000D13046C0688001AED5E06D20F40050DB
:1011F00040F48050E065A7E7C268920105D5E26D32
:1012000022F4005242F48052E2658268044B1A4094
:10121000121D826098E7000000030050000100509A
:10122000C0FFFF7F704700002DE9F047044640797A
:1012300000270D4601280BD04FF0010984F80590D6
:1012400002202071A86802F01006042803D043E0B1
:101250000220BDE8F0874FF0030802BB00F0BAFAA5
:10126000074604E000F0B6FAC01B01280FD820683A
:10127000406B0004F6D4012000F0ACF92168686AE4
:10128000086416E000F0A6FAC01B012807D92069FF
:1012900040F00800206184F804800320D9E720682A
:1012A000406B0028EEDB012000F094F92168686AA9
:1012B00048642068816C40F2FF32B2409143AA6AD0
:1012C000B240114381642068C16CFF22B240914357
:1012D000EA6AB2401143C164E869012808D1226872
:1012E000916B1F20B0408143286AB040084390634F
:1012F0002068C06B0721B1408843A969CA0703D1A0
:10130000890755D46969E9B300216B69AA681A4352
:101310000A434FF4807101FA06F398432B79012BAD
:1013200000D0002111434FF4007202FA06F39843F3
:101330006B79012B00D0002220F44047286842EA54
:101340000108022836D00743216808FA06F038431E
:10135000C863206801684FF48042B2409143016045
:101360002268116840F6FE70B0408143E868B040E2
:101370000843106020680168C022B24091430160B8
:10138000287B00E014E0297CC0F3830001F03C01DD
:1013900040EA811021680A6E40F60F73B3409A4309
:1013A000B04002430A6684F804900020607150E760
:1013B0000121AAE700F03AFD0549884202D947F425
:1013C0000047C1E703498842BED947F48047BBE7DD
:1013D0000068890900B4C404704770B50446006809
:1013E00001684FF00405890411D5416B89040ED5BD
:1013F0002571216941F001012161E9024163206801
:10140000016821F4805101602046FFF7E5FF206864
:101410000168890014D5416B890011D525712169B6
:1014200041F0020121614FF00051416320680168E1
:1014300021F0805101602046BDE87040FFF7F2BE08
:1014400070BD70B5040003D02079002510B105E00F
:10145000012070BD6571204600F008F8022020715F
:10146000256101202071002070BD000010B586B0FC
:10147000044614216846FEF703FF15492068884298
:1014800023D11448C16C41F48031C164C16C01F4B2
:1014900080310591C16C41F00101C164C06C6946A5
:1014A00000F0010005903020009003200190002002
:1014B00002904FF0904000F09FF800221146362035
:1014C00000F0F2F9362000F0E1F906B010BD00009E
:1014D000000800500010024018B50068C46B00906E
:1014E000104421B1143000900360002018BD083072
:1014F000F9E72DE9F041044640790D46012822D054
:101500004FF0010884F805800226267121680A68D8
:1015100005F0100708FA07F002430A60404600F0A1
:1015200059F82068016885B101F47811BE40B142D4
:1015300003D1416841F00201416084F80480002039
:101540006071BDE8F0810220FBE7C1F3440101298D
:10155000F3D1416841F00101EEE770B590F8252024
:10156000002401212346022A07D00422C26380F806
:10157000251080F82430012429E00268156825F040
:101580000E0515600268156825F001051560826C6E
:10159000156825F48075156090F84420056C02F0FC
:1015A0001F0201FA02F26A60D0E913255560426D0C
:1015B00032B1156825F480751560D0E9162555609F
:1015C00080F8251080F82430816B01B188472046CF
:1015D00070BD000070B5044600F0FCF80546601CC4
:1015E00002D004484068044400F0F4F8401BA042D4
:1015F000FAD370BD740000202DE9FC4FDFF8A0A1E4
:10160000002301250AF1040B03244FF00F0C0BF10A
:10161000040EBDE005FA03F632406FD04F68012F8B
:1016200005D0022F03D0112F01D0122F17D1D0F8DF
:1016300008905F0004FA07F829EA08090097D1F832
:101640000C8008FA07F848EA0908C0F808804768DB
:10165000B7430E79C6F300169E403E434660C66807
:101660004FEA430804FA08F7BE4301978F6807FA68
:1016700008F73743C7604E68022E01D0122E13D1EF
:10168000DE0800EB86060096366A5F07FF0E0CFA4E
:1016900007F926EA0906D1F8109009FA07F949EA8C
:1016A0000609009EC6F820900668019FBE430F7988
:1016B00007F0030707FA08F7374307604E68F6009C
:1016C00065D5384E376E47F001073766366E23F022
:1016D000030706F001060096334E3E44B146B66855
:1016E0009F074FEA17780CFA08F7BE43B0F1904F06
:1016F00005D02E4FB84204D1012717E047E000275C
:1017000014E02B4FB84201D102270FE0294FB84215
:1017100001D103270AE0284FB84201D1042705E090
:10172000264FB84201D1052700E0062707FA08F73F
:101730003743C9F80870DAF800605746D1F80480DA
:1017400096435FEAC83800D516433E60DBF8006078
:101750005F46D1F8048096435FEA883800D5164387
:101760003E60DEF800607746D1F8048096435FEA79
:10177000C82800D516433E60094F0C373E68D1F8A3
:10178000048096435FEA882800D516433E605B1CC0
:101790000A6832FA03F67FF43DAFBDE8FC8F000023
:1017A0000004014000100240000001400004004815
:1017B00000080048000C00480010004800140048D1
:1017C0000069084000D0012070470AB1816170476C
:1017D00081627047014880687047000074000020F3
:1017E000024881684268114481607047740000209B
:1017F00010B50024032000F077F8002000F008F86E
:1018000008B1012401E000F025F8204610BD0000D9
:1018100070B50E4E05460024706898B14FF47A7189
:10182000B1FBF0F00A490968B1FBF0F000F0E8FE06
:1018300040B9102D06D200222946501E00F034F87F
:10184000356000E00124204670BD000074000020D7
:10185000800000200B4808B5016E41F001010166CF
:10186000016E01F001010091816D41F080518165AF
:10187000806D00F0805000900348816841F4804101
:10188000816008BD0010024000700040002809DBA4
:1018900000F01F02012191404009800000F1E0208A
:1018A000C0F8001170470000F0B40E4B1B680C46E6
:1018B000C3F30223C3F10705042D00D90425191D24
:1018C000072901D2002300E0DB1E012606FA05F1FC
:1018D000491E214099409E40761E16403143F0BC7F
:1018E00004F076BB0CED00E0064900F00702086842
:1018F0004FF6FF03184040EA0220034A10430860F5
:10190000704700000CED00E00000FA052B492C4B5D
:101910000A6832214A432B4940B1B0F5007F08687C
:1019200029D020F4C06040F480602CE00868C0F347
:101930004120022804D051F8800F20F4807022E06A
:10194000D1F8800020F48070C1F88000086820F48D
:10195000C06040F400700860B2FBF3F0401C00E08F
:10196000401E4A69520501D50028F9D14869400551
:101970000AD503207047C0F34120022806D051F851
:10198000800F40F48070086000207047D1F880001C
:1019900040F48070C1F88000086820F4C06040F412
:1019A00000700860B2FBF3F0401C00E0401E4A6982
:1019B0005205DBD50028F9D1D8E7000080000020CF
:1019C00040420F00007000402DE9F84304460068D3
:1019D00000269D4D00035ED5A86D0027C00008D4E9
:1019E000A86D40F08050A865A86D012700F08050D8
:1019F0000090DFF85892D9F8001041F48071C9F8CE
:101A00000010FFF7E7FE804606E000BFFFF7E2FEAA
:101A1000A0EB080002282BD8D9F80000C005F5D5A6
:101A2000D5F8900010F4407014D0216C814211D090
:101A3000D5F89000D5F8901020F4407041F4803132
:101A4000C5F89010D5F8901021F48031C5F89010A9
:101A5000C5F89000C00711D0FFF7BCFE804641F2E8
:101A6000883907E0FFF7B6FEA0EB0801494501D928
:101A700003260BE0D5F890008007F3D5D5F8900049
:101A8000216C20F440700843C5F890001FB1A86D88
:101A900020F08050A8652078C00707D0D5F88800CE
:101AA000616820F003000843C5F8880020788007AB
:101AB00007D5D5F88800A16820F00C000843C5F8C8
:101AC00088002078400707D5D5F88800E16820F025
:101AD00030000843C5F888002078000707D5D5F8FE
:101AE0008800216920F0C0000843C5F888002078EC
:101AF000800607D5D5F88800616920F44060084366
:101B0000C5F888002078400607D5D5F88800A16977
:101B100020F440500843C5F888002078000607D517
:101B2000D5F88800E16920F440400843C5F88800F2
:101B30002088C00507D5D5F88800216A20F44030F8
:101B40000843C5F888002088800507D5D5F88800A7
:101B5000616A20F440200843C5F8880020884005C9
:101B60000FD5D5F88800A16A20F440100843C5F8C5
:101B70008800A06AB0F5801F03D1E86840F48010A7
:101B8000E860208800050FD5D5F88800E16A20F4C8
:101B900040000843C5F88800E06AB0F5800F03D123
:101BA000E86840F48010E8602088C0040FD5D5F8BC
:101BB0008800216B20F040700843C5F88800206B36
:101BC000B0F1807F03D1E86840F48010E86020889D
:101BD0004FF0006180040ED5D5F88800626B20F0CC
:101BE00040601043C5F88800606B884203D1E86804
:101BF00040F48010E860208840040ED5D5F88800B5
:101C0000A26B20F040601043C5F88800A06B8842AA
:101C100003D1E86840F48010E860208800040FD504
:101C2000D5F88800E16B20F040500843C5F88800E3
:101C3000E06BB0F1805F03D1E86840F48030E86089
:101C40003046BDE8F88300000010024000700040FC
:101C50002DE9F0470E4605004FF0000725D0DFF8CC
:101C6000AC81D8F8000000F00F00B0420CD2D8F8D8
:101C7000001021F00F013143C8F80010D8F800001F
:101C800000F00F00B04210D12968614CC80741F242
:101C9000883A5AD06868DFF87C91032808D0022877
:101CA00020682DD0400500282CDB0120BDE8F087FE
:101CB00020688001F9D5E06800F00302E068C0F315
:101CC0000310401C032A19D0534A00BFB2FBF0F0A6
:101CD000E268C2F306225043E268C2F34162521C3A
:101CE0005200B0FBF2F0484517D9A06810F0F00F91
:101CF0000CD0880711D5A86840B10EE0474AE5E747
:101D00008003D0E700F0BCF8484506D9A06820F071
:101D1000F00040F08000A0608027A068696820F093
:101D200003000843A060FFF755FD814606E000BFB1
:101D3000FFF750FDA0EB090151453AD8A06869684A
:101D400000F00C00B0EB810FF2D12868810714D5A8
:101D5000400703D5A06840F4E060A0602878000741
:101D600005D5A06820F4605040F4E060A060A06851
:101D7000A96820F0F000084304E0802F03D1A06898
:101D800020F0F000A060D8F80010404601F00F01EC
:101D9000B14216D9016821F00F0131430160FFF70C
:101DA00019FD074607E000BFFFF714FDC11B5145B1
:101DB00001D903207AE7D8F8000000F00F00B04204
:101DC000F2D12878400705D5A068E96820F4E060E2
:101DD0000843A0602878000706D5A068296920F488
:101DE000605040EAC100A06000F04AF8A1680C4AC7
:101DF000C1F30311515C01F01F01C840094908609B
:101E000009480068BDE8F047FFF702BD0020024026
:101E10000010024000B4C4040024F40000366E0137
:101E2000AC7B00088000002074000020014800689E
:101E30007047000080000020054806490068896856
:101E4000054AC1F30221515C01F01F01C8407047EF
:101E50008000002000100240BC7B000805480649B5
:101E600000688968054AC1F3C221515C01F01F0175
:101E7000C84070478000002000100240BC7B000872
:101E8000184910B58868C0F381021748012A0BD0A1
:101E90008A68164BC2F38102022A06D08A68C2F30E
:101EA0008102032A03D0002010BD184610BDCA6865
:101EB00002F00304CA68C2F30312521C032C02D0BE
:101EC000B0FBF2F001E0B3FBF2F0CA68C968C2F3FC
:101ED00006225043C1F34161491C4900B0FBF1F0B7
:101EE00010BD0000001002400024F40000366E0116
:101EF0002DE9F84304007AD02078FA4DC00747D086
:101F0000A868E96800F00C0001F003010C2802D079
:101F1000082817D001E0032914D06068B0F5803F8D
:101F200017D0B0F5A02F286817D020F48030286093
:101F3000286820F4802028606068E0B1FFF74AFC40
:101F4000064614E02868800322D560680028D2D0B5
:101F50001EE0286840F48030EDE740F480202860DF
:101F6000F7E700BFFFF736FC801B642870D82868AD
:101F70008003F7D50CE0FFF72DFC064605E000BF17
:101F8000FFF728FC801B6428F0D828688003F7D46A
:101F9000207880074CD5A868E96800F00C0001F0B3
:101FA00003010C2802D004280DD001E002290AD038
:101FB000E068002828682BD040F480702860FFF784
:101FC00009FC064619E02868400502D5E0680028AB
:101FD00091D06868217C20F0FE4040EA0160686092
:101FE000C1480068FFF714FC002800D120E076E12A
:101FF000FFF7F0FB801B0228B8D828684005F7D50A
:102000006868217C20F0FE4040EA016068600FE0D3
:1020100020F480702860FFF7DDFB064605E000BF76
:10202000FFF7D8FB801B0228A0D828684005F7D40A
:102030002078000729D560690028D5F8940013D0CE
:1020400040F00100C5F89400FFF7C4FB064606E027
:1020500090E000BFFFF7BEFB801B022886D8D5F8B2
:1020600094008007F6D510E020F00100C5F8940038
:10207000FFF7B0FB064604E0FFF7ACFB801B02282D
:1020800078D8D5F894008007F6D42078400761D539
:10209000A86D0026C00008D4A86D40F08050A86547
:1020A000A86D012600F08050009090480168C90595
:1020B00011D40168804641F480710160FFF78AFB0A
:1020C000074604E0FFF786FBC01B022852D8D8F869
:1020D0000000C005F6D5A068012815D00528D5F860
:1020E000900016D020F00100C5F89000D5F89000BF
:1020F00020F00400C5F89000A06841F28838B8B11B
:10210000FFF768FB07460EE0D5F8900040F00100AD
:10211000F0E740F00400C5F89000F5E7FFF75AFB40
:10212000C11B414526D8D5F890008007F6D50CE0B4
:10213000FFF750FB074604E0FFF74CFBC11B41458E
:1021400018D8D5F890008007F6D41EB1A86D20F0FD
:102150008050A8652078800629D5A0690028D5F888
:10216000980013D040F00100C5F89800FFF732FB4B
:10217000064606E077E000BFFFF72CFB801B022835
:1021800077D8D5F898008007F6D510E020F0010048
:10219000C5F89800FFF71EFB064604E0FFF71AFBA0
:1021A000801B022865D8D5F898008007F6D4E0692E
:1021B000F0B3A968C1F38101032961D0022828681E
:1021C00020F0807028600BD0E86820F00300E86001
:1021D000E86847490840E860FFF7FCFA04464BE02E
:1021E000FFF7F8FA064604E0FFF7F4FA801B02282E
:1021F0003FD828688001F7D4F4E908016FF00F0296
:1022000002EB01110843218A5204490802EB4151B3
:10221000A26841EA02210843217D4FF07E4249082D
:1022200002EB41610843217B40EAC160E96800E0BC
:1022300062E0304A11400843E860286840F080704E
:102240002860E86840F08070E860FFF7C3FA044651
:1022500005E000BFFFF7BEFA001B022809D8286876
:102260008001F7D548E004E0FFF7B4FA001B02282C
:1022700002D90320BDE8F88328688001F4D43BE04C
:102280000128F7D0E868226A00F00301914226D1C4
:10229000616A00F0F0020901103991421FD1A26A6F
:1022A00000F4FE41B1EB022F19D194F82C2000F07C
:1022B0007841B1EBC26F12D1218E00F4C0024908FF
:1022C0004905A1F50011914209D194F8341000F0AC
:1022D000C06049084906A1F1007181420CD001207B
:1022E000C8E70000001002407400002000700040A9
:1022F000FFFFEEFE0C809F010020BBE70F4810B5EA
:102300000B4601680E480140080CD870C1F3042444
:102310005C7001F03F049C70C1F34231197052B9F6
:1023200002F06DFCD870587802F069FC587098780B
:1023300002F065FC9870002010BD000004280040E9
:102340003FFFFF00144810B500680B464860124874
:1023500008300068C0F30E0088600F480838016834
:102360000E480140C1F305401870C1F306245C70AB
:1023700001F07F049C70890DD97052B902F03FFCC6
:102380001870587802F03BFC5870987802F037FCCF
:102390009870002010BD0000082800407F7F7F005B
:1023A00070B504004FF001003ED094F8250028B924
:1023B000002084F82400204600F03CF8022084F835
:1023C00025001A4ECA20306053203060204602F0AB
:1023D0002BFC10BB154D0C3D2868154908402860A2
:1023E00028686168A269084321691143084328608D
:1023F0002189E06840EA01400C4914390860204610
:1024000002F038FC48B9D4E90721114362692B680E
:1024100023F060431A4311432960FF2131600028F3
:1024200002D1012184F8251070BD0000242800404D
:10243000BFFF8FFB00680549884205D1044850F86A
:10244000901F41F4004101607047000000280040E7
:10245000001002402DE9F041044690F824000B469C
:1024600001281AD0012684F82460022084F825006F
:10247000B2B19878D97840EA0145587819780002C5
:1024800040EA413005431B4FCA2038605320386072
:10249000204602F0C9FBD8B122E00220BDE8F0815D
:1024A0005878C10603D500F0EF000A305870D8788C
:1024B00002F0AEFB0504587802F0AAFB45EA0025BD
:1024C000987802F0A5FB0543187845EA4035DAE72D
:1024D00009480540074820380560204602F0CAFB3D
:1024E000FF21396008B984F82560002184F82410A0
:1024F000D4E70000242800403FFFFF002DE9F0470B
:10250000054690F8240017460C46012814D04FF0D9
:10251000010985F82490022085F82500DFF8A480C1
:10252000CA21C8F800105321C8F80010284602F04C
:102530007BFB002618B127E00220BDE8F087214B85
:102540000C3B18684FEA40601FB3002800DBE670C0
:10255000A0782178E27840EA01406178090241EAF6
:102560008251084318490840164924390860186800
:1025700020F480201860D4E9030108431968084357
:102580001860284602F076FBFF22C8F80020A0B1B0
:1025900015E0002800DBE670207802F039FB070424
:1025A000607802F035FB47EA0027A07802F030FBA4
:1025B0000743E07847EA8050D4E785F8259085F80E
:1025C0002460BAE7242800407F7F7F0070B50B4D60
:1025D000286860F0A0002860FFF7FCF804464FF47C
:1025E0007A7606E0FFF7F6F8001BB04201D9032027
:1025F00070BD28688006F5D5002070BD0C2800400D
:1026000010B5401EB0F1807F01D3012010BD4FF006
:10261000E02460610F21601703F0DAFC0020A06164
:1026200007202061002010BD7047704770470000F0
:10263000F0B590F83C20012A4AD0012280F83C20D5
:10264000CA688B6822F440721A434B6822F4806295
:102650001A430B6822F400621A430B6922F4805279
:102660001A434B6922F400521A430B6B22F4804246
:102670001A430B8B22F4702242EA0342154C036882
:102680000026154DA34201D0AB4203D1CF6922F001
:1026900080523A43A34201D0AB4214D10F8D22F4B1
:1026A000700242EA07520F6A22F080723A434F6A80
:1026B00022F000723A43A34201D0AB4203D1C96A6F
:1026C00022F000520A435A6480F83C600020F0BDBA
:1026D0000220F0BD002C01400034014070477047DB
:1026E00070470000F0B590F83C20012A3AD001254F
:1026F00080F83C50022280F83D2003685A689C68AC
:10270000194E1A4FB34201D0BB4204D122F4700CCF
:102710004A6842EA0C02DFF858C002EA0C02D1F81B
:1027200000C04CEA020CC3F804C00268B2420DD0EB
:10273000B2F1804F0AD00F4B9A4207D00E4B9A420B
:1027400004D0BA4202D00D4B9A4204D1896824F0D9
:1027500080031943916080F83D50002180F83C10BF
:102760000846F0BD0220F0BD002C014000340140BD
:102770008FFFFFFD000400400008004000400140C2
:10278000704710B5040003D094F83D0010B107E085
:10279000012010BD002084F83C00204600F022F803
:1027A000022084F83D00211D206802F077FB012003
:1027B00084F8480084F83E0084F83F0084F8400024
:1027C00084F8410084F8420084F8430084F844000F
:1027D00084F8450084F8460084F8470084F83D00FA
:1027E000002010BD08B5204A0168204891420ED152
:1027F000816D41F020018165806D002200F0200094
:10280000009011463720FFF74FF8372010E0184AA4
:10281000914211D1016E41F480310166006E0022B7
:1028200000F48030009011461820FFF73DF8182082
:10283000BDE80840FFF72AB80E4A914207D1016E61
:1028400041F400310166006E00F4003009E00A4AEC
:10285000914207D1016E41F480210166006E00F4BF
:102860008020009008BD00000014004000100240CD
:1028700000400140004401400048014090F83D10F4
:10288000012901D001207047022180F83D10016824
:10289000CA6842F00102CA6000688168064A1140B5
:1028A000062906D0B1F5803F03D0016841F001014F
:1028B00001600020704700000700010070B5044669
:1028C00090F83C00012815D0012584F83C500220E6
:1028D00084F83D0022689068354B184020F47F4012
:1028E00090600868B0F5805F50D010DC10F00F0FDA
:1028F00003D04BE04FF0020070BD4FEA2012082ACF
:1029000044D2DFE802F05151515149323A1B294B70
:10291000C21A984248D00ADCB0F5005F19D0B0F175
:10292000101F41D0A0F5801120392FD13CE0102A92
:102930003AD0302A38D0402A28D135E0CB68D1E9C6
:102940000121206802F00FFB2068816841F07701C7
:1029500009E0CB68D1E90121206802F004FB20687E
:10296000816841F48041816010E0CA68496820684C
:1029700002F0A4FC5021206806E0CA68496820687B
:1029800002F0E4FC6021206802F0F8FA84F83D507F
:10299000002084F83C0070BDCA684968206802F0D5
:1029A0008DFC40212068EFE7226801461046EBE7E6
:1029B00088FFCEFF300010002DE9F04707462DEDCF
:1029C000048B4FF001084FF00209494800259FEDA4
:1029D000499B9FED4A8A4A4C87423ED14449A2789E
:1029E0004FF08040096822B1012A0AD0022A11D092
:1029F0002FE04D62016A41F00201016284F8028019
:102A000027E0496AA163016A21F00201016284F8AA
:102A100002901EE04E6AA6643046FDF71DFD41ECB3
:102A2000100B51EC190B53EC102BFDF7A6FCFDF726
:102A300020FDE06394ED0E0AB8EE400A60EE080A4D
:102A400000EE106AB8EE400A80EE801A84ED131A88
:102A5000A5700021264800F071F92A48874242D12A
:102A6000E278294922B1012A0BD0022A13D032E0A0
:102A700000684562086840F00200086084F803803E
:102A800029E00068406A2064086820F002000860BD
:102A900084F803901FE00068466A26653046FDF71B
:102AA000DBFC41EC100B51EC190B53EC102BFDF738
:102AB00064FCFDF7DEFC606494ED100AB8EE400A99
:102AC00060EE080A00EE106AB8EE400A80EE801A46
:102AD00084ED151AE5700021BDEC048BBDE8F047CC
:102AE000084800F02BB9BDEC048BBDE8F08700006E
:102AF000140200200000000080842E410000C84223
:102B00000800002060020020200400402DE9F04170
:102B1000054690F83C000C46012836D0012085F887
:102B20003C008AB3042A42D02868082A51D0D4E94C
:102B30000023E168066A26F480560662C669076AC1
:102B400026F4407646EA03234FF6FF7606EA013183
:102B500023F4704319434FF4204627F4204306EA38
:102B600002321A43C16102622868C16921F44061DE
:102B7000C1612868C169A26841EA0221C1610020DF
:102B800085F83C00BDE8F08101E00220FAE7D4E9D5
:102B90000012E368286802F0A3FB2868816921F02D
:102BA0000C01816128688169A26811430FE0D4E9B2
:102BB0000012E368286802F0DBFB2868816921F4D1
:102BC0004061816128688169A26841EA02218161CE
:102BD000D5E7D4E90027267B016A21F480710162E0
:102BE000C169036A21F00301394321F0F00731077D
:102BF0004FF4206647EA116123F4206306EA0222BB
:102C00001A43C16102622868C16921F00C01C161E7
:102C10002868C169A2681143B0E710B5040003D069
:102C200094F83D0010B107E0012010BD002084F8A9
:102C30003C00204600F022F8022084F83D00211DCF
:102C4000206802F02BF9012084F8480084F83E0047
:102C500084F83F0084F8400084F8410084F8420082
:102C600084F8430084F8440084F8450084F8460062
:102C700084F8470084F83D00002010BD10B586B0F0
:102C8000044614216846FDF7FBFA23680021284812
:102C90000222B3F1804F27D0264CA34222D1836D6C
:102CA00043F002038365836D03F002030593C36C55
:102CB00043F00203C364C06C00F0020005901020D2
:102CC0000090CDE90121CDE9031269461A48FEF7CB
:102CD00093FC002211461D20FEF7E6FD5FF01D006B
:102CE000FEF7D4FD06B010BD836D43F0010383658C
:102CF000836D03F001030593C36C43F00103C364C8
:102D0000C06C00F0010005904FF400400090CDE948
:102D100001210120CDE9031069464FF09040FEF7F4
:102D20006BFC002211461C20FEF7BEFD1C20D7E7DD
:102D300000100240000400400004004810B50446A2
:102D400079B1042912D0082915D00C2918D01029DE
:102D500019D094F8430000BF94F84720012817D1F8
:102D600014E094F83E0094F84420F7E794F83F000C
:102D700094F84520F2E794F8400094F84620EDE7F7
:102D800094F84100E8E794F84200E5E7012A01D011
:102D9000012010BD022071B1042915D008291CD0D2
:102DA0000C2936D0102937D084F8430084F8470026
:102DB0000C291BD133E084F83E0084F844002068DD
:102DC000C26842F0020210E084F83F0084F8450037
:102DD0002068C26842F0040207E084F8400084F8EA
:102DE00046002068C26842F00802C26001222068E2
:102DF00002F0ACF8206881680B4A1140062906D021
:102E0000B1F5803F03D0016841F00101016000206D
:102E100010BD84F84100C9E784F84200C6E7206885
:102E2000C26842F01002E0E70700010070B50446F6
:102E3000006801694FF00005C943890715D4C168CE
:102E4000C943890711D4E91E016101202077206858
:102E500080698007204602D0FFF7AEFD04E000F055
:102E600031F9204600F004FA257720680169C9434A
:102E7000490717D4C168C943490713D46FF0040147
:102E80000161022020772068806910F4407F20468D
:102E900002D0FFF791FD04E000F014F9204600F0A5
:102EA000E7F9257720680169C943090716D4C16885
:102EB000C943090712D46FF008010161042020778B
:102EC0002068C0698007204602D0FFF775FD04E046
:102ED00000F0F8F8204600F0CBF92577206801696A
:102EE000C943C90617D4C168C943C90613D46FF0D2
:102EF00010010161082020772068C06910F4407F2C
:102F0000204602D0FFF758FD04E000F0DBF8204631
:102F100000F0AEF9257720680169C943C90708D1D7
:102F2000C168C943C90704D1891E0161204600F068
:102F30000BFA20680169C943090609D4C168C9436D
:102F4000090605D46FF0800101612046FFF76DFB93
:102F500020680169C943C90509D4C168C943090684
:102F600005D46FF4807101612046FFF75DFB206896
:102F70000169C943490609D4C168C943490605D452
:102F80006FF040010161204600F0DFF9206801691F
:102F9000C943890609D4C168C943890605D46FF0BD
:102FA000200101612046FFF741FB20680169C94308
:102FB000C90209D4C168C943C90205D46FF480119C
:102FC00001612046FFF78BFB20680169C943890234
:102FD00009D4C168C943890205D46FF400110161A5
:102FE0002046FFF77BFB20680169C943490209D4E9
:102FF000C168C943490205D46FF4800101612046CC
:10300000FFF76EFB20680169C94309020BD4C16850
:10301000C943090207D46FF4000101612046BDE8ED
:103020007040FFF7ADBB70BD70B586B0044614218B
:103030006846FDF725F924681E4D00211E4A02232B
:103040004FF09040AC420FD1D46C44F00104D464F2
:10305000D26C02F001020592DA020092CDE9013150
:1030600003910A2104910DE0144E0125B4420ED1C2
:10307000D46C44F00104D464D26C02F001020592D5
:10308000402210E06946FEF7B7FA06B070BD0C4E5C
:10309000B442FAD1D46C44F00104D464D26C02F08E
:1030A0000102059280220092CDE90131CDE903159C
:1030B000E8E7000000080040001002400044014022
:1030C00000480140704770B5044690F83C000D463A
:1030D00001280BD0012084F83C000C2A45D007DCE5
:1030E0005AB1042A1BD0082A78D12CE0022070BDE6
:1030F000102A4ED0142A71D15DE0206801F048FFFB
:103100002068816941F0080181612068816921F0AE
:1031100004018161206881692A69114311E02068F6
:1031200001F084FF2068816941F4006181612068B9
:10313000816921F480618161206881692A6941EA9D
:10314000022181614AE0206801F0B8FF2068C1696E
:1031500041F00801C1612068C16921F00401C16129
:103160002068C1692A69114311E0206801F0EEFF6F
:103170002068C16941F40061C1612068C16921F41E
:103180008061C1612068C1692A6941EA0221C16187
:1031900024E0206802F022F82068016D41F0080167
:1031A00001652068016D21F0040101652068016D51
:1031B0002A69114311E0206802F048F82068016D87
:1031C00041F4006101652068016D21F480610165B1
:1031D0002068016D2A6941EA02210165002084F816
:1031E0003C0070BD10B5040003D094F83D0010B150
:1031F00007E0012010BD002084F83C00204600F0CC
:1032000023F8022084F83D00211D206801F046FECD
:10321000012084F8480084F83E0084F83F0084F8D8
:10322000400084F8410084F8420084F8430084F8A8
:10323000440084F8450084F8460084F8470084F888
:103240003D00002010BD000008B500680649884216
:1032500008D10648816D41F004018165806D00F060
:103260000400009008BD000000080040001002406B
:103270007047000010B50446022269B1042912D03B
:10328000082917D00C291CD0102921D094F843000C
:10329000012824D0012010BD94F83E000128F9D166
:1032A00084F83E201DE094F83F000128F2D184F814
:1032B0003F2016E094F840000128EBD184F840202C
:1032C0000FE094F841000128E4D184F8412008E09F
:1032D00094F842000128DDD184F8422001E084F80E
:1032E00043200122206801F031FE11492068884204
:1032F0000BD01049884208D00F49884205D00F49A9
:10330000884202D00E49884203D1416C41F4004109
:103310004164206881680B4A1140062906D0B1F546
:10332000803F03D0016841F001010160002010BD21
:10333000002C0140003401400040014000440140A5
:1033400000480140070001007047704790F87C106A
:10335000012918D0012180F87C102421C0F88010A8
:1033600050F8601B0A680B6823F001030B6022F021
:1033700000510022426050F8603C19602021016237
:1033800002771046704702207047704770B50446B8
:1033900090F87C0001281DD0012084F87C002420B6
:1033A000C4F8800020680568026822F0010202600B
:1033B0002068826822F060620A438260204601F041
:1033C000F3FF206805602020C4F88000002084F806
:1033D0007C0070BD022070BD70B5044690F87C0082
:1033E00001281DD0012084F87C002420C4F880002E
:1033F00020680568026822F0010202602068826885
:1034000022F060420A438260204601F0CDFF20682E
:1034100005602020C4F88000002084F87C0070BD86
:10342000022070BD70477047704700002DE9F041E1
:1034300003680446D8691A68996810F00F0F4FF0B6
:10344000000569D05E4E02F490770E4037437DD080
:10345000C70709D0D70507D501271F62D4F88830E0
:1034600043F00103C4F8883083070AD5CB0708D09E
:10347000276802233B62D4F8883043F00403C4F881
:10348000883043070AD5CB0708D0276804233B625E
:10349000D4F8883043F00203C4F8883003070CD511
:1034A00002F02003334308D0266808233362D4F89F
:1034B000883043F00803C4F88830D4F88830002BF3
:1034C0003CD0800609D502F0200001F0805108436D
:1034D00003D0E16E09B120468847D4F888002168FE
:1034E0008968490601D400072AD5204602F02CF845
:1034F0002068816849061ED5816821F040018160FD
:10350000A06FC0B12F498163A06FFEF726F8002895
:1035100014D0A06F816B0AE0860617D502F0200652
:1035200001F080573E4311D0E16E24E02046BDE813
:10353000F04108470AE02046FFF776FFBDE8F0813A
:103540002046FFF771FFC4F88850F7E7C60209D597
:103550004E0207D54FF4801018622046BDE8F041B6
:10356000FFF761BF060609D502F0800601F40001ED
:103570000E4303D0216F0029D8D1DFE741060DD5D6
:1035800051060BD51968204621F040011960202111
:10359000C4F88010256700F08FF9CFE7010206D547
:1035A000510004D52046BDE8F041FFF73BBFC00104
:1035B000C4D5002AC2DA2046BDE8F041FFF7E5BED7
:1035C000010000103355000810B5040003D0D4F8F2
:1035D000800010B107E0012010BD002084F87C00BD
:1035E000204600F027F82420C4F8800020680168F5
:1035F00021F001010160204602F0B8F80128EBD06B
:10360000A06A10B1204601F001FF2068416821F452
:10361000904141602068816821F02A018160206822
:10362000016841F0010101602046BDE8104001F051
:1036300051BF000010B586B0044614216846FCF75F
:103640001FFE17492068884227D11648016E41F4B1
:1036500080410166016E01F480410591C16C41F029
:103660000101C164C06C694600F0010005904FF48F
:10367000C06000900220019000200290039007207B
:1036800004904FF09040FDF7B7FF0022114625202F
:10369000FEF70AF92520FEF7F9F806B010BD000084
:1036A000003801400010024070B5D0F88430202B63
:1036B0006DD1B9B1B2B190F87C30012B67D0012344
:1036C00080F87C308165A0F85C20A0F85E200021A5
:1036D000C16683684FF48056FF24B34207D1036963
:1036E00013B11CE0012070BD40F2FF131DE07F25E7
:1036F0009BB1B3F1805F15D0A0F86010C0F88810BE
:103700002223C0F8843003689C6844F001049C6064
:10371000436EB3F1005F0ED027E0036943B9A0F810
:103720006040EBE703691BB13F23A0F86030E5E799
:10373000A0F86050E2E7B0F86830934215D882688C
:10374000B24201D1026972B1124AC26680F87C109D
:1037500001680A6842F480720A600068816841F07A
:10376000805181600FE00C4AEFE78268B24201D1DC
:10377000026952B1094AC26680F87C10006801688B
:1037800041F490710160002070BD054AF3E702200A
:1037900070BD0000CD560008CD5500086D560008DC
:1037A0006D55000810B510480068104C012204F156
:1037B0000C01A0610E48FFF777FF04F10C000D4AE1
:1037C000017860781154401C60700A290BD10020E8
:1037D0006070114608A002F0D7FBBDE810406421DC
:1037E0000448FCF74DBD10BD7C00002008000020FF
:1037F000280400209C000020257300002DE9F843D8
:103800000446D0F880001F4616460D46202851D1A8
:10381000DDB1D6B194F87C0001284BD0012084F8AA
:103820007C004FF00008C4F888802120C4F8800094
:103830001834FDF7CFFFA6878146E68754F8100CB1
:10384000183CB0F5805F03D004E00120BDE8F883A8
:10385000206910B12E46002510E000260EE08021E0
:10386000204602F056FBB8B9C6B116F8010B216824
:103870008862B4F85600401EA4F85600B4F856000A
:103880004B464FF0000200970028E8D14FF040016E
:10389000204602F03EFB30B10320D7E735F8020B9B
:1038A000C0F30800E3E72020C4F8800084F87C809F
:1038B0000020CBE70220C9E77047FEE770B5082477
:1038C000002501F049FA13E06806050E002001F01A
:1038D0002BFA142002F0FAFF142002F0F7FF012067
:1038E00001F022FA142002F0F1FF01F029FA054359
:1038F000641EE4B2E8D2002001F016FA142002F0AF
:10390000E5FF01F04BFA284670BD70B50446082566
:1039100016E001F009FA142002F0D8FF04F080004C
:1039200001F030FA142002F0D1FF6006040E1420DA
:1039300002F0CCFF012001F0F7F9142002F0C6FFDD
:103940006D1EEDB24FF00000E3D201F0EDF9BDE8DD
:103950007040142002F0BABF10B5012001F012FA35
:10396000142002F0B3FF142002F0B0FF012001F098
:10397000DBF9142002F0AAFF002001F0D5F9BDE820
:103980001040142002F0A2BF10B5012001F0FAF996
:10399000142002F09BFF012001F0C6F9142002F070
:1039A00095FF002001F0EEF9142002F08FFF0020B7
:1039B00001F0BAF9BDE81040142002F087BF10B53D
:1039C000002001F0B1F9142002F080FF002001F086
:1039D000D9F9142002F07AFF012001F0A5F9142092
:1039E00002F074FF012001F0CDF9BDE81040142071
:1039F00002F06CBF10B5052401F0AEF9142002F0FE
:103A000065FF012001F090F9142002F05FFF05E04E
:103A1000641EA4B2142002F059FF64B101F090F9C1
:103A20000028F5D101F080F901F0B8F9142002F076
:103A30004DFF002010BD01F0B1F9FFF7C0FF0120DC
:103A400010BD00002DE9F0412648026826490B69A7
:103A5000D21A142A44D30068086100F049F8234CB4
:103A60004FF41C552078C0070AD0002000F096F8CB
:103A70000021012000F0D6FA2946602000F0D2FA99
:103A800020784FF4274680070AD5002000F086F8FA
:103A90000021012000F0C6FA3146602000F0C2FA91
:103AA00020784FF4807740070AD5002000F076F8A0
:103AB0003946012000F0B6FA2946602000F0B2FA3B
:103AC000207800070CD5002000F068F83946012066
:103AD00000F0A8FA3146BDE8F041602000F0A2BA3B
:103AE000BDE8F0817C0000200800002000000020DC
:103AF00070B5114C01212046FDF762FE05460221FA
:103B00002046FDF75DFE45EA400504212046FDF70D
:103B100057FE45EA800401214FF09040FDF750FE2A
:103B2000064944EAC00040F0F0004A78C04320EA69
:103B300002020A70487070BD0004004800000020B6
:103B400000B585B014216846FCF79AFB4FF6FF706C
:103B5000009000200321CDE902010190694602484E
:103B6000FDF74AFD05B000BD0008004800B585B06E
:103B700014216846FCF784FB4FF6FF70009001208B
:103B80000190032003900020029069460248FDF74F
:103B900033FD05B000BD00000008004870B50024EA
:103BA00006462146204600F0CFF900F00DFA4FF40A
:103BB0009635304600F0DCF9641CAC42F9D370BD98
:103BC00030B587B014216846FCF75AFB1E48C16C1B
:103BD00041F00401C164C16C01F004010591C16CA4
:103BE00041F00101C164C16C01F001010591C16C9A
:103BF00041F00201C164C06C012500F00200059093
:103C00004FF44870CDE900050024039469460294FE
:103C10000E48FDF7F1FC280203940090CDE9015411
:103C20004FF0904469462046FDF7E6FCFFF79EFF03
:103C3000A06940F48070A06104481830016841F424
:103C40000871016007B030BD001002400004004858
:103C5000203AD2B2034B02EB420203EB021200F015
:103C600019B80000DC690008F0B50E4607460025CB
:103C700040F23F1407E021463846FFF7E9FF103CC9
:103C80006D1CA4B2761C3278002A01D0142DF2D318
:103C9000F0BD00002DE9F04791468A460026044613
:103CA00000F052F9DFF84080012700BF00F08CF9E6
:103CB0005FF0000539F8160007FA05F108424046A2
:103CC00001D1408800E0008800F052F96D1C102DF1
:103CD000F0D3641CE4B25146204600F035F9761C5E
:103CE000182EE3D3BDE8F0870200002010B5FFF7DF
:103CF00067FF002000F0E0F8084CA080A088A0F545
:103D00000241303906D000F079FE002000F0D4F8EE
:103D1000A08010BD00F0E9FDF7E7000002000020E0
:103D200070B53F488AB001683E4CE269891AC829DB
:103D300073D30068E0610F223BA102A802F034F9BE
:103D400002A90020FFF790FFE06AFCF7ABFB0546F5
:103D50000E46A06AFCF7A6FB41EC100BCDE900561D
:103D600053EC102B31A102A802F01EF902A9182071
:103D7000FFF77AFF606BFCF795FBCDE90001227835
:103D80002FA102A802F010F902A93020FFF76CFF62
:103D9000304881780091437802782FA102A802F080
:103DA00003F902A94820FFF75FFF04F114008178AE
:103DB00000914378C2782DA102A802F0F5F802A97B
:103DC0006020FFF751FF2EA102A8E36B626C02F0A6
:103DD000EBF802A97820FFF747FFE06CFCF762FBE5
:103DE00005460E46606DFCF75DFB41EC100BCDE91E
:103DF000005653EC102B27A102A802F0D5F802A917
:103E00009020FFF731FF2848026828A102A802F09D
:103E1000CBF802A9A820FFF727FF0AB070BD000069
:103E20007C00002008000020253278007233373AE9
:103E300025342E32662C7233383A25342E32660001
:103E400073743A256420206D63703A25342E3266EF
:103E50000000000088000020543A253032642D25EF
:103E60003032642D2530326400000000443A2530A1
:103E700032642D253032642D25303264000000007C
:103E80006633393A252D3564206634303A252D3590
:103E9000640000006433393A25342E3166206434DE
:103EA000303A25342E3166003444014043435231C8
:103EB0003A252D356400000070B51D490A6842F4AA
:103EC00000720A600A6842F480720A60184C103C62
:103ED000226842F020022260164A1060086840F012
:103EE0002000086000BF00BF00BF206840F0200035
:103EF0002060206840F480702060FFF721FE4FF0C2
:103F00009041886A40F48070886200BF00BF00BFA3
:103F10000848001F006885B2886940F48070886195
:103F2000FFF724FE206840F400702060284670BD32
:103F3000280400481408004801B5BDF800000149F4
:103F4000488008BD0200002010B50C460146202024
:103F500000F068F82146BDE81040212000F062B86A
:103F600001B5BDF800000149088008BD020000202D
:103F7000134A116841F400711160114910390B683E
:103F800043F480730B600B6843F020030B600D4B10
:103F90001860106840F02000106000BF00BF00BF34
:103FA000086840F020000860086840F480700860ED
:103FB00000BF00BF00BF086840F400700860704791
:103FC00028040048140800481449086840F40070A8
:103FD0000860086840F48070086010481038026873
:103FE00042F0200202600E4B22221A600A6842F060
:103FF00020020A6000BF00BF00BF016841F020013D
:104000000160016841F48071016000BF00BF00BF22
:10401000016841F400710160704700002804004805
:1040200014080048184B10B51A6842F400721A6060
:104030001A6842F480721A60134A103A146844F005
:1040400020041460114C2060186840F020001860B3
:1040500000BF00BF00BF106840F020001060106873
:1040600040F4807010602160186840F020001860F3
:1040700000BF00BF00BF106840F020001060106853
:1040800040F48070106010BD2804004814080048F7
:1040900000EB8100006E00F0F84070478068C0F3CC
:1040A000C00070478068C0F3800070478068C0F32C
:1040B00080007047042303EAD15310B518444369C4
:1040C000C1F3045107248C40A3438A401343436146
:1040D00010BD00EB8100016E21F00041114301662B
:1040E0007047000070B5124D044601224FF47F4125
:1040F0002846FDF76AFB0F4E012204213046FDF7EA
:1041000064FB002204213046FDF75FFB2102002200
:104110002846FDF75AFB012204213046FDF755FBE6
:104120003046BDE8704000220421FDF74EBB000080
:1041300000080048000C00480448017921B1002122
:104140004171C8B2FFF7CEBFFF21F9E70800002098
:1041500010B5FFF719FC5F20FFF7D7FBFFF74AFC0C
:10416000FFF7ACFB0446FFF7F7FBFFF728FC204600
:1041700010BD10B50446FFF707FC5E20FFF7C5FB36
:10418000FFF738FC2046FFF7C0FBFFF733FCFFF7D3
:1041900016FCBDE810400520FDF71CBA30B58BB009
:1041A000002408940994202168460A94FCF768F8D2
:1041B00022484FF0A0410425C0E9001484608561C5
:1041C0000121C460C0E904410477447702210162FF
:1041D00080F82440C462046380F83840C46380F8E7
:1041E0004040FCF757FE08B1FCF7D5FB08A913487F
:1041F0000894FCF7D1FB08B1FCF7CDFB1048009008
:1042000006200190072002907F200594CDE9030548
:1042100069460A48FCF72AFC08B1FCF7BCFB0948D0
:1042200000900C20019069460448FCF71FFC002810
:1042300001D0FCF7B0FB0BB030BD00000001002046
:104240000008302E2000F01430B589B020216846D7
:10425000FCF716F8184817490024C0E900148460D8
:10426000C46004250461C0E9054504774477012151
:10427000016280F82440C462046380F83840C4635B
:1042800080F84040FCF706FE08B1FCF784FB0B48C1
:1042900000900620CDE901047F200594CDE90305B7
:1042A00069460548FCF7E2FB002801D0FCF773FBE8
:1042B00009B030BD000100506C0100200080F03ECC
:1042C00010B58CB030216846FBF7DAFF1649154867
:1042D00008600846FDF7B5F808B1FCF75CFB022062
:1042E000009000208DF804008DF8050002900390E6
:1042F00001240490CDE905040246079069460A4866
:10430000FCF792FF08B1FCF746FB1022694606480D
:104310000694FCF789FF002801D0FCF73CFB0CB0A9
:1043200010BD000000080050D80100202DE9F04F1A
:1043300087B014216846FBF7A3FF4048C16C41F0E9
:104340000401C164C16C01F004010591C16C41F02C
:104350002001C164C16C01F020010591C16C41F0E4
:104360000101C164C16C01F001010591C16C41F012
:104370000201C164C16C01F002010591C16C41F000
:104380000801C164C06CDFF8B88000F008004FF687
:10439000FF740590002221464046FDF716FA4FF4BF
:1043A00080764FF09049002231464846FDF70DFADD
:1043B000DFF890A0002204215046FDF706FADFF84E
:1043C00088B04FF44877002239465846FDF7FDF98A
:1043D0000125CDE900450024029469464046039436
:1043E000FDF70AF9CDE90054694648460294FDF705
:1043F00003F90720CDE90004694658460294FDF709
:10440000FBF80096CDE90154694648460394FDF750
:10441000F3F804200090CDE9015469465046039416
:10442000FDF7EAF80097CDE9015469465846039430
:10443000FDF7E2F807B0BDE8F08F00000010024081
:1044400000080048000C00480004004810B586B081
:1044500014216846FBF714FF1F4800241D490594EA
:10446000C0E900141F21816040F2E731C0E9031464
:1044700044610462FDF794FF08B1FCF78CFA122046
:104480008DF8000059208DF8010056208DF80200AB
:1044900001940394012269460F480494FEF72EF814
:1044A00008B1FCF778FA01208DF8140004208DF88B
:1044B00015008DF8160024208DF81700012205A99B
:1044C0000548FDF7C7FF002801D0FCF764FA06B0E5
:1044D00010BD000000280040EC01002010B588B09D
:1044E00000241848009401940294039404940594C1
:1044F00013490694016041F63F71C0E90114C910E7
:10450000C0E903148021C0E90541FEF73AF908B17A
:10451000FCF741FA4FF48050009069460948FEF7D5
:10452000CDF908B1FCF737FA049404A905480694BC
:10453000FEF7D8F8002801D0FCF72DFA08B010BD1E
:10454000004001404403002010B594B01C210DA888
:10455000FBF796FE34216846FBF792FE214820497E
:10456000002401604F21C0E9011440F2E731C0E9A5
:1045700003148021C0E90541FEF703F908B1FCF7F7
:104580000AFA1848FEF72EFE08B1FCF704FA60207C
:104590000D904FF4FA70CDE90E041094119412941A
:1045A00000220DA90F481394FEF78DFD08B1FCF70A
:1045B000F2F900944FF40050CDE9044001940294C4
:1045C00003940694694607480C94FEF731F808B145
:1045D000FCF7E1F90348FEF727FD14B010BD000019
:1045E000004401409003002010B594B01C210DA898
:1045F000FBF746FE34216846FBF742FE20481F4980
:10460000002401604F21C0E9011440F2F311C0E918
:10461000031444618461FEF7B4F808B1FCF7BBF9F8
:104620001748FEF7DFFD08B1FCF7B5F960200D90E3
:10463000FA20CDE90E0410941194129400220DA9D1
:104640000F481394FEF73FFD08B1FCF7A4F900945E
:104650004FF40050CDE90440019402940394069471
:10466000694607480C94FDF7E3FF08B1FCF793F99E
:104670000348FEF7D9FC14B010BD0000004801400B
:10468000DC03002010B588B0002418480594069477
:1046900004940094019402944FF0804103940160CB
:1046A0004F21C0E90114611EC0E903148461FEF7C3
:1046B000B4FA08B1FCF76FF9049404A90B48069406
:1046C000FEF710F808B1FCF766F90120CDE90040CB
:1046D00002940022694605480394FEF717FA002861
:1046E00001D0FCF758F908B010BD000014020020FA
:1046F00010B588B0002419480594069404940094D9
:10470000019402941449039401604F21C0E90114FB
:104710004FF6FF71C0E903148461FEF77EFA08B119
:10472000FCF739F9049404A90C480694FDF7DAFF64
:1047300008B1FCF730F90120CDE9004002940022D5
:10474000694606480394FEF7E1F9002801D0FCF71A
:1047500022F908B010BD00000004004060020020F3
:1047600010B58AB00024079408941C216846099467
:10477000FBF786FD1648154901604F21C0E9011479
:104780001321C0E9031480218161FEF72BFD08B1DC
:10479000FCF701F9079407A90D480994FDF7A2FF5A
:1047A00008B1FCF7F8F86020CDE900040294042277
:1047B000694607480494FEF786FC08B1FCF7EBF85D
:1047C0000348FEF731FC0AB010BD000000080040AD
:1047D000AC0200203EB500240F48009401940D491E
:1047E0000294016041F63F71C0E90114C910C16033
:1047F00080218161FDF7C5FF08B1FCF7CCF800947A
:10480000694605480294FDF76DFF002801D0FCF7CA
:10481000C2F83EBD00140040F8020020184810B550
:10482000164901604FF416514160002181600C224D
:10483000C160C0E904128161C161016241628162AB
:10484000FEF7C2FE08B1FCF7A6F800210C48FEF7FF
:10485000C3FD08B1FCF79FF800210948FEF796FD5B
:1048600008B1FCF798F80648FEF770FD002803D061
:10487000BDE81040FCF78FB810BD000000380140C3
:1048800028040020FEE77047144863210160006897
:10489000DFED130A401C00EE100A1049B8EE400A82
:1048A000083120EE200ABCEEC00A10EE100A0860A3
:1048B0000C48312101600068F6EE080A401C00EE49
:1048C000100A0849B8EE400A083120EE200ABCEE72
:1048D000C00A10EE100A0860704700002C44014026
:1048E0003333B33E2C480140704730B501210020DE
:1048F000FFF798FB4FF47A70FCF73FF80021012096
:10490000FFF790FB41F290711020FFF78BFB4FF403
:104910001C516020FFF786FB01216120FFF782FB1D
:1049200002214620FFF77EFB48F210011320FFF71B
:1049300079FB48F2FE011220FFF774FB4FF4A061EF
:104940000220FFF76FFB41F230010320FFF76AFB03
:1049500040F2033421463020FFF764FB214631202A
:10496000FFF760FB21463220FFF75CFBE51E29467E
:104970003320FFF757FB03213420FFF753FB214679
:104980003520FFF74FFB14213620FFF74BFB214664
:104990003720FFF747FB21463820FFF743FB21462E
:1049A0003920FFF73FFB29463A20FFF73BFB032165
:1049B0003B20FFF737FB21463C20FFF733FB4FF44A
:1049C000A0513D20FFF72EFB4FF400719220FFF71E
:1049D00029FB21469320FFF725FB40F60D0190208F
:1049E000FFF720FB41F218010320FFF71BFBBDE896
:1049F000304040F273110720FFF714BB10B543F2AB
:104A00000801E320FFF70EFB1221E720FFF70AFB66
:104A100041F23121EF20FFF705FB00210120FFF7D4
:104A200001FB4FF4E0610220FFF7FCFA41F2300194
:104A30000320FFF7F7FA00210420FFF7F3FA40F212
:104A400007210820FFF7EEFA00210920FFF7EAFA14
:104A500000210A20FFF7E6FA00210C20FFF7E2FA16
:104A600000210D20FFF7DEFA00210F20FFF7DAFA10
:104A700000211020FFF7D6FA07211120FFF7D2FA04
:104A800000211220FFF7CEFA00211320FFF7CAFA07
:104A9000C820FCF79FFD41F290611020FFF7C2FA99
:104AA00040F227211120FFF7BDFA3220FCF792FDDA
:104AB0001D211220FFF7B6FA3220FCF78BFD4FF4D0
:104AC00000611320FFF7AEFA14212920FFF7AAFA9C
:104AD0000B212B20FFF7A6FA3220FCF77BFD0021EB
:104AE0002020FFF79FFA00212120FFF79BFA0721E2
:104AF0003020FFF797FA40F207713120FFF792FA62
:104B000006213220FFF78EFA40F204713520FFF7BC
:104B100089FA41F604713620FFF784FA0421372020
:104B2000FFF780FA00213820FFF77CFA40F2067187
:104B30003920FFF777FA40F201713C20FFF772FA53
:104B40000F213D20FFF76EFA00215020FFF76AFA8F
:104B5000EF215120FFF766FA00215220FFF762FA99
:104B600040F23F115320FFF75DFA4FF41C516020D3
:104B7000FFF758FA01216120FFF754FA00216A205B
:104B8000FFF750FA00218020FFF74CFA0021812026
:104B9000FFF748FA00218220FFF744FA0021832022
:104BA000FFF740FA00218420FFF73CFA002185201E
:104BB000FFF738FA10219020FFF734FA00219220F5
:104BC000FFF730FA03219320FFF72CFA4FF4887196
:104BD0009520FFF727FA00219720FFF723FA0021FD
:104BE0009820FFF71FFA41F218010320FFF71AFA85
:104BF000BDE8104040F273110720FFF713BA010916
:104C000001EB810100F00F0000EB4100C0B27047E2
:104C10000022014602E00A39C9B2521C0A29FAD21E
:104C2000100741EA106070472DE9F047104C8146AB
:104C300000252068400618D4206840F080002060DD
:104C4000FCF7C8FD06464FF47A78032708E000BF5A
:104C5000FCF7C0FD801B404502D9032589F825706B
:104C60002068400601D4032DF2D12846BDE8F08724
:104C70000C2800402DE9F041064613480025016844
:104C800021F080010160104C0C3420684FF00307C4
:104C9000800607D43046FDF799FC90B186F8257060
:104CA00003250EE0206820F0200020603046FDF74C
:104CB0008DFC10B186F825700325206840F0200097
:104CC00020602846BDE8F0810C28004010B5002285
:104CD00005490648FDF736FBBDE8104000220449AF
:104CE0000248FDF70BBB000088000020EC0100200B
:104CF0001C00002009490A6809488369D21A322A2F
:104D00000AD3096881614178002905D000214170EA
:104D100064210448FBF7B4BA704700007C0000200F
:104D2000080000209C00002008B1044801E003486E
:104D30001030016841F040010160704718040048DC
:104D400010B580210348FCF73BFD012800D000206E
:104D500010BD00000004004800B585B0142168466D
:104D6000FBF78EFA80200090002001900120029035
:104D70000220039069460248FCF73EFC05B000BDE6
:104D80000004004808B1044801E0034810300168FD
:104D900041F08001016070471804004800B585B0FB
:104DA00014216846FBF76CFA8020009011200190D6
:104DB000002002900220039069460248FCF71CFC88
:104DC00005B000BD000400487047FCF709BD0000B5
:104DD00030B5A5B038216846FBF752FA14211FA858
:104DE000FBF74EFA44210EA8FBF74AFA4FF4007580
:104DF0002846FCF78BFD0A200090681003904020A5
:104E00000490012002210590079108911420CDE91A
:104E100009100B910C9168460D91FDF769F80F2070
:104E20001F9000240320CDE92004014622941FA8EE
:104E30002394FCF70DFF0548CDE90E044007CDE9AA
:104E40001D050EA8FCF7C0FD25B030BD018008008F
:104E50000548016841F47001016003494FF00060AA
:104E6000803908607047000088ED00E00148FDF7D8
:104E7000DDBF0000440300200148FDF7D7BF00005C
:104E8000140200200148FDF7D1BF0000600200209D
:104E90000148FCF7A2BA0000D80100202DE9F04338
:104EA0000268234B234D244E244C4FF080499842F6
:104EB00007D0484505D0A84203D0B04201D0A04257
:104EC00003D122F070074A683A431D4FDFF874C0DF
:104ED000DFF8748098420DD048450BD0A84209D025
:104EE000B04207D0A04205D0B84203D0604501D0FF
:104EF000404503D122F44075CA682A434D6922F027
:104F000080022A4302608A68C2620A68826298420A
:104F100007D0A04205D0B84203D0604501D040453B
:104F200001D10969016301214161BDE8F0830000FD
:104F3000002C014000040040000800400034014003
:104F400000400140004401400048014010B501F01C
:104F50001F030121046A99408C430462016A9A404C
:104F60001143016210BD10B5846842EA032224F4A3
:104F70007F440A432243826010BD00008268034BD5
:104F80001A400A4342F00701816070478FFFCFFF4C
:104F90002DE9F043026A22F001020262056A4368C9
:104FA00082691C4C25F0020522400C6822F00302A5
:104FB00014438A68194E2A43174D194FDFF864C00D
:104FC000DFF86490A84207D0B04205D0B84203D0C1
:104FD000604501D0484506D122F00808CA6842EA77
:104FE000080222F00402A84207D0B04205D0B8421D
:104FF00003D0604501D0484505D14D6923F4407385
:105000001D438B692B43436084614968416302629D
:10501000BDE8F0838FFFFEFF002C0140003401400B
:10502000004001400044014000480140F0B5026AE0
:1050300022F010020262056A42688369194C1B4E15
:1050400023400C6823F4407343EA042425F0200332
:105050008D6843EA0513144DA84201D0B04206D131
:10506000CF6823F0800343EA071323F04003A842EC
:105070000AD0B04208D00E4DA84205D00D4DA8422E
:1050800002D00D4DA84207D14D6922F4406242EA98
:1050900085028D6942EA85024260846149688163C4
:1050A0000362F0BDFF8FFFFE002C01400034014081
:1050B000004001400044014000480140F0B5026A50
:1050C00022F480720262056A4368C269194C1B4E61
:1050D00022400C6822F00302144325F400728D680C
:1050E00042EA0522144DA84201D0B04206D1CF6851
:1050F00022F4006242EA072222F48062A8420AD027
:10510000B04208D00E4DA84205D00E4DA84202D0A4
:105110000D4DA84207D14D6923F4405343EA0513CE
:105120008D6943EA05134360C4614968C163026243
:10513000F0BD00008FFFFEFF002C01400034014055
:10514000004001400044014000480140F0B5026ABF
:1051500022F480520262056A4268C369194C1B4EF0
:1051600023400C6823F4407343EA042425F40053DD
:105170008D6843EA0533144DA84201D0B04206D1F0
:10518000CF6823F4004343EA073323F48043A84263
:105190000AD0B04208D00E4DA84205D00D4DA8420D
:1051A00002D00D4DA84207D14D6922F4404242EA97
:1051B00085128D6942EA85124260C46149680164C2
:1051C0000362F0BDFF8FFFFE002C01400034014060
:1051D00000400140004401400048014030B5026AEF
:1051E00022F480320262046A4268036D114D2B4042
:1051F0000D681D4324F400330C8943EA04430E4C2C
:10520000A0420BD00D4CA04208D00D4CA04205D0BE
:105210000C4CA04202D00C4CA04204D14C6922F4A8
:10522000803242EA04224260056549688164036273
:1052300030BD00008FFFFEFF002C01400034014014
:1052400000400140004401400048014030B5026A7E
:1052500022F480120262046A4268036D114D24F444
:1052600000142B400D6843EA05230D8944EA0554D8
:105270000D4DA8420BD00D4DA84208D00C4DA842B0
:1052800005D00C4DA84202D00B4DA84204D14D6967
:1052900022F4802242EA8522426003654968C164A3
:1052A000046230BDFF8FFFFE002C0140003401403E
:1052B00000400140004401400048014010B5036A2D
:1052C000046A24F001040462846924F0F00444EACE
:1052D000021423F00A020A438461026210BD000036
:1052E00070B5046A24F0010404628469056A124EF0
:1052F000B0420ED0B0F1804F0BD0104EB04208D06B
:105300000F4EB04205D00F4EB04202D00E4EB0420A
:1053100003D124F00304144301E044F001041A070C
:1053200024F0F00444EA126225F00A0301F00A01B5
:1053300019438261016270BD002C014000040040ED
:1053400000080040003401400040014010B5036AED
:1053500023F0100303628369046A23F4704343EA71
:10536000023224F0A00343EA01118261016210BD00
:1053700030B5046A24F0100404628469056A24F4D8
:10538000407444EA022222F470444FF6FF7202EAAB
:1053900003322243A02425F0A00304EA011119439B
:1053A0008261016230BD00003FB514A1D1E9002146
:1053B000CDE9002113A2D2E90012CDE90212416E1B
:1053C000B9B1026891689268C1F34261520F1DF849
:1053D0000240E50002ACA25CB5FBF2F2A0F86A2044
:1053E0001DF80120615CD200B2FBF1F1A0F8681059
:1053F0003FBD0121A0F86A10F8E700000101010398
:1054000007010000080402040801010190F82810B7
:10541000C90706D001684A68C36A22F400321A43F9
:105420004A6090F82810890706D501684A68036B1E
:1054300022F480321A434A6090F82810490706D5B2
:1054400001684A68436B22F480221A434A6090F84C
:105450002810090706D501684A68836B22F40042C8
:105460001A434A6090F82810C90606D501688A6870
:10547000C36B22F480521A438A6090F82810890680
:1054800006D501688A68036C22F400521A438A60C8
:1054900090F82810490611D501684A68436C22F437
:1054A00080121A434A60416CB1F5801F06D1016831
:1054B0004A68836C22F4C0021A434A6090F82810AC
:1054C000090606D501684A68C06C22F4002202432E
:1054D0004A607047F8B500260446C0F88860FCF7BB
:1054E00079F90546206800686FF07E47000708D507
:1054F0002B4600224FF400112046009700F009FDD2
:1055000060B92068006840070AD52B4600224FF496
:1055100080012046009700F0FCFC08B10320F8BD94
:105520002020C4F88000C4F8840084F87C60002047
:10553000F8BD10B5806A0021A0F85E10A0F85610E2
:10554000FDF772FF10BD000001680A6822F4907236
:105550000A6001688A68044B1A408A602021C0F8FA
:1055600084100021C1667047FEFFFFEF10B5B0F850
:105570006020D0F884300168222B04D0886940F084
:105580000800886110BD496A836D11401980816DE2
:10559000891C8165B0F85E10491EA0F85E10B0F855
:1055A0005E100029EED101680A6822F490720A6048
:1055B00001688A6822F001028A602021C0F8841004
:1055C0000021C166FEF7EEF810BD000070B504467C
:1055D000B0F86060D0F88400222805D02068816986
:1055E00041F00801816170BDB4F8685023E0206883
:1055F000406AA16D30400880A06D801CA065B4F8A1
:105600005E00401EA4F85E00B4F85E0088B9206811
:10561000016821F48071016020688168114A11409D
:1056200081602020C4F884000020E0662046FEF758
:10563000B9F86D1EADB2002DD9D1B4F85E000028C6
:10564000D1D0B4F868108142CDD92068816821F0AA
:10565000805181600448E0662068016841F02001C3
:10566000016070BDFEFFFFEF6D55000810B5B0F88A
:105670006020D0F884300168222B04D0886940F083
:105680000800886110BD496A1140826D1170816DFA
:10569000491C8165B0F85E10491EA0F85E10B0F894
:1056A0005E100029EED101680A6822F490720A6047
:1056B00001688A6822F001028A602021C0F8841003
:1056C0000021C166FEF76EF810BD000070B50446FB
:1056D000B0F86060D0F88400222805D02068816985
:1056E00041F00801816170BDB4F8685023E0206882
:1056F000406AA16D30400870A06D401CA065B4F8F0
:105700005E00401EA4F85E00B4F85E0088B9206810
:10571000016821F48071016020688168114A11409C
:1057200081602020C4F884000020E0662046FEF757
:1057300039F86D1EADB2002DD9D1B4F85E00002845
:10574000D1D0B4F868108142CDD92068816821F0A9
:10575000805181600448E0662068016841F02001C2
:10576000016070BDFEFFFFEF6D5600082DE9F05F90
:105770000446016880682369E56918436369002766
:105780002B431843636EFA4A03430868F94D2840D7
:105790001843086020684168E36821F440511943C8
:1057A00041602168A069914201D0236A18438B6847
:1057B000F14D2B4003438B602068C16A636A21F07E
:1057C0000F011943C162ED4B2068ED4998420DD19C
:1057D000D1F8881011F0030106D001295AD002290E
:1057E00056D003293FD157E001253DE0E54B9842D3
:1057F0000BD1D1F8881011F00C0147D0042949D001
:10580000082945D00C292ED146E0DF4B98420BD118
:10581000D1F8881011F0300138D010293AD0202961
:1058200036D030291FD137E0D84B98420BD1D1F870
:10583000881011F0C00129D040292BD0802927D011
:10584000C02910D128E090420DD1D1F8881011F470
:1058500040611BD0B1F5806F1CD0B1F5006F17D03F
:10586000B1F5406F18D01025DFF824A34FF48076EF
:105870004FF000094FF4004B90426ED175B1022DEC
:1058800029D0042D59D0082D68D176E00025EBE70A
:105890000225E9E70425E7E70825E5E7FCF7CCFA68
:1058A0004DE0012851D0022851D0032851D00428BE
:1058B00051D0052853D0062853D0072853D00828A4
:1058C00053D0092853D00A2853D00B2853D03AE09C
:1058D000B1FBF0F06CE0606AA8B1012817D0022893
:1058E00017D0032817D0042817D0052817D006286A
:1058F00017D0072817D0082817D0092817D00A284A
:1059000017D00B2817D00120BAFBF0F050E002208E
:10591000FAE70420F8E70620F6E70820F4E70A2073
:10592000F2E70C20F0E71020EEE72020ECE7402023
:10593000EAE78020E8E73046E6E7FCF7A1FA01460F
:10594000606A0028ADD10120C2E70220C0E7042030
:10595000BEE70620BCE70820BAE761E14AE00A207A
:10596000B6E70C20B4E71020B2E72020B0E74020D3
:10597000AEE78020ACE73046AAE7606AA8B101280C
:1059800022D0022822D0032822D0042822D00528A1
:1059900022D0062822D0072822D0082822D0092881
:1059A00022D00A2822D00B2822D00120BBFBF0F005
:1059B000002820D06168884601EB4101814219D856
:1059C000B0EB083F16D817E00220EFE70420EDE720
:1059D0000620EBE70820E9E70A20E7E70C20E5E7E7
:1059E0001020E3E72020E1E74020DFE78020DDE72B
:1059F0003046DBE7012739E27DB3022D61D0042D6B
:105A00007DD0082DF6D1606AA8B1012878D002288F
:105A100077D0032876D0042875D0052874D00628BE
:105A200073D0072872D0082871D0092870D00A28AE
:105A30006FD00B2800D0012632464D460023584631
:105A40000021FAF7E5FB090241EA106102024FEA80
:105A5000580010186941424670E0FFE7FCF7ECF986
:105A60000146606AA8B1012817D0022817D0032880
:105A700017D0042817D0052817D0062817D00728D4
:105A800017D0082817D0092817D00A2817D00B28B4
:105A900000D0012632464D468CE00226FAE7042665
:105AA000F8E70626F6E70826F4E70A26F2E70C26CA
:105AB000F0E71026EEE72026ECE74026EAE780260E
:105AC000E8E7606AA8B1012824D0022824D003287E
:105AD00024D0042824D0052824D0062824D0072840
